:020000041000EA
:1000000000B5324B212058609868022188439860DF
:10001000D860186158612E4B002199600221596106
:100020000121F02299502B49196001219960352056
:1000300000F044F80222904214D00621196600F024
:1000400034F8196E01211966002018661A6600F04E
:100050002CF8196E196E196E052000F02FF8012189
:100060000842F9D1002199601B49196000215960AB
:100070001A491B48016001219960EB211966A021F2
:10008000196600F012F800219960164914480160C1
:100090000121996001BC002800D000471248134993
:1000A000086003C880F30888084703B5996A0420EC
:1000B0000142FBD001200142F8D103BD02B5186610
:1000C0001866FFF7F2FF186E186E02BD00000240BE
:1000D000000000180000070000035F00212200005C
:1000E000F4000018222000A00001001008ED00E03C
:1000F00000000000000000000000000074B24E7A12
:1001000000200420F7010010C3010010C5010010F9
:10011000C1010010C1010010C1010010C101001097
:10012000C1010010C1010010C1010010C701001081
:10013000C1010010C1010010C9010010CB01001065
:10014000CD010010CD010010CD010010CD01001037
:10015000CD010010CD010010CD010010CD01001027
:10016000CD010010CD010010CD010010CD01001017
:10017000CD010010CD010010CD010010CD01001007
:10018000CD010010CD010010CD010010CD010010F7
:10019000CD010010CD010010CD010010CD010010E7
:1001A000CD010010CD010010CD010010CD010010D7
:1001B000CD010010CD010010CD010010CD010010C7
:1001C00000BE00BE00BE00BE00BE00BEEFF3058054
:1001D000103800BEF2EB887188FF0010B0FF0010ED
:1001E0003402001090A31AE700201F49086006C8D7
:1001F00081F3088810471D48006800282FD10DA4FE
:100200000ECC002902D000F012F8F9E71849194A7B
:10021000002000E001C19142FCD1174988471749ED
:1002200088471749884700BEFDE701C901C29A42C5
:10023000FBD37047B0FF0010C00000205C17002007
:100240004C16011000000420000004204C16011080
:10025000001004200010042000000000704709482E
:1002600007F0ECFC0047000008ED00E0000000D0C3
:1002700060170020382B0020956900106D2F0010AA
:10028000516900105756000006005250ABB360533E
:100290008CF7001006005250861C03029CF70010D9
:1002A000060052505422A29DA8F70010050052509B
:1002B000DE65F4684C160110F8B5C0460448054BDD
:1002C00010B5834203D0044B002B00D0984710BDDB
:1002D0005C1700205C17002000000000064807495A
:1002E000091A8B10C90FC91810B5491003D0044B57
:1002F000002B00D0984710BD5C1700205C17002031
:100300000000000010B5074C2378002B09D1FFF73F
:10031000D5FF054B002B02D0044800E000BF0123AD
:10032000237010BDA01800200000000088C5001038
:10033000054B10B5002B03D00449054800E000BF71
:10034000FFF7CCFF10BDC04600000000A41800203D
:1003500088C50010D0231B065B68C34001201840ED
:10036000704701238340D022120653629361704785
:1003700001238340D022120653629361704710B567
:10038000040006F0D7F80123A340D022120693629E
:1003900010BD10B5040006F0CDF80123A340D02213
:1003A0001206936210BDF8B5CE46474680B50C00E4
:1003B00003789946437898468768002515E04846B3
:1003C000FFF7D6FF4046FFF7E4FFFE173800310085
:1003D00004F0CAFF4046FFF7C4FF6400E4B23800EF
:1003E000310004F0C1FF0135EDB2072D06D863B22C
:1003F000002BE4DA4846FFF7C2FFE3E74846FFF781
:10040000BEFF4046FFF7C5FFFD173800290004F086
:10041000ABFF4846FFF79EFF04004046FFF7A1FFF1
:100420003800290004F0A0FF4846FFF7A1FF002C88
:1004300004D10120C0BCB946B046F8BD0020F9E7A0
:10044000F8B5060014001700012000E02900002F75
:100450000AD0012808D14D1C09783000FFF7A3FF0E
:100460000128F3D1013FF1E7012801D00020F8BDB8
:10047000E01BFCE770B505000C0016000078FFF7E4
:1004800077FFA868002104F06FFF6878FFF769FF25
:100490006100C9B2002E01D00131C9B22800FFF7B6
:1004A00082FF70BD10B504000078FFF761FFA068FF
:1004B000002104F059FF6078FFF76BFFA06800216E
:1004C00004F052FF2078FFF75AFFA068002104F0E3
:1004D0004BFF10BDF8B506000F000078FFF74FFF87
:1004E0000025002404E07078FFF73BFF0134E4B2FC
:1004F000072C11D8B068002104F036FF7078FFF7A0
:1005000048FF6D00EDB23078FFF724FF0028EAD0F5
:1005100001231D43EDB2E6E7002F15D03078FFF739
:100520002EFF7078FFF735FFB068002104F01CFF44
:100530007078FFF716FFB068002104F015FF3078DF
:10054000FFF716FF2800F8BD3078FFF711FFE8E746
:1005500070B506000C0008E069426941C9B230007C
:10056000FFF7B8FF20702A000134551E002AF3D18E
:1005700070BD000070B504000D0000280AD083781B
:10058000002B08D100789F281BD9234B9D4228D9E6
:100590000023A36070BD214804F03CF820780321BB
:1005A00005F096FF6078032105F092FF2078002285
:1005B000012105F0A5FF60780022012105F0A0FFD0
:1005C000E8E705F0B7FF607805F0B4FF2278012373
:1005D00019009140D0221206916261788B4093629B
:1005E000D3E70F4B9D4202D90123A360D2E70D4B05
:1005F0009D4202D90223A360CCE70B4B9D4202D956
:100600000A23A360C6E72900084807F06BFB000433
:10061000000CA060BEE7C0463F420F00FC0D00206A
:10062000FF340C007F1A06009F86010040420F0035
:1006300030B585B004008578002D0BD10022FFF77E
:1006400019FF002800D001252000FFF72BFF28000C
:1006500005B030BD0023009301330F226A440348E4
:1006600004F034F8C543ED0FF1E7C046FC0D00205F
:10067000F0B583B0040017001E008378002B0BD167
:100680000022FFF7F7FE0500012811D02000FFF738
:1006900009FF280003B0F0BD012300933300084890
:1006A00004F008F8002801DB3500F2E70025F0E748
:1006B000320039002000FFF7C3FE0500E6E7C04620
:1006C000FC0D0020F0B585B006000F001D000F23C3
:1006D0006B441A708378002B0BD10022FFF7CAFEFF
:1006E000040001281AD03000FFF7DCFE200005B01E
:1006F000F0BD012300930F226A44154803F0DAFF8E
:10070000002802DAC043C40FF0E7002300930A9BDD
:100710002A0039000E4803F0D9FFF3E701220F2128
:1007200069443000FFF78CFE04000128DBD1300063
:10073000FFF7B8FE012239003000FFF79BFE0400EE
:100740000128D0D10A9A29003000FFF701FFCAE73B
:10075000FC0D002010B50C001300017810302200B1
:10076000FFF786FF10BD10B582B00C00D10109194A
:10077000C160002B25D0C378052B0BD0042B0FD0E4
:10078000062B20D0072B0CD11C348378002B08D1EA
:10079000033206E020348378002B02D1043200E0DB
:1007A000023401A900230B70503B1A434A705F3397
:1007B00023408B70241110231C43CC700422FFF7BC
:1007C000C9FF02B010BD8378002B01D02034E8E7C8
:1007D0000232E6E770B5A2B005000E00140001AACF
:1007E00040211170002B12D1686800280DD0EB68F1
:1007F0009C4660442200310008F078FAEB689C4681
:100800006444EC60A405A40DEC6022B070BD22002D
:1008100031006B46581D08F069FA621C01A92800D6
:10082000FFF798FFE0E70000F0B5C64600B584B0DA
:1008300004000D0017001E0000234360C170867085
:1008400043700B9B83740C9B03740D9B43746B4B25
:100850000E9A1A6001235B42694A1360694A136069
:100860001133984680440F994046FFF783FE7B1C66
:10087000012B01D9FF2F36D13C214046FFF7D8FE8E
:100880003C214046FFF7D4FE002822D03C232370B1
:100890000B276F4400233B702178013300933B000A
:1008A00000224046FFF70EFF3A780F2313403B70BB
:1008B000072B27D00F2B25D0082B3AD0002B38D070
:1008C000062B36D0033BDBB2012B36D901277F4202
:1008D0001EE03D214046FFF7ABFE002800D18AE034
:1008E0003D232370D4E7FFB2277039004046FFF75D
:1008F0009FFE39004046FFF79BFE0028C8D1012724
:100900007F4268E00123E37073425E41F6B2042740
:1009100023783D2B13D0022D13D0062D11D0012D9D
:100920002CD0072D30D0162237492000FFF712FFB8
:100930000CE00423E3700227EAE70027E8E7013729
:10094000E9E7182231492000FFF704FF0A9B002B3A
:1009500020D1002E29D18023A372403BE372062DC3
:1009600035D0022D3CD0012D3DD0052D3ED0072D98
:1009700031D14823A372203BE3722CE01622244994
:100980002000FFF7E7FEE1E71A2222492000FFF7E7
:10099000E1FEDBE700236A461373A7335373022299
:1009A00003A92000FFF7D6FED3E703AE0023337080
:1009B000A0337370022231002000FFF7CBFEC0236A
:1009C0007370022231002000FFF7C4FEC3E720331A
:1009D000A372503BE372380004B080BCB846F0BD4F
:1009E0002023E372F7E78023E372F4E74023A37246
:1009F000203BE372EFE701277F42ECE7001E002077
:100A0000F8180020F418002080C7001068C70010F4
:100A1000B4C7001098C70010002305E00278D24345
:100A2000027001300133DBB28B42F7D37047000014
:100A3000F0B5DE4657464E464546E0B58FB0040059
:100A40000D00511C03D0591C01D002724372217A4F
:100A5000A37A994200D3BDE3627AE37ADB089A4233
:100A600000D3BAE31B9B2000FFF77DFE199B012BEF
:100A700019D0199B042B77D0199B022B00D12EE1A2
:100A8000199B032B00D198E2199B002B00D0BFE3E8
:100A90000621280007F0FEF8199F2A000D00189B78
:100AA0009846160055E307272F4000262A003D00F0
:100AB000189B9846170014E0082104A8FFF7ACFF24
:100AC00031E000232372627A0132D2B262721B9B40
:100AD00000212000FFF747FE002500E00025083F29
:100AE0000136227AA37A9A4200D379E343469A5D8B
:100AF000002A00D176E3617AE37ADB08994200D3D9
:100B000072E3072FEBDC203AD100891A002304AAF4
:100B10001370C44A8918072204AB581C08F0E6F881
:100B20001A9B002BC8D10822531B9A46237A52469F
:100B30009918A27A914201DDD31A9A46290004AB92
:100B40009C4661441B9B52462000FFF743FE227ADD
:100B50005244D2B22272A37A073B9A42BEDB637838
:100B6000002BAED10025BAE70B332B40984600236B
:100B7000AA461D00189B99461B9B9B4646E01021E8
:100B800004A8FFF749FF6DE0102104A8FFF744FF18
:100B900082E0217A02325B462000FFF7E4FD31005B
:100BA0002031102204A808F0A1F81A9B002B06D1CE
:100BB0005B463A0041462000FFF70CFE76E010212C
:100BC00004A8FFF729FFF3E7217A03325B462000F0
:100BD000FFF7C9FD31003031102204A808F086F873
:100BE0001A9B002B06D15B463A0041462000FFF7D6
:100BF000F1FD5EE0102104A8FFF70EFFF3E70023EC
:100C0000984610235B429C46E2440135217AA07A43
:100C1000814200D3EAE2627AE37ADB08033B9A423C
:100C200000DBE5E24B465E5D002E00D1E2E253467A
:100C30000F2BE6DC203EF6B2B6017B4BF6181027F0
:100C40004346FF1ACB19834200DD471A5B4620005A
:100C5000FFF789FD1022310004A808F047F81A9B1D
:100C6000002B8CD104AB9C46E0445B463A004146E5
:100C70002000FFF7AFFD217A627A01325B46200047
:100C8000FFF771FD31001031102204A808F02EF892
:100C90001A9B002B00D077E75B463A0041462000C4
:100CA000FFF798FD627A052A00D872E7627A042A73
:100CB0008AD9237ADF19FFB22772A37A0F3B9F42AA
:100CC0009DDB6378002B07D000232372637A043303
:100CD00063720023984694E70023984691E70C211D
:100CE000280006F0D7FF039100230093AB4633E1C1
:100CF000062104A8FFF790FE55E19200D2B201331D
:100D0000032B0CDC08001841C00700D51643181D42
:100D10000C0004412000C007EFD51543EDE74C4619
:100D200004AB1E5563465E701D735D730137052F5E
:100D30000CDCFC1C6400A44604AB9946CC44D95D91
:100D40000322002500260023A146D9E70027C44638
:100D500001E0019C2700042F00DDAEE004ABDD5D67
:100D60007C1C1E5D03377F00984647440221012307
:100D70000020019423E0022858DC420001320124C3
:100D8000A146944062B27C78144364B2A0467C7061
:100D9000BC78224354B20294BC70441C6400A24646
:100DA0004C465246944062B2444614437C70029CC6
:100DB0001443BC705B00DBB24900C9B201300628A5
:100DC000C7DC2A001A401D4205D01E4203D10D4245
:100DD00001D10E42CFD1002A05D11E4203D00D42CF
:100DE00001D00E42C7D0002AE4D11E42E2D00D420B
:100DF000E0D00E42DED103284DDC420001329046A5
:100E0000012292461400424694407A7814437C7042
:100E1000421C5200544694402200BC782243BA70CF
:100E2000C8E7C046CCC700106CCA001003281ED00B
:100E3000021F520001320124A146944062B27C7B21
:100E4000144364B2A0467C73BC7B224354B2029428
:100E5000BC73C41E6400A2464C465246944062B223
:100E6000444614437C73029C1443BC73A2E77A7813
:100E7000904680225242444614437C70BC78224300
:100E8000BA70012290467A7B444622437A73BA7B39
:100E90002243BA738EE7021F520001320124A0469A
:100EA00094407A7B22437A73C21E52004446944097
:100EB0002200BC7B2243BA737CE764460C26039B6A
:100EC000F61A217A8A19A37A9A4200DD5E1A627AAA
:100ED0001B9B2000FFF747FC039DA91D04AB9C460C
:100EE00061441B9B32002000FFF774FC217A627A78
:100EF00001321B9B2000FFF736FC2900123104ABA6
:100F00009C4661441B9B32002000FFF763FC237A60
:100F10009E19F6B22672A37A0B3B9E4213DB6378CE
:100F2000002B02D1002303930FE000232372627A87
:100F30000232D2B262721B9B00212000FFF713FC29
:100F40000023039301E0002303930C235B429C46A0
:100F5000E344009B01330093227AA37A9A4200D3A0
:100F60004AE1627AE37ADB08013B9A4200DB45E121
:100F7000189B009A9B5C002B00D141E15A460B2A3A
:100F8000E3DC203BD9B28B005918A94BC9180023C8
:100F900004AA1370062204AB581C07F0A7FE1A9B84
:100FA000002B00D0A4E61822002104AB981D07F006
:100FB00097FE00231F00A046B9E60C332B409B464A
:100FC00000239A46D946AB467FE0082104A8FFF7E4
:100FD00023FDA1E09200D2B20133032B0CDC080008
:100FE0001841C00700D51643181D0C00044120000D
:100FF000C007EFD51543EDE7009C404604AB1E55F6
:1010000063465E701D745D740137072F0DDC3C1D57
:101010006400A44604AB9846C444D95D032200256D
:101020000026002300948046D7E7040010234A4698
:101030009B1A9846017ACA18837A9A4201DD5B1A94
:101040009846627A1B9B2000FFF78DFB49460831CA
:1010500004AB9C4661441B9B42462000FFF7BAFB51
:10106000217A627A01321B9B2000FFF77CFB494604
:10107000183104AB9C4661441B9B42462000FFF79D
:10108000A9FB237A4344DBB22372A27A0F3A93423C
:1010900013DB6378002B02D1002399460FE0002375
:1010A0002372627A0232D2B262721B9B002120004C
:1010B000FFF759FB0023994601E0002399465B4660
:1010C000103B9B46534601339A46227AA37A9A42B2
:1010D00000D397E0627AE37ADB08013B9A4200DBB7
:1010E00092E0189B52469B5C002B00D18EE05A4642
:1010F0000F2AE4DC203BDBB2D900C91A4D4BC918DA
:10110000002304AA1370072204AB581C07F0EEFD5D
:101110001A9B002B00D058E72022002106A807F0D8
:10112000DFFD0027200070E7062104A8FFF774FC0C
:101130002FE000232372627A0132D2B262721B9BCB
:1011400000212000FFF70FFB199D00E0199D063ECE
:101150000137227AA37A9A425DD2627AE37ADB0877
:101160009A4260D24346DB5D002B5ED0052EEEDC5A
:10117000203BD9B2002304AA13708B0059182C4BC2
:10118000C918052204AB581C07F0B0FD1A9B002BB0
:10119000CAD10622531B9A46237A52469918A27A3C
:1011A000914201DDD31A9A46290004AB9C46614462
:1011B0001B9B52462000FFF70DFB227A5244D2B20D
:1011C0002272A37A053B9A42C0DB6378002BB0D130
:1011D000199DBCE7012040421EE0012040421BE077
:1011E000002019E0002017E0002015E0002013E0A7
:1011F000002011E000200FE000200DE000200BE0B7
:10120000002009E0002007E0002005E0002003E0C6
:101210000120404200E019980FB0F0BCBB46B24636
:10122000A946A046F0BD1998F6E71998F4E7C0461C
:1012300088C50010CCC70010F0B5D6464F464646CC
:10124000C0B584B005008A461600C37ADB0899460B
:10125000877A3F091022684607F042FD00236B722F
:101260002B72984610E03300102269462800FFF7E1
:10127000B1FA0134E4B2BC42F5D3EB78072B0DD0C0
:1012800043460133DBB29846C8450ED2330042468E
:1012900000212800FFF767FA0024ECE7330008225A
:1012A00069462800FFF796FAEAE76868002806D042
:1012B000AB7AEA7A5A43D210514607F011FD04B0D6
:1012C000E0BCBA46B146A846F0BD416070477047E1
:1012D00070B504000E00C06807F0F6FCE27D237DC7
:1012E0009A4221D004257543ADB2A580280007F0AD
:1012F000D9FCE060002819D02A00002107F0F0FC9A
:101300006680A36A002B0ED0206907F0DDFCA5885B
:10131000280007F0C7FC206100280BD02A0000211C
:1013200007F0DEFC668070BD0325DCE70023A380A8
:101330006380E6E70023A3806380F4E770B5C37D94
:10134000027D9B1A5A425341DCB28B09032213409F
:10135000C3750D09154005758E08164046750A407F
:1013600082750022FF268E4252410270C268002A16
:1013700005D05B1B5A425341DBB29C4200D170BD89
:101380004188FFF7A5FFFAE7F0B5CE46474680B59E
:1013900087B005000F000021A4480AF0C3FA04003A
:1013A000431C06D0A24B1B68013300D193E09F4B36
:1013B0002B62631C00D19CE09D4B1B68013300D164
:1013C00097E0631C00D1B5E0994B1868431C00D12D
:1013D000ABE02E6A974B9E4200D1AFE000239649C6
:1013E0009B005A5801325A503FB2EF80A0466C62BF
:1013F0002B78002B00D1AAE08E4B9E4200D19FE0BB
:1014000004008A4B9E4200D19DE00721380005F080
:101410005FF8012300933A00414630000AF0FCFADD
:101420001022002102A807F05BFC80235B020293DC
:10143000F8235B0203938020C0020490C0231B03A7
:101440000493E31CE201190313000B43039380226E
:101450009205059279490B400393BF023A430592E6
:10146000774B034304938022D20513430493052052
:1014700005F028F807F0EEFA724907F096FA81466F
:1014800007F042FB87B2002F5FD0380007F0E2FA86
:10149000011C484607F07FFA8721C90507F09BFA2F
:1014A00007F032FBC0B200023F040743029702ABD1
:1014B0002200414630000AF001FB32680123414618
:1014C0008B409A431343336001236B7007B0C0BC59
:1014D000B946B046F0BD5C4954480AF041FA0028CC
:1014E00000D164E7584951480AF04EFA504B186051
:1014F0005DE700214F480AF015FA0400431C00D1B3
:101500005FE7524B1B68013302D04A4B2B6258E70E
:101510004D4948480AF024FA0028F6D04A49434881
:101520000AF032FA494B1860EFE7484B1B68013369
:1015300000D04EE701235B426B62C7E701234EE711
:10154000424B1C685DE7062160E70020ABE7394BA2
:101550009E4263D00400354B9E4262D00721380082
:1015600004F0B6FF012300933A00414630000AF030
:1015700053FA1022002102A807F0B2FB80235B027D
:101580000293F8235B0203938020C0020490C023DF
:101590001B030493E31CE201190313000B430393A1
:1015A000802189050591254A13400393BF020F430B
:1015B0000597234B184304908023DB0518430490C0
:1015C000052004F07FFF07F045FA214907F0EDF907
:1015D000814607F099FA87B2002F24D0380007F02F
:1015E00039FA011C484607F0D6F98721C90507F0EA
:1015F000F2F907F089FAC0B200023F0407430297EC
:1016000002AB2200414630000AF058FA326801234A
:1016100041468B409A431343336055E70B4B1C689C
:1016200099E706219BE70020E6E7C046000020502E
:10163000C00D002000003050041E0020FFFFFF9F5F
:10164000000002100024F44A08E30010C40D00203A
:101650000024744AF0B5C64600B586B00C00C180BF
:10166000056A744B9D425BD000230278002A00D1AA
:1016700072E0466A002B55D16F4B1F686F4B9D423D
:1016800053D00721200004F023FF01230093220000
:10169000310028000AF0C0F91022002102A807F04A
:1016A0001FFB80235B020293F8235B0203938020DD
:1016B000C0020490C0231B030493FB1CFA0119030E
:1016C00013000B4303938022920505925C490B4063
:1016D0000393A402224305925A4B034304938022AE
:1016E000D20513430493052004F0ECFE07F0B2F991
:1016F000554907F05AF9804607F006FA84B2002CE3
:1017000015D0200007F0A6F9011C404607F043F968
:101710008721C90507F05FF907F0F6F9C0B207E0C5
:101720000123A2E7494B1F68A8E70621AAE700208A
:10173000000224040443029402AB3A003100280062
:101740000AF0BCF92A680123B3409A4313432B6083
:1017500006B080BCB846F0BD466A002B53D1364B6C
:101760001F68364B9D4251D00721200004F0B0FE87
:10177000012300932200310028000AF04DF91022C5
:10178000002102A807F0ACFA80235B020293F82341
:101790005B0203938020C0020490C0231B030493C8
:1017A000FB1CFA01190313000B43039380218905E5
:1017B0000591234A13400393A4020C430594214B43
:1017C000034304938022D20513430493052004F0BD
:1017D00079FE07F03FF91E4907F0E7F8804607F069
:1017E00093F984B2002C13D0200007F033F9011CC8
:1017F000404607F0D0F88721C90507F0ECF807F05C
:1018000083F9C0B205E0114B1F68AAE70621ACE7D7
:101810000020000224040443029402AB3A00310089
:1018200028000AF04BF92A680123B3409A43134376
:101830002B608DE700003050C00D002000002050CC
:10184000FFFFFF9F000002100024F44AC40D002097
:101850000024744AF8B5050016001C004378002BDC
:1018600018D06B6A01331AD0671E002C17D0286A73
:101870006C6A731C9C46367836064268210010312B
:1018800001238B401342F8D10434A40026503C00BD
:101890006646E9E7FFF778FD01236B70E1E7F8BDE5
:1018A00010B582B0C268002A05D083888179047897
:1018B0000094FFF7CFFF02B010BD000010B5040088
:1018C00082880021C06807F00BFA2000FFF7E8FFCC
:1018D000142003F075FDE06807F0F6F9206907F0C1
:1018E000F3F9616A206A0AF00DF8206A134B9842F6
:1018F00019D00022124992005358013B5350002B3B
:101900000FD10E4B984210D00E4B1A680E490AF0B8
:1019100057F80A4B226A9A420AD00A4B01225242D5
:101920001A60200010BD0122E4E7084B1A68EDE7B9
:10193000064B012252421A60F3E7C04600003050C5
:10194000041E0020C00D002008E30010C40D00207C
:1019500010B54378002B01D1C18010BD8179FFF70C
:1019600079FEFAE7F8B504000D0017001E0000200C
:1019700060702072E0602061A062E06220636063BA
:1019800003F0D2FD00290FDBA061E16139002000E6
:10199000FFF7DEFF31002000FFF7D0FC2900200018
:1019A000FFF796FC2000F8BD024B034A3F21034895
:1019B00004F0D2FF6CE2001088E20010C0E20010D8
:1019C000F0B5D6464F464646C0B5040016001D0089
:1019D00008AB1B78984609AB187863888B423FD9CF
:1019E000277A002F09D07E43360A7D432D0A4346CD
:1019F0007B431B0A98467843000AA36A002B34D025
:101A0000E37D227D934247D08F0022699146B944FD
:101A1000E268944667444A46D054E37D9A46BA4405
:101A2000636B984753461870237D4A46D654637DAE
:101A3000D554A37D4146D154237D9946B944300005
:101A4000A36A98474B461870667DBE192800E36A62
:101A500098473070236BA17D7F18404698473870B7
:101A6000E0BCBA46B146A846F0BDE37D227D934274
:101A70000CD08900E26894466144C854237DCE545A
:101A8000637DCD54A37D4246CA54E9E74B00591803
:101A9000E3689C466144F1E74F007F18236999464B
:101AA000B944E3689C466744BEE730B583B0140090
:101AB000150E120CD2B2230ADBB2E4B201950094E7
:101AC000FFF77EFF03B030BDF8B5CE46474680B580
:101AD000040043888B4200D886E0836A002B14D030
:101AE000C27D037D9A4270D08900006984466144BA
:101AF000885C0006CB5C1B041843637DCB5C1B0237
:101B00001843A37DCB5C18436FE0C37D077DBB42C8
:101B100026D08E00C26894466644027A9046002A17
:101B200046D0F05C0002110006F0DCF8030699468E
:101B3000F05D0002414606F0D5F805044B461D4312
:101B4000637DF05C0002414606F0CCF800020543DC
:101B5000A37DF05C0002414606F0C4F8284344E04F
:101B60004B005918C3685E18037A9846002B15D0AD
:101B7000F05D0002190006F0B5F80504637DF05C25
:101B80000002414606F0AEF800020543A37DF05C7A
:101B90000002414606F0A6F8284326E0F05D000466
:101BA000637DF35C1B021843A37DF35C18431CE0C8
:101BB000F05C0006F35D1B041843637DF35C1B02BD
:101BC0001843A37DF35C18430FE04A0051180269E3
:101BD00094466144C85C0004637DCB5C1B021843DF
:101BE000A37DCB5C184300E00020C0BCB946B046E2
:101BF000F8BDF0B5C64600B504000F0016001D0084
:101C00004088226953425341421E9041184206D1F6
:101C1000A762E6622563069B6363002515E0A3883F
:101C20009846180007F03EF820614246E16807F048
:101C30005DF8EDE7AEB231002000FFF745FF02008E
:101C400031002000FFF731FF01356388AB42F1DC42
:101C500080BCB846F0BD10B50300C0689A8800216A
:101C600007F03EF810BD0000014B185C7047C046FD
:101C70003CE6001010B504008020FFF7F5FF60433C
:101C80000012C0B210BD00001D4B1B68002B23D1F9
:101C90001B4B14221A601B4A1368013B1360002B74
:101CA0001EDB194A1368013B1360002B1CDD174B28
:101CB0001B78002B0ED0164A136801331360072BD4
:101CC00002DD130007221A60124A1368013B1360F9
:101CD000002B10DB01207047013B094A1360DAE753
:101CE000130000221A60DCE70B4B01221A60064B3E
:101CF00009321A60DBE7130000221A60EAE7C046E7
:101D000068280020C82A0020402800200C2B002032
:101D1000BC280020E42A0020F02A002070B5D54A13
:101D200080235B00D35C2B2B00D855E1D24B1D6880
:101D30002C79642C00D899E02300643B1802C01A67
:101D4000642105F0A7FFCD4B1860642C00D891E00A
:101D5000643C2002001B6421494205F09BFFFF30D8
:101D6000C64B58602B79632B00D98FE06420C01AD2
:101D70000302181A642105F08DFFC04B98606C793E
:101D8000642C00D886E02300643B1802C01A64214A
:101D900005F080FFBA4B1860642C7FD9643C2002A8
:101DA000001B6421494205F075FFFF30B44B5860B9
:101DB0006B79632B7ED86420C01A0302181A642141
:101DC00005F068FFAE4B9860AC4908684B688968BD
:101DD0000004FF26360430401B061A0C0243FF2481
:101DE00021400A43A74D03212800FFF75EFEA44AC5
:101DF00011685368906809040E401B061A0C3243A0
:101E00000440224302212800FFF74FFE9A4B1B6833
:101E1000DB78002B52D0FF22120209219948FFF7EC
:101E200044FE954B1B689B68002B4DDD964A0721AD
:101E30009448FFF73AFE904B1B681B7C002B49D05F
:101E4000924A08218F48FFF730FE914B1B78012BF7
:101E50004DD0022B52D0002B42D0874B1B685B78B1
:101E6000072B61D89B008B4AD3589F46834B002297
:101E70001A606AE76420041B2002001B64214942A7
:101E800005F008FFFF307D4B58606BE77B4B00226D
:101E90009A6074E77A4B00221A607DE76420041B85
:101EA0002002001B6421494205F0F4FEFF30744B10
:101EB00058607DE7724B00229A6085E7764A0921D7
:101EC0007048FFF7F2FDACE7744A07216D48FFF751
:101ED000ECFDB0E7642208216A48FFF7E6FDB4E7AD
:101EE0006F4BFF221A7000225A709A70B5E76C4B44
:101EF00000221A70FF2159709A70AEE7684B0022D9
:101F00001A705A70FF329A70A7E7664A002313705E
:101F1000FF2151709370644A117096205070937035
:101F2000624A117053709370614B1B78032B00D180
:101F300003E15F4B1B78032B00D10BE1584A137868
:101F4000507891781A04000202430A4301214D4857
:101F5000FFF7ABFD484B1B68986A9F21C90506F047
:101F60006BFD002804D0524B1B78032B00D1F7E007
:101F70004B4A1378507891781A04000202430A43BE
:101F800000214048FFF791FD484A13785078917836
:101F90001A04000202430A433A4C04212000FFF7CE
:101FA00084FD414A1378507891781A040002024364
:101FB0000A4305212000FFF778FD3A4A137850784C
:101FC00091781A04000202430A4306212000FFF719
:101FD0006CFD2000FFF764FC70BD324A00231370D3
:101FE000FF2151709370304A117096205070937099
:101FF0002E4A117053709370294A13705370937066
:1020000092E7284A00231370FF2151709370264AEB
:102010001170962050709370244A11705370937011
:1020200082E7204900230B70FF224A708B701E4903
:102030000A70962048708B701C490A704B708B7028
:1020400017490A7048708B706EE7164A00231370A8
:10205000FF2151709370144A117096205070937044
:10206000124A1170537093700D4A1370537093702D
:102070005AE7C046FC180020E40D0020C80D0020DF
:10208000EC0D002068180020004BFF00FF640000EA
:102090000A2B002018E300100087C80082FF4B00C5
:1020A000E00D0020F80D0020DC0D0020D80D0020F0
:1020B0002B2B00202D4A00231370FF2151709370A9
:1020C0002B4A11709620507093702A4A11705370E9
:1020D0009370294A13705370937025E7264A0023A2
:1020E000137053709370214AFF21117053709370D5
:1020F0001F4A1170537093701E4A11705370937081
:10210000FF252D041D4C2A00F8392000FFF7CDFCD7
:102110002A0008212000FFF7C8FC2A00092120001E
:10212000FFF7C3FC2A0002212000FFF7BEFC2A00B3
:1021300003212000FFF7B9FCF6E6114D0F4C2A00F1
:1021400008212000FFF7B1FC2A0009212000FFF739
:10215000ACFCEEE60A4A01210848FFF7A6FCF9E6C6
:10216000074A00210548FFF7A0FC0DE7F80D002005
:10217000DC0D0020D80D0020E00D002068180020A4
:10218000E22B8A0010B5002004F0D4F903210020CE
:1021900004F09EF900220121002004F0B1F9012091
:1021A00004F0C8F90321012004F092F90022012172
:1021B000012004F0A5F9054C0549200002F02AFA97
:1021C000044A4921200002F04DF810BDFC0D00200A
:1021D000A08601001522001070B504000D00012832
:1021E00005D0002C02D1094B9D420AD070BD074B8F
:1021F0009942F6D1522316220A210548FFF7B2FB75
:10220000EFE70348FFF75AFBF0E7C046FFFF000087
:102210006818002010B5012935D002294AD00029BC
:1022200000D010BD264A0223FF33D35C002B13D10C
:1022300003681A6F120709D51969214B80225200D1
:1022400099540222FF3201219954EAE71D4B1E4A9C
:102250001F311E4804F080FB194A80235B00D15CCB
:1022600003681A6F120708D51A69154B5A54802152
:1022700049005A5C01325A54D3E7124B124A1F21CB
:10228000124804F069FB0E4B802252009A5C995C64
:1022900003681A6F920707D5196109498022520015
:1022A0008B5C01338B54BCE7094B0A4A2D2107484C
:1022B00004F052FB024A0223FF330021D154B0E75D
:1022C000FC18002038E3001060E3001084E30010E5
:1022D000E4E300100CE4001070B50D00264B002262
:1022E0001A60D0231B06802292049A61234A02239B
:1022F000FF33D35C002B04D080235B00D35C002B26
:10230000F4D11E4B18708022520000219954642091
:10231000002103F029F8D0231B06802252055A61C0
:10232000FA208000002103F01FF86424134A802360
:102330005B00D35C002B08D1002C06D0FA20800073
:10234000002103F011F8013CF0E7002C02D10A4B08
:1023500001221A60002D06D1D0231B068022920490
:102360005A61012070BD052003F02AF8D0231B0616
:10237000802252059A61EFE784230020FC18002098
:1023800070B50E4CFF232370693B63700023A3706C
:102390000B4D0C4A01212800FFF787FB227860785B
:1023A000A1781204000202430A4300212800FFF72B
:1023B0007CFB2800FFF774FA70BDC046E00D0020DA
:1023C000681800200096FF0070B504000E4B002234
:1023D000DA71002805D11D003023AB7106352800C5
:1023E00070BD094D07350BE00A21200005F07AFC8D
:1023F0003031013D29700A21200005F073FC0400F2
:10240000002CF1D1EBE7C0466823002070B53630D0
:10241000C4B2201C3B2C00D93B20C0B2FFF7D4FF34
:1024200001000C4809F0C6FE3B2C01D8094870BDDC
:10243000084D280009F0C6FE28180222064906F0B9
:1024400055FC20003B38FFF7BFFF0100280009F0D2
:102450008BFEEBE76823002038E40010F0B5CE4691
:10246000474680B58DB00400E04A80235B00D35C12
:102470002B2BF9D9DE4B1B78032B00D955E1DD4B13
:102480001D686B78072B00D94FE19B00DA4AD358BF
:102490009F46697CD94B1B685A7C914207D1596988
:1024A000686906F0C9FA002801D0002C33D06869A9
:1024B00006F032FB02000B0004ADD149280005F004
:1024C00091FB0123039300220292019300950023C4
:1024D0000021CC48FEF7ACFACB4B1B78012B0ED970
:1024E000022B18D101230393002202920193C74BC0
:1024F000009300230021C348FEF79AFA0BE0012362
:102500000393002202920193C14B00930023002108
:10251000BC48FEF78DFAB74B1B681A7EB74B1B6899
:102520001B7E9A4201D1002C2CD0B64F0123984635
:102530000393002502950195B64B009302230022D8
:1025400000213800FEF774FAAA4B1B68187EFFF7CB
:102550005DFF012676424346039302950195009064
:102560003300320000213800FEF762FA434603933D
:1025700002950195A84B00933300320000213800EA
:10258000FEF756FA01230393002302930193A34B12
:10259000009304235E2200219A48FEF749FA954BE6
:1025A0001B685B78052B00D1DCE0072B00D1E8E04D
:1025B000042B00D1F4E08F4B1E68F7698F4B1D6828
:1025C000E969381C06F038FA002813D0296A306A05
:1025D00006F032FA00280DD0696A706A06F02CFA0B
:1025E000002807D0B06AA96A06F026FA002801D0B0
:1025F000002C67D0381C06F08FFA02000B008849C7
:1026000004A805F0EFFA7F4E0124039400270297F7
:10261000019404AB00930223002200213000FEF756
:1026200007FA744D2B68186A06F076FA02000B0060
:102630007C4904A805F0D6FA03940297019404ABF0
:1026400000930323002200213000FEF7F1F92B68EC
:10265000586A06F061FA02000B00734904A805F0FD
:10266000C1FA03940297019404AB0093042300225F
:1026700000213000FEF7DCF92B689C6A6B49201CB6
:1026800006F0E2F9002800D099E0694B1B68002BA6
:1026900000D1E9E0201C06F03FFA02000B0004AC78
:1026A0006449200005F09EFA012303930022029260
:1026B00001930094043300215248FEF7B9F96420D5
:1026C00002F07EFE4F4D01260396002402940194F1
:1026D000594B00930623002200212800FEF7A8F999
:1026E000444F3B685A791B79544904A805F07AFA9B
:1026F00003960294019404AB009307230022002167
:102700002800FEF795F93B689A684D4904A805F042
:1027100069FA0122524203960294019404AB009399
:10272000130000212800FEF783F94649314B1B684E
:102730000A0013CB13C213CB13C213CB13C203CBA8
:1027400003C2314B1A78404B1A70404B1A78404BF9
:102750001A70274B1A783F4B1A700DB0C0BCB9469F
:10276000B046F0BD0122524201230393002302939D
:102770000193394B0093130000212248FEF758F9CA
:1027800019E701225242012303930023029301938C
:10279000324B0093130000211A48FEF749F90AE76B
:1027A00001225242012303930023029301932C4BF5
:1027B0000093130000211348FEF73AF9FBE6201CB2
:1027C00006F0AAF902000B0004AC2649200005F02F
:1027D00009FA012303930022029201930094043327
:1027E00000210848FEF724F96CE7C046FC180020D9
:1027F0002B2B0020E40D002084E50010E80D0020C4
:102800003CE400104C2800200A2B00205CE400105F
:1028100050E4001068E400102CE5001020E50010E2
:1028200094E400109CE40010A4E4001000FF7F4733
:1028300084230020B4E40010CCE40010E4E4001091
:10284000F8E4001084280020262B00200B2B002009
:10285000272B0020282B00207CE4001084E40010AB
:102860008CE40010ACE40010201C06F055F90200C6
:102870000B0004ACF349200005F0B4F901230393E5
:10288000002202920193009404330021EE48FEF7E7
:10289000CFF817E7E86806F03FF902000B0004AF35
:1028A000EA49380005F09EF9E74E0124039400251B
:1028B0000295019400970023002200213000FEF7CA
:1028C000B7F8039402950194E14B00930023002292
:1028D00000213000FEF7ACF8039402950195DD4B22
:1028E00000930223002200213000FEF7A1F8DA4B0A
:1028F00098461B68187EFFF789FD01235B429946C5
:1029000003940295019500901A0000213000FEF713
:102910008FF8039402950195D04B00930423002275
:1029200000213000FEF784F8039402950195CC4B0A
:1029300000934B464A4600213000FEF779F8039495
:1029400002950194C74B994600930223002202216D
:102950003000FEF76DF843461B68D86906F0DCF8D6
:1029600002000B00C049380005F03CF903940295C1
:10297000019400970223002200213000FEF758F84E
:102980000394029501944B460093032300220221F5
:102990003000FEF74DF843461B68186A06F0BCF895
:1029A00002000B00B149380005F01CF903940295B0
:1029B000019400970323002200213000FEF738F82D
:1029C0000394029501944B460093042300220221B4
:1029D0003000FEF72DF843461B68586A06F09CF855
:1029E00002000B00A249380005F0FCF803940295A0
:1029F000019400970423002200213000FEF718F80C
:102A000043461B689C6A9F21C905201C06F014F8E8
:102A1000002847D1201C06F07FF802000B009549E2
:102A2000380005F0DFF8012303930022029201939E
:102A30000097043300218448FDF7FAFF824D0126F8
:102A400003960024029401948B4B009306230022EA
:102A500000212800FDF7ECFF7F4F3B685A791B7976
:102A6000864904A805F0BEF803960294019404ABCD
:102A700000930723002200212800FDF7D9FF3B68BF
:102A80009A687F4904A805F0ADF8012252420396E6
:102A90000294019404AB0093130000212800FDF779
:102AA000C7FF42E6201C06F037F802000B0004AC1A
:102AB0007449200005F096F8012303930022029246
:102AC00001930094043300215F48FDF7B1FFB5E79F
:102AD0005D4E012403940025029501946A4B0093F6
:102AE0000023002200213000FDF7A2FF039402958D
:102AF0000195584B00930223002200213000FDF77E
:102B000097FF554F3B68187EFFF780FC0122524229
:102B10000394029501950090130000213000FDF709
:102B200087FF3B68D86905F0F7FF02000B004E49AC
:102B300004A805F057F803940295019404AB0093A0
:102B40000223002200213000FDF772FF3B68186A63
:102B500005F0E2FF02000B00444904A805F042F82A
:102B600003940295019404AB0093032300220021F7
:102B70003000FDF75DFF3B68586A05F0CDFF0200AD
:102B80000B003B4904A805F02DF80394029501942D
:102B900004AB00930423002200213000FDF748FF1E
:102BA0003B689C6A9F21C905201C05F045FF002851
:102BB0006CD1201C05F0B0FF02000B0004AC2D49C5
:102BC000200005F00FF801230393002202920193E5
:102BD0000094043300211C48FDF72AFF1A4D0126FA
:102BE0000396002402940194234B009306230022B1
:102BF00000212800FDF71CFF174F3B685A791B790D
:102C00001E4904A804F0EEFF03960294019404AB5D
:102C100000930723002200212800FDF709FF3B68ED
:102C20009A68174904A804F0DDFF01225242039676
:102C30000294019404AB0093130000212800FDF7D7
:102C4000F7FE72E5C0E400104C2800203CE40010C0
:102C5000FCE4001068E40010E40D002008E500101A
:102C60001CE5001010E5001094E400109CE4001036
:102C7000A4E40010ACE40010CCE40010E4E4001084
:102C8000F8E4001024E5001030E50010201C05F0E9
:102C900043FF02000B0004ACA349200004F0A2FF94
:102CA0000123039300220292019300940433002134
:102CB0009E48FDF7BDFE91E7686905F02DFF020013
:102CC0000B0004AC9A49200004F08CFF012303930D
:102CD0000022029201930094002300219348FDF703
:102CE000A7FE944B1B78012B0ED9022B18D1012380
:102CF00003930022029201938F4B00930023002143
:102D00008A48FDF795FE0BE001230393002202920F
:102D100001938A4B0093002300218448FDF788FE2D
:102D2000824F01240394002502950195844B009362
:102D30000223002200213800FDF77AFE814E33681D
:102D4000187EFFF763FB012252420394029501951E
:102D50000090130000213800FDF76AFE3368D8693F
:102D600005F0DAFE02000B00774904A804F03AFFF0
:102D700003940295019404AB0093022300220021E6
:102D80003800FDF755FE3368186A05F0C5FE0200ED
:102D90000B006E4904A804F025FF039402950194EA
:102DA00004AB00930323002200213800FDF740FE0E
:102DB0003368586A05F0B0FE02000B00644904A8AD
:102DC00004F010FF03940295019404AB00930423D4
:102DD000002200213800FDF72BFE33689C6A9F21FA
:102DE000C905201C05F028FE002821D1201C05F073
:102DF00093FE02000B0004AC5649200004F0F2FEE2
:102E000001230393002202920193009404330021D2
:102E10004648FDF70DFE0123039300220292019321
:102E20004D4B0093072300214048FDF701FE7CE451
:102E3000201C05F071FE02000B0004AC3A49200092
:102E400004F0D0FE01230393002202920193009428
:102E5000043300213548FDF7EBFDDCE7334D01225B
:102E600000212800FEF7E8F90126039600240294C9
:102E700001943A4F00970023002200212800FDF71B
:102E8000D7FD0396029401940097072300220021A6
:102E90002800FDF7CDFD039602940196304B009378
:102EA0000423002200212800FDF7C2FD3DE41F4E4F
:102EB000012200213000FEF7BFF901240394002510
:102EC00002950195254F0097002300220021300034
:102ED000FDF7AEFD039402950195009707230022AC
:102EE00000213000FDF7A4FD0394029501941D4BD1
:102EF00000930323002200213000FDF799FD114BC0
:102F00001B689A7804AF1849380004F06BFE0394EC
:102F10000295019400970423002200213000FDF760
:102F200087FDFFF702FCC04624E500104C28002076
:102F30003CE400100A2B00205CE4001050E4001078
:102F400068E40010E40D002094E400109CE40010FC
:102F5000A4E40010ACE4001044E5001054E50010B7
:102F600068E5001070E5001078E50010F0B58DB050
:102F700006F020F81C2003F0DDFAD024240680237C
:102F80005B056362052003F0D5FA2023A3620022CB
:102F90000121052003F0B4FA062003F0CBFA402308
:102FA000A36200220121062003F0AAFA072003F001
:102FB000C1FA8023A36200220121072003F0A0FAB6
:102FC000082003F0B7FA80235B00A36200220121EE
:102FD000082003F095FA092003F0ACFA80239B0047
:102FE000A36200220121092003F08AFA0A2003F0DB
:102FF000A1FA8023DB00A362002201210A2003F052
:103000007FFA0B2003F096FA80231B01A3620022B3
:1030100001210B2003F074FA0E2003F08BFA8023B9
:10302000DB01A362002201210E2003F069FA0420D3
:1030300003F080FA1023A36200220121042003F090
:103040005FFA0C2003F076FA80235B01A362002272
:1030500001210C2003F054FA0D2003F06BFA8023B9
:103060009B01A362002201210D2003F049FA1520E3
:1030700003F060FA80239B03A36200220121152044
:1030800003F03EFA142003F055FA80235B03A36299
:1030900000220121142003F033FA132003F04AFA2E
:1030A00080231B03A36200220121132003F028FACE
:1030B000122003F03FFA8023DB02A36200220121E9
:1030C000122003F01DFA112003F034FA80239B0232
:1030D000A36200220121112003F012FA1B2003F049
:1030E00029FA80231B05A362002201211B2003F083
:1030F00007FA0F2003F01EFA80231B02A3620022AE
:1031000001210F2003F0FCF9102003F013FA8023B3
:103110005B02A36200220121102003F0F1F91A20C2
:1031200003F008FA8023DB04A362002201211A20A5
:1031300003F0E6F9192003F0FDF98025AD0465627E
:103140006561FA2002F03CF9A561FA2002F038F935
:10315000656101F0F7FE06AB029300230193E54B96
:103160000093E54A002302F035F8E44C2000FEF716
:10317000AEF8E34900910B000A002000FEF739FD8C
:103180002000FEF768FDDF4D2A0001212000FEF738
:103190008CFC2A0000212000FEF787FC2A00042175
:1031A0002000FEF782FC2A0003212000FEF77DFCB0
:1031B0002A0002212000FEF778FC2A0008212000C6
:1031C000FEF773FC2A0005212000FEF76EFC2A00A2
:1031D00006212000FEF769FC2A0007212000FEF7E7
:1031E00064FC2A0009212000FEF75FFC2000FEF7A6
:1031F00057FBFEF7C7FFC44B1B68FF225A70C34B37
:10320000C03A1A703E3A01213F20FFF765F8C04BE3
:1032100064221A60BF4B1B681B78FF2B03D05A1E19
:103220009341BD4A1370BC4B1B78BC4CBC4A059201
:103230000122524204920432039202260296002591
:1032400001950095393203212000FDF7EDFAB54BC9
:103250001860B5492000FEF738F80122002120004F
:10326000FDF7EAFF0127039702950196AF4B009304
:103270000123002200212000FDF7DAFB03970295CD
:103280000196AB4B00930423002200212000FDF7A0
:10329000CFFBA84802F094F8012200212000FDF79E
:1032A000CBFF0120FFF7DAF800F0A9FD627C6B7C10
:1032B0009A4201D000F0BBFDE969E06905F0BCFB72
:1032C000002801D100F0B3FD296A206A05F0B4FBA3
:1032D000002801D100F0ABFD696A606A05F0ACFB23
:1032E000002801D100F0A3FDA96AA06A05F0A4FBA3
:1032F000002801D100F09BFD227E2B7E9A4201D056
:1033000000F095FD6969606905F096FB002801D120
:1033100000F08DFDE968E06805F08EFB002801D122
:1033200000F085FDA268AB689A4201D000F07FFDF5
:10333000814B1A78814B1B789A4201D000F077FDBF
:103340007F4B1A787F4B1B789A4201D000F06FFDBB
:1033500000F070FD0120FFF781F800F073FD0120FF
:10336000FFF77CF8FEF7DAFC00F073FDFEF7D6FC01
:1033700000F07BFD002204216048FEF796FB634BC2
:1033800018221A7002E0FA2002F01AF8D0231B0665
:103390005B689B06F7D46C4B1B78002B00D109E2CD
:1033A0006A4A1268062A00DC7FE1694A1278934271
:1033B00000D17AE1674A1268002A00DC62E1624BC0
:1033C0001B78202B00D970E19B00634AD3589F469D
:1033D000002205214948FEF768FB604B1B78002B53
:1033E00009D0D0231B065B681B030DD56420002188
:1033F00001F0BAFFF5E7454B21221A70203A00216F
:103400002120FEF769FFECE7D0231B06802252053E
:103410009A61C0E7002206213848FEF746FB4F4B71
:103420001B78002B09D0D0231B065B68DB020DD56F
:103430006420002101F098FFF5E7344B7E221A70DA
:103440007D3A00217E20FEF747FFECE7D0231B06E4
:10345000802252059A619EE7D0231B065B68DB033E
:1034600007D53E4B1B78002B95D13D4B01221A709E
:1034700091E7D0231B065B685B0103D5394B012222
:103480001A7088E7D0231B065B68DB0608D5334B30
:103490001B78002B00D07EE7334B01221A707AE7AD
:1034A000D0231B065B68DB0408D52C4B1B78002B54
:1034B00000D070E72D4B01221A706CE7D0231B0659
:1034C0005B689B0403D52A4B01221A7063E7D02363
:1034D0001B065B681B0103D5264B01221A705AE7B5
:1034E000D0231B065B685B0348D5234B01221A706F
:1034F00051E7C046891C0010102700006818002002
:10350000751C0010FFFFFF00E40D00201A2B0020A7
:10351000C82A0020D40D00202A2B00204C2800208F
:1035200040420F00B0280020001A0020A4E500103F
:10353000ACE50010EE0200002B2B0020282B002011
:103540000B2B0020272B00200C2B0020BC28002058
:10355000252B0020E42A0020B8E50010192B0020BC
:103560002D2B00202E2B0020112B00200E2B0020B5
:103570000F2B0020142B0020232B0020D0231B0610
:103580005B689B0303D5804B01221A7003E7D023AD
:103590001B065B689B0203D57C4B01221A70FAE67E
:1035A000D0231B065B685B0403D5794B01221A709C
:1035B000F1E6774B1B78002B04D1D0231B065B6808
:1035C0005B0618D4D0231B065B689B0513D4D0235D
:1035D0001B065B681B060ED4D0231B065B68DB054D
:1035E00009D4D0231B065B681B0504D4D0231B061B
:1035F0005B685B052AD5FEF7C3FE664A002313709D
:10360000D02109064B689B090124234013704868A8
:10361000400A2040A040034313704868C00920407E
:103620008000034313704868000A2040C000034331
:1036300013704868C00A20400001034313704968B2
:10364000890A214049010B431370A4E6514B1B78B2
:10365000002B04D000234F4A13704F4A1360D0232D
:103660001B06802252059A614C4B1B68002B00DD23
:1036700091E64A4B64221A600020FEF7EFFEFEF747
:103680004DFB88E6464A1370D0231B068022520564
:103690009A61052001F094FE91E6424B52221A7085
:1036A000513A00215220FEF717FE3D4B1A78394B54
:1036B0001B789A4200D086E03B4B1B68D8683B4998
:1036C00005F073F905F0EEF9394B18601D2801DC9F
:1036D0001E221A60364B1B68FA2B74DD344BFA221B
:1036E0001A6070E02F4B4C221A704B3A00214C208C
:1036F000FEF7F2FDD9E72B4B42221A70413A002126
:103700004220FEF7E9FDD0E7264B46221A70453AE3
:1037100000214620FEF7E0FDC7E7224B55221A7034
:10372000543A00215520FEF7D7FDBEE71D4B442239
:103730001A70433A00214420FEF7CEFDB5E7194B3D
:1037400072221A70713A00217220FEF7C5FDACE7B3
:10375000144B71221A70703A00217120FEF7BCFDE3
:10376000A3E7104B73221A70723A00217320FEF700
:10377000B3FD9AE70B4B74221A70733A0021742040
:10378000FEF7AAFD91E7C046122B0020312B002046
:10379000192B00200C2B0020BC280020C82A002058
:1037A000252B00201A2B0020E40D002000002041D2
:1037B000E42A00200023CC4A1370CC4A1370CC4A70
:1037C0001360CC4A1360CC4B1B78002B05D0D02360
:1037D0001B065B685B0400D5B5E0C74B1B78002B6C
:1037E00005D0D0231B065B685B0400D43AE1C34BD1
:1037F0001B78002B05D0D0231B065B68DB0400D4AC
:1038000038E1BF4B1B78002B05D0D0231B065B682B
:10381000DB0600D441E1BB4B1B78002B05D0D02345
:103820001B065B689B0400D44AE1B74B1B78002B56
:1038300005D0D0231B065B68DB0300D49AE1B34BB1
:103840001B78002B05D0D0231B065B681B0400D41B
:10385000A3E1AF4B1B78002B05D0D0231B065B6880
:103860005B0100D4ACE1AB4B1B78002B0ED0D02316
:103870001B065B685B0309D49F4B1B78002B00D1B0
:10388000B1E1A44B00221A70FEF748FAA24B1B7854
:10389000002B0ED0D0231B065B689B0309D4964BEC
:1038A0001B78002B00D1ACE19B4B00221A70FEF775
:1038B00035FA9A4B1B78002B0ED0D0231B065B6881
:1038C0009B0209D48C4B1B78002B00D1A7E1934BB2
:1038D00000221A70FEF722FA914B1B78002B0ED0B3
:1038E000D0231B065B681B0109D4834B1B78002B7C
:1038F00000D1A2E18A4B00221A70FEF70FFA894B21
:103900001B78002B05D0D0231B065B689B0300D4DB
:10391000A1E1854B1B78002B00D1CBE1D0231B0606
:103920005B685B0300D5C5E1804B1B78012B00D1A0
:10393000C5E2022B00D1C6E2002B00D1A1E17C4BF5
:1039400031221A70A0E17B4B03221A70FEF7E6F9D0
:10395000D0231B065B689B0302D5724B01221A70B1
:10396000D0231B065B685B0302D56F4B01221A70E4
:10397000D0231B065B68DB0502D56F4B01221A7052
:10398000D0231B065B689B0502D56C4B01221A7085
:10399000D0231B065B685B0602D5694B01221A70B7
:1039A000D0231B065B681B0602D5664B01221A70EA
:1039B000D0231B065B681B0502D5634B01221A70DE
:1039C000D0231B065B685B0502D5604B01221A7091
:1039D000D0231B065B681B0102D55D4B01221A70C8
:1039E000D0231B065B689B0202D55A4B01221A703A
:1039F000D0231B065B681B0302D5574B01221A70AC
:103A0000D0231B065B68DB0202D5544B01221A70DF
:103A1000D0231B065B689B0602D5514B01221A700E
:103A2000D0231B065B681B0402D54E4B01221A7083
:103A3000D0231B065B68DB0302D54B4B01221A70B7
:103A4000D0231B065B68DB0602D5484B01221A70A7
:103A5000D0231B065B68DB0400D4BEE6444B012286
:103A60001A70BAE60023244A1370324A1370FEF724
:103A700055F9BCE62E4B92221A70913A0121922000
:103A8000FEF72AFCD0231B06802292045A611B4BAE
:103A900000221A70FEF742F9B3E6254B91221A7004
:103AA000903A01219120FEF717FCD0231B068022BB
:103AB00092045A61124B00221A70FEF72FF9AAE6FF
:103AC0001B4B90221A708F3A01219020FEF704FCC4
:103AD000D0231B06802292045A610A4B00221A70DE
:103AE000FEF71CF9A1E6C0460C2B0020252B002078
:103AF000BC280020E42A0020192B00200E2B0020D7
:103B0000112B00200F2B00202D2B0020302B00200C
:103B10002E2B0020232B0020122B0020312B0020E5
:103B2000142B0020172B0020182B00200A2B00201C
:103B30001A2B00202B2B00201E2B0020212B0020D5
:103B4000222B00201C2B0020202B00201F2B0020CC
:103B50001D2B0020322B0020292B0020342B00208D
:103B6000132B00202F2B00202C2B0020102B0020AB
:103B70000D2B0020D64B9B221A709A3A01219B20D4
:103B8000FEF7AAFBD0231B06802292045A61D14B78
:103B900000221A70FEF7C2F851E6CD4B9A221A7035
:103BA000993A01219A20FEF797FBD0231B06802229
:103BB00092045A61C84B00221A70FEF7AFF848E62B
:103BC000C34B99221A70983A01219920FEF784FB81
:103BD000D0231B06802292045A61C04B00221A7027
:103BE000FEF79CF83FE6BA4B4D221A704C3A012181
:103BF0004D20FEF771FBD0231B06802292045A61F0
:103C00003FE6B34B43221A70423A01214320FEF7AC
:103C100063FBD0231B06802292045A6144E6AC4B1E
:103C20007C221A707B3A01217C20FEF755FBD023C1
:103C30001B06802292045A6149E6A54B48221A705D
:103C4000473A01214820FEF747FBD0231B0680227C
:103C500092045A614EE69E4B6D221A706C3A012115
:103C60006D20FEF739FBD0231B06802292045A6197
:103C70009B4B00221A700A2001F0A2FBFEF74EF8BF
:103C800047E6934B31221A70914B1878012201219B
:103C9000FEF722FBD0231B06802252059A61802268
:103CA00092045A618F4B00221A700A2001F088FB9F
:103CB000FEF734F88C4B1B78002B05D0D0231B0665
:103CC0005B68DB0500D43FE1884B1B78002B05D0F7
:103CD000D0231B065B689B0500D44BE1844B1B780B
:103CE000002B05D0D0231B065B685B0600D457E190
:103CF000804B1B78002B05D0D0231B065B681B066E
:103D000000D463E17C4B1B78002B0FD0D0231B0623
:103D10005B685B0500D46FE16D4B7D221A707C3AC5
:103D200000217D20FEF7D8FAFDF7F8FF734B1B78D2
:103D3000002B0FD0D0231B065B681B0500D46CE161
:103D4000634B7C221A707B3A00217C20FEF7C4FA78
:103D5000FDF7E4FF6A4B1B78002B05D0D0231B0630
:103D60005B689B0200D469E1664B1B78002B05D091
:103D7000D0231B065B681B0100D475E1624B1B78E6
:103D8000002B05D0D0231B065B681B0300D481E108
:103D90005E4B1B78002B05D0D0231B065B68DB0233
:103DA00000D48DE15A4B1B78002B05D0D0231B0685
:103DB0005B68DB0400D499E1564B1B78002B05D0DF
:103DC000D0231B065B68DB0600D4A5E1524B1B78B1
:103DD000002B05D0D0231B065B68DB0300D4B1E1C8
:103DE0004E4B1B78002B05D0D0231B065B681B04B1
:103DF00000D4BDE14A4B1B78002B00D0CEE1494BEB
:103E00001C686378FF2B07D0617C0809464A107054
:103E10000F220A4045490A70454A15686A7893425C
:103E200005D1A288AB889A4201D1FFF73FFA012061
:103E3000FEF714FB3F4B1A783F4B1B789A4201D098
:103E4000FFF788FA374B1B685B78072B01D1FFF728
:103E500086FA3A4B1B68002B0AD0394A80235B0054
:103E6000D35C2B2B01D9FFF781FA344B00221A6067
:103E7000D0231B065B689B0601D5FFF77BFAD02396
:103E80001B065B681B0301D5FFF7A2FAD0231B06B4
:103E90005B68DB0201D5FFF7BDFAD0231B065B6828
:103EA0001B0401D4FFF7D8FA264B1B78002B01D056
:103EB000FFF771FA084B01221A70FFF76CFA044BF6
:103EC00032221A70E0E6024B30221A70DCE6C0465D
:103ED0001A2B00202D2B0020302B00202E2B002011
:103EE000172B0020182B00201E2B0020212B002038
:103EF000222B00201C2B00201F2B0020202B002019
:103F0000322B00201D2B0020292B0020342B0020D9
:103F10000D2B0020102B00202C2B00202F2B0020FD
:103F2000132B0020E40D00200A2B00200B2B002077
:103F3000E80D00202B2B0020282B0020F02A002049
:103F4000FC180020192B0020AF4B1B221A701A3AC4
:103F500001211B20FEF7C0F9D0231B06802292040A
:103F60005A61AA4B00221A700A2001F029FAFDF7C3
:103F7000D5FEA9E6A44B1A221A70193A01211A207B
:103F8000FEF7AAF9D0231B06802292045A61A04BA7
:103F900000221A700A2001F013FAFDF7BFFE9DE619
:103FA000994B18221A70173A01211820FEF794F93C
:103FB000D0231B06802292045A61964B00221A706D
:103FC0000A2001F0FDF9FDF7A9FE91E68E4B1922BA
:103FD0001A70183A01211920FEF77EF9D0231B062A
:103FE000802292045A618C4B00221A700A2001F040
:103FF000E7F9FDF793FE85E6D0231B0680225205E4
:104000009A61802292045A61844B00221A700A201D
:1040100001F0D6F9FDF782FE88E6D0231B06802248
:1040200052059A61802292045A617D4B00221A70D7
:104030000A2001F0C5F9FDF771FE8BE6724B7D2277
:104040001A707C3A01217D20FEF746F9D0231B0629
:10405000802292045A61734B00221A700A2001F0E8
:10406000AFF9FDF75BFE7FE6674B8E221A708D3A43
:1040700001218E20FEF730F9D0231B068022920406
:104080005A61694B00221A700A2001F099F9FDF774
:1040900045FE73E65C4B7F221A707E3A01217F2039
:1040A000FEF71AF9D0231B06802292045A615F4B57
:1040B00000221A700A2001F083F9FDF72FFE67E64F
:1040C000514B80221A707F3A01218020FEF704F9BB
:1040D000D0231B06802292045A61554B00221A708D
:1040E0000A2001F06DF9FDF719FE5BE6464B9422BC
:1040F0001A70933A01219420FEF7EEF8D0231B06A4
:10410000802292045A614B4B00221A700A2001F05F
:1041100057F9FDF703FE4FE63B4B93221A70923A94
:1041200001219320FEF7D8F8D0231B0680229204A9
:104130005A61414B00221A700A2001F041F9FDF743
:10414000EDFD43E6304B9D221A709C3A01219D20E3
:10415000FEF7C2F8D0231B06802292045A61374B27
:1041600000221A700A2001F02BF9FDF7D7FD37E67F
:10417000254B9C221A709B3A01219C20FEF7ACF83B
:10418000D0231B06802292045A612D4B00221A7004
:104190000A2001F015F9FDF7C1FD2BE6D0231B061F
:1041A0005B689B0610D5274A1378507891781A04DB
:1041B000000202430A43244C04212000FDF775FC51
:1041C0002000FDF76DFB1AE6204C237801225340B6
:1041D0002370EFF3108672B680218025ED0249012D
:1041E000280008F089F986F31088FA2001F0E8F831
:1041F00001222100280008F067F9154B00221A70EF
:10420000FDF78CFDFBE5C0461A2B00201E2B00207D
:10421000212B0020222B00201C2B00201F2B0020F4
:10422000202B0020322B00201D2B0020292B0020CA
:10423000342B00200D2B0020102B00202C2B0020D5
:104240002F2B0020D80D0020681800202A2B0020DA
:10425000132B002010B502490120FDF7BDFF10BD52
:10426000FFFF0000F8B505001A4B984202D01A4B28
:10427000984220D1002A24D0174EAC1B63425C41E7
:10428000164863001F19BF003D50C3195A600A0049
:104290000121280000F0EAF92B68114A1A6317344B
:1042A000B54214D00F49200001F0FCFA0121200092
:1042B00001F0CEFAF8BD0C4B0C4A42210C4802F03A
:1042C0004BFB0C4B094A4321094802F045FB0A49C4
:1042D000E9E7C046FC0D0020040E0020282800203D
:1042E00064060000410100203CE70010C0E7001018
:1042F00058E70010B0E7001051010020F0B5DE468D
:1043000057464E464546E0B585B0060010001C00F5
:1043100002930EAB1A7803920F9D109F3368002210
:10432000DA663368596033680132DA66A2460023E0
:1043300098469B4600242BE03279002A31D0012296
:104340002FE00399002901D000212EE001212CE06B
:104350003800A84703000443E4B2002B06D13268BA
:10436000526BD20602D4002DF2D1F6E7002B09D110
:104370003268802151588B4600291FD1002C2FD143
:10438000C1451ED0002C33D101229446E04401984F
:10439000D0452DDA029A013A91464246002ACBD006
:1043A00000229202C145CCD0002149020A43411C9F
:1043B00001910078316802430A61D4E7526D01240B
:1043C0000EE0039A002ADDD10AE03800A847030076
:1043D0000443E4B2002B06D13268526B920502D43A
:1043E000002DF2D1F6E7002BCCD13268126EC9E76E
:1043F000002C09D0002B15D15B46002B16D0DB0713
:1044000018D45B461B0709D5039B3371404605B0A2
:10441000F0BCBB46B246A946A046F0BD02235B42B3
:104420009846F1E701235B429846EDE702235B42A1
:104430009846E9E702235B429846E5E7F0B5DE4699
:1044400057464E464546E0B583B0050091469A462C
:104450000CAB1B7801930D9E0E9F03680022DA6659
:104460000368596003680132DA66D3460023984630
:1044700000242AE02979002933D0012131E0019874
:10448000002801D0002030E001202EE03800B047A5
:1044900003000443E4B2002C0DD12A68926F002A75
:1044A00009D12A6880215158546D621E9441E4B2AA
:1044B000002EEBD1EFE7002C1ED12A681269494685
:1044C0000A7001229446E044E144D84514DA524689
:1044D000541E2A68516F1029FBD041460029C9D0CB
:1044E000002189024445CAD00020400208438021AF
:1044F000490001431161D4E7002C04D0002B0CD0FB
:1045000001235B429846019B2B71404603B0F0BCEF
:10451000BB46B246A946A046F0BD02235B42984680
:10452000F1E70000F0B5D6464F464646C0B5050057
:104530000C00052001F0C6FF06006008801921006C
:1045400003F0D0FB0700430099468144052148460B
:1045500003F0C8FB80463B1A9A46284B9C4224D85D
:1045600070008019264903F0BDFB441C4346023B02
:10457000A34221D32B680022DA6629680A68042343
:10458000534006221A4080235B010B431A602B68BC
:104590005246DA612B6842461A624B464F2B11D9BC
:1045A0005021484603F09EFB0DE07000801915492C
:1045B00003F098FB441CD9E7134B144A5D211448BF
:1045C00002F0CAF90120A0232A68D0502A681100FD
:1045D0007C31D06F44402404240C80235B010B43C6
:1045E0001C602B680122DA663900300003F07AFB88
:1045F000E0BCBA46B146A846F0BDC0463F420F00F7
:104600008096980040787D01D0E7001030E80010D7
:10461000F0E7001010B5114B98421CD01022104B3F
:104620001A60104B1A60104B9B6814009C43231EA9
:10463000F9D104710268D46602686624FF341460FC
:104640000268D36302689363883303220468E250EC
:10465000FFF768FF10BD0822E1E7C046FC0D00200F
:1046600000E0004000F0004000C0004010B50368CA
:104670000024DC66002910D00468216880239B0098
:104680004B400B490B408021490121430B600368DB
:104690009A6003680122DA6610BD01680B68412246
:1046A0005340034A1340802252010A431360F0E74B
:1046B0004102000030B585B008AC25780024029492
:1046C00001940095FFF71AFE05B030BD30B585B0F6
:1046D00008AC25780024029401940095FFF7AEFE03
:1046E00005B030BD034B1B6802201840431E9841A3
:1046F000C0B2704700C00640EFF3108072B6034BA3
:104700001B68002BFBD0BFF35F8F70472C0100D0DC
:10471000BFF35F8F024B00221A6080F3108870474E
:104720002C0100D0F8B506000C001500FFF7E4FFDF
:10473000E308F718F15C07222240012393400B4263
:1047400005D1DBB20B433B70FFF7E2FFF8BD210060
:10475000280002F09BF9F0B583B006000191140027
:104760001F00FFF7C9FF00E00134BC420CD8E3088A
:10477000F518F35C0721214001228A401A42F3D147
:10478000D2B21A432A7001E001246442FFF7C0FF4D
:10479000002C02DB200003B0F0BD019B002BF9D000
:1047A000089802F073F9000070B505000C00FFF7DF
:1047B000A3FFE308EE18EA5C07210C400123A340A5
:1047C000134204D09A433270FFF7A2FF70BD034B2F
:1047D000034A2C31034802F0BFF8C04644E80010F9
:1047E000A8E8001064E80010002307E0054A9A18C2
:1047F0009200BFF35F8F0021116001331F2BF5D9A9
:104800007047C04640000034054A1078431CDBB2B4
:104810001370172B02D9130010221A707047C0466C
:104820000C0E002000B583B00100044B00931F2341
:1048300018220348FFF78FFF03B000BDB8E800104F
:104840008023002010B50C00CB68834207D10800FC
:104850000B699847002809D02068616810BD522173
:10486000054B064AFF31064802F076F80023E36064
:1048700000200021F2E7C046D4E8001038EB001019
:10488000E8E8001070B505000C00080000F04CFFCF
:104890000949200000F08CFEFFF7B6FF074B9C464D
:1048A0006044800068602C75D0231B061B786B75F4
:1048B000A400034BE55070BDC94B0010400000340C
:1048C000742800200A4B1A68EFF3108172B613683F
:1048D000002BFCD0BFF35F8F054B1B68BFF35F8FCE
:1048E00000221A6081F3108840BF00200021704729
:1048F000C42A002010B5002922D003681B7B9942EE
:104900001ED8174B9C466144090183689C4661444C
:104910000C684968002A19D003681B7B9A4215D895
:1049200083680F488446624412019A1810685368DD
:10493000020001208B4201D80ED00020C0B210BD71
:10494000084B094A3C21094802F006F8054B064A83
:104950003C21064802F000F8A242EFD8EDE7C0463D
:10496000FFFFFF0F20E90010A0EB0010E8E80010A7
:1049700010B500291ED0037B99421BD84B005B1851
:10498000033B0468A4466344002919D0002A1DD0C3
:10499000914221D0002A25D0047BA24222D804686B
:1049A00050008018033820188170197800291FD111
:1049B0001A7010BD104B114A6821114801F0CCFF4C
:1049C000104B114A6F310E4801F0C6FF0F4B0E4AD3
:1049D00070210B4801F0C0FF0D4B0B4A71210848B4
:1049E00001F0BAFF044B054A6821054801F0B4FF05
:1049F00041701A70DDE7C04644E900100CEC00106D
:104A000060E90010ACE90010E8EB0010B8E9001014
:104A1000C4E9001070B506000D001400002914D080
:104A2000002A14D0806873689847002806D02200B6
:104A300029003000FFF79CFF280007E02A00210032
:104A40003000FFF795FF200000E0100070BD080067
:104A5000FCE70000F0B583B00500009201930AABBB
:104A60001C780BAB1F78002C26D003685A7B94422D
:104A700007D10123002B19D1002C3BD1200003B01A
:104A8000F0BD002C0CD01A7B944209D81A68630040
:104A90001B19033BD3189B78002BEBD00123E9E7CC
:104AA0003E4B3F4A68213F4801F056FF3E4B3F4A8C
:104AB00067213F4801F050FF03689C7B002CDBD04E
:104AC00012D01A7B94420FD862001219033A196867
:104AD0008C46624451789973002900D1D973002320
:104AE000937053701370C7E72C4B2D4A68212D48E3
:104AF00001F032FF002C3AD02B681B7B9C4236D849
:104B00002C4BE3181B01AA6894466344009A1A6070
:104B1000019A5A60089A9A60099ADA602E68002C05
:104B20002BD030D0337B9C422DD863001B19033B24
:104B300032689446634400229A705A701A70717BEE
:104B400022003000FFF766FF7073844200D095E7C3
:104B5000287D009A019B00F073FD061E01D0002FF6
:104B600017D00C9B002B00D188E71E7086E7124BF4
:104B7000124A3C210E4801F0EFFE114B114AA521CB
:104B8000084801F0E9FE054B054A6821054801F097
:104B9000E3FE2868210001F015FBE2E744E900107C
:104BA0000CEC001060E90010DCE9001018EC0010BB
:104BB000E8E80010FFFFFF0F20E90010A0EB001055
:104BC000E4E80010FCEB0010F0B5DE4657464E4618
:104BD0004546E0B58BB00990002308938200B54BA1
:104BE000D658370052E0B44BB44A3F21B44801F0E4
:104BF000B3FEB44BB44A3C21B44801F0ADFE0029E9
:104C000001D1002869D10021404601F0D1FAA0422B
:104C100019D12A686B6806920793AB689846EB68CF
:104C20009A464346002B14D0002C18D03B681B7BBF
:104C30009C4214D8631EFA68D35C08931B02184385
:104C40003861002015E0A24BA24A8E219F4801F056
:104C500083FEA14B9F4A92219C4801F07DFE994B17
:104C60009E4A4121994801F077FE00239A469846D2
:104C700000207B68BFF35F8F00221A6086F31088E4
:104C80004346002B32D1002800D10CE100F04CFC4F
:104C900002000B1EA7DB0020002106900791786818
:104CA000EFF3108672B601680029FCD0BFF35F8F66
:104CB000396888464C7B002CD7D09AD0097B8C422F
:104CC00097D8874965182D01B9688C4665442868CE
:104CD0006968801A9941002991DD2A686B680998F2
:104CE00000F0AEFC00239A469846C2E7089B1B02E0
:104CF0002343994651461800C04705000E007A68C4
:104D0000EFF3108B72B6136859424B41D9B2002BA6
:104D1000F9D1BFF35F8F002E1EDB002E46DD3B690D
:104D2000002B47D04B456DD100F0FEFB02000B1E5F
:104D30006EDB52197341002B70DB002B72DB0021FC
:104D40000491013103910294514601914146009131
:104D50003800FFF77FFE4CE03B69002BDDD04B4570
:104D600014D1069A079B521BB341002B14DB002B76
:104D700016DB002104910131039102945146019107
:104D8000414600913800FFF765FE32E0554B514A2D
:104D9000A1214E4801F0E0FD01225242524BE6E7CC
:104DA000454B464A3F21464801F0D6FD002E01D131
:104DB000002DB4D13B68002C50D05A7B944237D19F
:104DC000012100294AD1DA7B002A4DD19A7B002AA1
:104DD00003D1DA7B002A5AD19C73DC73002C5CD09F
:104DE0003B681B7B9C4258D8FA68013C135D013339
:104DF000135500233B617A68BFF35F8F13608BF319
:104E0000108843E7374B334AA421304801F0A4FD12
:104E1000294B2A4A3F212A4801F09EFD0122524295
:104E2000314B8AE7244B254A3F21254801F094FD68
:104E3000002C0DD01A7B94420AD862001219033A52
:104E40001868844662449278002ABAD00121B8E7F3
:104E5000264B274A6821274801F07EFD264B274A2A
:104E6000F621244801F078FD002A0AD0197B8A42F5
:104E700007D851008A18033A19688C466244547066
:104E8000A4E71A4B1A4A68211A4801F065FD1C4B29
:104E90001A4AFB21174801F05FFD0A4B0F4A4121D6
:104EA0000A4801F059FD0BB0F0BCBB46B246A9461A
:104EB000A046F0BD742800206CE200106CEB0010DE
:104EC000C0E2001020E90010A0EB0010E8E800109C
:104ED00004EA001084EB00101CEA0010C4EB001080
:104EE000FFFFFF0F28EA0010FFFFFF7F44E90010DB
:104EF0000CEC001060E9001064EA0010D8EB001020
:104F000088EA001010B50C4B5B68002B04D00A2116
:104F10000A4800F07BFF10BD074C2300084A10210F
:104F2000206801F055F8032000F0F2FA0321200078
:104F3000FFF7A8FCEBE7C046100E0020C42A0020B3
:104F4000F548001010B5064B5B68002B01D00448F3
:104F500010BD044B044A5E21044801F0FDFCC0462C
:104F6000100E00209CEA0010ACEB0010E8E80010E6
:104F7000F0B5DE4657464E464546E0B58BB0804616
:104F800016001F00149B9A46159B994616AB1B787A
:104F90009B461F2302AA9446634400221A702BE00A
:104FA000002809D042461268127B904204D8421E63
:104FB0004146C9688A5C41E0404B414A4121414831
:104FC00001F0CAFC07984CE0361BAF41002F07DB0D
:104FD000002F11DA3C4B3D4A3F213D4801F0BCFC1B
:104FE000012676423B4FF3E7374B384A3F2138489A
:104FF00001F0B2FC002F4FDB43465A68EFF31084F8
:1050000072B6136859424B41D9B20791002BF8D1BF
:10501000BFF35F8F1F3302AA9446634404930023B7
:10502000039302934B4601935346009332003B0097
:105030004046FFF70FFD031EB2D10200414649680A
:10504000BFF35F8F00250D6084F31088002B29D0FB
:105050001F2302A98C4663441B78002BB2D1120295
:105060001043002B20D05B46002B1DD04946D04773
:1050700004000D0003000B431DD00029A4DB00F049
:1050800053FA06000F1EAFDB36196F41002FB1DA5D
:10509000012676420F4FADE70B4B0C4A3F210C48DF
:1050A00001F05AFC012040420BB0F0BCBB46B246B6
:1050B000A946A046F0BD0798F6E7C04620E90010D3
:1050C000C4EB0010E8E800106CE200106CEB00107C
:1050D000C0E20010FFFFFF7FF8B50400002900D1F7
:1050E00062E04268EFF3108572B61368584243419C
:1050F000D8B2002BF9D1BFF35F8FCBB22268567BB9
:10510000B3421BD10120002848D0206988422BD00F
:10511000090AC9B2002B2ED02068007B83422AD80E
:10512000581EE668305C88422BD000206368BFF3CD
:105130005F8F00221A6085F31088F8BD002B0DD018
:10514000167BB3420AD85E00F618033E1768BC46C9
:105150006644B678002ED6D00120D4E7134B144A0B
:105160006821144801F0F8FB2C21134B134AFF313E
:10517000134801F0F1FB134B134A4121104801F091
:10518000EBFB1900100001F01DF80028CED1992189
:105190000E4B0A4A49000A4801F0DEFB23698B42A4
:1051A000C4D100232361C1E70020C6E744E9001011
:1051B0000CEC001060E90010C0EA001054EB001085
:1051C000E8E8001020E90010C4EB0010E4EA001049
:1051D000407D7047F0B585B00700100019000C9EA7
:1051E00013000B4301D101200021B7600A9B3361FA
:1051F000306071600B9B7361CA171300504004004C
:1052000051400D00A41A9D4100F08EF902000B1EC2
:1052100012DB12196B41002B14DB002B16DB012172
:10522000029101960C4900913800FFF7A1FEF06051
:10523000C043C00F05B0F0BD084B094A3F210948E3
:1052400001F08AFB01225242074BE6E7034B044A76
:105250003F21044801F080FB454800106CE200103B
:105260006CEB0010C0E20010FFFFFF7FF0B587B0CD
:1052700006000F00EFF30583002B1FD106246442C4
:10528000E517A4197D418D4202D803D1844201D98A
:1052900000240025002D14DB0494059500F044F94A
:1052A00002000B1E13DBA41A9D41002D17DC14D045
:1052B0003000390000F044F907B0F0BD234801F098
:1052C000E5FB234B234A3F21234801F045FB204BBC
:1052D000204A3F21204801F03FFB002CE8D0FFF797
:1052E00031FE0023029301931C4B0093049A059B0B
:1052F000FFF73EFE002818DADAE7002300E000237B
:10530000002BD5D1164B1A68EFF3108172B61368D3
:10531000002BFCD0BFF35F8F114B1B68BFF35F8F77
:1053200000221A6081F3108820BF0499059A0D4B62
:105330005B6A9A42E3D80B48806A884203D29A4259
:10534000DBD00123DCE70123DAE7C046E8EA0010FE
:105350006CE200106CEB0010C0E20010C5480010B9
:10536000C42A00200040054070B504000D0000F084
:10537000DBF802000B1E0ADB2000290080185941CF
:1053800000290ADB00290CDBFFF770FF70BD084B1A
:10539000084A3F21084801F0DFFA0120404207494E
:1053A000F0E7034B034A3F21034801F0D5FAC0461A
:1053B0006CE200106CEB0010C0E20010FFFFFF7FFA
:1053C00010B5FA2292000023002103F0C7FAFFF77C
:1053D000CBFF10BD70B584B005000C00EFF3058362
:1053E000002B1ED1FFF7AEFD002302930193224B49
:1053F00000932A002300FFF7BBFD061E23DD20BF1C
:10540000FFF7A0FD3100FFF767FE1C4B5B6A9C4273
:105410002DD81A4A926AAA422CD29C4225D0012049
:1054200026E0164B5B6A994209D8144A926A824276
:1054300007D2994201D001201AE0002018E0002094
:1054400016E0012014E00D4B5B6A9C4209D80B4A20
:10545000926AAA4207D29C4201D0012008E00020B3
:1054600006E0002004E0012002E0002000E000202F
:1054700004B070BD0120FBE7C548001000400540A6
:1054800070B5EFF305801038EFF3108C72B61A4B3D
:105490001B68002BFBD0BFF35F8F012213008340FA
:1054A00016494B6316490B60164909780C00C44035
:1054B000224214D0114A546A8200134D5259944228
:1054C00006D38200114C125999430E4B197007E014
:1054D0000A4A031D9B0099589950002200E00022BF
:1054E000BFF35F8F044B002119608CF31088002AF2
:1054F00000D0904770BDC046280100D00040054054
:105500003C700540332B0020D42A00205822002074
:1055100010B50100024A0348FFF704F910BDC04668
:1055200030EC0010082B0020044B5B6A034A906AA1
:105530001900536A9942F9D17047C04600400540AE
:10554000084B5B6A01E0074B5B6A8B42FBD301E0CF
:10555000044B5B6A8B4203D1024B9B6A8342F7D3B5
:105560007047C0460040054070B504000D00FFF7CD
:10557000DBFF02000B0020002900801859418B42FC
:1055800002D804D1824202D901204042C117002929
:1055900002DBFFF7D5FF70BD024B034A3F210348F2
:1055A00001F0DAF96CE20010D8EC0010C0E2001053
:1055B00070B504000D00EFF3108672B61B4B1B682C
:1055C000002BFBD0BFF35F8F002D1CD0200000F01C
:1055D0004FF9174B83420BD01900200000F062F9FD
:1055E0000121200000F034F90123A340114A136087
:1055F000A400114BE550BFF35F8F0C4B00221A60E3
:1056000086F3108870BDA2000B4B0021D1500122FF
:10561000A2400A490B7893430B700549200000F023
:1056200085FA0021200000F013F9E4E7280100D0FA
:10563000815400103860054058220020332B002090
:10564000F0B5DE4600B584B00400150001921E00DE
:105650000293FFF769FF03958E4202D84ED185422F
:105660004CD9EFF3108B72B6274B1B68002BFBD085
:10567000BFF35F8F254A17780125A540EBB23B4366
:105680001370234B5D63221D92000199D150A2003B
:105690002049029850501B6A2B4212D11C4B1B6CA4
:1056A0002B4208D00020BFF35F8F174B00221A60F7
:1056B0008BF3108823E0184B184AC521184801F0D5
:1056C0004BF9FFF731FF8E4214D802D1039B83427E
:1056D00010D80E4B1B78BB420ED00D4B1D625D6384
:1056E0001F2004400123A3400E4A1360074B1F7084
:1056F0001E38D8E70020D6E70120D4E7012004B007
:1057000080BCBB46F0BDC046280100D0332B002032
:1057100000400540D42A002054EC0010BCEC0010DE
:1057200078EC001080E200E0EFF3108C72B60B4BC7
:105730001B68002BFBD0BFF35F8F01238340084A17
:10574000136208490A789A430A70BFF35F8F034BCC
:1057500000221A608CF310887047C046280100D0E0
:1057600000400540332B0020074B9B681030800021
:105770001950BFF35F8FBFF35F8F044B0021196097
:1057800082F310887047C04600ED00E0240100D08D
:1057900010B5091A081F0A4B9C466144094A9142F8
:1057A00008D8C30706D440104005400D064B1843E7
:1057B00080B210BD054B064AA321064801F0CCF883
:1057C000FC070000FE0F000000E0FFFFF0EC0010FF
:1057D00060EF001020ED001010B5091A04394C08D4
:1057E000090B08D14905490D064A11430180064BB2
:1057F0002343438010BD054B054AAB21054801F00A
:10580000ABF8C04600F0FFFF00F8FFFF60ED0010AE
:1058100034EF001020ED001001238340034A10688C
:105820001840431E9841C0B27047C04600E100E0F6
:10583000002904D0034B1860034B18607047034BDA
:105840001860FBE780E200E000E100E080E100E0BA
:1058500010B5012383401800FFF7EAFF10BD0000D8
:1058600001238340014A13607047C04600E200E014
:10587000024B9B6810308000C058704700ED00E07C
:1058800010B5FFF7F5FF002805D0054BC01A2F28EB
:1058900003D8012010BD0020FCE70020FAE7C04635
:1058A000380E002070B504000D00EFF3108672B6BC
:1058B0000C4B1B68002BFBD0BFF35F8F2000FFF762
:1058C000D7FF094B984201D0A84205D132002900E8
:1058D0002000FFF749FF70BD044B054A86210548AB
:1058E00001F03AF8240100D0CD01001070ED001055
:1058F00094EF001020ED0010F0B5DE4657464E46FE
:105900004546E0B589B0814601911500EFF3108A54
:1059100072B6744B1B68002BFBD0BFF35F8F724BCA
:105920000027DF57002F40DB7C00E419A4006F48FC
:1059300024180622A2566C4B1A706D4B9A684B467F
:1059400010339B00D35898461E001B1A2F2B38D9B2
:10595000684B98452FD105AE674B33807B009B4643
:10596000D8198000614B9846404402306349FFF7E4
:105970000FFF7080624BB380FF23B371F571019B01
:1059800007935F44BF0047440ECE0EC701231C435C
:10599000A046524641464846FFF7E6FE09B0F0BC35
:1059A000BB46B246A946A046F0BD564B564AD72143
:1059B000564800F0D1FF564B534ADE21534800F0C1
:1059C000CBFFC04340440C2102F08CF9002912D1D6
:1059D00001239E43B34633000026DA79AA4211D947
:1059E0000621595600290CDB4A00521892001E006D
:1059F0003E4B9B18F1E7474B434AEA21434800F0EE
:105A0000ABFF1E00002E3AD005AB434A1A80813A04
:105A10005A800623F3560293002B17DA3F4805AB52
:105A20009B469880029A9A71DD71019A0792301D07
:105A30002100FFF7ADFEB080B7717B00DB199B0042
:105A40002A4FFF185B4607CB07C7A2E77800C019AB
:105A50008000264BC0180430321DB388D90A1C2997
:105A600007D15B055915023149005118FFF790FE27
:105A7000D5E72B4B2B4AB121244800F06DFF05AE32
:105A80001D4B33807B000293D8198000174A904643
:105A9000020042440392901C1849FFF779FE70807F
:105AA000039A101D5946FFF773FEB0801E4B5A46ED
:105AB0004146521A524153431B0DB371F571019A7D
:105AC0000792029B9C466744BF0047440ECE0EC718
:105AD000114B5A461380813B538001231C43A0463F
