:020000041000EA
:1000000000B5324B212058609868022188439860DF
:10001000D860186158612E4B002199600221596106
:100020000121F02299502B49196001219960352056
:1000300000F044F80222904214D00621196600F024
:1000400034F8196E01211966002018661A6600F04E
:100050002CF8196E196E196E052000F02FF8012189
:100060000842F9D1002199601B49196000215960AB
:100070001A491B48016001219960EB211966A021F2
:10008000196600F012F800219960164914480160C1
:100090000121996001BC002800D000471248134993
:1000A000086003C880F30888084703B5996A0420EC
:1000B0000142FBD001200142F8D103BD02B5186610
:1000C0001866FFF7F2FF186E186E02BD00000240BE
:1000D000000000180000070000035F00212200005C
:1000E000F4000018222000A00001001008ED00E03C
:1000F00000000000000000000000000074B24E7A12
:1001000000200420F7010010C3010010C5010010F9
:10011000C1010010C1010010C1010010C101001097
:10012000C1010010C1010010C1010010C701001081
:10013000C1010010C1010010C9010010CB01001065
:10014000CD010010CD010010CD010010CD01001037
:10015000CD010010CD010010CD010010CD01001027
:10016000CD010010CD010010CD010010CD01001017
:10017000CD010010CD010010CD010010CD01001007
:10018000CD010010CD010010CD010010CD010010F7
:10019000CD010010CD010010CD010010CD010010E7
:1001A000CD010010CD010010CD010010CD010010D7
:1001B000CD010010CD010010CD010010CD010010C7
:1001C00000BE00BE00BE00BE00BE00BEEFF3058054
:1001D000103800BEF2EB887108FE001030FE0010EF
:1001E0003402001090A31AE700201F49086006C8D7
:1001F00081F3088810471D48006800282FD10DA4FE
:100200000ECC002902D000F012F8F9E71849194A7B
:10021000002000E001C19142FCD1174988471749ED
:1002200088471749884700BEFDE701C901C29A42C5
:10023000FBD3704730FE0010C00000205C17002088
:10024000CC1401100000042000000420CC14011084
:10025000001004200010042000000000704709482E
:1002600007F020FC0047000008ED00E0000000D08F
:1002700060170020342B0020FD6700106D2F001048
:10028000B96700105756000006005250ABB36053D8
:100290000CF6001006005250861C03021CF60010DB
:1002A000060052505422A29D28F60010050052501C
:1002B000DE65F468CC140110F8B5C0460448054B5F
:1002C00010B5834203D0044B002B00D0984710BDDB
:1002D0005C1700205C17002000000000064807495A
:1002E000091A8B10C90FC91810B5491003D0044B57
:1002F000002B00D0984710BD5C1700205C17002031
:100300000000000010B5074C2378002B09D1FFF73F
:10031000D5FF054B002B02D0044800E000BF0123AD
:10032000237010BDA018002000000000F0C30010D2
:10033000054B10B5002B03D00449054800E000BF71
:10034000FFF7CCFF10BDC04600000000A41800203D
:10035000F0C30010D0231B065B68C3400120184087
:10036000704701238340D022120653629361704785
:1003700001238340D022120653629361704710B567
:10038000040006F00BF80123A340D022120693626A
:1003900010BD10B5040006F001F80123A340D022DF
:1003A0001206936210BDF8B5CE46474680B50C00E4
:1003B00003789946437898468768002515E04846B3
:1003C000FFF7D6FF4046FFF7E4FFFE173800310085
:1003D00004F0FEFE4046FFF7C4FF6400E4B23800BC
:1003E000310004F0F5FE0135EDB2072D06D863B2F9
:1003F000002BE4DA4846FFF7C2FFE3E74846FFF781
:10040000BEFF4046FFF7C5FFFD173800290004F086
:10041000DFFE4846FFF79EFF04004046FFF7A1FFBE
:100420003800290004F0D4FE4846FFF7A1FF002C55
:1004300004D10120C0BCB946B046F8BD0020F9E7A0
:10044000F8B5060014001700012000E02900002F75
:100450000AD0012808D14D1C09783000FFF7A3FF0E
:100460000128F3D1013FF1E7012801D00020F8BDB8
:10047000E01BFCE770B505000C0016000078FFF7E4
:1004800077FFA868002104F0A3FE6878FFF769FFF2
:100490006100C9B2002E01D00131C9B22800FFF7B6
:1004A00082FF70BD10B504000078FFF761FFA068FF
:1004B000002104F08DFE6078FFF76BFFA06800213B
:1004C00004F086FE2078FFF75AFFA068002104F0B0
:1004D0007FFE10BDF8B506000F000078FFF74FFF54
:1004E0000025002404E07078FFF73BFF0134E4B2FC
:1004F000072C11D8B068002104F06AFE7078FFF76D
:1005000048FF6D00EDB23078FFF724FF0028EAD0F5
:1005100001231D43EDB2E6E7002F15D03078FFF739
:100520002EFF7078FFF735FFB068002104F050FE11
:100530007078FFF716FFB068002104F049FE3078AC
:10054000FFF716FF2800F8BD3078FFF711FFE8E746
:1005500070B506000C0008E069426941C9B230007C
:10056000FFF7B8FF20702A000134551E002AF3D18E
:1005700070BD000070B504000D0000280AD083781B
:10058000002B08D100789F281BD9234B9D4228D9E6
:100590000023A36070BD214803F070FF2078032181
:1005A00005F0CAFE6078032105F0C6FE207800221F
:1005B000012105F0D9FE60780022012105F0D4FE6A
:1005C000E8E705F0EBFE607805F0E8FE227801230D
:1005D00019009140D0221206916261788B4093629B
:1005E000D3E70F4B9D4202D90123A360D2E70D4B05
:1005F0009D4202D90223A360CCE70B4B9D4202D956
:100600000A23A360C6E72900084807F09FFA000400
:10061000000CA060BEE7C0463F420F00FC0D00206A
:10062000FF340C007F1A06009F86010040420F0035
:1006300030B585B004008578002D0BD10022FFF77E
:1006400019FF002800D001252000FFF72BFF28000C
:1006500005B030BD0023009301330F226A440348E4
:1006600003F068FFC543ED0FF1E7C046FC0D002025
:10067000F0B583B0040017001E008378002B0BD167
:100680000022FFF7F7FE0500012811D02000FFF738
:1006900009FF280003B0F0BD012300933300084890
:1006A00003F03CFF002801DB3500F2E70025F0E70E
:1006B000320039002000FFF7C3FE0500E6E7C04620
:1006C000FC0D0020F0B585B006000F001D000F23C3
:1006D0006B441A708378002B0BD10022FFF7CAFEFF
:1006E000040001281AD03000FFF7DCFE200005B01E
:1006F000F0BD012300930F226A44154803F00EFF5A
:10070000002802DAC043C40FF0E7002300930A9BDD
:100710002A0039000E4803F00DFFF3E701220F21F4
:1007200069443000FFF78CFE04000128DBD1300063
:10073000FFF7B8FE012239003000FFF79BFE0400EE
:100740000128D0D10A9A29003000FFF701FFCAE73B
:10075000FC0D002010B50C001300017810302200B1
:10076000FFF786FF10BD10B582B00C00D10109194A
:10077000C160002B25D0C378052B0BD0042B0FD0E4
:10078000062B20D0072B0CD11C348378002B08D1EA
:10079000033206E020348378002B02D1043200E0DB
:1007A000023401A900230B70503B1A434A705F3397
:1007B00023408B70241110231C43CC700422FFF7BC
:1007C000C9FF02B010BD8378002B01D02034E8E7C8
:1007D0000232E6E770B5A2B005000E00140001AACF
:1007E00040211170002B12D1686800280DD0EB68F1
:1007F0009C4660442200310008F0ACF9EB689C464E
:100800006444EC60A405A40DEC6022B070BD22002D
:1008100031006B46581D08F09DF9621C01A92800A3
:10082000FFF798FFE0E70000F0B5C64600B584B0DA
:1008300004000D0017001E0000234360C170867085
:1008400043700B9B83740C9B03740D9B43746B4B25
:100850000E9A1A6001235B42694A1360694A136069
:100860001133984680440F994046FFF783FE7B1C66
:10087000012B01D9FF2F36D13C214046FFF7D8FE8E
:100880003C214046FFF7D4FE002822D03C232370B1
:100890000B276F4400233B702178013300933B000A
:1008A00000224046FFF70EFF3A780F2313403B70BB
:1008B000072B27D00F2B25D0082B3AD0002B38D070
:1008C000062B36D0033BDBB2012B36D901277F4202
:1008D0001EE03D214046FFF7ABFE002800D18AE034
:1008E0003D232370D4E7FFB2277039004046FFF75D
:1008F0009FFE39004046FFF79BFE0028C8D1012724
:100900007F4268E00123E37073425E41F6B2042740
:1009100023783D2B13D0022D13D0062D11D0012D9D
:100920002CD0072D30D0162237492000FFF712FFB8
:100930000CE00423E3700227EAE70027E8E7013729
:10094000E9E7182231492000FFF704FF0A9B002B3A
:1009500020D1002E29D18023A372403BE372062DC3
:1009600035D0022D3CD0012D3DD0052D3ED0072D98
:1009700031D14823A372203BE3722CE01622244994
:100980002000FFF7E7FEE1E71A2222492000FFF7E7
:10099000E1FEDBE700236A461373A7335373022299
:1009A00003A92000FFF7D6FED3E703AE0023337080
:1009B000A0337370022231002000FFF7CBFEC0236A
:1009C0007370022231002000FFF7C4FEC3E720331A
:1009D000A372503BE372380004B080BCB846F0BD4F
:1009E0002023E372F7E78023E372F4E74023A37246
:1009F000203BE372EFE701277F42ECE7001E002077
:100A0000F8180020F4180020E8C50010D0C5001028
:100A10001CC6001000C60010002305E00278D24377
:100A2000027001300133DBB28B42F7D37047000014
:100A3000F0B5DE4657464E464546E0B58FB0040059
:100A40000D00511C03D0591C01D002724372217A4F
:100A5000A37A994200D3BDE3627AE37ADB089A4233
:100A600000D3BAE31B9B2000FFF77DFE199B012BEF
:100A700019D0199B042B77D0199B022B00D12EE1A2
:100A8000199B032B00D198E2199B002B00D0BFE3E8
:100A90000621280007F032F8199F2A000D00189B44
:100AA0009846160055E307272F4000262A003D00F0
:100AB000189B9846170014E0082104A8FFF7ACFF24
:100AC00031E000232372627A0132D2B262721B9B40
:100AD00000212000FFF747FE002500E00025083F29
:100AE0000136227AA37A9A4200D379E343469A5D8B
:100AF000002A00D176E3617AE37ADB08994200D3D9
:100B000072E3072FEBDC203AD100891A002304AAF4
:100B10001370C44A8918072204AB581C08F01AF84D
:100B20001A9B002BC8D10822531B9A46237A52469F
:100B30009918A27A914201DDD31A9A46290004AB92
:100B40009C4661441B9B52462000FFF743FE227ADD
:100B50005244D2B22272A37A073B9A42BEDB637838
:100B6000002BAED10025BAE70B332B40984600236B
:100B7000AA461D00189B99461B9B9B4646E01021E8
:100B800004A8FFF749FF6DE0102104A8FFF744FF18
:100B900082E0217A02325B462000FFF7E4FD31005B
:100BA0002031102204A807F0D5FF1A9B002B06D194
:100BB0005B463A0041462000FFF70CFE76E010212C
:100BC00004A8FFF729FFF3E7217A03325B462000F0
:100BD000FFF7C9FD31003031102204A807F0BAFF39
:100BE0001A9B002B06D15B463A0041462000FFF7D6
:100BF000F1FD5EE0102104A8FFF70EFFF3E70023EC
:100C0000984610235B429C46E2440135217AA07A43
:100C1000814200D3EAE2627AE37ADB08033B9A423C
:100C200000DBE5E24B465E5D002E00D1E2E253467A
:100C30000F2BE6DC203EF6B2B6017B4BF6181027F0
:100C40004346FF1ACB19834200DD471A5B4620005A
:100C5000FFF789FD1022310004A807F07BFF1A9BE3
:100C6000002B8CD104AB9C46E0445B463A004146E5
:100C70002000FFF7AFFD217A627A01325B46200047
:100C8000FFF771FD31001031102204A807F062FF58
:100C90001A9B002B00D077E75B463A0041462000C4
:100CA000FFF798FD627A052A00D872E7627A042A73
:100CB0008AD9237ADF19FFB22772A37A0F3B9F42AA
:100CC0009DDB6378002B07D000232372637A043303
:100CD00063720023984694E70023984691E70C211D
:100CE000280006F00BFF039100230093AB4633E18D
:100CF000062104A8FFF790FE55E19200D2B201331D
:100D0000032B0CDC08001841C00700D51643181D42
:100D10000C0004412000C007EFD51543EDE74C4619
:100D200004AB1E5563465E701D735D730137052F5E
:100D30000CDCFC1C6400A44604AB9946CC44D95D91
:100D40000322002500260023A146D9E70027C44638
:100D500001E0019C2700042F00DDAEE004ABDD5D67
:100D60007C1C1E5D03377F00984647440221012307
:100D70000020019423E0022858DC420001320124C3
:100D8000A146944062B27C78144364B2A0467C7061
:100D9000BC78224354B20294BC70441C6400A24646
:100DA0004C465246944062B2444614437C70029CC6
:100DB0001443BC705B00DBB24900C9B201300628A5
:100DC000C7DC2A001A401D4205D01E4203D10D4245
:100DD00001D10E42CFD1002A05D11E4203D00D42CF
:100DE00001D00E42C7D0002AE4D11E42E2D00D420B
:100DF000E0D00E42DED103284DDC420001329046A5
:100E0000012292461400424694407A7814437C7042
:100E1000421C5200544694402200BC782243BA70CF
:100E2000C8E7C04634C60010D4C8001003281ED03E
:100E3000021F520001320124A146944062B27C7B21
:100E4000144364B2A0467C73BC7B224354B2029428
:100E5000BC73C41E6400A2464C465246944062B223
:100E6000444614437C73029C1443BC73A2E77A7813
:100E7000904680225242444614437C70BC78224300
:100E8000BA70012290467A7B444622437A73BA7B39
:100E90002243BA738EE7021F520001320124A0469A
:100EA00094407A7B22437A73C21E52004446944097
:100EB0002200BC7B2243BA737CE764460C26039B6A
:100EC000F61A217A8A19A37A9A4200DD5E1A627AAA
:100ED0001B9B2000FFF747FC039DA91D04AB9C460C
:100EE00061441B9B32002000FFF774FC217A627A78
:100EF00001321B9B2000FFF736FC2900123104ABA6
:100F00009C4661441B9B32002000FFF763FC237A60
:100F10009E19F6B22672A37A0B3B9E4213DB6378CE
:100F2000002B02D1002303930FE000232372627A87
:100F30000232D2B262721B9B00212000FFF713FC29
:100F40000023039301E0002303930C235B429C46A0
:100F5000E344009B01330093227AA37A9A4200D3A0
:100F60004AE1627AE37ADB08013B9A4200DB45E121
:100F7000189B009A9B5C002B00D141E15A460B2A3A
:100F8000E3DC203BD9B28B005918A94BC9180023C8
:100F900004AA1370062204AB581C07F0DBFD1A9B51
:100FA000002B00D0A4E61822002104AB981D07F006
:100FB000CBFD00231F00A046B9E60C332B409B4617
:100FC00000239A46D946AB467FE0082104A8FFF7E4
:100FD00023FDA1E09200D2B20133032B0CDC080008
:100FE0001841C00700D51643181D0C00044120000D
:100FF000C007EFD51543EDE7009C404604AB1E55F6
:1010000063465E701D745D740137072F0DDC3C1D57
:101010006400A44604AB9846C444D95D032200256D
:101020000026002300948046D7E7040010234A4698
:101030009B1A9846017ACA18837A9A4201DD5B1A94
:101040009846627A1B9B2000FFF78DFB49460831CA
:1010500004AB9C4661441B9B42462000FFF7BAFB51
:10106000217A627A01321B9B2000FFF77CFB494604
:10107000183104AB9C4661441B9B42462000FFF79D
:10108000A9FB237A4344DBB22372A27A0F3A93423C
:1010900013DB6378002B02D1002399460FE0002375
:1010A0002372627A0232D2B262721B9B002120004C
:1010B000FFF759FB0023994601E0002399465B4660
:1010C000103B9B46534601339A46227AA37A9A42B2
:1010D00000D397E0627AE37ADB08013B9A4200DBB7
:1010E00092E0189B52469B5C002B00D18EE05A4642
:1010F0000F2AE4DC203BDBB2D900C91A4D4BC918DA
:10110000002304AA1370072204AB581C07F022FD29
:101110001A9B002B00D058E72022002106A807F0D8
:1011200013FD0027200070E7062104A8FFF774FCD8
:101130002FE000232372627A0132D2B262721B9BCB
:1011400000212000FFF70FFB199D00E0199D063ECE
:101150000137227AA37A9A425DD2627AE37ADB0877
:101160009A4260D24346DB5D002B5ED0052EEEDC5A
:10117000203BD9B2002304AA13708B0059182C4BC2
:10118000C918052204AB581C07F0E4FC1A9B002B7D
:10119000CAD10622531B9A46237A52469918A27A3C
:1011A000914201DDD31A9A46290004AB9C46614462
:1011B0001B9B52462000FFF70DFB227A5244D2B20D
:1011C0002272A37A053B9A42C0DB6378002BB0D130
:1011D000199DBCE7012040421EE0012040421BE077
:1011E000002019E0002017E0002015E0002013E0A7
:1011F000002011E000200FE000200DE000200BE0B7
:10120000002009E0002007E0002005E0002003E0C6
:101210000120404200E019980FB0F0BCBB46B24636
:10122000A946A046F0BD1998F6E71998F4E7C0461C
:10123000F0C3001034C60010F0B5D6464F464646FF
:10124000C0B584B005008A461600C37ADB0899460B
:10125000877A3F091022684607F076FC00236B72FC
:101260002B72984610E03300102269462800FFF7E1
:10127000B1FA0134E4B2BC42F5D3EB78072B0DD0C0
:1012800043460133DBB29846C8450ED2330042468E
:1012900000212800FFF767FA0024ECE7330008225A
:1012A00069462800FFF796FAEAE76868002806D042
:1012B000AB7AEA7A5A43D210514607F045FC04B0A3
:1012C000E0BCBA46B146A846F0BD416070477047E1
:1012D00070B504000E00C06807F02AFCE27D237D93
:1012E0009A4221D004257543ADB2A580280007F0AD
:1012F0000DFCE060002819D02A00002107F024FC32
:101300006680A36A002B0ED0206907F011FCA58827
:10131000280007F0FBFB206100280BD02A000021E9
:1013200007F012FC668070BD0325DCE70023A38074
:101330006380E6E70023A3806380F4E770B5C37D94
:10134000027D9B1A5A425341DCB28B09032213409F
:10135000C3750D09154005758E08164046750A407F
:1013600082750022FF268E4252410270C268002A16
:1013700005D05B1B5A425341DBB29C4200D170BD89
:101380004188FFF7A5FFFAE7F0B5CE46474680B59E
:1013900087B005000F000021A4480AF0F7F9040007
:1013A000431C06D0A24B1B68013300D193E09F4B36
:1013B0002B62631C00D19CE09D4B1B68013300D164
:1013C00097E0631C00D1B5E0994B1868431C00D12D
:1013D000ABE02E6A974B9E4200D1AFE000239649C6
:1013E0009B005A5801325A503FB2EF80A0466C62BF
:1013F0002B78002B00D1AAE08E4B9E4200D19FE0BB
:1014000004008A4B9E4200D19DE00721380004F081
:1014100093FF012300933A00414630000AF030FA6E
:101420001022002102A807F08FFB80235B020293A9
:10143000F8235B0203938020C0020490C0231B03A7
:101440000493E31CE201190313000B43039380226E
:101450009205059279490B400393BF023A430592E6
:10146000774B034304938022D20513430493052052
:1014700004F05CFF07F022FA724907F0CAF98146CE
:1014800007F076FA87B2002F5FD0380007F016FA1F
:10149000011C484607F0B3F98721C90507F0CFF9C9
:1014A00007F066FAC0B200023F040743029702AB9E
:1014B0002200414630000AF035FA326801234146E5
:1014C0008B409A431343336001236B7007B0C0BC59
:1014D000B946B046F0BD5C4954480AF075F9002899
:1014E00000D164E7584951480AF082F9504B18601E
:1014F0005DE700214F480AF049F90400431C00D180
:101500005FE7524B1B68013302D04A4B2B6258E70E
:101510004D4948480AF058F90028F6D04A4943484E
:101520000AF066F9494B1860EFE7484B1B68013336
:1015300000D04EE701235B426B62C7E701234EE711
:10154000424B1C685DE7062160E70020ABE7394BA2
:101550009E4263D00400354B9E4262D00721380082
:1015600004F0EAFE012300933A00414630000AF0FD
:1015700087F91022002102A807F0E6FA80235B0217
:101580000293F8235B0203938020C0020490C023DF
:101590001B030493E31CE201190313000B430393A1
:1015A000802189050591254A13400393BF020F430B
:1015B0000597234B184304908023DB0518430490C0
:1015C000052004F0B3FE07F079F9214907F021F96D
:1015D000814607F0CDF987B2002F24D0380007F0FC
:1015E0006DF9011C484607F00AF98721C90507F083
:1015F00026F907F0BDF9C0B200023F040743029785
:1016000002AB2200414630000AF08CF93268012317
:1016100041468B409A431343336055E70B4B1C689C
:1016200099E706219BE70020E6E7C046000020502E
:10163000C00D002000003050041E0020FFFFFF9F5F
:10164000000002100024F44A70E10010C40D0020D4
:101650000024744AF0B5C64600B586B00C00C180BF
:10166000056A744B9D425BD000230278002A00D1AA
:1016700072E0466A002B55D16F4B1F686F4B9D423D
:1016800053D00721200004F057FE012300932200CD
:10169000310028000AF0F4F81022002102A807F017
:1016A00053FA80235B020293F8235B0203938020AA
:1016B000C0020490C0231B030493FB1CFA0119030E
:1016C00013000B4303938022920505925C490B4063
:1016D0000393A402224305925A4B034304938022AE
:1016E000D20513430493052004F020FE07F0E6F82A
:1016F000554907F08EF8804607F03AF984B2002C7D
:1017000015D0200007F0DAF8011C404607F077F802
:101710008721C90507F093F807F02AF9C0B207E05E
:101720000123A2E7494B1F68A8E70621AAE700208A
:10173000000224040443029402AB3A003100280062
:101740000AF0F0F82A680123B3409A4313432B6050
:1017500006B080BCB846F0BD466A002B53D1364B6C
:101760001F68364B9D4251D00721200004F0E4FD54
:10177000012300932200310028000AF081F8102292
:10178000002102A807F0E0F980235B020293F8230E
:101790005B0203938020C0020490C0231B030493C8
:1017A000FB1CFA01190313000B43039380218905E5
:1017B0000591234A13400393A4020C430594214B43
:1017C000034304938022D20513430493052004F0BD
:1017D000ADFD07F073F81E4907F01BF8804607F0CF
:1017E000C7F884B2002C13D0200007F067F8011C62
:1017F000404607F004F88721C90507F020F807F0F4
:10180000B7F8C0B205E0114B1F68AAE70621ACE7A4
:101810000020000224040443029402AB3A00310089
:1018200028000AF07FF82A680123B3409A43134343
:101830002B608DE700003050C00D002000002050CC
:10184000FFFFFF9F000002100024F44AC40D002097
:101850000024744AF8B5050016001C004378002BDC
:1018600018D06B6A01331AD0671E002C17D0286A73
:101870006C6A731C9C46367836064268210010312B
:1018800001238B401342F8D10434A40026503C00BD
:101890006646E9E7FFF778FD01236B70E1E7F8BDE5
:1018A00010B582B0C268002A05D083888179047897
:1018B0000094FFF7CFFF02B010BD000010B5040088
:1018C00082880021C06807F03FF92000FFF7E8FF99
:1018D000142003F0A9FCE06807F02AF9206907F05A
:1018E00027F9616A206A09F041FF206A134B984288
:1018F00019D00022124992005358013B5350002B3B
:101900000FD10E4B984210D00E4B1A680E4909F0B9
:101910008BFF0A4B226A9A420AD00A4B012252429A
:101920001A60200010BD0122E4E7084B1A68EDE7B9
:10193000064B012252421A60F3E7C04600003050C5
:10194000041E0020C00D002070E10010C40D002016
:1019500010B54378002B01D1C18010BD8179FFF70C
:1019600079FEFAE7F8B504000D0017001E0000200C
:1019700060702072E0602061A062E06220636063BA
:1019800003F006FD00290FDBA061E16139002000B2
:10199000FFF7DEFF31002000FFF7D0FC2900200018
:1019A000FFF796FC2000F8BD024B034A3F21034895
:1019B00004F006FFD4E00010F0E0001028E1001071
:1019C000F0B5D6464F464646C0B5040016001D0089
:1019D00008AB1B78984609AB187863888B423FD9CF
:1019E000277A002F09D07E43360A7D432D0A4346CD
:1019F0007B431B0A98467843000AA36A002B34D025
:101A0000E37D227D934247D08F0022699146B944FD
:101A1000E268944667444A46D054E37D9A46BA4405
:101A2000636B984753461870237D4A46D654637DAE
:101A3000D554A37D4146D154237D9946B944300005
:101A4000A36A98474B461870667DBE192800E36A62
:101A500098473070236BA17D7F18404698473870B7
:101A6000E0BCBA46B146A846F0BDE37D227D934274
:101A70000CD08900E26894466144C854237DCE545A
:101A8000637DCD54A37D4246CA54E9E74B00591803
:101A9000E3689C466144F1E74F007F18236999464B
:101AA000B944E3689C466744BEE730B583B0140090
:101AB000150E120CD2B2230ADBB2E4B201950094E7
:101AC000FFF77EFF03B030BDF8B5CE46474680B580
:101AD000040043888B4200D886E0836A002B14D030
:101AE000C27D037D9A4270D08900006984466144BA
:101AF000885C0006CB5C1B041843637DCB5C1B0237
:101B00001843A37DCB5C18436FE0C37D077DBB42C8
:101B100026D08E00C26894466644027A9046002A17
:101B200046D0F05C0002110006F010F8030699465A
:101B3000F05D0002414606F009F805044B461D43DE
:101B4000637DF05C0002414606F000F800020543A8
:101B5000A37DF05C0002414605F0F8FF284344E015
:101B60004B005918C3685E18037A9846002B15D0AD
:101B7000F05D0002190005F0E9FF0504637DF05CEB
:101B80000002414605F0E2FF00020543A37DF05C40
:101B90000002414605F0DAFF284326E0F05D00042C
:101BA000637DF35C1B021843A37DF35C18431CE0C8
:101BB000F05C0006F35D1B041843637DF35C1B02BD
:101BC0001843A37DF35C18430FE04A0051180269E3
:101BD00094466144C85C0004637DCB5C1B021843DF
:101BE000A37DCB5C184300E00020C0BCB946B046E2
:101BF000F8BDF0B5C64600B504000F0016001D0084
:101C00004088226953425341421E9041184206D1F6
:101C1000A762E6622563069B6363002515E0A3883F
:101C20009846180006F072FF20614246E16806F00F
:101C300091FFEDE7AEB231002000FFF745FF020053
:101C400031002000FFF731FF01356388AB42F1DC42
:101C500080BCB846F0BD10B50300C0689A8800216A
:101C600006F072FF10BD0000014B185C7047C046C3
:101C7000BCE4001010B504008020FFF7F5FF6043BE
:101C80000012C0B210BD00001D4B1B68002B23D1F9
:101C90001B4B14221A601B4A1368013B1360002B74
:101CA0001EDB194A1368013B1360002B1CDD174B28
:101CB0001B78002B0ED0164A136801331360072BD4
:101CC00002DD130007221A60124A1368013B1360F9
:101CD000002B10DB01207047013B094A1360DAE753
:101CE000130000221A60DCE70B4B01221A60064B3E
:101CF00009321A60DBE7130000221A60EAE7C046E7
:101D000068280020C82A0020402800200C2B002032
:101D1000BC280020E42A0020F02A002070B5D54A13
:101D200080235B00D35C2B2B00D855E1D24B1D6880
:101D30002C79642C00D899E02300643B1802C01A67
:101D4000642105F0DBFECD4B1860642C00D891E0D7
:101D5000643C2002001B6421494205F0CFFEFF30A5
:101D6000C64B58602B79632B00D98FE06420C01AD2
:101D70000302181A642105F0C1FEC04B98606C790B
:101D8000642C00D886E02300643B1802C01A64214A
:101D900005F0B4FEBA4B1860642C7FD9643C200275
:101DA000001B6421494205F0A9FEFF30B44B586086
:101DB0006B79632B7ED86420C01A0302181A642141
:101DC00005F09CFEAE4B9860AC4908684B6889688A
:101DD0000004FF26360430401B061A0C0243FF2481
:101DE00021400A43A74D03212800FFF75EFEA44AC5
:101DF00011685368906809040E401B061A0C3243A0
:101E00000440224302212800FFF74FFE9A4B1B6833
:101E1000DB78002B52D0FF22120209219948FFF7EC
:101E200044FE954B1B689B68002B4DDD964A0721AD
:101E30009448FFF73AFE904B1B681B7C002B49D05F
:101E4000924A08218F48FFF730FE914B1B78012BF7
:101E50004DD0022B52D0002B42D0874B1B685B78B1
:101E6000072B61D89B008B4AD3589F46834B002297
:101E70001A606AE76420041B2002001B64214942A7
:101E800005F03CFEFF307D4B58606BE77B4B00223A
:101E90009A6074E77A4B00221A607DE76420041B85
:101EA0002002001B6421494205F028FEFF30744BDC
:101EB00058607DE7724B00229A6085E7764A0921D7
:101EC0007048FFF7F2FDACE7744A07216D48FFF751
:101ED000ECFDB0E7642208216A48FFF7E6FDB4E7AD
:101EE0006F4BFF221A7000225A709A70B5E76C4B44
:101EF00000221A70FF2159709A70AEE7684B0022D9
:101F00001A705A70FF329A70A7E7664A002313705E
:101F1000FF2151709370644A117096205070937035
:101F2000624A117053709370614B1B78032B00D180
:101F300003E15F4B1B78032B00D10BE1584A137868
:101F4000507891781A04000202430A4301214D4857
:101F5000FFF7ABFD484B1B68986A9F21C90506F047
:101F60009FFC002804D0524B1B78032B00D1F7E0D4
:101F70004B4A1378507891781A04000202430A43BE
:101F800000214048FFF791FD484A13785078917836
:101F90001A04000202430A433A4C04212000FFF7CE
:101FA00084FD414A1378507891781A040002024364
:101FB0000A4305212000FFF778FD3A4A137850784C
:101FC00091781A04000202430A4306212000FFF719
:101FD0006CFD2000FFF764FC70BD324A00231370D3
:101FE000FF2151709370304A117096205070937099
:101FF0002E4A117053709370294A13705370937066
:1020000092E7284A00231370FF2151709370264AEB
:102010001170962050709370244A11705370937011
:1020200082E7204900230B70FF224A708B701E4903
:102030000A70962048708B701C490A704B708B7028
:1020400017490A7048708B706EE7164A00231370A8
:10205000FF2151709370144A117096205070937044
:10206000124A1170537093700D4A1370537093702D
:102070005AE7C046FC180020E40D0020C80D0020DF
:10208000EC0D002068180020004BFF00FF640000EA
:102090000A2B002080E100100087C80082FF4B005F
:1020A000E00D0020F80D0020DC0D0020D80D0020F0
:1020B000292B00202D4A00231370FF2151709370AB
:1020C0002B4A11709620507093702A4A11705370E9
:1020D0009370294A13705370937025E7264A0023A2
:1020E000137053709370214AFF21117053709370D5
:1020F0001F4A1170537093701E4A11705370937081
:10210000FF252D041D4C2A00F8392000FFF7CDFCD7
:102110002A0008212000FFF7C8FC2A00092120001E
:10212000FFF7C3FC2A0002212000FFF7BEFC2A00B3
:1021300003212000FFF7B9FCF6E6114D0F4C2A00F1
:1021400008212000FFF7B1FC2A0009212000FFF739
:10215000ACFCEEE60A4A01210848FFF7A6FCF9E6C6
:10216000074A00210548FFF7A0FC0DE7F80D002005
:10217000DC0D0020D80D0020E00D002068180020A4
:10218000E22B8A0010B5002004F008F9032100209A
:1021900004F0D2F800220121002004F0E5F801202B
:1021A00004F0FCF80321012004F0C6F8002201210C
:1021B000012004F0D9F8054C0549200002F05EF931
:1021C000044A4921200001F081FF10BDFC0D0020D0
:1021D000A08601001522001070B504000D00012832
:1021E00005D0002C02D1094B9D420AD070BD074B8F
:1021F0009942F6D1522316220A210548FFF7B2FB75
:10220000EFE70348FFF75AFBF0E7C046FFFF000087
:102210006818002010B5012935D002294AD00029BC
:1022200000D010BD264A0223FF33D35C002B13D10C
:1022300003681A6F120709D51969214B80225200D1
:1022400099540222FF3201219954EAE71D4B1E4A9C
:102250001F311E4804F0B4FA194A80235B00D15C98
:1022600003681A6F120708D51A69154B5A54802152
:1022700049005A5C01325A54D3E7124B124A1F21CB
:10228000124804F09DFA0E4B802252009A5C995C31
:1022900003681A6F920707D5196109498022520015
:1022A0008B5C01338B54BCE7094B0A4A2D2107484C
:1022B00004F086FA024A0223FF330021D154B0E72A
:1022C000FC180020A0E10010C8E10010ECE10010B3
:1022D0004CE2001074E2001070B50D00264B002295
:1022E0001A60D0231B06802292049A61234A02239B
:1022F000FF33D35C002B04D080235B00D35C002B26
:10230000F4D11E4B18708022520000219954642091
:10231000002102F05DFFD0231B06802252055A6186
:10232000FA208000002102F053FF6424134A802326
:102330005B00D35C002B08D1002C06D0FA20800073
:10234000002102F045FF013CF0E7002C02D10A4BCE
:1023500001221A60002D06D1D0231B068022920490
:102360005A61012070BD052002F05EFFD0231B06DC
:10237000802252059A61EFE784230020FC18002098
:1023800070B50E4CFF232370693B63700023A3706C
:102390000B4D0C4A01212800FFF787FB227860785B
:1023A000A1781204000202430A4300212800FFF72B
:1023B0007CFB2800FFF774FA70BDC046E00D0020DA
:1023C000681800200096FF0070B504000E4B002234
:1023D000DA71002805D11D003023AB7106352800C5
:1023E00070BD094D07350BE00A21200005F0AEFB5A
:1023F0003031013D29700A21200005F0A7FB0400BF
:10240000002CF1D1EBE7C0466823002070B53630D0
:10241000C4B2201C3B2C00D93B20C0B2FFF7D4FF34
:1024200001000C4809F0FAFD3B2C01D8094870BDA9
:10243000084D280009F0FAFD28180222064906F086
:1024400089FB20003B38FFF7BFFF0100280009F09F
:10245000BFFDEBE768230020A0E20010F0B5CE46F8
:10246000474680B58DB00400E04A80235B00D35C12
:102470002B2BF9D9DE4B1B78032B00D955E1DD4B13
:102480001D686B78072B00D94FE19B00DA4AD358BF
:102490009F46697CD94B1B685A7C914207D1596988
:1024A000686906F0FDF9002801D0002C33D0686976
:1024B00006F066FA02000B0004ADD149280005F0D1
:1024C000C5FA012303930022029201930095002391
:1024D0000021CC48FEF7ACFACB4B1B78012B0ED970
:1024E000022B18D101230393002202920193C74BC0
:1024F000009300230021C348FEF79AFA0BE0012362
:102500000393002202920193C14B00930023002108
:10251000BC48FEF78DFAB74B1B681A7EB74B1B6899
:102520001B7E9A4201D1002C2CD0B64F0123984635
:102530000393002502950195B64B009302230022D8
:1025400000213800FEF774FAAA4B1B68187EFFF7CB
:102550005DFF012676424346039302950195009064
:102560003300320000213800FEF762FA434603933D
:1025700002950195A84B00933300320000213800EA
:10258000FEF756FA01230393002302930193A34B12
:10259000009304235E2200219A48FEF749FA954BE6
:1025A0001B685B78052B00D1DCE0072B00D1E8E04D
:1025B000042B00D1F4E08F4B1E68F7698F4B1D6828
:1025C000E969381C06F06CF9002813D0296A306AD2
:1025D00006F066F900280DD0696A706A06F060F9A5
:1025E000002807D0B06AA96A06F05AF9002801D07D
:1025F000002C67D0381C06F0C3F902000B00884994
:1026000004A805F023FA7F4E0124039400270297C3
:10261000019404AB00930223002200213000FEF756
:1026200007FA744D2B68186A06F0AAF902000B002D
:102630007C4904A805F00AFA03940297019404ABBC
:1026400000930323002200213000FEF7F1F92B68EC
:10265000586A06F095F902000B00734904A805F0CA
:10266000F5F903940297019404AB0093042300222C
:1026700000213000FEF7DCF92B689C6A6B49201CB6
:1026800006F016F9002800D099E0694B1B68002B72
:1026900000D1E9E0201C06F073F902000B0004AC45
:1026A0006449200005F0D2F901230393002202922D
:1026B00001930094043300215248FEF7B9F96420D5
:1026C00002F0B2FD4F4D01260396002402940194BE
:1026D000594B00930623002200212800FEF7A8F999
:1026E000444F3B685A791B79544904A805F0AEF968
:1026F00003960294019404AB009307230022002167
:102700002800FEF795F93B689A684D4904A805F042
:102710009DF90122524203960294019404AB009366
:10272000130000212800FEF783F94649314B1B684E
:102730000A0013CB13C213CB13C213CB13C203CBA8
:1027400003C2314B1A78404B1A70404B1A78404BF9
:102750001A70274B1A783F4B1A700DB0C0BCB9469F
:10276000B046F0BD0122524201230393002302939D
:102770000193394B0093130000212248FEF758F9CA
:1027800019E701225242012303930023029301938C
:10279000324B0093130000211A48FEF749F90AE76B
:1027A00001225242012303930023029301932C4BF5
:1027B0000093130000211348FEF73AF9FBE6201CB2
:1027C00006F0DEF802000B0004AC2649200005F0FC
:1027D0003DF90123039300220292019300940433F4
:1027E00000210848FEF724F96CE7C046FC180020D9
:1027F000292B0020E40D002004E40010E80D002047
:10280000A4E200104C2800200A2B0020C4E2001093
:10281000B8E20010D0E2001094E3001088E300104A
:10282000FCE2001004E300100CE3001000FF7F47FF
:10283000842300201CE3001034E300104CE300105C
:1028400060E3001084280020242B00200B2B0020A4
:10285000252B0020262B0020E4E20010ECE20010E3
:10286000F4E2001014E30010201C06F089F80200C6
:102870000B0004ACF349200005F0E8F801230393B2
:10288000002202920193009404330021EE48FEF7E7
:10289000CFF817E7E86806F073F802000B0004AF02
:1028A000EA49380005F0D2F8E74E012403940025E8
:1028B0000295019400970023002200213000FEF7CA
:1028C000B7F8039402950194E14B00930023002292
:1028D00000213000FEF7ACF8039402950195DD4B22
:1028E00000930223002200213000FEF7A1F8DA4B0A
:1028F00098461B68187EFFF789FD01235B429946C5
:1029000003940295019500901A0000213000FEF713
:102910008FF8039402950195D04B00930423002275
:1029200000213000FEF784F8039402950195CC4B0A
:1029300000934B464A4600213000FEF779F8039495
:1029400002950194C74B994600930223002202216D
:102950003000FEF76DF843461B68D86906F010F8A2
:1029600002000B00C049380005F070F8039402958E
:10297000019400970223002200213000FEF758F84E
:102980000394029501944B460093032300220221F5
:102990003000FEF74DF843461B68186A05F0F0FF5B
:1029A00002000B00B149380005F050F8039402957D
:1029B000019400970323002200213000FEF738F82D
:1029C0000394029501944B460093042300220221B4
:1029D0003000FEF72DF843461B68586A05F0D0FF1B
:1029E00002000B00A249380005F030F8039402956C
:1029F000019400970423002200213000FEF718F80C
:102A000043461B689C6A9F21C905201C05F048FFAE
:102A1000002847D1201C05F0B3FF02000B009549A8
:102A2000380005F013F8012303930022029201936A
:102A30000097043300218448FDF7FAFF824D0126F8
:102A400003960024029401948B4B009306230022EA
:102A500000212800FDF7ECFF7F4F3B685A791B7976
:102A6000864904A804F0F2FF03960294019404AB93
:102A700000930723002200212800FDF7D9FF3B68BF
:102A80009A687F4904A804F0E1FF012252420396AC
:102A90000294019404AB0093130000212800FDF779
:102AA000C7FF42E6201C05F06BFF02000B0004ACE0
:102AB0007449200004F0CAFF01230393002202920C
:102AC00001930094043300215F48FDF7B1FFB5E79F
:102AD0005D4E012403940025029501946A4B0093F6
:102AE0000023002200213000FDF7A2FF039402958D
:102AF0000195584B00930223002200213000FDF77E
:102B000097FF554F3B68187EFFF780FC0122524229
:102B10000394029501950090130000213000FDF709
:102B200087FF3B68D86905F02BFF02000B004E4978
:102B300004A804F08BFF03940295019404AB009366
:102B40000223002200213000FDF772FF3B68186A63
:102B500005F016FF02000B00444904A804F076FFBC
:102B600003940295019404AB0093032300220021F7
:102B70003000FDF75DFF3B68586A05F001FF020079
:102B80000B003B4904A804F061FF039402950194F3
:102B900004AB00930423002200213000FDF748FF1E
:102BA0003B689C6A9F21C905201C05F079FE00281E
:102BB0006CD1201C05F0E4FE02000B0004AC2D4992
:102BC000200004F043FF01230393002202920193AB
:102BD0000094043300211C48FDF72AFF1A4D0126FA
:102BE0000396002402940194234B009306230022B1
:102BF00000212800FDF71CFF174F3B685A791B790D
:102C00001E4904A804F022FF03960294019404AB29
:102C100000930723002200212800FDF709FF3B68ED
:102C20009A68174904A804F011FF01225242039642
:102C30000294019404AB0093130000212800FDF7D7
:102C4000F7FE72E528E300104C280020A4E20010F3
:102C500064E30010D0E20010E40D002070E30010E7
:102C600084E3001078E30010FCE2001004E300109D
:102C70000CE3001014E3001098E300104CE3001084
:102C800060E300108CE30010B0E30010201C05F09E
:102C900077FE02000B0004ACA349200004F0D6FE2E
:102CA0000123039300220292019300940433002134
:102CB0009E48FDF7BDFE91E7686905F061FE0200E0
:102CC0000B0004AC9A49200004F0C0FE01230393DA
:102CD0000022029201930094002300219348FDF703
:102CE000A7FE944B1B78012B0ED9022B18D1012380
:102CF00003930022029201938F4B00930023002143
:102D00008A48FDF795FE0BE001230393002202920F
:102D100001938A4B0093002300218448FDF788FE2D
:102D2000824F01240394002502950195844B009362
:102D30000223002200213800FDF77AFE814E33681D
:102D4000187EFFF763FB012252420394029501951E
:102D50000090130000213800FDF76AFE3368D8693F
:102D600005F00EFE02000B00774904A804F06EFE89
:102D700003940295019404AB0093022300220021E6
:102D80003800FDF755FE3368186A05F0F9FD0200BA
:102D90000B006E4904A804F059FE039402950194B7
:102DA00004AB00930323002200213800FDF740FE0E
:102DB0003368586A05F0E4FD02000B00644904A87A
:102DC00004F044FE03940295019404AB00930423A1
:102DD000002200213800FDF72BFE33689C6A9F21FA
:102DE000C905201C05F05CFD002821D1201C05F040
:102DF000C7FD02000B0004AC5649200004F026FE7B
:102E000001230393002202920193009404330021D2
:102E10004648FDF70DFE0123039300220292019321
:102E20004D4B0093072300214048FDF701FE7CE451
:102E3000201C05F0A5FD02000B0004AC3A4920005F
:102E400004F004FE012303930022029201930094F4
:102E5000043300213548FDF7EBFDDCE7334D01225B
:102E600000212800FEF7E8F90126039600240294C9
:102E700001943A4F00970023002200212800FDF71B
:102E8000D7FD0396029401940097072300220021A6
:102E90002800FDF7CDFD039602940196304B009378
:102EA0000423002200212800FDF7C2FD3DE41F4E4F
:102EB000012200213000FEF7BFF901240394002510
:102EC00002950195254F0097002300220021300034
:102ED000FDF7AEFD039402950195009707230022AC
:102EE00000213000FDF7A4FD0394029501941D4BD1
:102EF00000930323002200213000FDF799FD114BC0
:102F00001B689A7804AF1849380004F09FFD0394B9
:102F10000295019400970423002200213000FDF760
:102F200087FDFFF702FCC0468CE300104C28002010
:102F3000A4E200100A2B0020C4E20010B8E2001046
:102F4000D0E20010E40D0020FCE2001004E30010C9
:102F50000CE3001014E30010C4E30010D4E30010ED
:102F6000E8E30010F0E30010F8E30010F0B58DB0D6
:102F700005F054FF1C2003F011FAD024240680230E
:102F80005B056362052003F009FA2023A362002297
:102F90000121052003F0E8F9062003F0FFF94023A2
:102FA000A36200220121062003F0DEF9072003F0CE
:102FB000F5F98023A36200220121072003F0D4F950
:102FC000082003F0EBF980235B00A36200220121BB
:102FD000082003F0C9F9092003F0E0F980239B00E1
:102FE000A36200220121092003F0BEF90A2003F0A8
:102FF000D5F98023DB00A362002201210A2003F01F
:10300000B3F90B2003F0CAF980231B01A36200224D
:1030100001210B2003F0A8F90E2003F0BFF9802353
:10302000DB01A362002201210E2003F09DF90420A0
:1030300003F0B4F91023A36200220121042003F05D
:1030400093F90C2003F0AAF980235B01A36200220C
:1030500001210C2003F088F90D2003F09FF9802353
:103060009B01A362002201210D2003F07DF91520B0
:1030700003F094F980239B03A36200220121152011
:1030800003F072F9142003F089F980235B03A36233
:1030900000220121142003F067F9132003F07EF9C8
:1030A00080231B03A36200220121132003F05CF99B
:1030B000122003F073F98023DB02A36200220121B6
:1030C000122003F051F9112003F068F980239B02CC
:1030D000A36200220121112003F046F91B2003F016
:1030E0005DF980231B05A362002201211B2003F050
:1030F0003BF90F2003F052F980231B02A362002248
:1031000001210F2003F030F9102003F047F980234C
:103110005B02A36200220121102003F025F91A208E
:1031200003F03CF98023DB04A362002201211A2072
:1031300003F01AF9192003F031F98025AD04656216
:103140006561FA2002F070F8A561FA2002F06CF8CF
:10315000656101F02BFE06AB029300230193E44B63
:103160000093E44A002301F069FFE34C2000FEF7DE
:10317000AEF8E24900910B000A002000FEF739FD8D
:103180002000FEF768FDDE4D2A0001212000FEF739
:103190008CFC2A0000212000FEF787FC2A00042175
:1031A0002000FEF782FC2A0003212000FEF77DFCB0
:1031B0002A0002212000FEF778FC2A0008212000C6
:1031C000FEF773FC2A0005212000FEF76EFC2A00A2
:1031D00006212000FEF769FC2A0007212000FEF7E7
:1031E00064FC2A0009212000FEF75FFC2000FEF7A6
:1031F00057FBFEF7C7FFC34B1B68FF225A70C24B39
:10320000C03A1A703E3A01213F20FFF765F8BF4BE4
:1032100064221A60BE4B1B681B78FF2B03D05A1E1A
:103220009341BC4A1370BB4B1B78BB4CBB4A059205
:103230000122524204920432039202260296002591
:1032400001950095393203212000FDF7EDFAB44BCA
:103250001860B4492000FEF738F801220021200050
:10326000FDF7EAFF0127039702950196AE4B009305
:103270000123002200212000FDF7DAFB03970295CD
:103280000196AA4B00930423002200212000FDF7A1
:10329000CFFBA74801F0C8FF012200212000FDF765
:1032A000CBFF0120FFF7DAF800F031FD627C6B7C88
:1032B0009A4201D000F043FDE969E06905F0F0FAB7
:1032C000002801D100F03BFD296A206A05F0E8FAE8
:1032D000002801D100F033FD696A606A05F0E0FA68
:1032E000002801D100F02BFDA96AA06A05F0D8FAE8
:1032F000002801D100F023FD227E2B7E9A4201D0CE
:1033000000F01DFD6969606905F0CAFA002801D165
:1033100000F015FDE968E06805F0C2FA002801D167
:1033200000F00DFDA268AB689A4201D000F007FDE5
:10333000804B1A78804B1B789A4201D000F0FFFC3A
:103340007E4B1A787E4B1B789A4201D000F0F7FC36
:1033500000F0F8FC0120FFF781F800F0FBFC0120F1
:10336000FFF77CF8FEF7DAFC00F0FBFCFEF7D6FC7A
:1033700000F003FD002204215F48FEF796FB624B3C
:1033800018221A7002E0FA2001F04EFFD0231B062B
:103390005B689B06F7D400F012FD00220521564819
:1033A000FEF783FB674B1B78002B09D0D0231B064D
:1033B0005B681B030DD56420002101F009FFF5E7D0
:1033C000514B21221A70203A00212120FEF784FF60
:1033D000ECE7D0231B06802252059A6100F0EFFC37
:1033E000002206214448FEF760FB564B1B78002B59
:1033F00009D0D0231B065B68DB020DD564200021B9
:1034000001F0E6FEF5E7404B7E221A707D3A00217E
:103410007E20FEF761FFECE7D0231B0680225205D9
:103420009A6100F0CCFCD0231B065B68DB0304D55B
:10343000454B01221A7000F0C2FCD0231B065B68CA
:103440005B0104D5414B01221A7000F0B8FCD02377
:103450001B065B68DB0604D53D4B01221A7000F0A9
:10346000AEFCD0231B065B68DB0404D5394B01227C
:103470001A7000F0A4FCD0231B065B689B0404D5E3
:10348000354B01221A7000F09AFCD0231B065B68B2
:103490001B0104D5314B01221A7000F090FCD0239F
:1034A0001B065B685B0304D52D4B01221A7000F0EC
:1034B00086FCD0231B065B689B0304D5294B0122A5
:1034C0001A7000F07CFCD0231B065B689B0204D5BD
:1034D000254B01221A7000F072FCD0231B065B689A
:1034E0005B0443D5174B01221A7000F068FCC046FC
:1034F000891C00101027000068180020751C00109F
:10350000FFFFFF00E40D0020182B0020C82A002038
:10351000D40D0020282B00204C28002040420F0012
:10352000B0280020001A002024E400102CE4001031
:10353000EE020000292B0020262B00200B2B002060
:10354000252B0020172B00202A2B00202B2B0020BE
:103550000F2B00200D2B00200E2B0020122B002003
:10356000212B0020102B00202D2B0020744B1B78CA
:10357000002B04D1D0231B065B685B0618D4D02334
:103580001B065B689B0513D4D0231B065B681B06D8
:103590000ED4D0231B065B68DB0509D4D0231B06A1
:1035A0005B681B0504D4D0231B065B685B052AD52A
:1035B000FEF7E6FE634A00231370D02109064B682C
:1035C0009B090124234013704868400A2040A04012
:1035D000034313704868C009204080000343137000
:1035E0004868000A2040C000034313704868C00ABE
:1035F00020400001034313704968890A21404901B2
:103600000B431370DBE34F4B1B78002B04D00023DC
:103610004C4A13704C4A1360D0231B06802252057B
:103620009A614A4B1B68002B00DDC8E3474B6422BC
:103630001A600020FEF712FFFEF770FBBFE3444A5A
:103640001370D0231B06802252059A61052001F0D9
:10365000EBFDC8E33F4B52221A70513A0021522031
:10366000FEF73AFE3A4B1A78364B1B789A4200D056
:1036700081E0394B1B68D868384905F0CAF805F075
:1036800045F9374B18601D2801DC1E221A60344BA7
:103690001B68FA2B6FDD324BFA221A606BE02D4B60
:1036A0004C221A704B3A00214C20FEF715FED9E748
:1036B000284B42221A70413A00214220FEF70CFEAC
:1036C000D0E7244B46221A70453A00214620FEF7E7
:1036D00003FEC7E71F4B55221A70543A00215520AC
:1036E000FEF7FAFDBEE71B4B44221A70433A002155
:1036F0004420FEF7F1FDB5E7164B72221A70713ABD
:1037000000217220FEF7E8FDACE7124B71221A701F
:10371000703A00217120FEF7DFFDA3E70D4B732205
:103720001A70723A00217320FEF7D6FD9AE7094B12
:1037300074221A70733A00217420FEF7CDFD91E7D0
:10374000172B00200C2B0020BC280020C82A0020AA
:10375000232B0020182B0020E40D00200000204126
:10376000E42A00200023CF4A1370CF4A1370CF4AB7
:103770001360CF4A1360CF4B1B78002B05D0D023AA
:103780001B065B685B0400D5B5E0CA4B1B78002BB9
:1037900005D0D0231B065B685B0400D41AE1C64B3E
:1037A0001B78002B05D0D0231B065B68DB0400D4FC
:1037B00018E1C24B1B78002B05D0D0231B065B6899
:1037C000DB0600D421E1BE4B1B78002B05D0D023B3
:1037D0001B065B689B0400D42AE1BA4B1B78002BC4
:1037E00005D0D0231B065B68DB0300D433E1B64B66
:1037F0001B78002B05D0D0231B065B681B0400D46C
:103800003CE1B24B1B78002B05D0D0231B065B6834
:103810005B0100D484E1AE4B1B78002B0ED0D0238B
:103820001B065B685B0309D4A24B1B78002B00D1FD
:1038300089E1A74B00221A70FEF770FAA54B1B789E
:10384000002B0ED0D0231B065B689B0309D4994B39
:103850001B78002B00D184E19E4B00221A70FEF7EA
:103860005DFA9D4B1B78002B0ED0D0231B065B68A6
:103870009B0209D48F4B1B78002B00D17FE1964B24
:1038800000221A70FEF74AFA944B1B78002B0ED0D8
:10389000D0231B065B681B0109D4864B1B78002BC9
:1038A00000D17AE18D4B00221A70FEF737FA8C4B6B
:1038B0001B78002B05D0D0231B065B689B0300D42C
:1038C00079E1884B1B78002B00D1A3E1D0231B06A4
:1038D0005B685B0300D59DE1834B1B78012B00D116
:1038E0008AE2022B00D18BE2002B00D179E17F4BE1
:1038F00031221A7078E17E4B03221A70FEF70EFA1D
:10390000D0231B065B689B0302D5754B01221A70FE
:10391000D0231B065B685B0302D5724B01221A7031
:10392000D0231B065B68DB0502D5724B01221A709F
:10393000D0231B065B689B0502D56F4B01221A70D2
:10394000D0231B065B685B0602D56C4B01221A7004
:10395000D0231B065B681B0602D5694B01221A7037
:10396000D0231B065B681B0502D5664B01221A702B
:10397000D0231B065B685B0502D5634B01221A70DE
:10398000D0231B065B681B0102D5604B01221A7015
:10399000D0231B065B689B0202D55D4B01221A7087
:1039A000D0231B065B681B0302D55A4B01221A70F9
:1039B000D0231B065B68DB0202D5574B01221A702D
:1039C000D0231B065B689B0600D4DEE6534B012226
:1039D0001A70DAE60023374A1370454A1370FEF76F
:1039E0009DF9DCE6414B92221A70913A0121922016
:1039F000FEF772FCD0231B06802292045A612E4BE4
:103A000000221A70FEF78AF9D3E6384B91221A7019
:103A1000903A01219120FEF75FFCD0231B06802203
:103A200092045A61254B00221A70FEF777F9CAE614
:103A30002E4B90221A708F3A01219020FEF74CFCF9
:103A4000D0231B06802292045A611D4B00221A705B
:103A5000FEF764F9C1E6254B9B221A709A3A0121C0
:103A60009B20FEF739FCD0231B06802292045A616A
:103A7000144B00221A70FEF751F9B8E61B4B9A223C
:103A80001A70993A01219A20FEF726FCD0231B06D2
:103A9000802292045A610C4B00221A70FEF73EF904
:103AA000AFE6C0460C2B0020232B0020BC280020B2
:103AB000E42A0020172B00200D2B00200F2B0020C4
:103AC0000E2B00202A2B00202C2B00202B2B00203B
:103AD000212B0020102B00202D2B0020122B00204A
:103AE000152B0020162B00200A2B0020182B00205D
:103AF000292B00201C2B00201F2B0020202B002016
:103B00001A2B00201E2B00201D2B00201B2B002019
:103B10002E2B0020272B0020302B0020112B0020E3
:103B2000DA4B99221A70983A01219920FEF7D4FBBA
:103B3000D0231B06802292045A61D54B00221A70B2
:103B4000FEF7ECF867E6D14B4D221A704C3A012192
:103B50004D20FEF7C1FBD0231B06802292045A6140
:103B600067E6CA4B43221A70423A01214320FEF70E
:103B7000B3FBD0231B06802292045A616CE6C34B30
:103B80007C221A707B3A01217C20FEF7A5FBD02312
:103B90001B06802292045A6171E6BC4B48221A70BF
:103BA000473A01214820FEF797FBD0231B068022CD
:103BB00092045A6176E6B54B6D221A706C3A012177
:103BC0006D20FEF789FBD0231B06802292045A61E8
:103BD000B04B00221A700A2001F026FBFEF79EF877
:103BE0006FE6AA4B31221A70A84B187801220121E6
:103BF000FEF772FBD0231B06802252059A618022B9
:103C000092045A61A44B00221A700A2001F00CFBA6
:103C1000FEF784F8A14B1B78002B05D0D0231B06A0
:103C20005B68DB0500D4EFE09D4B1B78002B05D0D3
:103C3000D0231B065B689B0500D4FBE0994B1B78E7
:103C4000002B05D0D0231B065B685B0600D407E180
:103C5000954B1B78002B05D0D0231B065B681B06F9
:103C600000D44DE1914B1B78002B0FD0D0231B06C5
:103C70005B685B0500D459E1844B7D221A707C3A65
:103C800000217D20FEF728FBFEF748F8884B1B78C3
:103C9000002B0FD0D0231B065B681B0500D456E118
:103CA0007A4B7C221A707B3A00217C20FEF714FBB1
:103CB000FEF734F87F4B1B78002B05D0D0231B0672
:103CC0005B689B0200D453E17B4B1B78002B05D033
:103CD000D0231B065B681B0100D45FE1774B1B7888
:103CE000002B05D0D0231B065B681B0300D46BE1BF
:103CF000734B1B78002B05D0D0231B065B68DB02BF
:103D000000D477E16F4B1B78002B00D088E16E4B1D
:103D10001C686378FF2B07D0617C08096B4A107020
:103D20000F220A406A490A706A4A15686A78934203
:103D300005D1A288AB889A4201D1FFF7B7FA0120DA
:103D4000FEF78CFB644B1A78644B1B789A4201D0C7
:103D5000FFF700FB5C4B1B685B78072B01D1FFF77B
:103D6000FEFA5F4B1B68002B0AD05E4A80235B0083
:103D7000D35C2B2B01D9FFF7F9FA594B00221A60BB
:103D8000D0231B065B689B0601D5FFF7F3FAD0230F
:103D90001B065B681B0301D5FFF7FFFAD0231B0648
:103DA0005B68DB0201D5FFF71BFBD0231B065B68BA
:103DB0001B0401D4FFF737FB4B4B01221A704B4B0E
:103DC0001B78002B00D1CDE4494A1268062A00DC9A
:103DD00048E4484A1278934200D143E4464A1268C4
:103DE000002A00DC2BE4414B1B78202B00D939E45E
:103DF0009B00424AD3589F46244B32221A70F3E666
:103E0000224B30221A70EFE6204B1B221A701A3A0E
:103E100001211B20FEF760FAD0231B0680229204AA
:103E20005A611E4B00221A700A2001F0FDF9FDF7BD
:103E300075FFF9E6154B1A221A70193A01211A205A
:103E4000FEF74AFAD0231B06802292045A61144BD3
:103E500000221A700A2001F0E7F9FDF75FFFEDE696
:103E60000A4B18221A70173A01211820FEF734FA6B
:103E7000D0231B06802292045A610A4B00221A703A
:103E80000A2001F0D1F9FDF749FFE1E6182B0020E7
:103E90002B2B0020152B0020162B00201C2B002084
:103EA0001F2B0020202B00201A2B00201D2B002070
:103EB0001E2B00202E2B00201B2B0020272B002048
:103EC000302B0020112B0020E40D00200A2B0020B5
:103ED0000B2B0020E80D0020292B0020262B002092
:103EE000F02A0020FC1800202C2B00200C2B002096
:103EF000BC280020232B0020E42A002038E40010F6
:103F0000624B19221A70183A01211920FEF7E4F9C0
:103F1000D0231B06802292045A615D4B00221A7046
:103F20000A2001F081F9FDF7F9FE9BE6D0231B067C
:103F3000802252059A61802292045A61554B0022D8
:103F40001A700A2001F070F9FDF7E8FE9EE6D02312
:103F50001B06802252059A61802292045A614E4BC0
:103F600000221A700A2001F05FF9FDF7D7FEA1E6E2
:103F7000464B7D221A707C3A01217D20FEF7ACF978
:103F8000D0231B06802292045A61444B00221A70EF
:103F90000A2001F049F9FDF7C1FE95E63B4B8E2260
:103FA0001A708D3A01218E20FEF796F9D0231B0658
:103FB000802292045A613A4B00221A700A2001F0C2
:103FC00033F9FDF7ABFE89E6304B7F221A707E3A5B
:103FD00001217F20FEF780F9D0231B068022920466
:103FE0005A61304B00221A700A2001F01DF9FDF7CA
:103FF00095FE7DE6254B80221A707F3A01218020B4
:10400000FEF76AF9D0231B06802292045A61264BE0
:1040100000221A700A2001F007F9FDF77FFE71E611
:10402000D0231B065B689B0610D5204A1378507876
:1040300091781A04000202430A431D4C0421200017
:10404000FDF733FD2000FDF72BFC60E6194C2378CB
:10405000012253402370EFF3108672B68021802531
:10406000ED024901280008F083F986F31088FA2050
:1040700001F0DAF801222100280008F061F90E4B66
:1040800000221A70FDF74AFE41E6C046182B0020B8
:104090001A2B00201D2B00201E2B00202E2B002071
:1040A0001B2B0020272B0020302B0020D80D0020B8
:1040B00068180020282B0020112B002010B5024981
:1040C0000120FEF789F810BDFFFF0000F8B50500DC
:1040D0001A4B984202D01A4B984220D1002A24D081
:1040E000174EAC1B63425C41164863001F19BF00AA
:1040F0003D50C3195A600A000121280000F0EAF976
:104100002B68114A1A631734B54214D00F492000A6
:1041100001F0FCFA0121200001F0CEFAF8BD0C4BB1
:104120000C4A42210C4802F04BFB0C4B094A43213C
:10413000094802F045FB0A49E9E7C046FC0D0020AA
:10414000040E002028280020640600004101002001
:10415000BCE5001040E60010D8E5001030E6001085
:1041600051010020F0B5DE4657464E464546E0B5C3
:1041700085B0060010001C0002930EAB1A78039263
:104180000F9D109F33680022DA66336859603368E8
:104190000132DA66A246002398469B4600242BE0B3
:1041A0003279002A31D001222FE00399002901D071
:1041B00000212EE001212CE03800A8470300044331
:1041C000E4B2002B06D13268526BD20602D4002D25
:1041D000F2D1F6E7002B09D13268802151588B4685
:1041E00000291FD1002C2FD1C1451ED0002C33D166
:1041F00001229446E0440198D0452DDA029A013A12
:1042000091464246002ACBD000229202C145CCD032
:10421000002149020A43411C0191007831680243A0
:104220000A61D4E7526D01240EE0039A002ADDD121
:104230000AE03800A84703000443E4B2002B06D18B
:104240003268526B920502D4002DF2D1F6E7002BB2
:10425000CCD13268126EC9E7002C09D0002B15D1E1
:104260005B46002B16D0DB0718D45B461B0709D52D
:10427000039B3371404605B0F0BCBB46B246A9462D
:10428000A046F0BD02235B429846F1E701235B4262
:104290009846EDE702235B429846E9E702235B423A
:1042A0009846E5E7F0B5DE4657464E464546E0B54A
:1042B00083B0050091469A460CAB1B7801930D9E86
:1042C0000E9F03680022DA660368596003680132B2
:1042D000DA66D3460023984600242AE0297900298B
:1042E00033D0012131E00198002801D0002030E0D6
:1042F00001202EE03800B04703000443E4B2002C54
:104300000DD12A68926F002A09D12A68802151585C
:10431000546D621E9441E4B2002EEBD1EFE7002C05
:104320001ED12A68126949460A7001229446E04467
:10433000E144D84514DA5246541E2A68516F1029B8
:10434000FBD041460029C9D0002189024445CAD08A
:104350000020400208438021490001431161D4E755
:10436000002C04D0002B0CD001235B429846019B0B
:104370002B71404603B0F0BCBB46B246A946A046EE
:10438000F0BD02235B429846F1E70000F0B5D64647
:104390004F464646C0B505000C00052001F0C6FF9B
:1043A000060060088019210003F0D0FB07004300DD
:1043B000994681440521484603F0C8FB80463B1AD4
:1043C0009A46284B9C4224D870008019264903F055
:1043D000BDFB441C4346023BA34221D32B68002271
:1043E000DA6629680A680423534006221A408023AB
:1043F0005B010B431A602B685246DA612B68424618
:104400001A624B464F2B11D95021484603F09EFBB0
:104410000DE070008019154903F098FB441CD9E7A2
:10442000134B144A5D21144802F0CAF90120A0235D
:104430002A68D0502A6811007C31D06F444024048F
:10444000240C80235B010B431C602B680122DA667D
:104450003900300003F07AFBE0BCBA46B146A8460A
:10446000F0BDC0463F420F008096980040787D0125
:1044700050E60010B0E6001070E6001010B5114BC9
:1044800098421CD01022104B1A60104B1A60104B2F
:104490009B6814009C43231EF9D104710268D46602
:1044A00002686624FF3414600268D3630268936371
:1044B000883303220468E250FFF768FF10BD08222A
:1044C000E1E7C046FC0D002000E0004000F00040A5
:1044D00000C0004010B503680024DC66002910D03D
:1044E0000468216880239B004B400B490B408021CE
:1044F000490121430B6003689A6003680122DA6670
:1045000010BD01680B6841225340034A13408022CA
:1045100052010A431360F0E74102000030B585B054
:1045200008AC25780024029401940095FFF71AFE48
:1045300005B030BD30B585B008AC257800240294B4
:1045400001940095FFF7AEFE05B030BD034B1B682C
:1045500002201840431E9841C0B2704700C0064078
:10456000EFF3108072B6034B1B68002BFBD0BFF338
:104570005F8F70472C0100D0BFF35F8F024B00228A
:104580001A6080F3108870472C0100D0F8B506003F
:104590000C001500FFF7E4FFE308F718F15C0722B1
:1045A0002240012393400B4205D1DBB20B433B7009
:1045B000FFF7E2FFF8BD2100280002F09BF9F0B5FB
:1045C00083B00600019114001F00FFF7C9FF00E04F
:1045D0000134BC420CD8E308F518F35C07212140F4
:1045E00001228A401A42F3D1D2B21A432A7001E062
:1045F00001246442FFF7C0FF002C02DB200003B05F
:10460000F0BD019B002BF9D0089802F073F900006F
:1046100070B505000C00FFF7A3FFE308EE18EA5C95
:1046200007210C400123A340134204D09A43327067
:10463000FFF7A2FF70BD034B034A2C31034802F081
:10464000BFF8C046C4E6001028E70010E4E60010FA
:10465000002307E0054A9A189200BFF35F8F0021FC
:10466000116001331F2BF5D97047C046400000345C
:10467000054A1078431CDBB21370172B02D91300C4
:1046800010221A707047C0460C0E002000B583B08F
:104690000100044B00931F2318220348FFF78FFFEC
:1046A00003B000BD38E700108023002010B50C00D7
:1046B000CB68834207D108000B699847002809D0CE
:1046C0002068616810BD5221054B064AFF3106483B
:1046D00002F076F80023E36000200021F2E7C046F4
:1046E00054E70010B8E9001068E7001070B5050045
:1046F0000C00080000F04CFF0949200000F08CFE7F
:10470000FFF7B6FF074B9C466044800068602C753D
:10471000D0231B061B786B75A400034BE55070BDBE
:10472000314A001040000034742800200A4B1A68F7
:10473000EFF3108172B61368002BFCD0BFF35F8FCC
:10474000054B1B68BFF35F8F00221A6081F310884E
:1047500040BF002000217047C42A002010B5002966
:1047600022D003681B7B99421ED8174B9C4661449C
:10477000090183689C4661440C684968002A19D085
:1047800003681B7B9A4215D883680F4884466244AD
:1047900012019A1810685368020001208B4201D858
:1047A0000ED00020C0B210BD084B094A3C21094878
:1047B00002F006F8054B064A3C21064802F000F8D4
:1047C000A242EFD8EDE7C046FFFFFF0FA0E70010C1
:1047D00020EA001068E7001010B500291ED0037B06
:1047E00099421BD84B005B18033B0468A446634402
:1047F000002919D0002A1DD0914221D0002A25D0AD
:10480000047BA24222D80468500080180338201884
:104810008170197800291FD11A7010BD104B114AF0
:104820006821114801F0CCFF104B114A6F310E483E
:1048300001F0C6FF0F4B0E4A70210B4801F0C0FF7C
:104840000D4B0B4A7121084801F0BAFF044B054A91
:104850006821054801F0B4FF41701A70DDE7C046D9
:10486000C4E700108CEA0010E0E700102CE800100C
:1048700068EA001038E8001044E8001070B506003F
:104880000D001400002914D0002A14D08068736829
:104890009847002806D0220029003000FFF79CFF2F
:1048A000280007E02A0021003000FFF795FF2000D4
:1048B00000E0100070BD0800FCE70000F0B583B018
:1048C0000500009201930AAB1C780BAB1F78002CFB
:1048D00026D003685A7B944207D10123002B19D1BB
:1048E000002C3BD1200003B0F0BD002C0CD01A7B73
:1048F000944209D81A6863001B19033BD3189B78AC
:10490000002BEBD00123E9E73E4B3F4A68213F48AB
:1049100001F056FF3E4B3F4A67213F4801F050FFF0
:1049200003689C7B002CDBD012D01A7B94420FD8FA
:1049300062001219033A19688C46624451789973DF
:10494000002900D1D9730023937053701370C7E707
:104950002C4B2D4A68212D4801F032FF002C3AD013
:104960002B681B7B9C4236D82C4BE3181B01AA6892
:1049700094466344009A1A60019A5A60089A9A60B1
:10498000099ADA602E68002C2BD030D0337B9C4201
:104990002DD863001B19033B326894466344002200
:1049A0009A705A701A70717B22003000FFF766FF10
:1049B0007073844200D095E7287D009A019B00F037
:1049C00073FD061E01D0002F17D00C9B002B00D1C9
:1049D00088E71E7086E7124B124A3C210E4801F010
:1049E000EFFE114B114AA521084801F0E9FE054BE5
:1049F000054A6821054801F0E3FE2868210001F01E
:104A000015FBE2E7C4E700108CEA0010E0E70010B5
:104A10005CE8001098EA001068E70010FFFFFF0F45
:104A2000A0E7001020EA001064E700107CEA001004
:104A3000F0B5DE4657464E464546E0B58BB0099088
:104A4000002308938200B54BD658370052E0B44B90
:104A5000B44A3F21B44801F0B3FEB44BB44A3C2100
:104A6000B44801F0ADFE002901D1002869D1002130
:104A7000404601F0D1FAA04219D12A686B6806922B
:104A80000793AB689846EB689A464346002B14D0D0
:104A9000002C18D03B681B7B9C4214D8631EFA681C
:104AA000D35C08931B0218433861002015E0A24B29
:104AB000A24A8E219F4801F083FEA14B9F4A92217A
:104AC0009C4801F07DFE994B9E4A4121994801F096
:104AD00077FE00239A46984600207B68BFF35F8FDD
:104AE00000221A6086F310884346002B32D100283A
:104AF00000D10CE100F04CFC02000B1EA7DB0020F3
:104B00000021069007917868EFF3108672B601686D
:104B10000029FCD0BFF35F8F396888464C7B002C9E
:104B2000D7D09AD0097B8C4297D8874965182D0138
:104B3000B9688C46654428686968801A99410029DB
:104B400091DD2A686B68099800F0AEFC00239A4654
:104B50009846C2E7089B1B0223439946514618001A
:104B6000C04705000E007A68EFF3108B72B6136829
:104B700059424B41D9B2002BF9D1BFF35F8F002EC0
:104B80001EDB002E46DD3B69002B47D04B456DD127
:104B900000F0FEFB02000B1E6EDB52197341002B6E
:104BA00070DB002B72DB0021049101310391029430
:104BB00051460191414600913800FFF77FFE4CE0DD
:104BC0003B69002BDDD04B4514D1069A079B521B45
:104BD000B341002B14DB002B16DB002104910131C3
:104BE0000391029451460191414600913800FFF72C
:104BF00065FE32E0554B514AA1214E4801F0E0FDDF
:104C000001225242524BE6E7454B464A3F21464875
:104C100001F0D6FD002E01D1002DB4D13B68002C4F
:104C200050D05A7B944237D1012100294AD1DA7BF6
:104C3000002A4DD19A7B002A03D1DA7B002A5AD16F
:104C40009C73DC73002C5CD03B681B7B9C4258D867
:104C5000FA68013C135D0133135500233B617A6808
:104C6000BFF35F8F13608BF3108843E7374B334AF2
:104C7000A421304801F0A4FD294B2A4A3F212A48AB
:104C800001F09EFD01225242314B8AE7244B254A16
:104C90003F21254801F094FD002C0DD01A7B944251
:104CA0000AD862001219033A18688446624492785E
:104CB000002ABAD00121B8E7264B274A68212748A5
:104CC00001F07EFD264B274AF621244801F078FDAD
:104CD000002A0AD0197B8A4207D851008A18033A61
:104CE00019688C4662445470A4E71A4B1A4A68212A
:104CF0001A4801F065FD1C4B1A4AFB21174801F0C8
:104D00005FFD0A4B0F4A41210A4801F059FD0BB0E3
:104D1000F0BCBB46B246A946A046F0BD74280020B0
:104D2000D4E00010ECE9001028E10010A0E700102A
:104D300020EA001068E7001084E8001004EA001080
:104D40009CE8001044EA0010FFFFFF0FA8E80010E5
:104D5000FFFFFF7FC4E700108CEA0010E0E70010BF
:104D6000E4E8001058EA001008E9001010B50C4BF8
:104D70005B68002B04D00A210A4800F07BFF10BDBD
:104D8000074C2300084A1021206801F055F8032041
:104D900000F0F2FA03212000FFF7A8FCEBE7C04681
:104DA000100E0020C42A00205D47001010B5064BED
:104DB0005B68002B01D0044810BD044B044A5E21FF
:104DC000044801F0FDFCC046100E00201CE9001054
:104DD0002CEA001068E70010F0B5DE4657464E4654
:104DE0004546E0B58BB0804616001F00149B9A46DE
:104DF000159B994616AB1B789B461F2302AA944627
:104E0000634400221A702BE0002809D04246126841
:104E1000127B904204D8421E4146C9688A5C41E038
:104E2000404B414A4121414801F0CAFC07984CE0FF
:104E3000361BAF41002F07DB002F11DA3C4B3D4AF8
:104E40003F213D4801F0BCFC012676423B4FF3E791
:104E5000374B384A3F21384801F0B2FC002F4FDB76
:104E600043465A68EFF3108472B6136859424B41B7
:104E7000D9B20791002BF8D1BFF35F8F1F3302AA7D
:104E80009446634404930023039302934B46019397
:104E90005346009332003B004046FFF70FFD031ED0
:104EA000B2D1020041464968BFF35F8F00250D6013
:104EB00084F31088002B29D01F2302A98C46634459
:104EC0001B78002BB2D112021043002B20D05B467E
:104ED000002B1DD04946D04704000D0003000B43B2
:104EE0001DD00029A4DB00F053FA06000F1EAFDB33
:104EF00036196F41002FB1DA012676420F4FADE728
:104F00000B4B0C4A3F210C4801F05AFC0120404257
:104F10000BB0F0BCBB46B246A946A046F0BD079810
:104F2000F6E7C046A0E7001044EA001068E700106A
:104F3000D4E00010ECE9001028E10010FFFFFF7F33
:104F4000F8B50400002900D162E04268EFF3108553
:104F500072B6136858424341D8B2002BF9D1BFF35F
:104F60005F8FCBB22268567BB3421BD10120002851
:104F700048D0206988422BD0090AC9B2002B2ED014
:104F80002068007B83422AD8581EE668305C88423D
:104F90002BD000206368BFF35F8F00221A6085F377
:104FA0001088F8BD002B0DD0167BB3420AD85E00E6
:104FB000F618033E1768BC466644B678002ED6D075
:104FC0000120D4E7134B144A6821144801F0F8FB80
:104FD0002C21134B134AFF31134801F0F1FB134B03
:104FE000134A4121104801F0EBFB1900100001F0B9
:104FF0001DF80028CED199210E4B0A4A49000A48D3
:1050000001F0DEFB23698B42C4D100232361C1E799
:105010000020C6E7C4E700108CEA0010E0E70010AB
:1050200040E90010D4E9001068E70010A0E7001084
:1050300044EA001064E90010407D7047F0B585B087
:105040000700100019000C9E13000B4301D1012032
:105050000021B7600A9B3361306071600B9B736104
:10506000CA1713005040040051400D00A41A9D417E
:1050700000F08EF902000B1E12DB12196B41002B9F
:1050800014DB002B16DB0121029101960C490091E3
:105090003800FFF7A1FEF060C043C00F05B0F0BDBF
:1050A000084B094A3F21094801F08AFB012252427C
:1050B000074BE6E7034B044A3F21044801F080FB1D
:1050C000AD460010D4E00010ECE9001028E100101B
:1050D000FFFFFF7FF0B587B006000F00EFF30583F9
:1050E000002B1FD106246442E517A4197D418D428F
:1050F00002D803D1844201D900240025002D14DBFD
:105100000494059500F044F902000B1E13DBA41A69
:105110009D41002D17DC14D03000390000F044F917
:1051200007B0F0BD234801F0E5FB234B234A3F21A4
:10513000234801F045FB204B204A3F21204801F045
:105140003FFB002CE8D0FFF731FE002302930193D0
:105150001C4B0093049A059BFFF73EFE002818DACB
:10516000DAE7002300E00023002BD5D1164B1A68A4
:10517000EFF3108172B61368002BFCD0BFF35F8F82
:10518000114B1B68BFF35F8F00221A6081F31088F8
:1051900020BF0499059A0D4B5B6A9A42E3D80B48ED
:1051A000806A884203D29A42DBD00123DCE70123E4
:1051B000DAE7C04668E90010D4E00010ECE900101E
:1051C00028E100102D470010C42A002000400540AF
:1051D00070B504000D0000F0DBF802000B1E0ADBC6
:1051E000200029008018594100290ADB00290CDB26
:1051F000FFF770FF70BD084B084A3F21084801F0D7
:10520000DFFA012040420749F0E7034B034A3F2100
:10521000034801F0D5FAC046D4E00010ECE90010D4
:1052200028E10010FFFFFF7F10B5FA229200002353
:10523000002103F0C7FAFFF7CBFF10BD70B584B0B3
:1052400005000C00EFF30583002B1ED1FFF7AEFD28
:10525000002302930193224B00932A002300FFF7BF
:10526000BBFD061E23DD20BFFFF7A0FD3100FFF7C9
:1052700067FE1C4B5B6A9C422DD81A4A926AAA426E
:105280002CD29C4225D0012026E0164B5B6A994225
:1052900009D8144A926A824207D2994201D0012069
:1052A0001AE0002018E0002016E0012014E00D4B69
:1052B0005B6A9C4209D80B4A926AAA4207D29C4276
:1052C00001D0012008E0002006E0002004E00120D9
:1052D00002E0002000E0002004B070BD0120FBE7E8
:1052E0002D4700100040054070B5EFF305801038E1
:1052F000EFF3108C72B61A4B1B68002BFBD0BFF378
:105300005F8F01221300834016494B6316490B60DF
:10531000164909780C00C440224214D0114A546A3C
:105320008200134D5259944206D38200114C1259F7
:1053300099430E4B197007E00A4A031D9B009958C8
:105340009950002200E00022BFF35F8F044B002140
:1053500019608CF31088002A00D0904770BDC046B9
:10536000280100D0004005403C7005402F2B002054
:10537000D42A00205822002010B50100024A034818
:10538000FFF704F910BDC046B0EA0010082B00205A
:10539000044B5B6A034A906A1900536A9942F9D137
:1053A0007047C04600400540084B5B6A01E0074B70
:1053B0005B6A8B42FBD301E0044B5B6A8B4203D1F7
:1053C000024B9B6A8342F7D37047C04600400540BA
:1053D00070B504000D00FFF7DBFF02000B0020009A
:1053E0002900801859418B4202D804D1824202D947
:1053F00001204042C117002902DBFFF7D5FF70BD35
:10540000024B034A3F21034801F0DAF9D4E00010CF
:1054100058EB001028E1001070B504000D00EFF308
:10542000108672B61B4B1B68002BFBD0BFF35F8F3F
:10543000002D1CD0200000F04FF9174B83420BD0F9
:105440001900200000F062F90121200000F034F979
:105450000123A340114A1360A400114BE550BFF390
:105460005F8F0C4B00221A6086F3108870BDA2007B
:105470000B4B0021D1500122A2400A490B789343E3
:105480000B700549200000F085FA0021200000F093
:1054900013F9E4E7280100D0E95200103860054014
:1054A000582200202F2B0020F0B5DE4600B584B036
:1054B0000400150001921E000293FFF769FF039597
:1054C0008E4202D84ED185424CD9EFF3108B72B682
:1054D000274B1B68002BFBD0BFF35F8F254A177843
:1054E0000125A540EBB23B431370234B5D63221DA6
:1054F00092000199D150A2002049029850501B6A95
:105500002B4212D11C4B1B6C2B4208D00020BFF346
:105510005F8F174B00221A608BF3108823E0184B23
:10552000184AC521184801F04BF9FFF731FF8E42A8
:1055300014D802D1039B834210D80E4B1B78BB4278
:105540000ED00D4B1D625D631F2004400123A3405C
:105550000E4A1360074B1F701E38D8E70020D6E7AD
:105560000120D4E7012004B080BCBB46F0BDC0469A
:10557000280100D02F2B002000400540D42A002015
:10558000D4EA00103CEB0010F8EA001080E200E0E2
:10559000EFF3108C72B60B4B1B68002BFBD0BFF3E4
:1055A0005F8F01238340084A136208490A789A43AF
:1055B0000A70BFF35F8F034B00221A608CF31088D0
:1055C0007047C046280100D0004005402F2B002026
:1055D000074B9B68103080001950BFF35F8FBFF3FB
:1055E0005F8F044B0021196082F310887047C0461A
:1055F00000ED00E0240100D010B5091A081F0A4B85
:105600009C466144094A914208D8C30706D4401019
:105610004005400D064B184380B210BD054B064AAD
:10562000A321064801F0CCF8FC070000FE0F0000A3
:1056300000E0FFFF70EB0010E0ED0010A0EB0010A9
:1056400010B5091A04394C08090B08D14905490D50
:10565000064A11430180064B2343438010BD054B8E
:10566000054AAB21054801F0ABF8C04600F0FFFF4A
:1056700000F8FFFFE0EB0010B4ED0010A0EB00100D
:1056800001238340034A10681840431E9841C0B26A
:105690007047C04600E100E0002904D0034B1860C9
:1056A000034B18607047034B1860FBE780E200E093
:1056B00000E100E080E100E010B501238340180024
:1056C000FFF7EAFF10BD000001238340014A136089
:1056D0007047C04600E200E0024B9B68103080003B
:1056E000C058704700ED00E010B5FFF7F5FF002847
:1056F00005D0054BC01A2F2803D8012010BD00206B
:10570000FCE70020FAE7C046380E002070B5040020
:105710000D00EFF3108672B60C4B1B68002BFBD00C
:10572000BFF35F8F2000FFF7D7FF094B984201D0EE
:10573000A84205D1320029002000FFF749FF70BDC3
:10574000044B054A8621054801F03AF8240100D0AF
:10575000CD010010F0EB001014EE0010A0EB0010D3
:10576000F0B5DE4657464E464546E0B589B081461F
:1057700001911500EFF3108A72B6744B1B68002B71
:10578000FBD0BFF35F8F724B0027DF57002F40DB4A
:105790007C00E419A4006F4824180622A2566C4B22
:1057A0001A706D4B9A684B4610339B00D35898463D
:1057B0001E001B1A2F2B38D9684B98452FD105AEE8
:1057C000674B33807B009B46D8198000614B98461D
:1057D000404402306349FFF70FFF7080624BB38093
:1057E000FF23B371F571019B07935F44BF004744EA
:1057F0000ECE0EC701231C43A046524641464846E2
:10580000FFF7E6FE09B0F0BCBB46B246A946A0468B
:10581000F0BD564B564AD721564800F0D1FF564BA3
:10582000534ADE21534800F0CBFFC04340440C21D3
:1058300002F08CF9002912D101239E43B3463300B4
:105840000026DA79AA4211D90621595600290CDB23
:105850004A00521892001E003E4B9B18F1E7474B3E
:10586000434AEA21434800F0ABFF1E00002E3AD025
:1058700005AB434A1A80813A5A800623F3560293B5
:10588000002B17DA3F4805AB9B469880029A9A7125
:10589000DD71019A0792301D2100FFF7ADFEB08047
:1058A000B7717B00DB199B002A4FFF185B4607CBC3
:1058B00007C7A2E77800C0198000264BC018043043
:1058C000321DB388D90A1C2907D15B05591502314D
:1058D00049005118FFF790FED5E72B4B2B4AB12119
:1058E000244800F06DFF05AE1D4B33807B00029312
:1058F000D8198000174A9046020042440392901C37
:105900001849FFF779FE7080039A101D5946FFF77A
:1059100073FEB0801E4B5A464146521A52415343C1
:105920001B0DB371F571019A0792029B9C46674467
:10593000BF0047440ECE0EC7114B5A461380813B21
:10594000538001231C43A04657E7C046240100D0E2
:10595000132B0020380E002000ED00E0CD010010D8
:1059600000A1FFFF680E002001BDFFFF28EC001022
:10597000FCED0010A0EB001050EC001078EC0010D3
:105980000148000001BD0000ECEC0010ECED00103F
:10599000AAAA0000F0B5CE46474680B583B00600FF
:1059A0000D00EFF3108872B6564B1B68002BFBD02E
:1059B000BFF35F8F544B9A6834001034A300D7585C
:1059C000524B9F4207D0AF4200D198E00197504B15
:1059D000FB1A2F2B09D9424639003000FFF7F8FD9A
:1059E00003B0C0BCB946B046F0BD3000FFF748FE7A
:1059F000814600213000FFF75FFEBFF35F8FEFF3BA
:105A00000581002901D08C4211D10123019C9C43C6
:105A10000022A368AB4212D00622A256002A0DDB58
:105A200053009B189B002200394CE418F1E7362103
:105A3000384B394AFF31394800F0C2FE2200AB42F0
:105A400056D106256557002D38DB6B005B199A008F
:105A50002F4B9B189A68A260DA79E27106229A5657
:105A6000A2719B795BB2002B0FDA2D48A0806B00EE
:105A70005B199B00264AD3182A4A11789971157030
:105A800049463000FFF718FEA5E7201D6B005B19A3
:105A90009B001F4A9B181A1D9B88D90A1C2907D1F5
:105AA0005B055B15023359005118FFF7A5FDDDE7D3
:105AB0001D4B1E4AB121194800F082FE002912D167
:105AC000002A0ED0FF239371194B9380154A137847
:105AD000A371184B0E49641A644163431B0D137084
