:020000041000EA
:1000000000B5324B212058609868022188439860DF
:10001000D860186158612E4B002199600221596106
:100020000121F02299502B49196001219960352056
:1000300000F044F80222904214D00621196600F024
:1000400034F8196E01211966002018661A6600F04E
:100050002CF8196E196E196E052000F02FF8012189
:100060000842F9D1002199601B49196000215960AB
:100070001A491B48016001219960EB211966A021F2
:10008000196600F012F800219960164914480160C1
:100090000121996001BC002800D000471248134993
:1000A000086003C880F30888084703B5996A0420EC
:1000B0000142FBD001200142F8D103BD02B5186610
:1000C0001866FFF7F2FF186E186E02BD00000240BE
:1000D000000000180000070000035F00212200005C
:1000E000F4000018222000A00001001008ED00E03C
:1000F00000000000000000000000000074B24E7A12
:1001000000200420F7010010C3010010C5010010F9
:10011000C1010010C1010010C1010010C101001097
:10012000C1010010C1010010C1010010C701001081
:10013000C1010010C1010010C9010010CB01001065
:10014000CD010010CD010010CD010010CD01001037
:10015000CD010010CD010010CD010010CD01001027
:10016000CD010010CD010010CD010010CD01001017
:10017000CD010010CD010010CD010010CD01001007
:10018000CD010010CD010010CD010010CD010010F7
:10019000CD010010CD010010CD010010CD010010E7
:1001A000CD010010CD010010CD010010CD010010D7
:1001B000CD010010CD010010CD010010CD010010C7
:1001C00000BE00BE00BE00BE00BE00BE00F04BF888
:1001D000103800BEF2EB887130F3001058F30010B5
:1001E0003402001090A31AE700202149086006C8D5
:1001F00081F3088810471F48006800282FD10DA4FC
:100200000ECC002902D000F012F8F9E71A491B4A77
:10021000002000E001C19142FCD1194988471949E9
:1002200088471949884700BEFDE701C901C29A42C3
:10023000FBD3704758F30010C0000020F40E0020DC
:100240008C01011000000420000004208C0101102A
:1002500000100420001004200000000070470B482C
:1002600006F0EAFC0047EFF30580C0B270470000DB
:1002700008ED00E0000000D0F80E00206822002009
:1002800005550010812B001019560010575600001C
:1002900006005250ABB3605368E90010060052509C
:1002A000861C030278E90010060052505422A29DD9
:1002B00084E9001005005250DE65F4688C010110DD
:1002C000F8B5C04610B5064C2378002B07D1054B76
:1002D000002B02D0044800E000BF0123237010BDB2
:1002E000381000200000000068B80010044B10B562
:1002F000002B03D00349044800E000BF10BDC046F6
:10030000000000003C10002068B80010D0231B063D
:100310005B68C34001201840704701238340D0220E
:10032000120653629361704701238340D022120664
:1003300053629361704710B5040005F055F801232E
:10034000A340D0221206936210BD10B5040005F040
:100350004BF80123A340D0221206936210BDF8B5DA
:10036000CE46474680B50C000378994643789846B8
:100370008768002515E04846FFF7D6FF4046FFF79F
:10038000E4FFFE173800310004F0FAFB4046FFF7A7
:10039000C4FF6400E4B23800310004F0F1FB013521
:1003A000EDB2072D06D863B2002BE4DA4846FFF71A
:1003B000C2FFE3E74846FFF7BEFF4046FFF7C5FF31
:1003C000FD173800290004F0DBFB4846FFF79EFFCD
:1003D00004004046FFF7A1FF3800290004F0D0FBDD
:1003E0004846FFF7A1FF002C04D10120C0BCB9464C
:1003F000B046F8BD0020F9E7F8B506001400170074
:10040000012000E02900002F0AD0012808D14D1C4E
:1004100009783000FFF7A3FF0128F3D1013FF1E78E
:10042000012801D00020F8BDE01BFCE770B50500F5
:100430000C0016000078FFF777FFA868002104F091
:100440009FFB6878FFF769FF6100C9B2002E01D0F9
:100450000131C9B22800FFF782FF70BD10B504005A
:100460000078FFF761FFA068002104F089FB607845
:10047000FFF76BFFA068002104F082FB2078FFF7F4
:100480005AFFA068002104F07BFB10BDF8B5060000
:100490000F000078FFF74FFF0025002404E070787C
:1004A000FFF73BFF0134E4B2072C11D8B0680021FC
:1004B00004F066FB7078FFF748FF6D00EDB230780E
:1004C000FFF724FF0028EAD001231D43EDB2E6E741
:1004D000002F15D03078FFF72EFF7078FFF735FF2B
:1004E000B068002104F04CFB7078FFF716FFB0688D
:1004F000002104F045FB3078FFF716FF2800F8BD17
:100500003078FFF711FFE8E770B506000C0008E04F
:1005100069426941C9B23000FFF7B8FF20702A0074
:100520000134551E002AF3D170BD000070B50400DF
:100530000D0000280AD08378002B08D100789F286E
:100540001BD9234B9D4228D90023A36070BD2148AD
:1005500003F062FA2078032104F014FF607803218D
:1005600004F010FF20780022012104F023FF6078BE
:100570000022012104F01EFFE8E704F035FF607857
:1005800004F032FF2278012319009140D022120694
:10059000916261788B409362D3E70F4B9D4202D901
:1005A0000123A360D2E70D4B9D4202D90223A36031
:1005B000CCE70B4B9D4202D90A23A360C6E7290072
:1005C000084806F08DFB0004000CA060BEE7C046A2
:1005D0003F420F0094050020FF340C007F1A0600F4
:1005E0009F86010040420F0030B585B00400857839
:1005F000002D0BD10022FFF719FF002800D00125A4
:100600002000FFF72BFF280005B030BD002300932A
:1006100001330F226A44034803F04FFAC543ED0F3C
:10062000F1E7C04694050020F0B583B00400170040
:100630001E008378002B0BD10022FFF7F7FE050088
:10064000012811D02000FFF709FF280003B0F0BDFA
:10065000012300933300084803F023FA002801DB4C
:100660003500F2E70025F0E7320039002000FFF7FF
:10067000C3FE0500E6E7C04694050020F0B585B04E
:1006800006000F001D000F236B441A708378002BA7
:100690000BD10022FFF7CAFE040001281AD0300057
:1006A000FFF7DCFE200005B0F0BD012300930F2210
:1006B0006A44154803F0F5F9002802DAC043C40F74
:1006C000F0E7002300930A9B2A0039000E4803F04C
:1006D000F4F9F3E701220F2169443000FFF78CFEA3
:1006E00004000128DBD13000FFF7B8FE01223900F9
:1006F0003000FFF79BFE04000128D0D10A9A2900A0
:100700003000FFF701FFCAE79405002010B50C0088
:100710001300017810302200FFF786FF10BD10B5DE
:1007200082B00C00D1010919C160002B25D0C3781B
:10073000052B0BD0042B0FD0062B20D0072B0CD170
:100740001C348378002B08D1033206E020348378F0
:10075000002B02D1043200E0023401A900230B7007
:10076000503B1A434A705F3323408B70241110238F
:100770001C43CC700422FFF7C9FF02B010BD837880
:10078000002B01D02034E8E70232E6E770B5A2B0D2
:1007900005000E00140001AA40211170002B12D197
:1007A000686800280DD0EB689C4660442200310048
:1007B00007F03EFAEB689C466444EC60A405A40D87
:1007C000EC6022B070BD220031006B46581D07F06E
:1007D0002FFA621C01A92800FFF798FFE0E700004C
:1007E000F0B5C64600B584B004000D0017001E0029
:1007F00000234360C170867043700B9B83740C9B15
:1008000003740D9B43746A4B0E9A1A6001235B427A
:10081000684A1360684A13601133984680440F9900
:100820004046FFF783FE7B1C012B01D9FF2F32D1FD
:100830003C214046FFF7D8FE3C214046FFF7D4FE5E
:1008400000281ED03C2323700B276F4400233B70ED
:100850002178013300933B0000224046FFF70EFF52
:100860003A780F2313403B70072B23D00F2B21D056
:10087000082B36D0032B38D0062B38D001277F42E7
:100880001EE03D214046FFF7AFFE002800D18CE07E
:100890003D232370D8E7FFB2277039004046FFF7A9
:1008A000A3FE39004046FFF79FFE0028CCD1012768
:1008B0007F426AE00123E37073425E41F6B204278F
:1008C00023783D2B15D0022D15D0062D13D0012DE8
:1008D0002ED0072D32D0162238492000FFF716FF00
:1008E0000EE0043BE3700227EAE70027E8E7002771
:1008F000E6E70137E7E7182231492000FFF706FF56
:100900000A9B002B20D1002E29D18023A372403BCB
:10091000E372062D35D0022D3CD0012D3DD0052DA2
:100920003ED0072D31D14823A372203BE3722CE047
:10093000162224492000FFF7E9FEE1E71A222249A6
:100940002000FFF7E3FEDBE700236A461373A733BB
:100950005373022203A92000FFF7D8FED3E703AEAA
:1009600000233370A0337370022231002000FFF7A0
:10097000CDFEC0237370022231002000FFF7C6FEB7
:10098000C3E72033A372503BE372380004B080BC4D
:10099000B846F0BD2023E372F7E78023E372F4E763
:1009A0004023A372203BE372EFE701277F42ECE78D
:1009B00060150020581000205410002060BA00106C
:1009C00048BA001094BA001078BA0010002305E06D
:1009D0000278D243027001300133DBB28B42F7D38D
:1009E00070470000F0B5DE4657464E464546E0B536
:1009F0008FB004000D00511C03D0591C01D00272AD
:100A00004372217AA37A994200D3BDE3627AE37AF2
:100A1000DB089A4200D3BAE31B9B2000FFF77FFE5E
:100A2000199B012B19D0199B042B77D0199B022BF2
:100A300000D12EE1199B032B00D198E2199B002BCA
:100A400000D0BFE30621280006F022F9199F2A00F2
:100A50000D00189B9846160055E307272F400026E7
:100A60002A003D00189B9846170014E0082104A8AE
:100A7000FFF7ACFF31E000232372627A0132D2B279
:100A800062721B9B00212000FFF749FE002500E059
:100A90000025083F0136227AA37A9A4200D379E3EF
:100AA00043469A5D002A00D176E3617AE37ADB0857
:100AB000994200D372E3072FEBDC203AD100891A68
:100AC000002304AA1370C44A8918072204AB581CD7
:100AD00007F0AEF81A9B002BC8D10822531B9A4688
:100AE000237A52469918A27A914201DDD31A9A4686
:100AF000290004AB9C4661441B9B52462000FFF733
:100B000045FE227A5244D2B22272A37A073B9A421D
:100B1000BEDB6378002BAED10025BAE70B332B4048
:100B200098460023AA461D00189B99461B9B9B468E
:100B300046E0102104A8FFF749FF6DE0102104A84A
:100B4000FFF744FF82E0217A02325B462000FFF784
:100B5000E6FD31002031102204A807F069F81A9B45
:100B6000002B06D15B463A0041462000FFF70EFEFF
:100B700076E0102104A8FFF729FFF3E7217A03327A
:100B80005B462000FFF7CBFD31003031102204A876
:100B900007F04EF81A9B002B06D15B463A004146FF
:100BA0002000FFF7F3FD5EE0102104A8FFF70EFF21
:100BB000F3E70023984610235B429C46E24401354C
:100BC000217AA07A814200D3EAE2627AE37ADB08F2
:100BD000033B9A4200DBE5E24B465E5D002E00D10E
:100BE000E2E253460F2BE6DC203EF6B2B6017B4B29
:100BF000F61810274346FF1ACB19834200DD471A27
:100C00005B462000FFF78BFD1022310004A807F09F
:100C10000FF81A9B002B8CD104AB9C46E0445B463A
:100C20003A0041462000FFF7B1FD217A627A013295
:100C30005B462000FFF773FD31001031102204A83D
:100C400006F0F6FF1A9B002B00D077E75B463A00D0
:100C500041462000FFF79AFD627A052A00D872E724
:100C6000627A042A8AD9237ADF19FFB22772A37A1B
:100C70000F3B9F429DDB6378002B07D0002323723C
:100C8000637A043363720023984694E700239846FE
:100C900091E70C21280005F0FBFF0391002300934E
:100CA000AB4633E1062104A8FFF790FE55E1920020
:100CB000D2B20133032B0CDC08001841C00700D569
:100CC0001643181D0C0004412000C007EFD5154342
:100CD000EDE74C4604AB1E5563465E701D735D73B5
:100CE0000137052F0CDCFC1C6400A44604AB9946BC
:100CF000CC44D95D0322002500260023A146D9E774
:100D00000027C44601E0019C2700042F00DDAEE06F
:100D100004ABDD5D7C1C1E5D03377F0098464744B5
:100D2000022101230020019423E0022858DC420024
:100D300001320124A146944062B27C78144364B22B
:100D4000A0467C70BC78224354B20294BC70441C10
:100D50006400A2464C465246944062B24446144354
:100D60007C70029C1443BC705B00DBB24900C9B2CA
:100D700001300628C7DC2A001A401D4205D01E4259
:100D800003D10D4201D10E42CFD1002A05D11E421E
:100D900003D00D4201D00E42C7D0002AE4D11E423A
:100DA000E2D00D42E0D00E42DED103284DDC4200FD
:100DB00001329046012292461400424694407A78CD
:100DC00014437C70421C5200544694402200BC786C
:100DD0002243BA70C8E7C046ACBA00104CBD001040
:100DE00003281ED0021F520001320124A146944064
:100DF00062B27C7B144364B2A0467C73BC7B22430A
:100E000054B20294BC73C41E6400A2464C465246BF
:100E1000944062B2444614437C73029C1443BC73F6
:100E2000A2E77A78904680225242444614437C706E
:100E3000BC782243BA70012290467A7B4446224312
:100E40007A73BA7B2243BA738EE7021F52000132D3
:100E50000124A04694407A7B22437A73C21E52003A
:100E6000444694402200BC7B2243BA737CE764462C
:100E70000C26039BF61A217A8A19A37A9A4200DD7E
:100E80005E1A627A1B9B2000FFF749FC039DA91D97
:100E900004AB9C4661441B9B32002000FFF776FCAC
:100EA000217A627A01321B9B2000FFF738FC29006F
:100EB000123104AB9C4661441B9B32002000FFF7BB
:100EC00065FC237A9E19F6B22672A37A0B3B9E42EA
:100ED00013DB6378002B02D1002303930FE0002380
:100EE0002372627A0232D2B262721B9B002120000E
:100EF000FFF715FC0023039301E0002303930C2369
:100F00005B429C46E344009B01330093227AA37A20
:100F10009A4200D34AE1627AE37ADB08013B9A42C3
:100F200000DB45E1189B009A9B5C002B00D141E15E
:100F30005A460B2AE3DC203BD9B28B005918A94B47
:100F4000C918002304AA1370062204AB581C06F02B
:100F50006FFE1A9B002B00D0A4E61822002104ABE0
:100F6000981D06F05FFE00231F00A046B9E60C3373
:100F70002B409B4600239A46D946AB467FE008218A
:100F800004A8FFF723FDA1E09200D2B20133032BA6
:100F90000CDC08001841C00700D51643181D0C00D2
:100FA00004412000C007EFD51543EDE7009C404603
:100FB00004AB1E5563465E701D745D740137072FC8
:100FC0000DDC3C1D6400A44604AB9846C444D95DC6
:100FD000032200250026002300948046D7E7040062
:100FE00010234A469B1A9846017ACA18837A9A4275
:100FF00001DD5B1A9846627A1B9B2000FFF78FFB8E
:101000004946083104AB9C4661441B9B4246200084
:10101000FFF7BCFB217A627A01321B9B2000FFF7AD
:101020007EFB4946183104AB9C4661441B9B4246FB
:101030002000FFF7ABFB237A4344DBB22372A27A92
:101040000F3A934213DB6378002B02D100239946B9
:101050000FE000232372627A0232D2B262721B9BCB
:1010600000212000FFF75BFB0023994601E00023ED
:1010700099465B46103B9B46534601339A46227A7B
:10108000A37A9A4200D397E0627AE37ADB08013BC5
:101090009A4200DB92E0189B52469B5C002B00D1E9
:1010A0008EE05A460F2AE4DC203BDBB2D900C91A95
:1010B0004D4BC918002304AA1370072204AB581C17
:1010C00006F0B6FD1A9B002B00D058E72022002125
:1010D00006A806F0A7FD0027200070E7062104A857
:1010E000FFF774FC2FE000232372627A0132D2B240
:1010F00062721B9B00212000FFF711FB199D00E08D
:10110000199D063E0137227AA37A9A425DD2627A0D
:10111000E37ADB089A4260D24346DB5D002B5ED067
:10112000052EEEDC203BD9B2002304AA13708B00FD
:1011300059182C4BC918052204AB581C06F078FD31
:101140001A9B002BCAD10622531B9A46237A524679
:101150009918A27A914201DDD31A9A46290004AB6C
:101160009C4661441B9B52462000FFF70FFB227AEE
:101170005244D2B22272A37A053B9A42C0DB637812
:10118000002BB0D1199DBCE7012040421EE0012098
:1011900040421BE0002019E0002017E0002015E08D
:1011A000002013E0002011E000200FE000200DE0FF
:1011B00000200BE0002009E0002007E0002005E00F
:1011C000002003E00120404200E019980FB0F0BC7D
:1011D000BB46B246A946A046F0BD1998F6E7199855
:1011E000F4E7C04668B80010ACBA0010F0B5D646B7
:1011F0004F464646C0B584B005008A461600C37AFD
:10120000DB089946877A3F091022684606F00AFDF6
:1012100000236B722B72984610E03300102269464F
:101220002800FFF7B3FA0134E4B2BC42F5D3EB78FF
:10123000072B0DD043460133DBB29846C8450ED28A
:101240003300424600212800FFF769FA0024ECE74A
:101250003300082269462800FFF798FAEAE7686831
:10126000002806D0AB7AEA7A5A43D210514606F0EB
:10127000D9FC04B0E0BCBA46B146A846F0BD416016
:101280007047704770B504000E00C06806F0BEFCE1
:10129000E27D237D9A4221D004257543ADB2A5801D
:1012A000280006F0A1FCE060002819D02A000021E7
:1012B00006F0B8FC6680A36A002B0ED0206906F009
:1012C000A5FCA588280006F08FFC206100280BD023
:1012D0002A00002106F0A6FC668070BD0325DCE72D
:1012E0000023A3806380E6E70023A3806380F4E704
:1012F00070B5C37D027D9B1A5A425341DCB28B0903
:1013000003221340C3750D09154005758E0816405C
:1013100046750A4082750022FF268E4252410270B5
:10132000C268002A05D05B1B5A425341DBB29C4283
:1013300000D170BD4188FFF7A5FFFAE7F0B5CE46B2
:10134000474680B587B005000F000021A44809F08A
:10135000D5FC0400431C06D0A24B1B68013300D10E
:1013600093E09F4B2B62631C00D19CE09D4B1B685C
:10137000013300D197E0631C00D1B5E0994B1868A8
:10138000431C00D1ABE02E6A974B9E4200D1AFE0E8
:10139000002396499B005A5801325A503FB2EF80C1
:1013A000A0466C622B78002B00D1AAE08E4B9E42A7
:1013B00000D19FE004008A4B9E4200D19DE00721AE
:1013C000380003F0DFFF012300933A00414630006C
:1013D00009F00EFD1022002102A806F023FC802354
:1013E0005B020293F8235B0203938020C002049007
:1013F000C0231B030493E31CE201190313000B43F6
:10140000039380229205059279490B400393BF0212
:101410003A430592774B034304938022D20513434A
:101420000493052004F034FA06F016FB724906F026
:10143000F4FA814606F038FB87B2002F5FD03800FF
:1014400006F00AFB011C484606F0DDFA8721C905B3
:1014500006F0F9FA06F028FBC0B200023F04074389
:10146000029702AB22004146300009F0F9FC3268D5
:10147000012341468B409A431343336001236B7031
:1014800007B0C0BCB946B046F0BD5C49544809F04D
:1014900053FC002800D164E75849514809F060FC2A
:1014A000504B18605DE700214F4809F027FC04000D
:1014B000431C00D15FE7524B1B68013302D04A4BFB
:1014C0002B6258E74D49484809F036FC0028F6D011
:1014D0004A49434809F044FC494B1860EFE7484B40
:1014E0001B68013300D04EE701235B426B62C7E704
:1014F00001234EE7424B1C685DE7062160E70020B0
:10150000ABE7394B9E4263D00400354B9E4262D01C
:101510000721380003F036FF012300933A004146CB
:10152000300009F065FC1022002102A806F07AFBC9
:1015300080235B020293F8235B0203938020C002A6
:101540000490C0231B030493E31CE201190313005E
:101550000B430393802189050591254A134003938A
:10156000BF020F430597234B184304908023DB05EC
:1015700018430490052004F08BF906F06DFA214918
:1015800006F04BFA814606F08FFA87B2002F24D07E
:10159000380006F061FA011C484606F034FA87214B
:1015A000C90506F050FA06F07FFAC0B200023F0407
:1015B0000743029702AB22004146300009F050FC7D
:1015C0003268012341468B409A431343336055E709
:1015D0000B4B1C6899E706219BE70020E6E7C04615
:1015E00000002050600500200000305064150020ED
:1015F000FFFFFF9F000002100024F44AF4D5001002
:10160000640500200024744AF0B5C64600B586B0D3
:101610000C00C180056A744B9D425BD000230278A8
:10162000002A00D172E0466A002B55D16F4B1F682B
:101630006F4B9D4253D00721200003F0A3FE0123EE
:10164000009322003100280009F0D2FB1022002173
:1016500002A806F0E7FA80235B020293F8235B02FC
:1016600003938020C0020490C0231B030493FB1C3F
:10167000FA01190313000B4303938022920505928C
:101680005C490B400393A402224305925A4B034347
:1016900004938022D20513430493052004F0F8F844
:1016A00006F0DAF9554906F0B8F9804606F0FCF97B
:1016B00084B2002C15D0200006F0CEF9011C404663
:1016C00006F0A1F98721C90506F0BDF906F0ECF98D
:1016D000C0B207E00123A2E7494B1F68A8E7062133
:1016E000AAE70020000224040443029402AB3A005B
:1016F0003100280009F0B4FB2A680123B3409A4363
:1017000013432B6006B080BCB846F0BD466A002B80
:1017100053D1364B1F68364B9D4251D007212000D4
:1017200003F030FE0123009322003100280009F06D
:101730005FFB1022002102A806F074FA80235B02EE
:101740000293F8235B0203938020C0020490C0231D
:101750001B030493FB1CFA01190313000B430393AF
:10176000802189050591234A13400393A4020C4369
:101770000594214B034304938022D2051343049321
:10178000052004F085F806F067F91E4906F045F9D2
:10179000804606F089F984B2002C13D0200006F0B0
:1017A0005BF9011C404606F02EF98721C90506F0B9
:1017B0004AF906F079F9C0B205E0114B1F68AAE7B3
:1017C0000621ACE70020000224040443029402AB8B
:1017D0003A003100280009F043FB2A680123B34096
:1017E0009A4313432B608DE70000305060050020C2
:1017F00000002050FFFFFF9F000002100024F44A69
:10180000640500200024744AF8B5050016001C0089
:101810004378002B18D06B6A01331AD0671E002C56
:1018200017D0286A6C6A731C9C4636783606426864
:101830002100103101238B401342F8D10434A4005D
:1018400026503C006646E9E7FFF778FD01236B7000
:10185000E1E7F8BD10B582B0C268002A05D08388E0
:10186000817904780094FFF7CFFF02B010BD00002B
:1018700010B5040082880021C06806F0D3F920006A
:10188000FFF7E8FF142003F0A7F9E06806F0BEF9BF
:10189000206906F0BBF9616A206A09F01FFA206A24
:1018A000134B984219D00022124992005358013B21
:1018B0005350002B0FD10E4B984210D00E4B1A688C
:1018C0000E4909F069FA0A4B226A9A420AD00A4B79
:1018D000012252421A60200010BD0122E4E7084BA9
:1018E0001A68EDE7064B012252421A60F3E7C04640
:1018F000000030506415002060050020F4D5001071
:101900006405002010B54378002B01D1C18010BDC3
:101910008179FFF779FEFAE7F8B504000D001700AA
:101920001E00002060702072E0602061A062E06212
:101930002063606303F0ECF900290FDBA061E16133
:1019400039002000FFF7DEFF31002000FFF7D0FC58
:1019500029002000FFF796FC2000F8BD024B034A47
:101960003D21034803F05CFE4CD5001068D5001003
:10197000A0D50010F0B5D6464F464646C0B5040087
:1019800016001D0008AB1B78984609AB18786388D1
:101990008B423FD9277A002F09D07E43360A7D43F8
:1019A0002D0A43467B431B0A98467843000AA36AE4
:1019B000002B34D0E37D227D934247D08F002269F3
:1019C0009146B944E268944667444A46D054E37D60
:1019D0009A46BA44636B984753461870237D4A462B
:1019E000D654637DD554A37D4146D154237D994679
:1019F000B9443000A36A98474B461870667DBE19FB
:101A00002800E36A98473070236BA17D7F18404619
:101A100098473870E0BCBA46B146A846F0BDE37DB1
:101A2000227D93420CD08900E26894466144C854F8
:101A3000237DCE54637DCD54A37D4246CA54E9E74D
:101A40004B005918E3689C466144F1E74F007F184A
:101A500023699946B944E3689C466744BEE730B5BC
:101A600083B01400150E120CD2B2230ADBB2E4B21A
:101A700001950094FFF77EFF03B030BDF8B5CE4668
:101A8000474680B5040043888B4200D886E0836ACD
:101A9000002B14D0C27D037D9A4270D0890000696A
:101AA00084466144885C0006CB5C1B041843637D5C
:101AB000CB5C1B021843A37DCB5C18436FE0C37D56
:101AC000077DBB4226D08E00C26894466644027AE7
:101AD0009046002A46D0F05C0002110005F000F9A3
:101AE00003069946F05D0002414605F0F9F8050449
:101AF0004B461D43637DF05C0002414605F0F0F863
:101B000000020543A37DF05C0002414605F0E8F8C1
:101B1000284344E04B005918C3685E18037A98467E
:101B2000002B15D0F05D0002190005F0D9F805046E
:101B3000637DF05C0002414605F0D2F800020543E7
:101B4000A37DF05C0002414605F0CAF8284326E078
:101B5000F05D0004637DF35C1B021843A37DF35C1E
:101B600018431CE0F05C0006F35D1B041843637D22
:101B7000F35C1B021843A37DF35C18430FE04A009B
:101B80005118026994466144C85C0004637DCB5CD3
:101B90001B021843A37DCB5C184300E00020C0BCAF
:101BA000B946B046F8BDF0B5C64600B504000F0012
:101BB00016001D004088226953425341421E904145
:101BC000184206D1A762E6622563069B636300257F
:101BD00015E0A3889846180006F006F820614246F2
:101BE000E16806F025F8EDE7AEB231002000FFF71E
:101BF00045FF020031002000FFF731FF0135638807
:101C0000AB42F1DC80BCB846F0BD10B50300C06843
:101C10009A88002106F006F810BD0000014B185C00
:101C20007047C04694D8001010B504008020FFF71C
:101C3000F5FF60430012C0B210BD0000204B1B68CE
:101C4000002B29D1D0231B061B699B011ED4D02356
:101C50001B06802292045A61194B14221A60194BF8
:101C6000133A1A60184A1368013B1360002B17DB04
:101C7000164A1368013B1360002B15DD144A1368E4
:101C8000013B1360002B16DB01207047D0231B069D
:101C9000802292049A61DFE7013B094A1360E1E781
:101CA000130000221A60E3E70A4B01221A60074B77
:101CB00009321A60E2E7130000221A60E4E7C04626
:101CC000EC1F0020001B002014220020C41F002055
:101CD000C01F00203C22002070B5D24B1D682C791B
:101CE000642C00D896E02300643B1802C01A6421DB
:101CF00004F0CEFFCC4B1860642C00D88EE0643C1E
:101D00002002001B6421494204F0C2FFFF30C64B91
:101D100058602B79632B00D98CE06420C01A030231
:101D2000181A642104F0B4FFBF4B98606C79642CDE
:101D300000D883E02300643B1802C01A642104F039
:101D4000A7FFBA4B1860642C7CD9643C2002001BAE
:101D50006421494204F09CFFFF30B44B58606B791A
:101D6000632B7BD86420C01A0302181A642104F084
:101D70008FFFAE4B9860AC4908684B6889680004D7
:101D8000FF26360430401B061A0C0243FF24214074
:101D90000A43A74D03212800FFF761FEA34A1168FB
:101DA0005368906809040E401B061A0C3243044025
:101DB000224302212800FFF752FE9A4B1B68DB7872
:101DC000002B4FD0FF22120209219948FFF747FE4E
:101DD000944B1B689B79002B4AD0964A0721944864
:101DE000FFF73DFE8F4B1B68DB79002B46D0924AF4
:101DF00008218F48FFF733FE904B1B78012B53D0FF
:101E0000022B58D0002B3FD08D4BFF221A705A70F6
:101E10009A703FE0844B00221A606DE76420041B37
:101E20002002001B6421494204F032FFFF307E4B48
:101E300058606EE77C4B00229A6077E77B4B00226C
:101E40001A6080E76420041B2002001B64214942C1
:101E500004F01EFFFF30754B586080E7734B002283
:101E60009A6088E7774A09217148FFF7F8FDAFE7E4
:101E7000754A07216E48FFF7F2FDB3E76422082197
:101E80006B48FFF7ECFDB7E76D4BFF221A7000229D
:101E90005A709A70634B1B685B78072B00D90CE172
:101EA0009B006A4AD3589F46654B00221A70FF2157
:101EB00059709A70EEE7624B00221A705A70FF3226
:101EC0009A70E7E7624A00231370FF215170937004
:101ED000604A11709620507093705F4A1170537071
:101EE0009370574D2A786878A9781204000202434B
:101EF0000A434F4C01212000FFF7B1FD2A78687892
:101F0000A9781204000202430A4300212000FFF7CF
:101F1000A6FD514A1378507891781A0400020243C2
:101F20000A4304212000FFF79AFD4A4A13785078AB
:101F300091781A04000202430A4305212000FFF7AA
:101F40008EFD434A1378507891781A0400020243B8
:101F50000A4306212000FFF782FD2000FFF77AFCEC
:101F600070BD3B4A00231370FF2151709370394AB2
:101F70001170962050709370374A1170537093709F
:101F80002F4A137053709370ABE7314A00231370DC
:101F9000FF21517093702F4A1170962050709370EA
:101FA0002D4A1170537093709BE7294900230B70E1
:101FB000FF224A708B7027490A70962048708B70F8
:101FC00025490A704B708B701D490A7048708B70E0
:101FD00087E71F4A00231370FF21517093701D4A39
:101FE00011709620507093701B4A1170537093704B
:101FF000134A13705370937073E7154A00231370DC
:10200000FF2151709370134A117096205070937095
:10201000114A117053709370094A13705370937082
:102020005FE7C04680050020680500208405002089
:1020300000100020004BFF00FF640000572200202A
:102040007C0500200087C80082FF4B0004D60010EA
:102050009005002078050020740500201F4A002309
:102060001370537093701E4AFF2111705370937058
:102070001C4A1170537093701B4A11705370937007
:10208000FF252D04194C2A00F8392000FFF7E7FC42
:102090002A0008212000FFF7E2FC2A000921200085
:1020A000FFF7DDFC2A0002212000FFF7D8FC2A0000
:1020B00003212000FFF7D3FC13E7094A0023137024
:1020C000FF2151709370074A1170962050709370E1
:1020D000054A11705370937003E7C0467C050020D9
:1020E00090050020780500207405002000100020D5
:1020F00010B5002003F078F90321002003F042F925
:1021000000220121002003F055F9012003F06CF9B1
:102110000321012003F036F900220121012003F000
:1021200049F9054C0549200001F076FC044A492193
:10213000200001F099FA10BD94050020A08601004E
:102140009D290010F0B5CE46474680B58DB0D0230E
:102150001B065B685B0304D40DB0C0BCB946B04637
:10216000F0BD5D4E012200213000FFF73FF85B4BD0
:10217000994680235B0098464B4642469A5C04ACE5
:102180005749200004F02CFD0127039700250295F4
:10219000019500940023002200213000FEF722FC6C
:1021A0004B4642469A5C4F49200004F019FD0397C4
:1021B0000295019500940023002200213000FEF7D3
:1021C00011FC494B98461B685A784849200004F096
:1021D00007FD039702950195009401230022002139
:1021E0003000FEF7FFFB43461B689A784049200009
:1021F00004F0F6FC03970295019500940223002257
:1022000000213000FEF7EEFB43461B68DA783949BF
:10221000200004F0E5FC0397029501950094032348
:10222000002200213000FEF7DDFB43461B681A79CF
:102230003149200004F0D4FC0397029501950094E5
:102240000423002200213000FEF7CCFB43461B682C
:102250005A792A49200004F0C3FC0397029501959E
:1022600000940523002200213000FEF7BBFB43460B
:102270001B689A792249200004F0B2FC039702956A
:10228000019500940623002200213000FEF7AAFBEE
:1022900043461B68DA791B49200004F0A1FC039730
:1022A0000295019500940723002200213000FEF7DB
:1022B00099FB4B461A781449200004F091FC012147
:1022C0004942039702950195009407230A003000C4
:1022D000FEF788FB40E7C046D01F00205C100020BE
:1022E00024D6001030D600108005002040D6001003
:1022F0004CD6001058D6001064D6001070D60010CE
:1023000078D6001088D6001094D60010F0B58DB0A5
:10231000D94B1B685978D94A5278914204D119791E
:10232000D64A127991420ED001220021D448FEF7FC
:102330005DFFD14B1B685B78072B00D984E29B00C3
:10234000D04AD3589F465A79CC4B5B799A42EBD10D
:10235000CD4B1A78CD4B1B789A42E5D164E0C84D3D
:1023600001260396002402940194C94B0093002394
:10237000002200212800FEF735FB03960294019409
:10238000C44B00930723002200212800FEF72AFBFC
:10239000BD4B1B78012B53D0022B60D0002B0ED0ED
:1023A000012303930023029302330193BA4B00935A
:1023B000042300220021B248FEF714FB0DE0013394
:1023C00003930023029302330193B44B009304233D
:1023D00000220021AA48FEF705FBA74F3B685A7967
:1023E000AF4904A804F0FCFBA54D0124039400268A
:1023F0000296019404AB00930223002200212800DE
:10240000FEF7F0FA3B681A79A64904A804F0E8FB45
:102410000121494203940296019404AB00930223E4
:102420000A002800FEF7DEFA934B19680922934848
:1024300005F0FEFB944B1A78944B1A700DB0F0BD6A
:10244000012303930023029302330193964B0093DD
:102450000423002200218A48FEF7C4FABDE70123C5
:1024600003930023029302330193904B00930423C0
:10247000002200218248FEF7B5FAAEE7804E012423
:102480000394002502950195814B009300230022BF
:1024900000213000FEF7A6FA0394029501957D4BCA
:1024A00000930723002200213000FEF79BFA0394DB
:1024B0000295022301937E4B009304230022002106
:1024C0003000FEF78FFA6C4F3B685A79744904A8C4
:1024D00004F086FB03940295019404AB009302235D
:1024E000002200213000FEF77DFA3B681A796D4921
:1024F00004A804F075FB012149420394029501945C
:1025000004AB009302230A003000FEF76BFA8BE75E
:102510005B4D01270397002402940194654E0096B9
:102520000023002200212800FEF75CFA03970294A2
:10253000019400960723002200212800FEF752FA9A
:10254000514B1B78012B2DD0022B3AD0002B0ED0F3
:102550000123039300230293023301934E4B009314
:102560000423002200214648FEF73CFA0DE0013327
:1025700003930023029302330193484B00930423F7
:10258000002200213E48FEF72DFA0123039300228A
:1025900002920193484B0093022300213848FEF732
:1025A00021FA41E7012303930023029302330193AD
:1025B0003D4B00930423002200213148FEF712FA1C
:1025C000E3E7012303930023029302330193374B84
:1025D00000930423002200212948FEF703FAD4E7E0
:1025E000274D01260396002402940194284B009362
:1025F0000023002200212800FEF7F4F9039602943C
:102600000194244B00930723002200212800FEF7A9
:10261000E9F91D4B1B78012B52D0022B5FD0002B08
:102620000ED00123039300230293023301931A4B2C
:1026300000930423002200211148FEF7D3F90DE096
:10264000013303930023029302330193134B00934E
:102650000423002200210A48FEF7C4F90123039352
:10266000002202920193154B00930223002104489B
:10267000FEF7B8F9D8E6C046800500206C150020AA
:10268000D01F00207CD700105722002051220020AC
:10269000A4D60010B8D60010F0D60010CCD600108A
:1026A000FCD6001004D70010D8D60010E4D60010D5
:1026B0000CD7001014D7001028D7001038D70010FE
:1026C000012303930023029302330193934B00935E
:1026D0000423002200219248FEF784F9BEE701237B
:1026E000039300230293023301938E4B0093042340
:1026F000002200218A48FEF775F9AFE7884D0126D0
:102700000396002402940194874F0097002300222F
:1027100000212800FEF766F90396029401940097C1
:102720000723002200212800FEF75CF9039602949B
:10273000022301937D4B00930423002200212800F3
:10274000FEF750F970E6764E0124039400250295B9
:102750000195774B00930023002200213000FEF703
:1027600041F9039402950195724B009307230022CF
:1027700000213000FEF736F90394029502230193FD
:102780006D4B00930423002200213000FEF72AF94C
:102790006A4F3B685A796A4904A804F021FA039405
:1027A0000295019404AB0093022300220021300023
:1027B000FEF718F93B681A79624904A804F010FA88
:1027C0000121494203940295019404AB0093022332
:1027D0000A003000FEF706F926E6514E0125039562
:1027E000002402940194504F0097002300220021FE
:1027F0003000FEF7F7F80395029401940097072341
:10280000002200213000FEF7EDF803950294022328
:1028100001934D4B00930423002200213000FEF76A
:10282000E1F8464B1B689A7804AF4849380004F039
:10283000D7F9039502940195009702230022002105
:102840003000FEF7CFF8EFE5354D01260396002462
:1028500002940194364B00930023002200212800AB
:10286000FEF7C0F8039602940194324B00930723BD
:10287000002200212800FEF7B5F8354B1B78012B0C
:102880002DD0022B3AD0002B0ED00123039300232E
:102890000293023301932F4B009304230022002163
:1028A0001F48FEF79FF80DE00133039300230293C6
:1028B00002330193284B009304230022002118487F
:1028C000FEF790F801230393002202920193234B19
:1028D0000093022300211248FEF784F8A4E50123A7
:1028E000039300230293023301930C4B00930423C0
:1028F000002200210A48FEF775F8E3E7012303935D
:102900000023029302330193064B00930423002219
:1029100000210348FEF766F8D4E7C046D8D6001079
:10292000D01F0020E4D6001014D7001044D70010A8
:10293000A4D60010B8D600104CD700108005002097
:10294000FCD6001004D7001058D7001060D7001034
:1029500057220020F0D60010CCD600106CD7001003
:1029600070B504000D00012805D0002C02D1094BE0
:102970009D420AD070BD074B9942F6D152231622D0
:102980000A210548FEF7C8FFEFE70348FEF770FF8E
:10299000F0E7C046FFFF00000010002010B501293D
:1029A00035D002294AD0002900D010BD284A022380
:1029B000FF33D35C002B13D103681A6F120709D5BC
:1029C0001969234B8022520099540222FF320121BF
:1029D0009954EAE71F4B204A1F31204802F020FE9D
:1029E0001B4A80235B00D15C03681A6F120708D56D
:1029F0001A69174B5A54802149005A5C01325A54C3
:102A0000D3E7144B144A1F21144802F009FE104B5F
:102A1000802252009A5C995C03681A6F920707D56E
:102A200019610B49802252008B5C01338B54BCE747
:102A30000B4B0C4A2D21094802F0F2FD044A0223F7
:102A4000FF330021D154084B01221A60ADE7C04684
:102A50005C1000209CD70010C4D70010E8D70010ED
:102A60002CD8001054D800103822002070B5D02483
:102A7000240680256D05A561022002F0ADF8194BF2
:102A80003F221A70C132002199546561FA24A400D2
:102A900005E0D0231B06802292049A61013C114A72
:102AA00080235B00D35C002B10D1002C0ED064205F
:102AB000002102F065F8D0231B061B699B01E8D4B6
:102AC000D0231B06802292045A61E7E7D0231B061D
:102AD000802252059A61002C03D1034B1B68FF2210
:102AE0005A7070BD5C1000208005002070B50E008B
:102AF0001500214B18708022520000219954D023D8
:102B00001B06802252055A61FA24A40005E0D02356
:102B10001B06802292049A61013C174880235B00C7
:102B2000C35C002B10D1002C0ED06420002102F0D9
:102B300027F8D0231B061B699B01E8D4D0231B0672
:102B4000802292045A61E7E7002E08D1002D04D0BC
:102B50000A4B1B685B78FF2B0AD1012070BD052052
:102B600002F03AF8D0231B06802252059A61EDE765
:102B7000FFF77CFFF1E7C0465C10002080050020D5
:102B8000F0B58DB005F096F91C2002F02DFCD02494
:102B9000240680235B056362052002F025FC2023C8
:102BA000A36200220121052002F004FC062002F0AD
:102BB0001BFC4023A36200220121062002F0FAFB45
:102BC000072002F011FC8023A362002201210720CC
:102BD00002F0F0FB082002F007FC80235B00A362F8
:102BE00000220121082002F0E5FB092002F0FCFB95
:102BF00080239B00A36200220121092002F0DAFB5E
:102C00000A2002F0F1FB8023DB00A36200220121F5
:102C10000A2002F0CFFB0B2002F0E6FB80231B0111
:102C2000A362002201210B2002F0C4FB0E2002F05F
:102C3000DBFB8023DB01A362002201210E2002F0D6
:102C4000B9FB042002F0D0FB1023A3620022012173
:102C5000042002F0AFFB0C2002F0C6FB80235B01D6
:102C6000A362002201210C2002F0A4FB0D2002F03F
:102C7000BBFB80239B01A362002201210D2002F0F7
:102C800099FB152002F0B0FB80239B03A362002276
:102C90000121152002F08EFB142002F0A5FB8023F9
:102CA0005B03A36200220121142002F083FB1320A6
:102CB00002F09AFB80231B03A36200220121132050
:102CC00002F078FB122002F08FFB8023DB02A3626C
:102CD00000220121122002F06DFB112002F084FB82
:102CE00080239B02A36200220121112002F062FBDB
:102CF0001B2002F079FB80231B05A3620022012127
:102D00001B2002F057FB0F2002F06EFB80231B02FA
:102D1000A362002201210F2002F04CFB102002F0E0
:102D200063FB80235B02A36200220121102002F0DA
:102D300041FB1A2002F058FB8023DB04A36200222F
:102D400001211A2002F036FB192002F04DFB8025EC
:102D5000AD0465626561FA2001F03EFFA561FA20CD
:102D600001F03AFF656101F0F9FC06AB0293002621
:102D70000196DD4B0093DD4A002301F033FEDC4C6D
:102D80002000FEF77EFADB4900910B000A002000CC
:102D9000FEF709FF2000FEF738FFD74D2A0001217A
:102DA0002000FEF75CFE2A0000212000FEF757FEFF
:102DB0002A0004212000FEF752FE2A0003212000F1
:102DC000FEF74DFE2A0002212000FEF748FE2A00F1
:102DD00008212000FEF743FE2A0005212000FEF70F
:102DE0003EFE2A0006212000FEF739FE2A000721B8
:102DF0002000FEF734FE2A0009212000FEF72FFEF6
:102E00002000FEF727FDFFF773F9BC4B1B685E70CF
:102E1000BB4B3F221A703E3A01213F20FFF766FE6E
:102E2000B84B64221A60B84CB84B059301235B423F
:102E30000493043303930225029501960096023B06
:102E4000283A03212000FDF7CBFCB14B1860B149B3
:102E50002000FEF714FA012200212000FEF7C6F937
:102E60000127039702960195AB4B009301230022A3
:102E700000212000FDF7B6FD039702960195A74BB0
:102E800000930423002200212000FDF7ABFDA4489D
:102E900001F0A2FE012200212000FEF7A7F9FFF7B2
:102EA00035FA79E2FFF732FA9E4B00221A6080E28F
:102EB000FEF712FF9C4B00221A607FE2FFF7D6FD5F
:102EC00081E2002204218A48FEF7C9FD8C4B1822BA
:102ED0001A7002E0FA2001F07FFED0231B065B6827
:102EE0009B06F7D48AE2002205218148FEF7B7FD50
:102EF000834B21221A70203A00212120FFF7F6FD92
:102F0000D0231B065B681B0304D56420002101F05D
:102F100037FEF5E7D0231B06802252059A616DE249
:102F2000002206217248FEF79AFD754B7E221A7028
:102F30007D3A00217E20FFF7D9FDD0231B065B6878
:102F4000DB0204D56420002101F01AFEF5E7D0234E
:102F50001B06802252059A6150E2D0231B065B6853
:102F6000DB0303D5714B01221A7047E2D0231B0605
:102F70005B685B0103D56E4B01221A703EE2D023E1
:102F80001B065B68DB0603D56A4B01221A7035E22B
:102F9000D0231B065B68DB0403D5674B01221A7044
:102FA0002CE2D0231B065B689B0403D5634B0122F4
:102FB0001A7023E2D0231B065B681B0148D4D02380
:102FC0001B065B685B034CD4D0231B065B689B032A
:102FD00050D4D0231B065B689B0254D4D0231B061D
:102FE0005B685B0458D4D0231B065B681B0562D466
:102FF000D0231B065B685B0500D5B3E0D0231B061E
:103000005B685B0600D5CCE0D0231B065B681B0623
:1030100000D5E5E0D0231B065B68DB0500D5FEE0AC
:10302000D0231B065B689B0500D517E10023344ABB
:103030001370434A1370334B1B68002B00DDDDE136
:10304000304B64221A60FFF761F9FEF745FED5E1C7
:103050003C4B01221A70002209212548FEF7FFFC93
:10306000CCE1394B01221A70002208212048FEF7DA
:10307000F6FCC3E1354B01221A70002208211C48DE
:10308000FEF7EDFCBAE1324B01221A700022072153
:103090001748FEF7E4FCB1E12E4B01221A70D02351
:1030A0001B065B685B0400D4A8E10A2001F094FDD4
:1030B000FFF748F8F3E75520114B18700022110074
:1030C000FFF714FDD0231B06802292045A61D023FF
:1030D0001B065B681B053FD50A2001F07DFDFFF74D
:1030E00015F9FEF7F9FDF2E73D1C0010102700006E
:1030F00000100020291C0010FFFFFF0080050020A9
:103100006022002014220020D01F002040420F0027
:10311000002000206011002080D8001088D8001006
:10312000EE020000382200203C2200206222002013
:10313000632200205A220020582200205922002019
:103140005C1000205C220020612200205B22002015
:10315000652200205F220020D0231B06802252051A
:103160009A614BE14420D94B187000221100FFF7FF
:10317000BDFCD0231B06802292045A61D0231B067B
:103180005B685B0507D50A2001F026FDFFF7BEF856
:10319000FEF7A2FDF2E7D0231B06802252059A61BA
:1031A0002CE14620C94B187000221100FFF79EFC4D
:1031B000D0231B06802292045A61D0231B065B6831
:1031C0005B0607D50A2001F007FDFFF79FF8FEF721
:1031D00083FDF2E7D0231B06802252059A610DE1A0
:1031E0004220BA4B187000221100FFF77FFCD02359
:1031F0001B06802292045A61D0231B065B681B06C3
:1032000007D50A2001F0E8FCFFF780F8FEF764FD1F
:10321000F2E7D0231B06802252059A61EEE04C2093
:10322000AA4B187000221100FFF760FCD0231B0688
:10323000802292045A61D0231B065B68DB0507D508
:103240000A2001F0C9FCFFF761F8FEF745FDF2E73F
:10325000D0231B06802252059A61CFE052209B4B5F
:10326000187000221100FFF741FCD0231B068022BA
:1032700092045A61D0231B065B689B0507D50A2080
:1032800001F0AAFCFFF742F8FEF726FDF2E7D02393
:103290001B06802252059A61B0E08C4B31221A70D5
:1032A0008B4B303A1A70894B187801220121FFF7B5
:1032B0001DFCD0231B06802252059A6180229204B5
:1032C0005A61844B00221A70FEF706FDFFF71EF8C4
:1032D000814B1B78002B05D0D0231B065B68DB04D9
:1032E00000D4B4E07D4B1B78002B05D0D0231B0607
:1032F0005B68DB0600D4BFE0794B1B78002B05D060
:10330000D0231B065B689B0400D4CAE0754B1B7876
:10331000002B05D0D0231B065B68DB0300D4F7E04D
:10332000714B1B78002B05D0D0231B065B681B0458
:1033300000D402E16D4B1B78002B05D0D0231B0677
:103340005B685B0100D40DE1694B1B78002B05D055
:10335000D0231B065B685B0300D418E1654B1B7828
:10336000002B05D0D0231B065B689B0300D423E110
:10337000614B1B78002B05D0D0231B065B689B029A
:1033800000D42EE15D4B1B78002B05D0D0231B060B
:103390005B681B0100D439E1594B1B685A78FF2A3E
:1033A00002D01A7A4A4B1A70564B1B68002B00D079
:1033B00078E5554B1B68002B00D079E5534B1B6813
:1033C000002B00DC7AE5D0231B065B689B0600D54A
:1033D00077E5D0231B065B681B0300D583E5D0236C
:1033E0001B065B68DB0200D59AE5D0231B065B68F1
:1033F0001B0400D4B1E53C4B01221A70354B1B78FD
:10340000002B00D164E7D0231B065B685B0400D56A
:103410005EE72F4B1B78012B0BD0022B10D0002B1B
:1034200000D13AE7294B31221A70294B303A1A70F1
:1034300039E7264B32221A70254B303A1A7032E7A0
:10344000224B30221A70224B00221A702BE71F4B9E
:1034500092221A70913A01219220FFF747FBD02364
:103460001B06802292045A611B4B00221A70FEF741
:1034700033FCFEF74BFF35E7144B91221A70903A5C
:1034800001219120FFF732FBD0231B0680229204FA
:103490005A61124B00221A70FEF71EFCFEF736FF2F
:1034A0002AE70A4B90221A708F3A01219020FFF7E9
:1034B0001DFBD0231B06802292045A61084B002278
:1034C0001A70FEF709FCFEF721FF1FE760220020BB
:1034D000572200205F220020582200205A2200207C
:1034E0005922002062220020642200206322002052
:1034F000612200205B220020652200205C22002047
:1035000080050020382200203C22002014220020C8
:10351000494B9B221A709A3A01219B20FFF7E6FA49
:10352000D0231B06802292045A61444B00221A7059
:10353000FEF7D2FBFEF7EAFEF2E63F4B9A221A7044
:10354000993A01219A20FFF7D1FAD0231B06802255
:1035500092045A613A4B00221A70FEF7BDFBFEF747
:10356000D5FEE7E6344B99221A70983A012199204A
:10357000FFF7BCFAD0231B06802292045A61314B1C
:1035800000221A70FEF7A8FBFEF7C0FEDCE62A4B0D
:103590004D221A704C3A01214D20FFF7A7FAD02393
:1035A0001B06802292045A61274B00221A70FEF7F4
:1035B00093FBFEF7ABFED1E61F4B43221A70423A53
:1035C00001214320FFF792FAD0231B0680229204A8
:1035D0005A611E4B00221A70FEF77EFBFEF796FE24
:1035E000C6E6154B9E221A709D3A01219E20FFF7D8
:1035F0007DFAD0231B06802292045A61144B0022CC
:103600001A70FEF769FBFEF781FEBBE60A4B482203
:103610001A70473A01214820FFF768FAD0231B06A9
:10362000802292045A610B4B00221A70FEF754FB61
:10363000FEF76CFEB0E6C046602200206222002049
:103640006422002063220020612200205B220020EF
:10365000652200205C22002010B502490120FFF7FE
:103660007FF910BDFFFF0000F8B505001A4B984226
:1036700002D01A4B984220D1002A24D0174EAC1BFE
:1036800063425C41164863001F19BF003D50C319D7
:103690005A600A000121280000F0EAF92B68114A5B
:1036A0001A631734B54214D00F49200000F044FBD0
:1036B0000121200000F028FBF8BD0C4B0C4A4221F0
:1036C0000C4801F0ADFF0C4B094A4321094801F0B9
:1036D000A7FF0A49E9E7C046940500209C050020A1
:1036E000A81F0020640600004101002094D90010AA
:1036F00008DA0010B0D90010F8D9001051010020EC
:10370000F0B5DE4657464E464546E0B585B0060064
:1037100010001C0002930EAB1A7803920F9D109FAD
:1037200033680022DA663368596033680132DA663A
:10373000A246002398469B4600242BE03279002ABB
:1037400031D001222FE00399002901D000212EE081
:1037500001212CE03800A84703000443E4B2002B09
:1037600006D13268526BD20602D4002DF2D1F6E7B0
:10377000002B09D13268802151588B4600291FD176
:10378000002C2FD1C1451ED0002C33D101229446EC
:10379000E0440198D0452DDA029A013A914642461A
:1037A000002ACBD000229202C145CCD00021490290
:1037B0000A43411C01910078316802430A61D4E751
:1037C000526D01240EE0039A002ADDD10AE0380090
:1037D000A84703000443E4B2002B06D13268526BC1
:1037E000920502D4002DF2D1F6E7002BCCD132683D
:1037F000126EC9E7002C09D0002B15D15B46002BB7
:1038000016D0DB0718D45B461B0709D5039B337121
:10381000404605B0F0BCBB46B246A946A046F0BD46
:1038200002235B429846F1E701235B429846EDE7AD
:1038300002235B429846E9E702235B429846E5E7AC
:10384000F0B5DE4657464E464546E0B583B0050026
:1038500091469A460CAB1B7801930D9E0E9F036810
:103860000022DA660368596003680132DA66D346DB
:103870000023984600242AE02979002933D0012129
:1038800031E00198002801D0002030E001202EE036
:103890003800B04703000443E4B2002C0DD12A687D
:1038A000926F002A09D12A6880215158546D621EF6
:1038B0009441E4B2002EEBD1EFE7002C1ED12A6830
:1038C000126949460A7001229446E044E144D84511
:1038D00014DA5246541E2A68516F1029FBD0414613
:1038E0000029C9D0002189024445CAD000204002E5
:1038F00008438021490001431161D4E7002C04D022
:10390000002B0CD001235B429846019B2B71404653
:1039100003B0F0BCBB46B246A946A046F0BD0223A8
:103920005B429846F1E70000F0B5D6464F46464662
:10393000C0B505000C00052001F0AAFF06006008D4
:103940008019210003F0CCF9070043009946814417
:103950000521484603F0C4F980463B1A9A46284B95
:103960009C4224D870008019264903F0B9F9441C00
:103970004346023BA34221D32B680022DA66296822
:103980000A680423534006221A4080235B010B433C
:103990001A602B685246DA612B6842461A624B461F
:1039A0004F2B11D95021484603F09AF90DE07000D1
:1039B0008019154903F094F9441CD9E7134B144AB4
:1039C0005F21144801F02CFE0120A0232A68D0506A
:1039D0002A6811007C31D06F44402404240C8023D9
:1039E0005B010B431C602B680122DA663900300052
:1039F00003F076F9E0BCBA46B146A846F0BDC04631
:103A00003F420F008096980040787D0118DA001040
:103A100084DA001038DA001010B5114B98421CD02F
:103A20001022104B1A60104B1A60104B9B68140048
:103A30009C43231EF9D104710268D466026866248F
:103A4000FF3414600268D3630268936388330322EF
:103A50000468E250FFF768FF10BD0822E1E7C046A6
:103A60009405002000E0004000F0004000C000404D
:103A700010B503680024DC6600290BD0C0239B012D
:103A800001680B434121196003689A6003680122B1
:103A9000DA6610BD80239B010268134341221A603D
:103AA000F4E730B585B008AC257800240294019481
:103AB0000095FFF725FE05B030BD30B585B008ACE8
:103AC00025780024029401940095FFF7B9FE05B013
:103AD00030BD0000EFF3108072B6034B1B68002B63
:103AE000FBD0BFF35F8F70472C0100D0BFF35F8F17
:103AF000024B00221A6080F3108870472C0100D01E
:103B0000F8B506000C001500FFF7E4FFE308F7180E
:103B1000F15C07222240012393400B4205D1DBB226
:103B20000B433B70FFF7E2FFF8BD2100280001F0D6
:103B300095FDF0B583B00600019114001F00FFF75A
:103B4000C9FF00E00134BC420CD8E308F518F35C6F
:103B50000721214001228A401A42F3D1D2B21A43EE
:103B60002A7001E001246442FFF7C0FF002C02DB51
:103B7000200003B0F0BD019B002BF9D0089801F0A4
:103B80006DFD000070B505000C00FFF7A3FFE30812
:103B9000EE18EA5C07210C400123A340134204D035
:103BA0009A433270FFF7A2FF70BD034B034A2C31DA
:103BB000034801F035FDC04698DA001008DB00101C
:103BC000B8DA0010034B1B6802201840431E9841CE
:103BD000C0B2704700C00640002307E0054A9A18AB
:103BE0009200BFF35F8F0021116001331F2BF5D9C5
:103BF0007047C04640000034054A1078431CDBB2D1
:103C00001370172B02D9130010221A707047C04688
:103C1000A405002000B583B00100044B00931F23CE
:103C200018220348FFF785FF03B000BD18DB001022
:103C3000041B0020074B9B68103080001950BFF315
:103C40005F8FBFF35F8F044B0021196082F31088F0
:103C50007047C04600ED00E0240100D010B5091AFD
:103C600004394808090B05D14005400D044B1843A1
:103C700080B210BD034B044A8C21044801F0D0FCF3
:103C800000E0FFFF34DB001054DD001044DB0010C7
:103C900010B5091A04394C08090B08D14905490D1A
:103CA000064A11430180064B2343438010BD054B58
:103CB000054A9421054801F0B3FCC04600F0FFFF1F
:103CC00000F8FFFF34DB001028DD001044DB00109B
:103CD00001238340034A10681840431E9841C0B234
:103CE0007047C04600E100E0002904D0034B186093
:103CF000034B18607047034B1860FBE780E200E05D
:103D000000E100E080E100E010B5012383401800ED
:103D1000FFF7EAFF10BD000001238340014A136052
:103D20007047C04600E200E0024B9B681030800004
:103D3000C058704700ED00E070B504000D00EFF3CF
:103D4000108672B60C4B1B68002BFBD0BFF35F8F45
:103D50002000FFF7E9FF094B984201D0A84205D1A6
:103D6000320029002000FFF765FF70BD044B054AB3
:103D70007021054801F054FC240100D0CD01001051
:103D800090DB001070DD001044DB0010F0B5CE4673
:103D9000474680B583B006000D00EFF3108872B679
:103DA000574B1B68002BFBD0BFF35F8F554B9A68B6
:103DB00034001034A300D758534B9F4207D0AF4272
:103DC00000D19BE00197514BFB1A2F2B09D942469A
:103DD00039003000FFF72EFF03B0C0BCB946B04633
:103DE000F0BD3000FFF774FF814600213000FFF77F
:103DF0008BFFBFF35F8FFCF736FA002801D08442B7
:103E000019D10123019C9C43230040495B1A5B416B
:103E100048495943090D49B20022A368AB4212D068
:103E20000622A256002A0DDB53009B189B0022009D
:103E3000364CE418F1E72021354B364AFF3136483D
:103E400001F0EEFB2200AB4251D106256557002D53
:103E500039DB6B005B199A002C4B9B189A68A260A7
:103E6000DA79E27106229A56A2719B795BB2002B35
:103E700010DABD200002A0806B005B199B00234A72
:103E8000D318264A11789971157049463000FFF70A
:103E90003BFF9CE7201D6B005B199B001B4A9B1896
:103EA0001A1D9B88D90A1C2907D15B055B150233B3
:103EB00059005118FFF7D2FEDDE7194B194A9A2134
:103EC000154801F0ADFB00280CD1002A08D0FF23D3
:103ED0009371154B9380114B1A78A2711970D4E726
:103EE000094FF8E7201D1149FFF7D2FECDE7AA21BF
:103EF0000F4B084A4900084801F092FB024F66E761
:103F0000240100D000ED00E0CD010010A805002044
:103F1000A4DC001040DD001044DB00105D22002016
:103F20008CDC001060DD001000BDFFFFE20500200A
:103F3000C8DC0010AAAA000010B5032304009C43AB
:103F4000064A9446644422681840C000FC3383400B
:103F50009A43130081400B43236010BD00E400E04E
:103F600070B50400012606432D4BF31A2F2B28D8D9
:103F7000FCF779F900282BD0EFF3108C72B6294B9F
:103F80001B68002BFBD0BFF35F8F2300244D5B1B0E
:103F90005B412E4D5D432D0D6DB2234B9B68800020
:103FA0001B58B3421BD00022032A32D853009B185F
:103FB0009B001B49CB189B795BB2AB421FD00132EF
:103FC000F2E77221194B1A4AFF311A4801F028FB17
:103FD000BA21194B164A4900164801F021FB124B31
:103FE0009B68164A1A50164B1A78A2711D70BFF3BF
:103FF0005F8F0C4B00221A608CF3108870BD080094
:104000005300991889004118FF268E710D4A8A8045
:10401000E9E786210C4B064AFF31064801F000FB18
:10402000A8050020240100D000ED00E0D0DC001045
:104030000CDD001044DB0010F8DC0010CD01001096
:104040005D22002000BDFFFF04DD0010AAAA0000D1
:1040500010B5002404E080212000FFF76DFF01343B
:104060001F2CF8D910BD0000024B9C46614489000A
:10407000016070474000003410B50C00CB688342EB
:1040800007D108000B699847002809D020686168AB
:1040900010BD9021054B064A4900064801F0C0FAC0
:1040A0000023E36000200021F2E7C0468CDD001011
:1040B00004E00010A0DD001070B505000C00080041
:1040C00000F01AFE200000F0FFFE0849200000F07A
:1040D0003FFEFFF791FD064B9C4660448000686000
:1040E0002C75A400034BE55070BDC046FD43001085
:1040F00040000034F01F00200A4B1A68EFF31081D3
:1041000072B61368002BFCD0BFF35F8F054B1B68A2
:10411000BFF35F8F00221A6081F3108840BF002038
:10412000002170471022002010B5002922D003681A
:104130001B7B99421ED8174B9C466144090183683A
:104140009C4661440C684968002A19D003681B7BAF
:104150009A4215D883680F488446624412019A181F
:1041600010685368020001208B4201D80ED0002055
:10417000C0B210BD084B094A3B21094801F050FA72
:10418000054B064A3B21064801F04AFAA242EFD805
:10419000EDE7C046FFFFFF0FE4DD00106CE000100C
:1041A000A0DD001010B500291ED0037B99421BD85A
:1041B0004B005B18033B0468A4466344002919D0F4
:1041C000002A1DD0914221D0002A25D0047BA24292
:1041D00022D804685000801803382018817019789C
:1041E00000291FD11A7010BD104B114A69211148C6
:1041F00001F016FA104B114A70310E4801F010FA16
:104200000F4B0E4A71210B4801F00AFA0D4B0B4A75
:104210007221084801F004FA044B054A6921054857
:1042200001F0FEF941701A70DDE7C04618DE00109B
:10423000D8E0001034DE00108CDE0010B4E0001076
:1042400098DE0010A4DE001070B506000D0014000A
:10425000002914D0002A14D0806873689847002879
:1042600006D0220029003000FFF79CFF280007E05D
:104270002A0021003000FFF795FF200000E0100029
:1042800070BD0800FCE70000F0B583B005000092A7
:1042900001930AAB1C780BAB1F78002C26D0036867
:1042A0005A7B944207D10123002B19D1002C3BD11A
:1042B000200003B0F0BD002C0CD01A7B944209D82A
:1042C0001A6863001B19033BD3189B78002BEBD0B3
:1042D0000123E9E73E4B3F4A69213F4801F0A0F93D
:1042E0003E4B3F4A65213F4801F09AF903689C7BA9
:1042F000002CDBD012D01A7B94420FD86200121926
:10430000033A19688C46624451789973002900D1A8
:10431000D9730023937053701370C7E72C4B2D4A49
:1043200069212D4801F07CF9002C3AD02B681B7BC9
:104330009C4236D82C4BE3181B01AA689446634470
:10434000009A1A60019A5A60089A9A60099ADA608B
:104350002E68002C2BD030D0337B9C422DD86300AC
:104360001B19033B32689446634400229A705A70CA
:104370001A70717B22003000FFF766FF7073844271
:1043800000D095E7287D009A019B00F029FD061ECC
:1043900001D0002F17D00C9B002B00D188E71E7096
:1043A00086E7124B124A3B210E4801F039F9114BB6
:1043B000114AA621084801F033F9054B054A692145
:1043C000054801F02DF92868210000F031FFE2E7EF
:1043D00018DE0010D8E0001034DE0010BCDE001043
:1043E000E4E00010A0DD0010FFFFFF0FE4DD00108F
:1043F0006CE000109CDD0010C8E00010F0B5DE4657
:1044000057464E464546E0B58BB0099000230893C9
:104410008200B24BD658370032E0B14BB14A3D2151
:10442000B14801F0FDF8B14BB14A3B21B14801F070
:10443000F7F8B14BB14A8C21AE4801F0F1F8B04B1E
:10444000AE4A9021AB4801F0EBF8A84BAD4A4021B1
:10445000A84801F0E5F82A686B68099800F0C0FCEC
:1044600000239A4698467B68BFF35F8F00221A604C
:1044700086F310884346002B51D1002800D126E155
:1044800000F046FC02000B1EC7DB00200021069056
:1044900007917868EFF3108672B601680029FCD0A6
:1044A000BFF35F8F396888464C7B002C32D0BAD07E
:1044B000097B8C42B7D8944965182D01B9688C46A0
:1044C000654428686968801A99410029C3DC01D1D4
:1044D0000028C0D10021404600F0A0FEA042A8D193
:1044E0002A686B6806920793AB689846EB689A4611
:1044F0004346002BA3D0002CA7D03B681B7B9C42DB
:10450000A3D8631EFA68D35C08931B021843386172
:104510000020A8E700239A4698460020A3E7089BBE
:104520001B022343994651461800C04705000E0060
:104530007A68EFF3108B72B6136859424B41D9B2C7
:10454000002BF9D1BFF35F8F002E26DB002E52DD4A
:104550003B69002B53D04B4572D100F0D9FB0200D0
:104560000B1E73DB0100180052197341984202D8E8
:1045700004D1914202D901225242D317002B6BDBA6
:104580000021049101310391029451460191414669
:1045900000913800FFF778FE49E03B69002BD5D049
:1045A0004B451CD1069A079B10001900521BB341C2
:1045B000994202D804D1904202D901225242D31723
:1045C000002B12DB0021049101310391029451462A
:1045D0000191414600913800FFF756FE27E04B4B12
:1045E000464A9F21434801F01BF83D4B3D4A3D217F
:1045F0003D4801F015F8002E01D1002DA8D13A68F0
:10460000002C45D0537B9C422CD1012100293FD165
:10461000D37B002B42D1D473002C52D03B681B7B40
:104620009C424ED8FA68013C135D013313550023B8
:104630003B617A68BFF35F8F13608BF310881FE7CD
:10464000324B2E4AA2212B4800F0EAFF244B254A88
:104650003D21254800F0E4FF214B224A3D2122481C
:1046600000F0DEFF002C0DD0137B9C420AD86300C3
:104670001B19033B1068844663449B78002BC5D00C
:104680000121C3E7224B234A6921234800F0C8FFD8
:10469000224B234AF721204800F0C2FF002B0AD00A
:1046A000117B8B4207D85900CB18033B11688C460D
:1046B00063445C70AFE7164B164A6921164800F058
:1046C000AFFF0A4B0F4A40210A4800F0A9FF0BB088
:1046D000F0BCBB46B246A946A046F0BDF01F002084
:1046E0004CD5001038E00010A0D50010E4DD00101B
:1046F0006CE00010A0DD0010E4DE001050E00010BF
:10470000FCDE001090E00010FFFFFF0F08DF00103C
:1047100018DE0010D8E0001034DE001044DF001076
:10472000A4E0001010B50A4B5B68002B04D00A21EE
:104730000848FFF799FC10BD054C2300064A1021DC
:10474000206800F08BFC03212000FFF7B5FCEEE7AA
:10475000F0050020102200202941001010B5064B62
:104760005B68002B01D0044810BD044B044A5C2157
:10477000044800F055FFC046F005002068DF001037
:1047800078E00010A0DD0010F0B5DE4657464E463A
:104790004546E0B58BB0804616001F00149B9A4634
:1047A000159B994616AB1B789B461F2302AA94467D
:1047B000634400221A7032E0002809D04246126891
:1047C000127B904204D8421E4146C9688A5C48E088
:1047D000434B444A4021444800F022FF0798002BF5
:1047E00075D05B46002B72D04946D04704000D00BF
:1047F00003000B4300D171E0002946DB00F088FA8A
:1048000006000F1E55DB36196F41B94202D804D19C
:10481000B04202D901267642F717002F4FDB4346FC
:104820005A68EFF3108472B6136859424B41D9B2FB
:104830000791002BF8D1BFF35F8F1F3302AA944674
:10484000634404930023039302934B46019353461E
:10485000009332003B004046FFF716FD031EABD12C
:10486000020041464968BFF35F8F00250D6084F365
:104870001088002B29D01F2302A98C4663441B7883
:10488000002BABD112021043A9E732003B00361BCC
:10489000AF41BB4202D804D1B24202D901267642CE
:1048A000F717002FBBDA114B114A3D21114800F0D8
:1048B000B7FE0E4B0E4A3D210E4800F0B1FE0B4BE9
:1048C0000B4A3D210B4800F0ABFE012040420BB0EB
:1048D000F0BCBB46B246A946A046F0BD0798F6E735
:1048E000E4DD001090E00010A0DD00104CD50010B9
:1048F00038E00010A0D50010F8B504004268EFF3CE
:10490000108572B6136858424341D8B2002BF9D1D2
:10491000BFF35F8FCBB22268567BB3421BD101201D
:10492000002847D0206988422BD0090AC9B2002B41
:104930002DD02068007B834229D8581EE668305C61
:1049400088422AD000206368BFF35F8F00221A607C
:1049500085F31088F8BD002B0DD0167BB3420AD822
:104960005E00F618033E1768BC466644B678002E13
:10497000D6D00120D4E7124B124A6921124800F028
:104980004FFE124B124AFE21124800F049FE124B14
:10499000124A40210F4800F043FE1900100000F0B9
:1049A00047FC0028CFD106210D4B094AFF310948A9
:1049B00000F036FE23698B42C5D100232361C2E794
:1049C00018DE0010D8E0001034DE00108CDF00107C
:1049D00020E00010A0DD0010E4DD001090E00010E9
:1049E000B0DF0010F0B585B00700100019000C9E74
:1049F00013000B4301D101200021B7600A9B3361F2
:104A0000306071600B9B7361CA1713005040040043
:104A100051400D00A41A9D4100F07AF902000B1ECE
:104A20001BDB0100180012196B41984202D804D117
:104A3000914202D901225242D317002B13DB0121EC
:104A4000029101960B4900913800FFF79DFEF0603E
:104A5000C317181AC00F05B0F0BD074B074A3D2118
:104A6000074800F0DDFD044B044A3D21044800F0F6
:104A7000D7FDC046794000104CD5001038E000103A
:104A8000A0D50010F0B587B006000F00FBF7EBFBD8
:104A900000281FD106246442E517A4197D41BD42B8
:104AA00002D803D1B44201D900240025002D14DB23
:104AB0000494059500F02CF902000B1E13DBA41AD8
:104AC0009D41002D17DC14D03000390000F02CF986
:104AD00007B0F0BD234800F0C1FD234B234A3D2120
:104AE000234800F09DFD204B204A3D21204800F046
:104AF00097FD002CE8D0FFF731FE002302930193CD
:104B00001C4B0093049A059BFFF73EFE002818DA21
:104B1000DAE7002300E00023002BD5D1164B1A68FA
:104B2000EFF3108172B61368002BFCD0BFF35F8FD8
:104B3000114B1B68BFF35F8F00221A6081F310884E
:104B400020BF0499059A0D4B5B6A9A42E3D80B4843
:104B5000806A884203D29A42DBD00123DCE701233A
:104B6000DAE7C046B4DF00104CD5001038E0001082
:104B7000A0D50010F9400010102200200040054090
:104B8000F8B504000D0000F0C3F802000B1E10DBA6
:104B900020002900801859418B4202D804D182425A
:104BA00002D901204042C117002908DBFFF76AFF44
:104BB000F8BD064B064A3D21064800F031FD034B87
:104BC000034A3D21034800F02BFDC0464CD50010A0
:104BD00038E00010A0D5001010B5FA229200002392
:104BE000002102F0F3FEFFF7CBFF10BD70B584B0DB
:104BF00006000C00FFF7B2FD002302930193194B4E
:104C0000009332002300FFF7BFFD051E11DD20BF1A
:104C1000FFF7A4FD2900FFF76FFE134B5B6A9C4270
:104C20001BD8114A926AB2421AD29C4213D0012078
:104C300014E00D4B5B6A9C4209D80B4A926AB2425F
:104C400007D29C4201D0012008E0002006E00020AD
:104C500004E0012002E0002000E0002004B070BD6C
:104C60000120FBE7F94000100040054070B5EFF36C
:104C700005833F2018401038EFF3108C72B6194BA3
:104C80001B68002BFBD0BFF35F8F0123190081400D
:104C9000154A5163154A12781400C440234214D0B7
:104CA000114B5C6A8300124D5B599C4206D3830012
:104CB000104C1B598A430D490A7007E00A4A031D2C
:104CC0009B0099589950002300E00023BFF35F8FA9
:104CD000044A002111608CF31088002B00D0984703
:104CE00070BDC046280100D000400540662200206B
:104CF00020220020F019002010B50100024A0348CC
:104D0000FEF7FEFE10BDC046FCE00010552200205C
:104D1000044B5B6A034A906A1900536A9942F9D1BD
:104D20007047C04600400540084B5B6A01E0074BF6
:104D30005B6A8B42FBD301E0044B5B6A8B4203D17D
:104D4000024B9B6A8342F7D37047C0460040054040
:104D500070B504000D00EFF3108672B61B4B1B6894
:104D6000002BFBD0BFF35F8F002D1CD02000FEF77F
:104D7000DBFF174B83420BD019002000FEF7DCFF4E
:104D800001212000FEF7C0FF0123A340114A136058
:104D9000A400114BE550BFF35F8F0C4B00221A604B
:104DA00086F3108870BDA2000B4B0021D150012268
:104DB000A2400A490B7893430B7005492000FEF787
:104DC000E5FF00212000FEF79FFFE4E7280100D067
:104DD0006D4C001038600540F0190020662200205C
:104DE000F0B5DE4600B584B00400150001921E0047
:104DF0000293FFF78DFF03958E4202D84ED1854274
:104E00004CD9EFF3108B72B6274B1B68002BFBD0ED
:104E1000BFF35F8F254A17780125A540EBB23B43CE
:104E20001370234B5D63221D92000199D150A200A3
:104E30002049029850501B6A2B4212D11C4B1B6C0C
:104E40002B4208D00020BFF35F8F174B00221A605F
:104E50008BF3108823E0184B184AC121184800F042
:104E6000DFFBFFF755FF8E4214D802D1039B83422C
:104E700010D80E4B1B78BB420ED00D4B1D625D63EC
:104E80001F2004400123A3400E4A1360074B1F70EC
:104E90001E38D8E70020D6E70120D4E7012004B06F
:104EA00080BCBB46F0BDC046280100D06622002071
:104EB000004005402022002020E1001094E1001075
:104EC00044E1001080E200E0EFF3108C72B60B4B6F
:104ED0001B68002BFBD0BFF35F8F01238340084A80
:104EE000136208490A789A430A70BFF35F8F034B35
:104EF00000221A608CF310887047C046280100D049
:104F0000004005406622002010B500291ED0037B1A
:104F100099421BD84B005B18033B0468A4466344CA
:104F2000002919D0002A1DD0914221D0002A25D075
:104F3000047BA24222D8046850008018033820184D
:104F40008170197800291FD11A7010BD104B114AB9
:104F50006921114800F064FB104B114A70310E4872
:104F600000F05EFB0F4B0E4A71210B4800F058FB1E
:104F70000D4B0B4A7221084800F052FB044B054AC6
:104F80006921054800F04CFB41701A70DDE7C0460E
:104F900018DE0010ACE2001034DE00108CDE0010D1
:104FA00098E2001098DE0010A4DE001070B5060034
:104FB0000D001400002914D0002A14D080687368F2
:104FC0009847002806D0220029003000FFF79CFFF8
:104FD000280007E02A0021003000FFF795FF20009D
:104FE00000E0100070BD0800FCE7000010B50023D1
:104FF000437301338373037BC3730123027B9A42A0
:1050000014D9002B0CD0027B934209D85A00D21835
:10501000033A01688C4662440133DBB25370EDE71A
:105020000B4B0C4A69210C4800F0FAFA002A09D00F
:10503000924207D8016853009A18033A8A1800234D
:10504000537010BD024B034A6921034800F0E8FA8F
:1050500018DE0010ACE2001034DE001010B5017351
:1050600042608360FFF7C2FF10BD000070B504000E
:10507000081E00D170BD002934D0237B994231D85D
:105080004B005B18033B2268944663445A78002A1D
:10509000F0D02DD0237B9A422AD853009B18033B93
:1050A00021688C4663445D7800215970002825D022
:1050B000237B984222D843001B18033B21688C466F
:1050C00063440021597001002000FFF76FFF0600C4
:1050D00029002000FFF7CAFF020031002000FFF77F
:1050E00065FFC7E7084B094A6921094800F098FAAB
:1050F000054B064A6921064800F092FA024B034A22
:105100006921034800F08CFA18DE0010ACE20010B0
:1051100034DE001070B505000C001600002928D000
:105120002DD0037B99422AD84B005B18033B0268C1
:10513000944663445A78002A27D19A78002A2AD1C3
:105140001978FFF793FF0300002E03D0EA7B002AB3
:1051500027D1EC73002B37D1002C49D02B7B9C42FC
:1051600046D82B6861000C19033C1C19002363709E
:1051700070BD224B224A3821224800F051FA224BBE
:10518000224A6921224800F04BFA224B1C4A3A215C
:105190001C4800F045FA204B194A3B21194800F001
:1051A0003FFA002A0AD0297B8A4207D851008A1880
:1051B000033A29688C4662445470CAE7124B134A7A
:1051C0006921134800F02CFA002B0BD02A7B934264
:1051D00008D843001B18033B2A6894466344002206
:1051E0009A70B9E7084B094A6921094800F018FA92
:1051F000054B064A6921064800F012FAB0E100109A
:1052000084E20010B8E1001018DE0010ACE20010DB
:1052100034DE001000E2001028E2001070B5040037
:105220000A00457B2900FFF775FF6073280070BDF9
:1052300070B50400002967D0437B8B420ED0002953
:1052400011D0037B99420ED84B005B18033B0268D8
:10525000D0188378002B0CD1002056E00121FFF7F5
:10526000DDFF012051E0294B294A6921294800F03E
:10527000D7F9002B20D0227B93421DD85A00D31897
:10528000033B2268D2182568EB5C8B421AD0002BB6
:105290001BD0227B934218D85A00D318033B2268B4
:1052A000D21853788B4216D0002BF0D11A4B1B4AE0
:1052B00067211B4800F0B4F9144B154A69211548C1
:1052C00000F0AEF94378137007E0104B104A6921E3
:1052D000104800F0A5F943785370002383704370A1
:1052E00001222000FFF716FF0200617B814205D0FA
:1052F0002000FFF75BFE6073012006E0094B074AC0
:105300006D21074800F08CF9002070BD18DE0010F8
:10531000ACE2001034DE001004DD00106CE200107E
:10532000B8E100104CE2001070B504000D00FEF76B
:1053300063FC01002000FEF797FEFF2323716571D7
:10534000BFF35F8F70BD10B50021FFF7EDFF10BDFB
:1053500010B5FF21FFF7E8FF10BD0000034B9C468E
:10536000614489000160BFF35F8F704740000034E3
:1053700010B504000120FEF74DFC01002000FFF7EE
:10538000EDFF10BD10B58300084A944663441C68C5
:1053900040226240C02414408022520113431C600A
:1053A000C000034B9C466044416010BD04C00140F6
:1053B0000040014080000B4B9C46604400290DD00A
:1053C0000823002A0CD004221343026853400C2205
:1053D0001340802252011043036070470023F0E71E
:1053E0000022F1E704C0014010B501238340D02220
:1053F0001206936293610521FFF7C4FF10BD000000
:1054000070B504000D00062000F042FAC00029002B
:1054100001F066FCC60908D00E4B9E4217D87F23C8
:10542000184001303500460800E001256562A6629B
:105430002C3480208001044300232360062000F0E8
:1054400027FA8000A901891901F04AFC70BD0026E5
:10545000014DEBE7FEFF0000FFFF0000002909D02F
:105460000A22064B9C466044434258414000044B8C
:10547000C252704780225200F3E7C0460080FCBF52
:105480003022002070B505000C00062000F000FA64
:10549000002829D0164B9D4227D08022D203154BDD
:1054A0001A60154B1A60154B9B6811009943FAD18D
:1054B00000212800FFF7D2FF21002800FFF7A0FFFE
:1054C0002C002C34E96A60224A406E21114080226F
:1054D0005201224311600A4B2B6380239B0123431B
:1054E00010221A600323AB6470BD80221204D6E739
:1054F0000080034000E0004000F0004000C0004099
:105500000103000070B5264B264A1A60264B274A35
:105510001A60274B9A68254B9343FAD1254C01E03A
:1055200008CC9847244B9C42FAD300F031F91E4B2B
:10553000224A1A601E4B9B68DB43DB01FAD1204BE9
:1055400040229A675A671A67DA661E4C03E0200009
:10555000FFF7F9FE08341C4B9C4206D26379002BFE
:10556000F5D02000FFF7F4FEF4E7184CA168184DC1
:10557000C022280002F05CFBA560FAF774FE002848
:1055800000D000BEFEF728FBFEF762FDFFF7CAF869
:10559000104C01E008CC98470F4B9C42FAD370BDE9
:1055A00000E00040BFCDFBFE00F00040FE7F3C006D
:1055B00000C00040D80E0020E80E0020FFFFFF01D1
:1055C00000F00140D00E0020D80E002000ED00E0D9
:1055D00000000020E80E0020F40E002000BEFDE7D1
:1055E00003000A4A1268002A08D0084A1068C31843
:1055F000074A9A4206D3054A13607047034A054991
:105600001160F2E701204042F7E7C046A41B0020EA
:10561000000004206822002010B5FFF7DFFF000023
:1056200010B582B00C001900002A0CD0084B002ADB
:105630000BD00192009323000200064802F02EFCDA
:105640000120FFF7CBFF044BF1E7034AF1E7C04627
:10565000D0E30010E0E30010DCE300100FB400B56D
:1056600083B0084802F0EAFB049B002B07D005A991
:105670000191180002F0F0FB034802F0DFFB01206B
:10568000FFF7ACFF10E4001020E40010F8B5DE4690
:1056900057464E464546E0B505000F0092460A9A29
:1056A00093424ED31A0E91461E020A9A00233000EE
:1056B000494601F057FB80466C006419A4002F4B4B
:1056C0009C4664446368834200D260602B1FDBB257
:1056D0009B46012B3BD9C0239B012343802212010F
:1056E0001A60AB00264A9958002905D0506901F08C
:1056F000F7FA01300138FDD153465A0123685A4068
:10570000E0231A4080235B0123431A605A46012A92
:1057100028D980239B012343802212011A6043462B
:105720006360424600233000494601F01BFBAD0098
:10573000134B58510120F0BCBB46B246A946A046C7
:10574000F8BD104B104A2D211048FFF769FF012FBB
:10575000C1D1C0239B01234303221A60A368DB0746
:10576000FCD5C9E72168794003220A401A60A26883
:105770000123BB401342FAD0CBE7C0460080004073
:10578000081B002024E4001088E4001038E4001016
:1057900030B583B00C2000F00DF9FEF713FA0028A5
:1057A0000DD0002304E099002D4A2E488850013383
:1057B000092BF8D92A4B2C4A5A6203B030BD2B4B27
:1057C00000229A6700F064F9294B01221A60274BE6
:1057D0005B6C012BFBD1274B03221A60234B9B6B85
:1057E000012BFBD1022400940533234A01212348D5
:1057F00000F054F800940523214A0121214800F0CB
:105800004DF8214B0093002202210420FFF73EFFB8
:105810001E4D00952B00002201210520FFF736FFC9
:10582000104C00942300002200210720FFF72EFFD8
:1058300000942300002200210820FFF727FF0A4BD5
:1058400000932300002200210920FFF71FFF00958D
:105850002B00002200210620FFF718FFADE7C0460D
:10586000081B0020006CDC021BB700000080004019
:105870003CB0004030B00040002F6859008002402A
:1058800000389C1C00C00240001BB7004059730741
:105890008000014BC0587047081B0020F0B5CE4671
:1058A00000B504000E0091461F000C2001F018FA0C
:1058B000050043011B1A9901C91AC9000918890179
:1058C000484601F00DFA0200103A98235B009A4214
:1058D00033D87B1E062B36D8069B013B062B32D8CD
:1058E000069B9F4235D34B461A09AA4237D33F0441
:1058F000069B1D032F432368002B36DB234B9C4262
:1059000041D080225201224B1A60224B1A60224B56
:105910009B6811009943FAD12660A060231DC02224
:1059200092011A43212313602368002BFCDAE760FD
:105930000823136080BCB946F0BD184B184A1621E5
:105940001848FFF76DFE184B154A19211548FFF747
:1059500067FE164B124A1F211248FFF761FE144BD7
:105960000F4A22210F48FFF75BFE22683F231340B6
:10597000B342C3D1A3681B051B0D8342BED1E368AC
:10598000002FBBD1D6E780229201BCE700C00240C5
:1059900000E0004000F0004000C0004098E400102B
:1059A00080E50010B4E4001000E500104CE50010A4
:1059B00064E5001080239B000343014AD3627047D3
:1059C00000800540024B1A68024B5A607047C0467F
:1059D000C81F00200080054010B50200144B802035
:1059E000C0051860134B1448186000291BD0134BD6
:1059F000E021C9041960002A00D1323253019B1AF8
:105A00009800801800010E4B186080235B049842B8
:105A100002D30B4B0B4A1A60FFF7D4FF074B8022CF
:105A2000D2051A6010BD024BE021C9041960E2E7FB
:105A300000B0054008200140FCFF010000A0054027
:105A4000C81F0020FFFFFF0010B5030010000C4A24
:105A50008024E4051460002B0DD001221343094A71
:105A6000094CD461094C5C4014625162936200217C
:105A7000FFF7B2FF10BD034B0022DA61F7E7C04623
:105A800000B0054000800540D3C007B02D3FF84F5F
:105A9000064BAA2212011A602F22DA60044B054A33
:105AA0001A60024B5B68002BFBDA70470040024033
:105AB0000060024000B0FA009A4200D28854704759
:105AC000704710B5002802D00B684968984710BD90
:105AD0000100002007E083001B185B00501C0860D9
