:020000041000EA
:1000000000B5324B212058609868022188439860DF
:10001000D860186158612E4B002199600221596106
:100020000121F02299502B49196001219960352056
:1000300000F044F80222904214D00621196600F024
:1000400034F8196E01211966002018661A6600F04E
:100050002CF8196E196E196E052000F02FF8012189
:100060000842F9D1002199601B49196000215960AB
:100070001A491B48016001219960EB211966A021F2
:10008000196600F012F800219960164914480160C1
:100090000121996001BC002800D000471248134993
:1000A000086003C880F30888084703B5996A0420EC
:1000B0000142FBD001200142F8D103BD02B5186610
:1000C0001866FFF7F2FF186E186E02BD00000240BE
:1000D000000000180000070000035F00212200005C
:1000E000F4000018222000A00001001008ED00E03C
:1000F00000000000000000000000000074B24E7A12
:1001000000200420F7010010C3010010C5010010F9
:10011000C1010010C1010010C1010010C101001097
:10012000C1010010C1010010C1010010C701001081
:10013000C1010010C1010010C9010010CB01001065
:10014000CD010010CD010010CD010010CD01001037
:10015000CD010010CD010010CD010010CD01001027
:10016000CD010010CD010010CD010010CD01001017
:10017000CD010010CD010010CD010010CD01001007
:10018000CD010010CD010010CD010010CD010010F7
:10019000CD010010CD010010CD010010CD010010E7
:1001A000CD010010CD010010CD010010CD010010D7
:1001B000CD010010CD010010CD010010CD010010C7
:1001C00000BE00BE00BE00BE00BE00BE00F04BF888
:1001D000103800BEF2EB887180020110A8020110F5
:1001E0003402001090A31AE700202149086006C8D5
:1001F00081F3088810471F48006800282FD10DA4FC
:100200000ECC002902D000F012F8F9E71A491B4A77
:10021000002000E001C19142FCD1194988471949E9
:1002200088471949884700BEFDE701C901C29A42C3
:10023000FBD37047A8020110C0000020CC0F0020A3
:10024000B41101100000042000000420B4110110BA
:1002500000100420001004200000000070470B482C
:1002600007F014FB0047EFF30580C0B270470000B1
:1002700008ED00E0000000D0D00F00209023002007
:1002800091610010A92E00104D610010575600001A
:1002900006005250ABB36053E4F800100600525011
:1002A000861C0302F4F80010060052505422A29D4E
:1002B00000F9001005005250DE65F468B411011019
:1002C000F8B5C0460448054B10B5834203D0044B33
:1002D000002B00D0984710BDCC0F0020CC0F002081
:1002E0000000000006480749091A8B10C90FC918F9
:1002F00010B5491003D0044B002B00D0984710BD17
:10030000CC0F0020CC0F00200000000010B5074CDF
:100310002378002B09D1FFF7D5FF054B002B02D026
:10032000044800E000BF0123237010BD101100201D
:100330000000000060C60010054B10B5002B03D074
:100340000449054800E000BFFFF7CCFF10BDC046E0
:10035000000000001411002060C60010D0231B060E
:100360005B68C34001201840704701238340D022BE
:10037000120653629361704701238340D022120614
:1003800053629361704710B5040005F033FE0123FA
:10039000A340D0221206936210BD10B5040005F0F0
:1003A00029FE0123A340D0221206936210BDF8B5A6
:1003B000CE46474680B50C00037899464378984668
:1003C0008768002515E04846FFF7DDFF4046FFF748
:1003D000E4FFFE173800310005F0D8F94046FFF77A
:1003E000C4FF6400E4B23800310005F0CFF90135F4
:1003F000EDB2072D06D863B2002BE4DB4846FFF7C9
:10040000BBFFE3E74846FFF7BEFF4046FFF7C5FFE7
:10041000FD173800290005F0B9F94846FFF79EFF9F
:1004200004004046FFF7A1FF3800290005F0AEF9AF
:100430004846FFF7A1FF002C04D101200CBC9046D8
:100440009946F8BD0020F9E7F8B50600140017003A
:10045000012000E02900002F0AD0012808D14D1CFE
:1004600009783000FFF7A3FF0128F3D1013FF1E73E
:10047000012801D00020F8BDE01BFCE770B50500A5
:100480000C0016000078FFF777FFA868002105F040
:100490007DF96878FFF769FF6400E1B2002E01D0B2
:1004A0000131C9B22800FFF782FF70BD10B504000A
:1004B0000078FFF761FFA068002105F067F9607818
:1004C000FFF76BFFA068002105F060F92078FFF7C7
:1004D0005AFFA068002105F059F910BDF8B50600D3
:1004E0000F000078FFF74FFF0025002404E070782C
:1004F000FFF73BFF0134E4B2072C11D8B0680021AC
:1005000005F044F97078FFF748FF6D00EDB23078E0
:10051000FFF724FF0028EAD001231D43EDB2E6E7F0
:10052000002F15D03078FFF72EFF7078FFF735FFDA
:10053000B068002105F02AF97078FFF716FFB0685F
:10054000002105F023F93078FFF716FF2800F8BDE9
:100550003078FFF711FFE8E770B506000C00551E74
:10056000002A09D069426941C9B23000FFF7B6FFDD
:1005700020702A000134F2E770BD000070B504005D
:100580000D0000280AD08378002B08D100789F281E
:100590001BD9234B9D4228D90023A36070BD21485D
:1005A00003F0FEFE2078032105F0F2FC60780321C1
:1005B00005F0EEFC20780022012105F001FD6078B5
:1005C0000022012105F0FCFCE8E705F013FD60784E
:1005D00005F010FD2278012319009140D022120667
:1005E000916261788B409362D3E70F4B9D4202D9B1
:1005F0000123A360D2E70D4B9D4202D90223A360E1
:10060000CCE70B4B9D4202D90A23A360C6E7290021
:10061000084807F08FF90004000CA060BEE7C04650
:100620003F420F006C060020FF340C007F1A0600CA
:100630009F86010040420F0030B585B004008578E8
:10064000002D0BD10022FFF719FF002800D0012553
:100650002000FFF72BFF280005B030BD00230093DA
:1006600001330F226A44034803F0F6FEC543ED0F41
:10067000F1E7C0466C060020F0B583B00400170017
:100680001E008378002B0BD10022FFF7F7FE050038
:10069000012811D02000FFF709FF280003B0F0BDAA
:1006A000012300933300084803F0CAFE002801DB51
:1006B0003500F2E70025F0E7320039002000FFF7AF
:1006C000C3FE0500E6E7C0466C060020F0B585B025
:1006D00006000F001D000F236B441A708378002B57
:1006E0000BD10022FFF7CAFE040001281AD0300007
:1006F000FFF7DCFE200005B0F0BD012300930F22C0
:100700006A44154803F09CFE002802DAC443E40F53
:10071000F0E7002300930A9B2A0039000E4803F0FB
:100720009BFEF3E701220F2169443000FFF78CFEA6
:1007300004000128DBD13000FFF7B8FE01223900A8
:100740003000FFF79BFE04000128D0D10A9A29004F
:100750003000FFF701FFCAE76C06002010B50C005F
:100760001300017810302200FFF786FF10BD10B58E
:1007700082B00C00D1010919C160002B25D0C378CB
:10078000052B0BD0042B0FD0062B20D0072B0CD120
:100790001C348378002B08D1033206E020348378A0
:1007A000002B02D1043200E0023401A900230B70B7
:1007B000503B1A434A705F3323408B70241110233F
:1007C0001C43CC700422FFF7C9FF02B010BD837830
:1007D000002B01D02034E8E70232E6E770B5A2B082
:1007E00005000E00140001AA40211170002B11D148
:1007F000686800280CD0EB689C46604422003100F9
:1008000008F0A4F8EB689C466444A405A40DEC60D1
:1008100022B070BD220031006B46581D08F096F8DA
:10082000621C01A92800FFF799FFE1E7F0B5C64671
:1008300000B584B004000D0017001E0000234360C3
:10084000C170867043700B9B83740C9B03740D9B6B
:1008500043741023984680440F994046FFF78EFE5C
:100860007B1C012B01D9FF2F36D13C214046FFF7DD
:10087000E3FE3C214046FFF7DFFE002822D03C2368
:1008800023700B276F4400233B70217801330093C2
:100890003B0000224046FFF719FF3A780F23134030
:1008A0003B70072B27D00F2B25D0082B3AD0002BDD
:1008B00038D0062B36D0033BDBB2012B36D90127CB
:1008C0007F421EE03D214046FFF7B6FE002800D1E2
:1008D0008AE03D232370D4E7FFB2277039004046F9
:1008E000FFF7AAFE39004046FFF7A6FE0028C8D150
:1008F00001277F4268E00123E37073425E41F6B254
:10090000042723783D2B13D0022D13D0062D11D0B0
:10091000012D2CD0072D30D0162235492000FFF7AD
:100920001DFF0CE00423E3700227EAE70027E8E755
:100930000137E9E718222F492000FFF70FFF0A9B34
:10094000002B20D1002E29D18023A372403BE372DB
:10095000062D35D0022D3CD0012D3DD0052D3ED0A9
:10096000072D31D14823A372203BE3722CE01622DD
:1009700021492000FFF7F2FEE1E71A221F4920007B
:10098000FFF7ECFEDBE700236A461373A7335373CC
:10099000022203A92000FFF7E1FED3E703AE002304
:1009A0003370A0337370022231002000FFF7D6FEAF
:1009B000C0237370022231002000FFF7CFFEC3E78F
:1009C0002033A372503BE372380004B004BC90465D
:1009D000F0BD2023E372F7E78023E372F4E74023BE
:1009E000A372203BE372EFE701277F42ECE7C046AA
:1009F00058C8001040C800108CC8001070C8001003
:100A000000238B4206D20278D243027001300133B8
:100A1000DBB2F6E770470000F0B5DE4657464E46BB
:100A20004546E0B58FB004000D00511C03D0591CA1
:100A300001D002724372217AA37A994200D3B4E3BF
:100A4000627AE37ADB089A4200D3B1E31B9B200071
:100A5000FFF78DFE199B012B19D0199B042B77D022
:100A6000199B022B00D12EE1199B032B00D18FE2A1
:100A7000199B002B00D0B6E30621280006F032FFB8
:100A8000199F2A000D00189B984616004CE3072773
:100A90002F4000262A003D00189B9846170014E0BE
:100AA000082104A8FFF7ACFF31E000232372627A2B
:100AB0000132D2B262721B9B00212000FFF757FE69
:100AC000002500E00025083F0136227AA37A9A42E9
:100AD00000D370E343469A5D002A00D16DE3617A4A
:100AE000E37ADB08994200D369E3072FEBDC203A75
:100AF000D100891A002304AA1370D04A891807224A
:100B000004AB581C07F022FF1A9B002BC8D1082207
:100B1000531B9A46237A52469918A27A914201DDD4
:100B2000D31A9A46290004AB9C4661441B9B52464B
:100B30002000FFF753FE227A5244D2B22272A37AE7
:100B4000073B9A42BEDB6378002BAED10025BAE7A3
:100B50000B332B4098460023AA461D00189B99464C
:100B60001B9B9B4646E0102104A8FFF749FF6DE060
:100B7000102104A8FFF744FF82E0217A02325B468D
:100B80002000FFF7F4FD31002031102204A807F007
:100B9000DDFE1A9B002B06D15B463A004146200041
:100BA000FFF71CFE76E0102104A8FFF729FFF3E70A
:100BB000217A03325B462000FFF7D9FD3100303146
:100BC000102204A807F0C2FE1A9B002B06D15B4638
:100BD0003A0041462000FFF701FE5EE0102104A824
:100BE000FFF70EFFF3E70023984610235B429C4675
:100BF000E2440135217AA07A814200D3E1E2627AAF
:100C0000E37ADB08033B9A4200DBDCE24B465E5DA5
:100C1000002E00D1D9E253460F2BE6DC203EF6B27F
:100C2000B601874BF61810274346FF1ACB198342AB
:100C300000DD471A5B462000FFF799FD10223100C6
:100C400004A807F083FE1A9B002B8CD104AB9C46B2
:100C5000E0445B463A0041462000FFF7BFFD217AA1
:100C6000627A01325B462000FFF781FD31001031CE
:100C7000102204A807F06AFE1A9B002B00D077E729
:100C80005B463A0041462000FFF7A8FD627A052A3C
:100C900000D872E7627A042A8AD9237ADF19FFB270
:100CA0002772A37A0F3B9F429DDB6378002B07D00E
:100CB00000232372637A043363720023984694E717
:100CC0000023984691E70C21280006F00BFE0391C3
:100CD00000230193AB462AE1062104A8FFF790FE0A
:100CE0004CE19200D2B20133032B0CDC0800184116
:100CF000C00700D51643181D0C0004412000C00792
:100D0000EFD51543EDE74C4604AB1E5563465E70C8
:100D10001D735D730137052F0CDCFC1C6400A446B9
:100D200004AB9946CC44D95D03220025002600235C
:100D3000A146D9E70027C44601E0029C2700042F02
:100D400000DDA5E004ABDD5D7C1C1E5D03377F008C
:100D50009846474402210123002002941FE0022804
:100D60004FDC420001320124A246944062B27C78FA
:100D7000144364B2A046BC78224352B29146421C4E
:100D800052005446944062B2444614437C704C4630
:100D90002243BA705B00DBB24900C9B201300628B9
:100DA000CBDC2A001A401D4205D01E4203D10D4261
:100DB00001D10E42D3D1002A05D11E4203D00D42EB
:100DC00001D00E42CBD0002AE4D11E42E2D00D4227
:100DD000E0D00E42DED1032848DC420001329046CA
:100DE000012292461400424694407A7814437C7063
:100DF000421C5200544694402200BC782243BA70F0
:100E0000C8E703281ED0021F520001320124A24667
:100E1000944062B27C7B144364B2A046BC7B224304
:100E200052B29146C21E52005446944062B24446A9
:100E300014437C734C462243BA73ABE7A4C800103A
:100E400044CB00107A7890468022524244461443A4
:100E50007C70BC782243BA70012290467A7B44466B
:100E600022437A73BA7B2243BA7393E7021F52007C
:100E700001320124A04694407A7B22437A73C21E39
:100E80005200444694402200BC7B2243BA7381E75F
:100E900064460C26039BF61A217A8A19A37A9A4291
:100EA00000DD5E1A627A1B9B2000FFF760FC039D49
:100EB000A91D04AB9C4661441B9B32002000FFF738
:100EC0008DFC217A627A01321B9B2000FFF74FFCD8
:100ED0002900123104AB9C4661441B9B3200200068
:100EE000FFF77CFC237A9E19F6B22672A37A0B3B9D
:100EF0009E4213DB6378002B02D1002303930FE0A3
:100F000000232372627A0232D2B262721B9B0021EA
:100F10002000FFF72CFC0023039301E00023039340
:100F20000C235B429C46E344019B01330193227AEC
:100F3000A37A9A4200D34AE1627AE37ADB08013B62
:100F40009A4200DB45E1189B019A9B5C002B00D183
:100F500041E15A460B2AE3DC203BD9B28B005918F9
:100F6000A84BC918002304AA1370062204AB581C0E
:100F700007F0ECFC1A9B002B00D0ADE618220021F4
:100F800004AB981D07F0DCFC00231F00A046C2E65E
:100F90000C332B409B4600239A46D946AB467FE054
:100FA000082104A8FFF72CFDA1E09200D2B2013382
:100FB000032B0CDC08001841C00700D51643181D90
:100FC0000C0004412000C007EFD51543EDE7019C5C
:100FD000404604AB1E5563465E701D745D74013758
:100FE000072F0DDC3C1D6400A44604AB9846C444A6
:100FF000D95D032200250026002301948046D7E70F
:10100000040010234A469B1A9846017ACA18837A2C
:101010009A4201DD5B1A9846627A1B9B2000FFF71B
:10102000A6FB4946083104AB9C4661441B9B4246E3
:101030002000FFF7D3FB217A627A01321B9B20004C
:10104000FFF795FB4946183104AB9C4661441B9B56
:1010500042462000FFF7C2FB237A4344DBB22372EF
:10106000A27A0F3A934213DB6378002B02D100235C
:1010700099460FE000232372627A0232D2B2627282
:101080001B9B00212000FFF772FB0023994601E023
:10109000002399465B46103B9B46534601339A46D4
:1010A000227AA37A9A4200D397E0627AE37ADB0845
:1010B000013B9A4200DB92E0189B52469B5C002B5E
:1010C00000D18EE05A460F2AE4DC203BDBB2D90087
:1010D000C91A4D4BC918002304AA1370072204AB88
:1010E000581C07F033FC1A9B002B00D058E7202235
:1010F000002106A807F024FC0027200070E7062145
:1011000004A8FFF77DFC2FE000232372627A0132EE
:10111000D2B262721B9B00212000FFF728FB199DB1
:1011200000E0199D063E0137227AA37A9A425DD2E9
:10113000627AE37ADB089A4260D24346DB5D002B99
:101140005ED0052EEEDC203BD9B2002304AA13703A
:101150008B0059182B4BC918052204AB581C07F0FB
:10116000F5FB1A9B002BCAD10622531B9A46237A01
:1011700052469918A27A914201DDD31A9A46290063
:1011800004AB9C4661441B9B52462000FFF726FBA4
:10119000227A5244D2B22272A37A053B9A42C0DB31
:1011A0006378002BB0D1199DBCE7012040421EE0BE
:1011B000012040421BE0002019E0002017E0002041
:1011C00015E0002013E0002011E000200FE00020D7
:1011D0000DE000200BE0002009E0002007E00020E7
:1011E00005E0002003E00120404200E019980FB024
:1011F0003CBC90469946A246AB46F0BD1998F6E72E
:101200001998F4E760C60010A4C80010F0B5D646DF
:101210004F464646C0B584B005008A461600C37ADC
:10122000DB089946877A3F091022684607F088FB59
:1012300000236B722B72984606E0EB78072B17D0D1
:1012400043460133DBB29846C84518D233004246C4
:1012500000212800FFF78BFA0024BC42EDD23300B6
:10126000102269462800FFF7B9FA0134E4B2F4E726
:101270003300082269462800FFF7B0FAE0E7686803
:10128000002806D0AB7AEA7A5A43D210514607F0CA
:1012900057FB04B01CBC90469946A246F0BD416085
:1012A0007047704770B504000E00C06807F03CFB43
:1012B000E27D237D9A4221D004257543ADB2A580FD
:1012C000280007F01FFBE060002819D02A00002149
:1012D00007F036FB6680A36A002B0ED0206907F06A
:1012E00023FBA588280007F00DFB206100280BD008
:1012F0002A00002107F024FB668070BD0325DCE78F
:101300000023A3806380E6E70023A3806380F4E7E3
:1013100070B5C37D027D9B1A5A425341DCB28B11DA
:1013200003221340C3750D11154005758E1016402C
:1013300046750A4082750022FF268E425241027095
:10134000C268002A05D05B1B5A425341DBB29C4263
:1013500000D170BD4188FFF7A5FFFAE7F0B5CE4692
:10136000474680B587B005000F0000218E480AF07F
:1013700093FB0400431C06D08C4B1B68013300D147
:101380007DE0894B2B62631C00D186E0874B1B6894
:10139000013300D181E0631C00D19FE0834B1868CA
:1013A000431C00D195E02E6A814B9E4200D199E00A
:1013B000002380499B005A5801325A503FB2EF80B7
:1013C000A0466C622B78002B00D194E0784B9E42B3
:1013D00000D189E00400744B9E4200D187E00721D0
:1013E000380004F0D5FD012300933A004146300057
:1013F0000AF0CCFB80235B020293E21CE3011203A0
:1014000013436D4A13400393BF0280239B051F4380
:1014100005976A4B0493052005F050F807F04AF948
:10142000674907F0F2F8814607F09EF987B2002F6E
:101430005FD0380007F03EF9011C484607F0DBF8A2
:101440008721C90507F0F7F807F08EF9C3B21B0230
:101450003F041F43029702AB2200414630000AF0CE
:10146000CDFB3268012341468B409A4313433360DE
:1014700001236B7007B00CBC90469946F0BD5149F2
:1014800049480AF027FB002800D17AE74D49464831
:101490000AF034FB454B186073E7002144480AF01A
:1014A000FBFA0400431C00D175E7474B1B6801336E
:1014B00002D03F4B2B626EE742493D480AF00AFBDF
:1014C0000028F6D03F4938480AF018FB3E4B186018
:1014D000EFE73D4B1B68013300D064E701235B421B
:1014E0006B62C7E7012364E7374B1C6873E706218B
:1014F00076E70023ABE72E4B9E424DD004002A4BEB
:101500009E424CD00721380004F042FD0123009395
:101510003A00414630000AF039FB80235B02029317
:10152000E21CE30112031343234A13400393BF0257
:10153000802189050F430597204B0493052004F073
:10154000BDFF07F0B7F8214907F05FF8814607F0C3
:101550000BF987B2002F24D0380007F0ABF8011C3C
:10156000484607F048F88721C90507F064F807F0F6
:10157000FBF8C3B21B023F041F43029702AB2200D9
:10158000414630000AF03AFB3268012341468B4065
:101590009A43134333606BE70B4B1C68AFE706219C
:1015A000B1E70023E6E7C0460000205030060020E7
:1015B0000000305064160020FFFFFF9F000006501F
:1015C0000024F44AE8E30010340600200024744AA2
:1015D000F0B5C64600B586B00C00C180056A5E4B0A
:1015E0009D4244D000230278002A5CD0466A002B3A
:1015F0003FD15A4B1F685A4B9D423DD007212000D6
:1016000004F0C6FC012300932200310028000AF0F8
:10161000BDFA80235B020293FA1CFB011203134301
:10162000504A13400393A40280239B051C43059456
:101630004D4B0493052004F041FF07F03BF84B4964
:1016400006F0E3FF804607F08FF884B2002C15D037
:10165000200007F02FF8011C404606F0CCFF872140
:10166000C90506F0E8FF07F07FF8C3B207E00123E1
:10167000B9E73F4B1F68BEE70621C0E700231B0206
:1016800024041C43029402AB3A00310028000AF003
:10169000B5FA2A680123B3409A4313432B6006B07E
:1016A00004BC9046F0BD466A002B3DD12B4B1F6811
:1016B0002B4B9D423BD00721200004F069FC012305
:1016C00000932200310028000AF060FA80235B02B8
:1016D0000293FA1CFB0112031343224A13400393A3
:1016E000A402802189050C4305941F4B0493052017
:1016F00004F0E4FE06F0DEFF1E4906F086FF804699
:1017000007F032F884B2002C13D0200006F0D2FF8C
:10171000011C404606F06FFF8721C90506F08BFFCC
:1017200007F022F8C3B205E0114B1F68C0E706219D
:10173000C2E700231B0224041C43029402AB3A00BC
:10174000310028000AF05AFA2A680123B3409A436C
:1017500013432B60A3E7C046000030503006002042
:1017600000002050FFFFFF9F000006500024F44AB5
:10177000340600200024744AF8B5050016001C0049
:101780004378002B03D06B6A01330AD1F8BDFFF711
:10179000E5FD01236B70F6E70434A40026503C00FD
:1017A0006646671E002CF1D0286A6C6A731C9C4642
:1017B0003678360642682100103101238B401342EF
:1017C000F8D1E9E710B582B0C268002A05D0838855
:1017D000817904780094FFF7CFFF02B010BD0000BC
:1017E00010B5040082880021C06807F0A9F8200025
:1017F000FFF7E8FF142003F0F5FFE06807F094F826
:10180000206907F091F8616A206A0AF035F9206AC8
:10181000134B984219D00022124992005358013BB1
:101820005350002B0FD10E4B984210D00E4B1A681C
:101830000E490AF07FF90A4B226A9A420AD00A4BF3
:10184000012252421A60200010BD0122E4E7084B39
:101850001A68EDE7064B012252421A60F3E7C046D0
:10186000000030506416002030060020E8E300102D
:101870003406002010B54378002B01D1C18010BD83
:101880008179FFF7A5FEFAE7F8B504000D0017000F
:101890001E00002060702072E0602061A062E062A3
:1018A0002063606304F03AF800290FDBA061E16176
:1018B00039002000FFF7DEFF31002000FFF728FD90
:1018C00029002000FFF7EEFC2000F8BD024B034A80
:1018D0003F21034804F03EFC44E3001060E30010A5
:1018E00098E30010F0B5D6464F464646C0B5040012
:1018F00016001D0008AB1B78984609AB1878638862
:101900008B423ED9277A002F09D07E43360A7D4389
:101910002D0A43467B431B0A98467843000AA36A74
:10192000002B33D0E37D227D934246D0890022698B
:1019300091468944E26857184A46D054E37D9A4656
:10194000BA44636B984753461870237D4A46D65471
:10195000637DD554A37D4146D154237D9946B94436
:101960003000A36A98474B461870667DBE19280060
:10197000E36A98473070236BA17D7F1840469847F3
:1019800038701CBC90469946A246F0BDE37D227D8E
:1019900093420CD08900E26894466144C854237D88
:1019A000CE54637DCD54A37D4246CA54E9E74B0033
:1019B0005918E3689C466144F1E74F007F1823699A
:1019C0009946B944E3689C466744BEE730B583B0A6
:1019D0001400150E120CD2B2230ADBB2E4B2019548
:1019E0000094FFF77FFF03B030BDF8B5CE46474601
:1019F00080B5040043888B4200D885E0836A002BC1
:101A000014D0C27D037D9A426FD08900006984465C
:101A10006144885C0006CB5C1B041843637DCB5C8F
:101A20001B021843A37DCB5C18436EE0C37D077D8A
:101A3000BB4225D08900C2685618027A9046002A17
:101A400046D0F05C0002110005F074FF03069946D1
:101A5000F05D0002414605F06DFF05044B461D4355
:101A6000637DF05C0002414605F064FF000205431F
:101A7000A37DF05C0002414605F05CFF284344E092
:101A80004B005918C3685E18037A9846002B15D08E
:101A9000F05D0002190005F04DFF0504637DF05C68
:101AA0000002414605F046FF00020543A37DF05CBD
:101AB0000002414605F03EFF284326E0F05D0004A9
:101AC000637DF35C1B021843A37DF35C18431CE0A9
:101AD000F05C0006F35D1B041843637DF35C1B029E
:101AE0001843A37DF35C18430FE04A0051180269C4
:101AF00094466144C85C0004637DCB5C1B021843C0
:101B0000A37DCB5C184300E000200CBC90469946B6
:101B1000F8BDF0B5C64600B504000F0016001D0064
:101B2000408823695A425341421E9041184214D1C1
:101B3000A762E6622563069B636300256388AB4268
:101B400016DDAEB231002000FFF74FFF020031007A
:101B50002000FFF73BFF0135F0E7A3889846180007
:101B600006F0D0FE20614246E16806F0EFFEDFE7B6
:101B700004BC9046F0BD10B50300C0689A880021EF
:101B800006F0DEFE10BD0000014B185C7047C04639
:101B900020E7001010B504008020FFF7F5FF604338
:101BA0000012C0B210BD00001D4B1B68002B23D1DA
:101BB0001B4B14221A601B4A1368013B1360002B55
:101BC0001EDB194A1368013B1360002B1CDD174B09
:101BD0001B78002B0ED0164A136801331360072BB5
:101BE00002DD130007221A60124A1368013B1360DA
:101BF000002B10DB01207047013B094A1360DAE734
:101C0000130000221A60DCE70B4B01221A60064B1E
:101C100009321A60DBE7130000221A60EAE7C046C7
:101C2000042000205C200020DC1F0020A1200020D8
:101C300050200020782000208020002070B5D54A58
:101C400080235B00D35C2B2B00D855E1D24B1D6861
:101C50002C79642C00D899E02300643B1802C01A48
:101C6000642105F03FFECD4B1860642C00D891E054
:101C7000643C2002001B6421494205F033FEFF3022
:101C8000C64B58602B79632B00D98FE06420C01AB3
:101C90000302181A642105F025FEC04B98606C7988
:101CA000642C00D886E02300643B1802C01A64212B
:101CB00005F018FEBA4B1860642C7FD9643C2002F2
:101CC000001B6421494205F00DFEFF30B44B586003
:101CD0006B79632B7ED86420C01A0302181A642122
:101CE00005F000FEAE4B9860AC4A116853689268EC
:101CF0000904FF26360431401B061B0C0B43FF244E
:101D000022401A43A74D03212800FFF75FFEA44994
:101D10000B684A6889681B0433401206120C1A4388
:101D20000C40224302212800FFF750FE9A4B1B680B
:101D3000DB78002B52D0FF22120209219948FFF7CD
:101D400045FE954B1B689B68002B4DDD964A07218D
:101D50009448FFF73BFE904B1B681B7C002B49D03F
:101D6000924A08218F48FFF731FE914B1B78012BD7
:101D70004DD0022B52D0002B42D0874B1B685B7892
:101D8000072B61D89B008B4AD3589F46834B002278
:101D90001A606AE76420041B2002001B6421494288
:101DA00005F0A0FDFF307D4B58606BE77B4B0022B8
:101DB0009A6074E77A4B00221A607DE76420041B66
:101DC0002002001B6421494205F08CFDFF30744B5A
:101DD00058607DE7724B00229A6085E7764A0921B8
:101DE0007048FFF7F3FDACE7744A07216D48FFF731
:101DF000EDFDB0E7642208216A48FFF7E7FDB4E78C
:101E00006F4BFF221A7000225A709A70B5E76C4B24
:101E100000221A70FF2159709A70AEE7684B0022B9
:101E20001A705A70FF329A70A7E7664A002313703F
:101E3000FF2151709370644A117096205070937016
:101E4000624A117053709370614B1B78032B00D161
:101E500003E15F4B1B78032B00D10BE158490B7852
:101E60004A7889781B0412021A430A4301214D481B
:101E7000FFF7ACFD484B1B68986A9F21C90506F027
:101E80000BFC002804D0524B1B78032B00D1F7E049
:101E90004B490B784A7889781B0412021A430A438B
:101EA00000214048FFF792FD48490B784A7889782D
:101EB0001B0412021A430A433A4C04212000FFF784
:101EC00085FD41490B784A7889781B0412021A4330
:101ED0000A4305212000FFF779FD3A490B784A783B
:101EE00089781B0412021A430A4306212000FFF7D7
:101EF0006DFD2000FFF766FC70BD324A00231370B1
:101F0000FF2151709370304A117096205070937079
:101F10002E4A117053709370294A13705370937046
:101F200092E7284A00231370FF2151709370264ACC
:101F30001170962050709370244A117053709370F2
:101F400082E7204900230B70FF224A708B701E49E4
:101F50000A70962048708B701C490A704B708B7009
:101F600017490A7048708B706EE7164A0023137089
:101F7000FF2151709370144A117096205070937025
:101F8000124A1170537093700D4A1370537093700E
:101F90005AE7C04660110020540600203806002091
:101FA0005C060020D8100020004BFF00FF640000FA
:101FB0009F200020F8E300100087C80082FF4B003C
:101FC00050060020680600204C060020480600202D
:101FD000BD2000202D4A00231370FF215170937003
:101FE0002B4A11709620507093702A4A11705370CA
:101FF0009370294A13705370937025E7264A002383
:10200000137053709370214AFF21117053709370B5
:102010001F4A1170537093701E4A11705370937061
:10202000FF252D041D4C2A00F8392000FFF7CEFCB7
:102030002A0008212000FFF7C9FC2A0009212000FE
:10204000FFF7C4FC2A0002212000FFF7BFFC2A0092
:1020500003212000FFF7BAFCF6E6114D0F4C2A00D1
:1020600008212000FFF7B2FC2A0009212000FFF719
:10207000ADFCEEE60A4A01210848FFF7A7FCF9E6A5
:10208000074A00210548FFF7A1FC0DE7680600207C
:102090004C0600204806002050060020D8100020E2
:1020A000E22B8A0010B5002003F0A4FF03210020DA
:1020B00003F06EFF00220121002003F081FF0120C8
:1020C00003F098FF0321012003F062FF00220121A9
:1020D000012003F075FF054C0549200002F060F96E
:1020E000044A4921200001F089FF10BD6C06002040
:1020F000A08601003521001070B504000D000128F4
:1021000005D0002C02D1094B9D420AD070BD074B6F
:102110009942F6D1522316220A210548FFF7B4FB53
:10212000EFE70348FFF75CFBF0E7C046FFFF000066
:10213000D810002010B5012935D002294AD0002935
:1021400000D010BD264A0223FF33D35C002B13D1ED
:1021500003681A6F120709D51969214B80225200B2
:1021600099540222FF3201219954EAE71D4B1E4A7D
:102170001F311E4803F0EEFF194A80235B00D15C3B
:1021800003681A6F120708D51A69154B5A54802133
:1021900049005A5C01325A54D3E7124B124A1F21AC
:1021A000124803F0D7FF0E4B802252009A5C995CD4
:1021B00003681A6F920707D51961094980225200F6
:1021C0008B5C01338B54BCE7094B0A4A2D2107482D
:1021D00003F0C0FF024A0223FF330021D154B0E7CD
:1021E0006011002018E4001040E4001064E40010C6
:1021F000C8E40010F0E4001070B50D00264B00227A
:102200001A60D0231B06802292049A61234A02237B
:10221000FF33D35C002B04D080235B00D35C002B06
:10222000F4D11E4B18708022520000219954642072
:10223000002103F0ABFAD0231B06802252055A611D
:10224000FA208000002103F0A1FA6424134A8023BD
:102250005B00D35C002B08D1002C06D0FA20800054
:10226000002103F093FA013CF0E7002C02D10A4B65
:1022700001221A60002D06D1D0231B068022920471
:102280005A61012070BD052003F0ACFAD0231B0673
:10229000802252059A61EFE7241B00206011002084
:1022A00070B50E4CFF232370693B63700023A3704D
:1022B0000B4D0C4A01212800FFF788FB2378627838
:1022C000A1781B0412021A430A4300212800FFF7D9
:1022D0007DFB2800FFF776FA70BDC046500600204F
:1022E000D81000200096FF0070B504000D4B0022AE
:1022F000DA71002805D11D003023AB7106352800A6
:1023000070BD084D0735002CF9D00A21200005F0DA
:1023100011FB3031013D29700A21200005F00AFB34
:102320000400F0E7181B002070B53630C4B2201C42
:102330003B2C00D93B20C0B2FFF7D6FF01000C4870
:1023400009F0C8FF3B2C01D8094870BD084D280092
:1023500009F0C8FF28180222064906F0F7FA200003
:102360003B38FFF7C1FF0100280009F08BFFEBE7C6
:10237000181B00201CE50010F0B5CE46474680B57E
:102380008DB00400DC4A80235B00D35C2B2BF9D991
:10239000DA4B1B78032B00D9ECE2D94B1D686B7824
:1023A000072B00D9E6E29B00D64AD3589F46697CAA
:1023B000D54B1B685A7C914207D15969686906F070
:1023C0006BF9002801D0002C33D0686906F0D4F9ED
:1023D00002000B0004ADCD49280005F02BFA0123C3
:1023E0000393002202920193009500230021C84824
:1023F000FEF712FBC74B1B78012B0ED9022B18D10D
:1024000001230393002202920193C34B0093002304
:102410000021BF48FEF700FB0BE0012303930022DD
:1024200002920193BD4B009300230021B848FEF7B0
:10243000F3FAB34B1B681A7EB34B1B681B7E9A42A0
:1024400001D1002C2CD0B24F0123984603930025D4
:1024500002950195B24B009302230022002138001F
:10246000FEF7DAFAA64B1B68187EFFF75DFF012620
:102470007642434603930295019500903300320063
:1024800000213800FEF7C8FA4346039302950195F0
:10249000A44B00933300320000213800FEF7BCFA51
:1024A000012303930023029301939F4B0093042382
:1024B0005E2200219648FEF7AFFA914B1B685B78CD
:1024C000052B00D1BFE0072B00D1CBE0042B00D1BE
:1024D000D7E08B4B1E68F7698B4B1D68E969381C88
:1024E00006F0DAF8002813D0296A306A06F0D4F82A
:1024F00000280DD0696A706A06F0CEF8002807D06F
:10250000B06AA96A06F0C8F8002801D0002C66D08D
:10251000381C06F031F902000B00844904A805F0CC
:1025200089F97B4E0124039400270297019404ABA0
:1025300000930223002200213000FEF76DFA704D57
:102540002B68186A06F018F902000B00784904A8F5
:1025500005F070F903940297019404AB00930323F0
:10256000002200213000FEF757FA2B68586A06F067
:1025700003F902000B006F4904A805F05BF903940E
:102580000297019404AB0093042300220021300041
:10259000FEF742FA2B689C6A6749201C06F084F813
:1025A00000287DD1654B1B68002B00D18EE0201CDC
:1025B00006F0E2F802000B0004AC6149200005F0CF
:1025C00039F901230393002202920193009404330A
:1025D00000214F48FEF720FA642003F003F94C4D28
:1025E00001260396002402940194564B009306237F
:1025F000002200212800FEF70FFA414F3B685A796C
:102600001B79514904A805F015F903960294019429
:1026100004AB00930723002200212800FEF7FCF9F9
:102620003B689A68494904A805F004F9012252421E
:1026300003960294019404AB009313000021280038
:10264000FEF7EAF996E101225242012303930023A7
:10265000029301933E4B0093130000212C48FEF798
:10266000DBF936E701225242012303930023029350
:102670000193384B0093130000212548FEF7CCF955
:1026800027E701225242012303930023029301937F
:10269000314B0093130000211D48FEF7BDF918E7E8
:1026A000201C06F069F802000B0004AC2B49200046
:1026B00005F0C0F8012303930022029201930094D5
:1026C000043300211248FEF7A7F988E7201C06F022
:1026D00053F802000B0004AC2149200005F0AAF8D1
:1026E00001230393002202920193009404330021FA
:1026F0000748FEF791F972E760110020BD20002025
:102700005406002068E600105806002020E500105E
:10271000E81F00209F20002040E5001034E5001055
:102720004CE5001010E6001004E6001078E50010FB
:1027300080E5001088E5001000FF7F47241B002083
:1027400098E50010B0E50010C8E50010DCE50010C9
:1027500060E5001068E5001070E5001090E50010DD
:10276000A4E50010E86806F007F802000B0004AFCB
:102770009A49380005F05EF8994E0124039400252B
:102780000295019400970023002200213000FEF7FB
:1027900043F9039402950194924B00930023002285
:1027A00000213000FEF738F90394029501958E4B15
:1027B00000930223002200213000FEF72DF98B4BFD
:1027C00098461B68187EFFF7AFFD01235B429946D0
:1027D00003940295019500901A0000213000FEF745
:1027E0001BF9039402950195814B00930423002269
:1027F00000213000FEF710F90394029501957D4BFE
:1028000000934B464A4600213000FEF705F9039439
:1028100002950194784B99460093022300220221ED
:102820003000FEF7F9F843461B68D86905F0A4FFAD
:1028300002000B007149380004F0FCFF039402957C
:10284000019400970223002200213000FEF7E4F8F3
:102850000394029501944B46009303230022022126
:102860003000FEF7D9F843461B68186A05F084FF6C
:1028700002000B006249380004F0DCFF039402956B
:10288000019400970323002200213000FEF7C4F8D2
:102890000394029501944B460093042300220221E5
:1028A0003000FEF7B9F843461B68586A05F064FF2C
:1028B00002000B005349380004F0BCFF039402955A
:1028C000019400970423002200213000FEF7A4F8B1
:1028D00043461B689C6A9F21C905201C05F0DCFE4D
:1028E000002864D1201C05F047FF02000B0004AC57
:1028F0004549200004F09EFF012303930022029229
:1029000001930094043300213548FEF785F8344DD7
:10291000012603960024029401943C4B0093062365
:10292000002200212800FEF777F8304F3B685A79E3
:102930001B79374904A804F07DFF039602940194A3
:1029400004AB00930723002200212800FEF764F85F
:102950003B689A682F4904A804F06CFF0122524298
:1029600003960294019404AB009313000021280005
:10297000FEF752F828491D4B1B680A0013CB13C2FF
:1029800013CB13C213CB13C203CB03C2234B1A784E
:10299000234B1A70234B1A78234B1A70234B1A7847
:1029A000234B1A700DB00CBC90469946F0BD201C0C
:1029B00005F0E2FE02000B0004AC1E49200004F00A
:1029C00039FF012303930022029201930094043300
:1029D00000210348FEF720F899E7C04620E50010E3
:1029E000E81F0020E0E500104CE500105406002030
:1029F000ECE5001000E60010F4E5001078E50010AA
:102A000080E5001088E5001090E50010B0E50010AA
:102A1000C8E50010DCE50010182000209F200020F1
:102A2000B8200020A0200020B9200020BD200020D8
:102A3000BA20002008E60010E54E0124039400258A
:102A400002950194E34B0093002300220021300003
:102A5000FDF7E2FF039402950195DF4B00930223FB
:102A6000002200213000FDF7D7FFDC4F3B68187EC5
:102A7000FFF75AFC012252420394029501950090FF
:102A8000130000213000FDF7C7FF3B68D86905F04F
:102A900073FE02000B00D24904A804F0CBFE03949D
:102AA0000295019404AB0093022300220021300020
:102AB000FDF7B2FF3B68186A05F05EFE02000B00EE
:102AC000C84904A804F0B6FE03940295019404AB2F
:102AD00000930323002200213000FDF79DFF3B6897
:102AE000586A05F049FE02000B00BF4904A804F033
:102AF000A1FE03940295019404AB009304230022E9
:102B000000213000FDF788FF3B689C6A9F21C905C2
:102B1000201C05F0C1FD002848D1201C05F02CFE2A
:102B200002000B0004ACB149200004F083FE012335
:102B30000393002202920193009404330021A448DD
:102B4000FDF76AFFA24D012603960024029401942A
:102B5000A74B00930623002200212800FDF75CFF0D
:102B60009E4F3B685A791B79A24904A804F062FE83
:102B700003960294019404AB0093072300220021E2
:102B80002800FDF749FF3B689A689B4904A804F0B8
:102B900051FE0122524203960294019404AB009329
:102BA000130000212800FDF737FFE3E6201C05F0A5
:102BB000E3FD02000B0004AC9049200004F03AFE53
:102BC0000123039300220292019300940433002115
:102BD0007F48FDF721FFB5E7686905F0CDFD0200EC
:102BE0000B0004AC8649200004F024FE012303936B
:102BF0000022029201930094002300217448FDF703
:102C00000BFF804B1B78012B0ED9022B18D101230F
:102C100003930022029201937B4B00930023002137
:102C20006B48FDF7F9FE0BE00123039300220292AB
:102C30000193764B0093002300216548FDF7ECFEDD
:102C4000634F01240394002502950195624B009384
:102C50000223002200213800FDF7DEFE5F4E3368BC
:102C6000187EFFF761FB0122524203940295019501
:102C70000090130000213800FDF7CEFE3368D869BC
:102C800005F07AFD02000B00554904A804F0D2FDBE
:102C900003940295019404AB0093022300220021C7
:102CA0003800FDF7B9FE3368186A05F065FD0200CB
:102CB0000B004C4904A804F0BDFD03940295019457
:102CC00004AB00930323002200213800FDF7A4FE8B
:102CD0003368586A05F050FD02000B00424904A811
:102CE00004F0A8FD03940295019404AB009304231F
:102CF000002200213800FDF78FFE33689C6A9F2177
:102D0000C905201C05F0C8FC002821D1201C05F0B5
:102D100033FD02000B0004AC3449200004F08AFDAE
:102D200001230393002202920193009404330021B3
:102D30002748FDF771FE01230393002202920193BD
:102D4000334B0093072300212148FDF765FE11E670
:102D5000201C05F011FD02000B0004AC27492000E7
:102D600004F068FD01230393002202920193009472
:102D7000043300211648FDF74FFEDCE7144D012215
:102D800000212800FEF742FA01260396002402944F
:102D90000194204F00970023002200212800FDF716
:102DA0003BFE039602940194009707230022002122
:102DB0002800FDF731FE039602940196164B00930E
:102DC0000423002200212800FDF726FED2E5C0469C
:102DD000E81F002014E600104CE500105406002007
:102DE00078E5001080E5001088E5001090E50010FF
:102DF000B0E50010C8E50010DCE5001008E60010A2
:102E000020E500109F20002040E5001034E5001070
:102E100028E6001038E600104CE600101D4E012296
:102E200000213000FEF7F2F90124039400250295F9
:102E30000195194F00970023002200213000FDF773
:102E4000EBFD0394029501950097072300220021D2
:102E50003000FDF7E1FD0394029501940F4B0093C0
:102E60000323002200213000FDF7D6FD0C4B1B6828
:102E70009A7804AF0B49380004F0DCFC0394029507
:102E8000019400970423002200213000FDF7C4FDC7
:102E900070E5C046E81F002038E6001054E6001038
:102EA000540600205CE60010F0B58DB005F09EFEE3
:102EB0001C2003F09FF8D024240680235B05636266
:102EC000052003F097F82023A362002201210520AA
:102ED00003F076F8062003F08DF84023A362002269
:102EE0000121062003F06CF8072003F083F880230B
:102EF000A36200220121072003F062F8082003F0FA
:102F000079F880235B00A36200220121082003F0EE
:102F100057F8092003F06EF880239B00A36200227B
:102F20000121092003F04CF80A2003F063F8802304
:102F3000DB00A362002201210A2003F041F80B20EC
:102F400003F058F880231B01A362002201210B200B
:102F500003F036F80E2003F04DF88023DB01A36266
:102F6000002201210E2003F02BF8042003F042F888
:102F70001023A36200220121042003F021F80C2079
:102F800003F038F880235B01A362002201210C20AA
:102F900003F016F80D2003F02DF880239B01A362A7
:102FA000002201210D2003F00BF8152003F022F878
:102FB00080239B03A36200220121152003F000F867
:102FC000142003F017F880235B03A3620022012181
:102FD000142002F0F5FF132003F00CF880231B03EC
:102FE000A36200220121132002F0EAFF122003F065
:102FF00001F88023DB02A36200220121122002F0EB
:10300000DFFF112002F0F6FF80239B02A362002263
:103010000121112002F0D4FF1B2002F0EBFF8023DE
:103020001B05A362002201211B2002F0C9FF0F2013
:1030300002F0E0FF80231B02A362002201210F2087
:1030400002F0BEFF102002F0D5FF80235B02A362D6
:1030500000220121102002F0B3FF1A2002F0CAFF63
:103060008023DB04A362002201211A2002F0A8FFC2
:10307000192002F0BFFF8025AD0465626561FA206A
:1030800002F0B0FBA561FA2002F0ACFB656102F032
:103090006DF906AB029300230193E44B0093E44ADD
:1030A000002302F0A9FAE34C2000FEF7FAF8E24907
:1030B00000910B000A002000FEF72BFD2000FEF718
:1030C0005AFDDE4D2A0001212000FEF77FFC2A0078
:1030D00000212000FEF77AFC2A0004212000FEF7E0
:1030E00075FC2A0003212000FEF770FC2A00022153
:1030F0002000FEF76BFC2A0008212000FEF766FC8A
:103100002A0005212000FEF761FC2A00062120008C
:10311000FEF75CFC2A0007212000FEF757FC2A007E
:1031200009212000FEF752FC2000FEF74BFBFEF7C2
:10313000B9FFC34B1B68FF225A70C24BC03A1A70CA
:103140003E3A01213F20FFF757F8BF4B64221A6037
:10315000BE4B1B681B78FF2B03D05A1E9341BC4A01
:103160001370BB4B1B78BB4CBB4A059201225242E9
:1031700004920432039202260296002501950095DE
:10318000393203212000FDF751FBB44B1860B449DC
:103190002000FEF784F8012200212000FEF736F817
:1031A0000127039702950196AE4B0093012300225D
:1031B00000212000FDF730FC039702950196AA4BF1
:1031C00000930423002200212000FDF725FCA748DE
:1031D00002F008FB012200212000FEF717F8012071
:1031E000FFF7CAF800F02BFD627C6B7C9A4201D09D
:1031F00000F03DFDE969E06905F04EFA002801D1D3
:1032000000F035FD296A206A05F046FA002801D150
:1032100000F02DFD696A606A05F03EFA002801D1D0
:1032200000F025FDA96AA06A05F036FA002801D150
:1032300000F01DFD227E2B7E9A4201D000F017FD8A
:103240006969606905F028FA002801D100F00FFDD6
:10325000E968E06805F020FA002801D100F007FDD8
:10326000A268AB689A4201D000F001FD804B1A7849
:10327000804B1B789A4201D000F0F9FC7E4B1A7803
:103280007E4B1B789A4201D000F0F1FC00F0F2FC7A
:103290000120FFF771F800F0F5FC0120FFF76CF852
:1032A000FEF7CCFC00F0F5FCFEF7C8FC00F0FDFCDE
:1032B000002204215F48FEF789FB624B18221A7036
:1032C000D0231B065B689B0601D400F010FDFA209A
:1032D00002F088FAF4E7002205215648FEF776FB53
:1032E000674B1B78002B09D0D0231B065B681B03A0
:1032F0000DD56420002102F049FAF5E7514B212257
:103300001A70203A00212120FEF776FFECE7D02347
:103310001B06802252059A6100F0E9FC002206217A
:103320004448FEF753FB564B1B78002B09D0D023A3
:103330001B065B68DB020DD56420002102F026FA33
:10334000F5E7404B7E221A707D3A00217E20FEF781
:1033500053FFECE7D0231B06802252059A6100F050
:10336000C6FCD0231B065B68DB0304D5454B01225A
:103370001A7000F0BCFCD0231B065B685B0104D50F
:10338000414B01221A7000F0B2FCD0231B065B688F
:10339000DB0604D53D4B01221A7000F0A8FCD023B7
:1033A0001B065B68DB0404D5394B01221A7000F060
:1033B0009EFCD0231B065B689B0404D5354B012281
:1033C0001A7000F094FCD0231B065B681B0104D527
:1033D000314B01221A7000F08AFCD0231B065B6877
:1033E0005B0304D52D4B01221A7000F080FCD02322
:1033F0001B065B689B0304D5294B01221A7000F061
:1034000076FCD0231B065B689B0204D5254B01226A
:103410001A7000F06CFCD0231B065B685B0443D57C
:10342000174B01221A7000F062FCC046A91B001065
:1034300010270000D8100020951B0010FFFFFF0090
:1034400054060020AD2000205C200020440600200F
:10345000BC200020E81F002040420F004420002034
:103460006412002088E6001090E60010EE020000D2
:10347000BD200020BA200020A0200020B92000207C
:10348000AC200020BE200020BF200020A42000206F
:10349000A2200020A3200020A7200020B62000208A
:1034A000A5200020C1200020714B1B78002B04D1E7
:1034B000D0231B065B685B0618D4D0231B065B6811
:1034C0009B0513D4D0231B065B681B060ED4D023A8
:1034D0001B065B68DB0509D4D0231B065B681B0554
:1034E00004D4D0231B065B685B0524D5FEF7D8FE09
:1034F000D020000643689B0901221340190043684D
:103500005B0A13405B000B434168C9091140890005
:103510000B434168090A1140C9000B434168C90ABD
:10352000114009010B434168890A0A4052011343C3
:10353000504A1370DBE34F4B1B78002B04D0002361
:103540004C4A13704C4A1360D0231B06802252054C
:103550009A614A4B1B68002B00DDC8E3474B64228D
:103560001A600020FEF708FFFEF768FBBFE3444A3D
:103570001370D0231B06802252059A61052002F0A9
:1035800031F9C8E33F4B52221A70513A00215220C0
:10359000FEF732FE3A4B1A78364B1B789A4200D02F
:1035A00081E0394B1B68D868384905F02EF805F0E2
:1035B000A9F8374B18601D2801DC1E221A60344B15
:1035C0001B68FA2B6FDD324BFA221A606BE02D4B31
:1035D0004C221A704B3A00214C20FEF70DFED9E721
:1035E000284B42221A70413A00214220FEF704FE85
:1035F000D0E7244B46221A70453A00214620FEF7B8
:10360000FBFDC7E71F4B55221A70543A0021552085
:10361000FEF7F2FDBEE71B4B44221A70433A00212D
:103620004420FEF7E9FDB5E7164B72221A70713A95
:1036300000217220FEF7E0FDACE7124B71221A70F8
:10364000703A00217120FEF7D7FDA3E70D4B7322DE
:103650001A70723A00217320FEF7CEFD9AE7094BEB
:1036600074221A70733A00217420FEF7C5FD91E7A9
:10367000AC200020A1200020502000205C20002051
:10368000B7200020AD20002054060020000020417B
:10369000782000200023CF4A1370CF4A1370CF4AFE
:1036A0001360CF4A1360CF4B1B78002B05D0D0237B
:1036B0001B065B685B0400D5B5E0CA4B1B78002B8A
:1036C00005D0D0231B065B685B0400D41AE1C64B0F
:1036D0001B78002B05D0D0231B065B68DB0400D4CD
:1036E00018E1C24B1B78002B05D0D0231B065B686A
:1036F000DB0600D421E1BE4B1B78002B05D0D02384
:103700001B065B689B0400D42AE1BA4B1B78002B94
:1037100005D0D0231B065B68DB0300D433E1B64B36
:103720001B78002B05D0D0231B065B681B0400D43C
:103730003CE1B24B1B78002B05D0D0231B065B6805
:103740005B0100D484E1AE4B1B78002B0ED0D0235C
:103750001B065B685B0309D4A24B1B78002B00D1CE
:1037600089E1A74B00221A70FEF768FAA54B1B7877
:10377000002B0ED0D0231B065B689B0309D4994B0A
:103780001B78002B00D184E19E4B00221A70FEF7BB
:1037900055FA9D4B1B78002B0ED0D0231B065B687F
:1037A0009B0209D48F4B1B78002B00D17FE1964BF5
:1037B00000221A70FEF742FA944B1B78002B0ED0B1
:1037C000D0231B065B681B0109D4864B1B78002B9A
:1037D00000D17AE18D4B00221A70FEF72FFA8C4B44
:1037E0001B78002B05D0D0231B065B689B0300D4FD
:1037F00079E1884B1B78002B00D1A3E1D0231B0675
:103800005B685B0300D59DE1834B1B78012B00D1E6
:103810008AE2022B00D18BE2002B00D179E17F4BB1
:1038200031221A7078E17E4B03221A70FEF706FAF5
:10383000D0231B065B689B0302D5754B01221A70CF
:10384000D0231B065B685B0302D5724B01221A7002
:10385000D0231B065B68DB0502D5724B01221A7070
:10386000D0231B065B689B0502D56F4B01221A70A3
:10387000D0231B065B685B0602D56C4B01221A70D5
:10388000D0231B065B681B0602D5694B01221A7008
:10389000D0231B065B681B0502D5664B01221A70FC
:1038A000D0231B065B685B0502D5634B01221A70AF
:1038B000D0231B065B681B0102D5604B01221A70E6
:1038C000D0231B065B689B0202D55D4B01221A7058
:1038D000D0231B065B681B0302D55A4B01221A70CA
:1038E000D0231B065B68DB0202D5574B01221A70FE
:1038F000D0231B065B689B0600D4DEE6534B0122F7
:103900001A70DAE60023374A1370454A1370FEF73F
:1039100095F9DCE6414B92221A70913A01219220EE
:10392000FEF76AFCD0231B06802292045A612E4BBC
:1039300000221A70FEF782F9D3E6384B91221A70F2
:10394000903A01219120FEF757FCD0231B068022DC
:1039500092045A61254B00221A70FEF76FF9CAE6ED
:103960002E4B90221A708F3A01219020FEF744FCD2
:10397000D0231B06802292045A611D4B00221A702C
:10398000FEF75CF9C1E6254B9B221A709A3A012199
:103990009B20FEF731FCD0231B06802292045A6143
:1039A000144B00221A70FEF749F9B8E61B4B9A2215
:1039B0001A70993A01219A20FEF71EFCD0231B06AB
:1039C000802292045A610C4B00221A70FEF736F9DD
:1039D000AFE6C046A1200020B720002050200020E4
:1039E00078200020AC200020A2200020A42000206D
:1039F000A3200020BE200020C0200020BF200020E7
:103A0000B6200020A5200020C1200020A7200020F3
:103A1000AA200020AB2000209F200020AD20002005
:103A2000BD200020B1200020B4200020B5200020BF
:103A3000AF200020B3200020B2200020B0200020C2
:103A4000C2200020BB200020C5200020A62000208E
:103A5000DA4B99221A70983A01219920FEF7CCFB93
:103A6000D0231B06802292045A61D54B00221A7083
:103A7000FEF7E4F867E6D14B4D221A704C3A01216B
:103A80004D20FEF7B9FBD0231B06802292045A6119
:103A900067E6CA4B43221A70423A01214320FEF7DF
:103AA000ABFBD0231B06802292045A616CE6C34B09
:103AB0009E221A709D3A01219E20FEF79DFBD02385
:103AC0001B06802292045A6171E6BC4B48221A7090
:103AD000473A01214820FEF78FFBD0231B068022A6
:103AE00092045A6176E6B54B6D221A706C3A012148
:103AF0006D20FEF781FBD0231B06802292045A61C1
:103B0000B04B00221A700A2001F06CFEFEF796F806
:103B10006FE6AA4B31221A70A84B187801220121B6
:103B2000FEF76AFBD0231B06802252059A61802291
:103B300092045A61A44B00221A700A2001F052FE2E
:103B4000FEF77CF8A14B1B78002B05D0D0231B0679
:103B50005B68DB0500D4EFE09D4B1B78002B05D0A4
:103B6000D0231B065B689B0500D4FBE0994B1B78B8
:103B7000002B05D0D0231B065B685B0600D407E151
:103B8000954B1B78002B05D0D0231B065B681B06CA
:103B900000D44DE1914B1B78002B0FD0D0231B0696
:103BA0005B685B0500D459E1844B7D221A707C3A36
:103BB00000217D20FEF720FBFEF740F8884B1B78A4
:103BC000002B0FD0D0231B065B681B0500D456E1E9
:103BD0007A4B7C221A707B3A00217C20FEF70CFB8A
:103BE000FEF72CF87F4B1B78002B05D0D0231B064B
:103BF0005B689B0200D453E17B4B1B78002B05D004
:103C0000D0231B065B681B0100D45FE1774B1B7858
:103C1000002B05D0D0231B065B681B0300D46BE18F
:103C2000734B1B78002B05D0D0231B065B68DB028F
:103C300000D477E16F4B1B78002B00D088E16E4BEE
:103C40001C686378FF2B07D0617C08096B4A1070F1
:103C50000F220A406A490A706A4A15686A789342D4
:103C600005D1A288AB889A4201D1FFF7BDFA0120A5
:103C7000FEF782FB644B1A78644B1B789A4201D0A2
:103C8000FFF706FB5C4B1B685B78072B01D1FFF746
:103C900004FB5F4B1B68002B0AD05E4A80235B004D
:103CA000D35C2B2B01D9FFF7FFFA594B00221A6086
:103CB000D0231B065B689B0601D5FFF7F9FAD023DA
:103CC0001B065B681B0301D5FFF705FBD0231B0612
:103CD0005B68DB0201D5FFF721FBD0231B065B6885
:103CE0001B0401D4FFF73DFB4B4B01221A704B4BD9
:103CF0001B78002B00D1CDE4494A1268062A00DC6B
:103D000048E4484A1278934200D143E4464A126894
:103D1000002A00DC2BE4414B1B78202B00D939E42E
:103D20009B00424AD3589F46244B32221A70F3E636
:103D3000224B30221A70EFE6204B1B221A701A3ADF
:103D400001211B20FEF758FAD0231B068022920483
:103D50005A611E4B00221A700A2001F043FDFDF744
:103D60006DFFF9E6154B1A221A70193A01211A2033
:103D7000FEF742FAD0231B06802292045A61144BAC
:103D800000221A700A2001F02DFDFDF757FFEDE625
:103D90000A4B18221A70173A01211820FEF72CFA44
:103DA000D0231B06802292045A610A4B00221A700B
:103DB0000A2001F017FDFDF741FFE1E6AD200020EC
:103DC000BF200020AA200020AB200020B12000202E
:103DD000B4200020B5200020AF200020B220002019
:103DE000B3200020C2200020B0200020BB200020F3
:103DF000C5200020A6200020540600209F2000207F
:103E0000A020002058060020BD200020BA2000205D
:103E10008020002060110020C0200020A120002070
:103E200050200020B7200020782000209CE60010C1
:103E3000624B19221A70183A01211920FEF7DCF999
:103E4000D0231B06802292045A615D4B00221A7017
:103E50000A2001F0C7FCFDF7F1FE9BE6D0231B060C
:103E6000802252059A61802292045A61554B0022A9
:103E70001A700A2001F0B6FCFDF7E0FE9EE6D023A2
:103E80001B06802252059A61802292045A614E4B91
:103E900000221A700A2001F0A5FCFDF7CFFEA1E672
:103EA000464B81221A70803A01218120FEF7A4F945
:103EB000D0231B06802292045A61444B00221A70C0
:103EC0000A2001F08FFCFDF7B9FE95E63B4B8E22F0
:103ED0001A708D3A01218E20FEF78EF9D0231B0631
:103EE000802292045A613A4B00221A700A2001F093
:103EF00079FCFDF7A3FE89E6304B7F221A707E3AEB
:103F000001217F20FEF778F9D0231B06802292043E
:103F10005A61304B00221A700A2001F063FCFDF751
:103F20008DFE7DE6254B80221A707F3A012180208C
:103F3000FEF762F9D0231B06802292045A61264BB9
:103F400000221A700A2001F04DFCFDF777FE71E6A1
:103F5000D0231B065B689B0610D520490B784A7856
:103F600089781B0412021A430A431D4C04212000C5
:103F7000FDF72CFD2000FDF725FC60E6194C2378A9
:103F8000012253402370EFF3108672B68021802502
:103F9000ED024901280008F04BFB86F31088FA2057
:103FA00001F020FC01222100280008F029FB0E4B23
:103FB00000221A70FDF742FE41E6C046AD20002007
:103FC000AF200020B2200020B3200020C22000201B
:103FD000B0200020BB200020C52000204806002083
:103FE000D8100020BC200020A620002010B50249D7
:103FF0000120FEF781F810BDFFFF0000F8B50400B6
:104000001A4B984202D01A4B984220D1002A24D051
:10401000174EA51B6B425D4116486B005F19BF0030
:104020003C50C3195A600A000121200000F0E4F955
:104030002368114A1A631735B44214D00F49280077
:1040400000F064FB0121280000F036FBF8BD0C4BAA
:104050000C4A42210C4802F07DF80C4B094A4321DE
:10406000094802F077F80A49E9E7C0466C060020E3
:1040700074060020C41F0020640600003D010020DB
:1040800020E80010A8E800103CE8001098E80010B4
:104090004D010020F0B5DE4657464E464546E0B598
:1040A00083B0060010000CAA127801920D9D0E9F9D
:1040B00032680024D4663268516032680121D166CA
:1040C0009946002398469B462BE03279002A32D04D
:1040D000012230E00199002901D000212FE00121C7
:1040E0002DE0002B0BD13268526BD20607D4002D85
:1040F000F7D03800A84703000443E4B2F1E7002BEF
:1041000009D13268802151588B46002920D1002CDA
:104110002BD1C2451FD0002C34D101229446E0445B
:104120000098C8452EDA012252424A44924642463D
:10413000002ACAD000229202C245CBD000214902F7
:104140000A43411C00910078316802430A61CEE7BE
:10415000526D012409E0019A002ADCD105E0002B10
:104160000BD13268526B920507D4002DF7D038007E
:10417000A84703000443E4B2F1E7002BCBD1326837
:10418000126EC8E7002C09D0002B15D15B46002B1E
:1041900016D0DB0718D45B461B0709D5019B33718A
:1041A000404603B03CBC90469946A246AB46F0BDA3
:1041B00002235B429846F1E701235B429846EDE714
:1041C00002235B429846E9E702235B429846E5E713
:1041D000F8B5DE4657464E464546E0B505009146E1
:1041E0000AAA127893460B9E0C9F02680020D066A4
:1041F0002A6851602A680121D1669A4600239846B0
:1042000000242AE02979002933D0012131E05846E1
:10421000002801D0002030E001202EE0002C12D137
:104220002A68926F002A0ED12A6880215158546D55
:10423000621E9441E4B2002EF0D03800B047030073
:104240000443E4B2EAE7002C1ED12A681269494609
:104250000A7001229446E044E144D04514DA524603
:10426000501E2A68516F1029FBD041460029C9D041
:10427000002189024045CAD000204002014380202D
:10428000400001431161CFE7002C04D0002B0BD07C
:1042900001235B4298465B462B7140463CBC9046EE
:1042A0009946A246AB46F8BD02235B429846F2E728
:1042B000F0B5D6464F464646C0B505000C00052071
:1042C00002F0FCF8060060088019210003F032FBC0
:1042D00007004300994681440521484603F02AFB24
:1042E00080463B1A9A46284B9C423DD87000801964
:1042F000264903F01FFB441C4346023BA3423AD32A
:104300002B680022DA6629680A68042353400622D3
:104310001A4080235B010B431A602B685246DA6116
:104320002B6842461A624B464F2B2AD950214846E9
:1043300003F000FBA0232A68D0502A6811007C31CA
:10434000D06F44402404240C80235B010B431C6089
:104350002B680122DA663900300003F0EBFA1CBC4E
:1043600090469946A246F0BD70008019084903F0B6
:10437000E1FA441CC0E7074B074A5F21074801F0F8
:10438000E9FE0120D6E7C0463F420F008096980024
:1043900040787D01B8E8001020E90010D8E800104E
:1043A00010B5114B98421CD01022104B1A60104BC4
:1043B0001A60104B9B6814009C43231EF9D10471B2
:1043C0000268D46602686624FF3414600268D3630E
:1043D00002689363883303220468E250FFF768FFA2
:1043E00010BD0822E1E7C0466C06002000E0004056
:1043F00000F0004000C0004010B503680024DC66F7
:10440000002910D00468216880239B004B400B4991
:104410000B408021490121430B6003689A600368C7
:104420000122DA6610BD01680B6841225340034A3D
:104430001340802252010A431360F0E7410200005A
:1044400030B585B008AC257800240294019400951D
:10445000FFF720FE05B030BD30B585B008AC25783B
:104460000024029401940095FFF7B2FE05B030BD20
:10447000EFF3108072B6034B1B68002BFBD0BFF329
:104480005F8F70472C0100D0BFF35F8F024B00227B
:104490001A6080F3108870472C0100D0F8B5060030
:1044A0000C001500FFF7E4FFE308F718F15C0722A2
:1044B0002240012393400B4205D1DBB20B433B70FA
:1044C000FFF7E2FFF8BD2100280001F0DDFEF0B5A6
:1044D00083B00600019114001F00FFF7C9FFBC4222
:1044E0000ED8E308F518F35C0721214001228A4029
:1044F0001A4201D00134F2E7D2B21A432A7001E025
:1045000001246442FFF7C0FF002C02DB200003B04F
:10451000F0BD019B002BF9D0089801F0B5FE00001A
:1045200070B505000C00FFF7A3FFE308EE18EA5C86
:1045300007210C400123A340134204D09A43327058
:10454000FFF7A2FF70BD034B034A2C31034801F073
:1045500001FEC04634E90010A0E9001054E9001043
:10456000034B1B6802201840431E9841C0B270479D
:1045700000C0064000231F2B08D8054A9A18920055
:10458000BFF35F8F002111600133F4E77047C0462D
:1045900040000034054A1078431CDBB21370172B1F
:1045A00002D9130010221A707047C0467C06002002
:1045B00000B583B00100044B00931F231822034869
:1045C000FFF785FF03B000BDB0E90010201B0020FD
:1045D000074B9B68103080001950BFF35F8FBFF30B
:1045E0005F8F044B0021196082F310887047C0462A
:1045F00000ED00E0240100D010B5091A0B1F0A4A93
:1046000094466144094A914208D8DA0706D45B10FF
:104610005B055B0D0648184380B210BD054B064A8A
:104620009921064801F096FDFC070000FE0F0000EE
:1046300000E0FFFFCCE9001008EC0010FCE90010DE
:1046400010B5091A04394C08090B08D14905490D60
:10465000064A11430180064B2343438010BD054B9E
:10466000054AA121054801F075FDC04600F0FFFF95
:1046700000F8FFFF44EA001014EC0010FCE9001001
:1046800001238340034A10681840431E9841C0B27A
:104690007047C04600E100E0002904D0034B1860D9
:1046A000034B18607047034B1860FBE780E200E0A3
:1046B00000E100E080E100E010B501238340180034
:1046C000FFF7EAFF10BD000001238340014A136099
:1046D0007047C04600E200E0024B9B68103080004B
:1046E000C058704700ED00E010B5FFF7F5FF002857
:1046F00005D0054BC01A2F2803D8012010BD00207B
:10470000FCE70020FAE7C0468006002070B50400F0
:104710000D00EFF3108672B60C4B1B68002BFBD01C
:10472000BFF35F8F2000FFF7D7FF094B984201D0FE
:10473000A84205D1320029002000FFF749FF70BDD3
:10474000044B054A7C21054801F004FD240100D0FA
:10475000CD01001054EA0010ECEB0010FCE9001051
:10476000F0B5DE4657464E464546E0B589B081462F
:1047700001911500EFF3108A72B6744B1B68002B81
:10478000FBD0BFF35F8F724B0027DF57002F40DB5A
:104790007C00E419A4006F4824180622A2566C4B32
:1047A0001A706D4B9A684B4610339B00D35898464D
:1047B0001E001B1A2F2B38D9684B98452FD105AEF8
:1047C000674B33807B009B46D8198000614B98462D
:1047D000404402306349FFF70FFF7080624BB380A3
:1047E000FF23B371F571019BB3605F44BF00474481
:1047F0000ECE0EC701231C43A046524641464846F2
:10480000FFF7E6FE09B03CBC90469946A246AB468F
:10481000F0BD564B564ACD21564801F09BFC564BF5
:10482000534AD421534801F095FCC04340440C2125
:1048300003F080F8002912D101239E43B3463300D0
:104840000026DA79AA4211D90621595600290CDB33
:104850004A00521892001E003E4B9B18F1E7474B4E
:10486000434AE021434801F075FC1E00002E3BD076
:1048700005AB434A1A80813A5A800623F3560293C5
:10488000002B18DABD20000205AB9B469880029AE7
:104890009A71DD71019A0792301D2100FFF7ACFE7D
:1048A000B080B7717B00DB199B002A4FFF185B4675
:1048B00007CB07C7A1E77800C0198000254BC018B7
:1048C0000430321DB388D90A1C2907D1590549156E
:1048D000023149005118FFF78FFED5E7294B2A4ACC
:1048E000A721244801F036FC05AE1D4B33807B0028
:1048F0000293D8198000174A90460200424403925E
:10490000901C1849FFF778FE7080039A101D5946D5
:10491000FFF772FEB0801D4B5A464146521A524173
:1049200053431B0DB371F571019AB260029B9C4613
:104930006744BF0047440ECE0EC7114B5A46138042
:10494000813B538001231C43A04656E7240100D03D
:10495000A82000208006002000ED00E0CD0100101E
:1049600000A1FFFFB006002000BDFFFF8CEA001091
:104970003CEC0010FCE90010B4EA0010DCEA001086
:104980000148000050EB00102CEC0010AAAA000017
:10499000F0B5CE46474680B583B006000D00EFF374
:1049A000108872B6564B1B68002BFBD0BFF35F8F8D
:1049B000544B9A6834001034A300D758524B9F428E
:1049C00007D0AF4200D199E00197504BFB1A2F2B33
:1049D00009D9424639003000FFF7FAFD03B00CBC9C
:1049E00090469946F0BD3000FFF74AFE814600210F
:1049F0003000FFF761FEBFF35F8FFBF734FC002848
:104A000001D0844211D10123019C9C430022A36860
:104A1000AB4212D00622A256002A0DDB53009B188F
:104A20009B002200394CE418F1E72C21384B394A1D
:104A3000FF31394801F08EFB2200AB4257D10625E9
:104A40006557002D39DB6B005B199A002F4B9B18C3
:104A50009A68A260DA79E27106229A56A2719B796D
:104A60005BB2002B10DABD200002A0806B005B1946
:104A70009B00264AD318294A117899711570494626
:104A80003000FFF719FEA4E7201D6B005B199B00A7
:104A90001E4A9B181A1D9B88D90A1C2907D1590543
:104AA0004915023149005118FFF7A6FDDDE71C4BFF
:104AB0001C4AA721184801F04DFB002812D1002AFA
:104AC0000ED0FF239371184B9380144A1378A3716F
:104AD000164B0E49641A644163431B0D1370CEE7F5
:104AE000094FF2E7201D1249FFF7AAFDC7E7602131
:104AF000104B084AFF31084801F02CFB024F68E7D1
:104B0000240100D000ED00E0CD010010800600205F
:104B100068EB001054EC0010FCE90010A820002005
:104B200050EB00102CEC001000BDFFFFAAAA000003
:104B3000BA0600208CEB0010F8B5040001260643ED
:104B40002D4BF31A2F2B28D8FBF78DFB00282BD0E9
:104B5000EFF3108772B6294B1B68002BFBD0BFF315
:104B60005F8F274D22002449521A524155432D0D83
:104B70006DB2244B9B6880001B58B3421BD00022AF
:104B8000032A32D853009B189B001B49CB189B79F2
:104B90005BB2AB421FD00132F2E7C2211A4B1B4A73
:104BA00049001B4801F0D6FA88211A4B174AFF31F9
:104BB000174801F0CFFA134B9B68174A1A50174B4E
:104BC0001A78A2711D70BFF35F8F0C4B00221A6020
:104BD00087F31088F8BD0800530099188900411820
:104BE000FF268E710E4A8A80E9E7CC210D4B074AD9
:104BF0004900074801F0AEFA80060020240100D0E9
:104C0000AAAA000000ED00E094EB001068EC001090
:104C1000FCE90010BCEB0010CD010010A820002022
:104C200000BDFFFFC8EB00100022044B02E0044966
:104C300002C30132072AFAD97047C04600E400E0F7
:104C40008080808000B583B00100D0231B061B68E4
:104C50000648C018064B009305230022FFF737FCD7
:104C6000002801DB1F23181A03B000BD9820002084
:104C7000D0EB0010024B9C466144890001607047F4
:104C80004000003410B50C00CB68834207D1080007
:104C90000B699847002809D02068616810BD9621EB
:104CA000054B064A4900064801F054FA0023E36028
:104CB00000200021F2E7C04684EC0010D8EF00107D
:104CC00098EC001070B505000C00080000F01AFE0A
:104CD000200000F0FDFE0849200000F03DFEFFF737
:104CE00059FC064B9C466044800068602C75A4000B
:104CF000034BE55070BDC046095000104000003421
:104D0000082000200A4B1A68EFF3108172B613686E
:104D1000002BFCD0BFF35F8F054B1B68BFF35F8F89
:104D200000221A6081F3108840BF002000217047E4
:104D30005820002010B5002922D003681B7B99421F
:104D40001ED8174B9C466144090183689C46614408
:104D50000C684968002A19D003681B7B9A4215D851
:104D600083680F488446624412019A181068536899
:104D7000020001208B4201D80ED00020C0B210BD2D
:104D8000084B094A3B21094801F0E4F9054B064A62
:104D90003B21064801F0DEF9A242EFD8EDE7C0461C
:104DA000FFFFFF0FDCEC001054EF001098EC001038
:104DB00010B500291ED0037B99421BD84B005B180D
:104DC000033B0468A4466344002919D0002A1DD07F
:104DD000914221D0002A25D0047BA24222D8046827
:104DE00050008018033820188170197800291FD1CD
:104DF0001A7010BD104B114A6821114801F0AAF930
:104E0000104B114A6F310E4801F0A4F90F4B0E4AB6
:104E100070210B4801F09EF90D4B0B4A7121084897
:104E200001F098F9044B054A6821054801F092F910
:104E300041701A70DDE7C04610ED001014EF00104D
:104E40002CED001084ED001020EF001090ED00100C
:104E50009CED001070B506000D001400002914D060
:104E6000002A14D0806873689847002806D0220072
:104E700029003000FFF79CFF280007E02A002100EE
:104E80003000FFF795FF200000E0100070BD080023
:104E9000FCE70000F0B583B00500009201930AAB77
:104EA0001C780BAB1F78002C26D003685A7B9442E9
:104EB00007D10123002B19D1002C3BD1200003B0D6
:104EC000F0BD002C0CD01A7B944209D81A686300FC
:104ED0001B19033BD3189B78002BEBD00123E9E788
:104EE0003E4B3F4A68213F4801F034F93E4B3F4A70
:104EF00065213F4801F02EF903689C7B002CDBD034
:104F000012D01A7B94420FD862001219033A196822
:104F10008C46624451789973002900D1D9730023DB
:104F2000937053701370C7E72C4B2D4A68212D489E
:104F300001F010F9002C3AD02B681B7B9C4236D82C
:104F40002C4BE3181B01AA6894466344009A1A602C
:104F5000019A5A60089A9A60099ADA602E68002CC1
:104F60002BD030D0337B9C422DD863001B19033BE0
:104F700032689446634400229A705A701A70717BAA
:104F800022003000FFF766FF7073844200D095E77F
:104F9000287D009A019B00F027FD061E01D0002FFE
:104FA00017D00C9B002B00D188E71E7086E7124BB0
:104FB000124A3B210E4801F0CDF8114B114AA521B0
:104FC000084801F0C7F8054B054A6821054801F07B
:104FD000C1F82868210000F02FFFE2E710ED001073
:104FE00014EF00102CED0010B4ED00108CEF001049
:104FF00098EC0010FFFFFF0FDCEC001054EF0010E6
:1050000094EC001034EF0010F0B5DE4657464E46E3
:105010004546E0B58BB00990002308938200B34B5E
:10502000D658370052E0B24BB24A3F21B24801F0A5
:1050300091F8B24BB24A3B21B24801F08BF80029FB
:1050400001D1002869D10021404600F0EBFEA042CA
:1050500019D12A686B6806920793AB689846EB688B
:105060009A464346002B14D0002C18D03B681B7B7B
:105070009C4214D8631EFA68D35C08931B02184341
:105080003861002015E0A04BA04A8C219D4801F01A
:1050900061F89F4B9D4A90219A4801F05BF8974B2D
:1050A0009C4A4021974801F055F800239A469846BB
:1050B00000207B68BFF35F8F00221A6086F31088A0
:1050C0004346002B32D1002800D107E100F026FC36
:1050D00002000B1EA7DB00200021069007917868D4
:1050E000EFF3108672B601680029FCD0BFF35F8F22
:1050F000396888464C7B002CD7D09AD0097B8C42EB
:1051000097D8854965182D01B9688C46654428688B
:105110006968801A9941002991DD2A686B680998AD
:1051200000F062FC00239A469846C2E7089B1B02E7
:105130002343994651461800C04705000E007A687F
:10514000EFF3108B72B6136859424B41D9B2002B62
:10515000F9D1BFF35F8F002E26DB002E52DD3B69B5
:10516000002B53D04B4572D100F0D8FB02000B1E30
:1051700073DB0100180052197341984202D804D120
:10518000914202D901225242D317002B6BDB00213E
:1051900004910131039102945146019141460091DD
:1051A0003800FFF777FE49E03B69002BD5D04B452F
:1051B0001CD1069A079B10001900521BB34199425B
:1051C00002D804D1904202D901225242D317002BB7
:1051D00012DB0021049101310391029451460191A7
:1051E000414600913800FFF755FE27E04B4B474AF8
:1051F0009F21444800F0AEFF3D4B3E4A3F213E48D0
:1052000000F0A8FF002E01D1002DA8D13A68002C93
:1052100045D0537B9C422CD1012100293FD1D37B27
:10522000002B42D1D473002C52D03B681B7B9C4294
:105230004ED8FA68013C135D0133135500233B61DE
:105240007A68BFF35F8F13608BF310883EE7334BB0
:105250002E4AA2212B4800F07DFF254B254A3F21F5
:10526000254800F077FF224B224A3F21224800F0D8
:1052700071FF002C0DD0137B9C420AD863001B19D0
:10528000033B1068844663449B78002BC5D0012102
:10529000C3E7234B234A6821234800F05BFF234BDD
:1052A000234AF621204800F055FF002B0AD0117B3D
:1052B0008B4207D85900CB18033B11688C466344D6
:1052C0005C70AFE7164B174A6821174800F042FFA1
:1052D0000A4B104A40210B4800F03CFF0BB03CBC8D
:1052E00090469946A246AB46F0BDC0460820002035
:1052F00044E30010FCEE001098E30010DCEC00101A
:1053000054EF001098EC0010DCED0010A4EF00103A
:10531000F4ED001060EF0010FFFFFF0F00EE001033
:1053200010ED001014EF00102CED00103CEE0010FA
:1053300044EF001010B50A4B5B68002B04D00A2123
:105340000848FFF797FC10BD054C2300064A1021C2
:10535000206800F087FC03212000FFF7B3FCEEE794
:10536000C806002058200020354D001010B5064B0F
:105370005B68002B01D0044810BD044B044A5C213B
:10538000044800F0E7FEC046C806002060EE0010AA
:1053900074EF001098EC0010F0B5DE4657464E460C
:1053A0004546E0B58BB0804616001F00149B9A4618
:1053B000159B994616AB1B789B461F2302AA944661
:1053C000634400221A7032E0002809D04246126875
:1053D000127B904204D8421E4146C9688A5C48E06C
:1053E000434B444A4021444800F0B4FE0798002B48
:1053F00075D05B46002B72D04946D04704000D00A3
:1054000003000B4300D171E0002946DB00F086FA6F
:1054100006000F1E55DB36196F41B94202D804D180
:10542000B04202D901267642F717002F4FDB4346E0
:105430005A68EFF3108472B6136859424B41D9B2DF
:105440000791002BF8D1BFF35F8F1F3302AA944658
:10545000634404930023039302934B460193534602
:10546000009332003B004046FFF714FD031EABD112
:10547000020041464968BFF35F8F00250D6084F349
:105480001088002B29D01F2302A98C4663441B7867
:10549000002BABD112021043A9E732003B00361BB0
:1054A000AF41BB4202D804D1B24202D901267642B2
:1054B000F717002FBBDA114B114A3F21114800F0BA
:1054C00049FE0E4B0E4A3F210E4800F043FE0B4BA7
:1054D0000B4A3F210B4800F03DFE012040420BB03B
:1054E0003CBC90469946A246AB46F0BD0798F6E70D
:1054F000DCEC001060EF001098EC001044E30010AA
:10550000FCEE001098E30010F8B504004268EFF3D9
:10551000108572B6136858424341D8B2002BF9D1B6
:10552000BFF35F8FCBB22268567BB3421BD1012001
:10553000002848D0206988422BD0090AC9B2002B24
:105540002ED02068007B83422AD8581EE668305C43
:1055500088422BD000206368BFF35F8F00221A605F
:1055600085F31088F8BD002B0DD0167BB3420AD806
:105570005E00F618033E1768BC466644B678002EF7
:10558000D6D00120D4E7134B134A6821134800F00A
:10559000E1FD8521124B134A4900134800F0DAFD62
:1055A000124B134A4021104800F0D4FD190010009E
:1055B00000F042FC0028CED112210E4B094AFF31E7
:1055C000094800F0C7FD23698B42C4D10023236141
:1055D000C1E7C04610ED001014EF00102CED0010D4
:1055E00084EE0010C0EF001098EC0010DCEC00100E
:1055F00060EF0010A8EE0010F0B585B007000C9E1B
:105600001100194301D101220023B7600A993161C9
:10561000326073600B997161D81701004240140029
:1056200043401D00241A8D4100F078F902000B1E42
:105630001ADB0100180012196B41984202D804D1FC
:10564000914202D901225242D317002B12DB0121D1
:10565000029101960A4900913800FFF79DFEF06023
:10566000C043C00F05B0F0BD064B074A3F210748B5
:1056700000F070FD034B044A3F21044800F06AFD2E
:10568000854C001044E30010FCEE001098E300107D
:10569000F0B587B006000F00FAF7E5FD00281FD12E
:1056A00006246442E517A4197D41BD4202D803D106
:1056B000B44201D900240025002D14DB0494059583
:1056C00000F02CF902000B1E13DBA41A9D41002DE3
:1056D00017DC14D03000390000F02CF907B0F0BD11
:1056E000234800F0D1FD234B234A3F21234800F0FB
:1056F00031FD204B204A3F21204800F02BFD002C9B
:10570000E8D0FFF733FE0023029301931C4B009374
:10571000049A059BFFF740FE002818DADAE7002319
:1057200000E00023002BD5D1164B1A68EFF310814F
:1057300072B61368002BFCD0BFF35F8F114B1B6850
:10574000BFF35F8F00221A6081F3108820BF049995
:10575000059A0D4B5B6A9A42E3D80B48806A8842EF
:1057600003D29A42DBD00123DCE70123DAE7C0460B
:10577000ACEE001044E30010FCEE001098E30010C3
:10578000054D00105820002000400540F8B50400E9
:105790000D0000F0C3F802000B1E10DB20002900F2
:1057A000801859418B4202D804D1824202D901208B
:1057B0004042C117002908DBFFF76AFFF8BD064B1E
:1057C000064A3F21064800F0C5FC034B034A3F212F
:1057D000034800F0BFFCC04644E30010FCEE00109C
:1057E00098E3001010B5FA2292000023002102F085
:1057F000E5FEFFF7CBFF10BD70B584B005000C00CF
:10580000FFF7B4FD002302930193194B00932A0084
:105810002300FFF7C1FD061E12DC164B5B6A9C429B
:1058200009D8144A926AAA4208D29C4201D00120A7
:1058300002E0002000E0002004B070BD0120FBE782
:1058400020BFFFF793FD3100FFF75EFE094B5B6A57
:105850009C4209D8074A926AAA4207D29C4201D0C8
:105860000120E9E70020E7E70020E5E70120E3E782
:10587000054D00100040054070B5EFF305833F2053
:1058800018401038EFF3108472B6194B1B68002BC8
:10589000FBD0BFF35F8F012319008140154A51638C
:1058A000154A12781500C5402B4214D0114B5D6A81
:1058B0008300124E9B599D4206D38300104D5B59C5
:1058C0008A430D490A7007E00A4A031D9B00995854
:1058D0009950002300E00023BFF35F8F044A0021AA
:1058E000116084F31088002B00D0984770BDC0462B
:1058F000280100D000400540C4200020682000207E
:10590000081A002010B50100024A0348FEF7C6FD40
:1059100010BDC046F4EF00109D200020044B5B6AD0
:10592000034A906A1900536A9942F9D17047C046F8
:1059300000400540074B5B6A8B4204D2054B5B6A13
:10594000FAE7044B5B6A8B4203D1024B9B6A8342AA
:10595000F7D370470040054070B504000D00EFF329
:10596000108672B61B4B1B68002BFBD0BFF35F8FFA
:10597000002D1CD02000FEF7AFFE174B83420BD04A
:1059800019002000FEF7C2FE01212000FEF794FE60
:105990000123A340114A1360A400114BE550BFF34B
:1059A0005F8F0C4B00221A6086F3108870BDA20036
:1059B0000B4B0021D1500122A2400A490B7893439E
:1059C0000B7005492000FEF7E3FF00212000FEF7E1
:1059D00073FEE4E7280100D07958001038600540D4
:1059E000081A0020C4200020F0B5DE4600B584B0BF
:1059F0000400150001921E000293FFF78FFF03952C
:105A00008E4202D84ED185424CD9EFF3108B72B63C
:105A1000274B1B68002BFBD0BFF35F8F254A1778FD
:105A20000125A540EBB23B431370234B5D63221D60
:105A300092000199D150A2002049029850501B6A4F
:105A40002B4212D11C4B1B6C2B4208D00020BFF301
:105A50005F8F174B00221A608BF3108823E0184BDE
:105A6000184AC121184800F075FBFFF757FF8E4216
:105A700014D802D1039B834210D80E4B1B78BB4233
:105A80000ED00D4B1D625D631F2004400123A34017
:105A90000E4A1360074B1F701E38D8E70020D6E768
:105AA0000120D4E7012004B004BC9346F0BDC046F9
:105AB000280100D0C42000200040054068200020BC
:105AC00018F0001088F000103CF0001080E200E0B8
:105AD00010B5EFF3108472B60A4B1B68002BFBD095
