:020000041000EA
:1000000000B5324B212058609868022188439860DF
:10001000D860186158612E4B002199600221596106
:100020000121F02299502B49196001219960352056
:1000300000F044F80222904214D00621196600F024
:1000400034F8196E01211966002018661A6600F04E
:100050002CF8196E196E196E052000F02FF8012189
:100060000842F9D1002199601B49196000215960AB
:100070001A491B48016001219960EB211966A021F2
:10008000196600F012F800219960164914480160C1
:100090000121996001BC002800D000471248134993
:1000A000086003C880F30888084703B5996A0420EC
:1000B0000142FBD001200142F8D103BD02B5186610
:1000C0001866FFF7F2FF186E186E02BD00000240BE
:1000D000000000180000070000035F00212200005C
:1000E000F4000018222000A00001001008ED00E03C
:1000F00000000000000000000000000074B24E7A12
:1001000000200420F7010010C3010010C5010010F9
:10011000C1010010C1010010C1010010C101001097
:10012000C1010010C1010010C1010010C701001081
:10013000C1010010C1010010C9010010CB01001065
:10014000CD010010CD010010CD010010CD01001037
:10015000CD010010CD010010CD010010CD01001027
:10016000CD010010CD010010CD010010CD01001017
:10017000CD010010CD010010CD010010CD01001007
:10018000CD010010CD010010CD010010CD010010F7
:10019000CD010010CD010010CD010010CD010010E7
:1001A000CD010010CD010010CD010010CD010010D7
:1001B000CD010010CD010010CD010010CD010010C7
:1001C00000BE00BE00BE00BE00BE00BE00F04BF888
:1001D000103800BEF2EB887128FF001050FF0010AD
:1001E0003402001090A31AE700202149086006C8D5
:1001F00081F3088810471F48006800282FD10DA4FC
:100200000ECC002902D000F012F8F9E71A491B4A77
:10021000002000E001C19142FCD1194988471949E9
:1002200088471949884700BEFDE701C901C29A42C3
:10023000FBD3704750FF0010C00000204410002086
:10024000D40E01100000042000000420D40E011080
:1002500000100420001004200000000070470B482C
:1002600007F0D2F90047EFF30580C0B270470000F5
:1002700008ED00E0000000D048100020F02300202E
:10028000D55E0010C12E0010E95F00105756000027
:1002900006005250ABB3605338F5001006005250C0
:1002A000861C030248F50010060052505422A29DFD
:1002B00054F5001005005250DE65F468D40E0110AC
:1002C000F8B5C04610B5064C2378002B07D1054B76
:1002D000002B02D0044800E000BF0123237010BDB2
:1002E0008811002000000000D8C30010044B10B596
:1002F000002B03D00349044800E000BF10BDC046F6
:10030000000000008C110020D8C30010D0231B0671
:100310005B68C34001201840704701238340D0220E
:10032000120653629361704701238340D022120664
:1003300053629361704710B5040005F03DFD012341
:10034000A340D0221206936210BD10B5040005F040
:1003500033FD0123A340D0221206936210BDF8B5ED
:10036000CE46474680B50C000378994643789846B8
:100370008768002515E04846FFF7D6FF4046FFF79F
:10038000E4FFFE173800310005F0E2F84046FFF7C1
:10039000C4FF6400E4B23800310005F0D9F801353B
:1003A000EDB2072D06D863B2002BE4DA4846FFF71A
:1003B000C2FFE3E74846FFF7BEFF4046FFF7C5FF31
:1003C000FD173800290005F0C3F84846FFF79EFFE7
:1003D00004004046FFF7A1FF3800290005F0B8F8F7
:1003E0004846FFF7A1FF002C04D10120C0BCB9464C
:1003F000B046F8BD0020F9E7F8B506001400170074
:10040000012000E02900002F0AD0012808D14D1C4E
:1004100009783000FFF7A3FF0128F3D1013FF1E78E
:10042000012801D00020F8BDE01BFCE770B50500F5
:100430000C0016000078FFF777FFA868002105F090
:1004400087F86878FFF769FF6100C9B2002E01D014
:100450000131C9B22800FFF782FF70BD10B504005A
:100460000078FFF761FFA068002105F071F860785F
:10047000FFF76BFFA068002105F06AF82078FFF70E
:100480005AFFA068002105F063F810BDF8B506001A
:100490000F000078FFF74FFF0025002404E070787C
:1004A000FFF73BFF0134E4B2072C11D8B0680021FC
:1004B00005F04EF87078FFF748FF6D00EDB2307828
:1004C000FFF724FF0028EAD001231D43EDB2E6E741
:1004D000002F15D03078FFF72EFF7078FFF735FF2B
:1004E000B068002105F034F87078FFF716FFB068A7
:1004F000002105F02DF83078FFF716FF2800F8BD31
:100500003078FFF711FFE8E770B506000C0008E04F
:1005100069426941C9B23000FFF7B8FF20702A0074
:100520000134551E002AF3D170BD000070B50400DF
:100530000D0000280AD08378002B08D100789F286E
:100540001BD9234B9D4228D90023A36070BD2148AD
:1005500003F04AFF2078032105F0FCFB60780321BB
:1005600005F0F8FB20780022012105F00BFC6078F3
:100570000022012105F006FCE8E705F01DFC60788B
:1005800005F01AFC2278012319009140D0221206AE
:10059000916261788B409362D3E70F4B9D4202D901
:1005A0000123A360D2E70D4B9D4202D90223A36031
:1005B000CCE70B4B9D4202D90A23A360C6E7290072
:1005C000084807F075F80004000CA060BEE7C046BC
:1005D0003F420F00E4060020FF340C007F1A0600A3
:1005E0009F86010040420F0030B585B00400857839
:1005F000002D0BD10022FFF719FF002800D00125A4
:100600002000FFF72BFF280005B030BD002300932A
:1006100001330F226A44034803F037FFC543ED0F4F
:10062000F1E7C046E4060020F0B583B004001700EF
:100630001E008378002B0BD10022FFF7F7FE050088
:10064000012811D02000FFF709FF280003B0F0BDFA
:10065000012300933300084803F00BFF002801DB5F
:100660003500F2E70025F0E7320039002000FFF7FF
:10067000C3FE0500E6E7C046E4060020F0B585B0FD
:1006800006000F001D000F236B441A708378002BA7
:100690000BD10022FFF7CAFE040001281AD0300057
:1006A000FFF7DCFE200005B0F0BD012300930F2210
:1006B0006A44154803F0DDFE002802DAC043C40F87
:1006C000F0E7002300930A9B2A0039000E4803F04C
:1006D000DCFEF3E701220F2169443000FFF78CFEB6
:1006E00004000128DBD13000FFF7B8FE01223900F9
:1006F0003000FFF79BFE04000128D0D10A9A2900A0
:100700003000FFF701FFCAE7E406002010B50C0037
:100710001300017810302200FFF786FF10BD10B5DE
:1007200082B00C00D1010919C160002B25D0C3781B
:10073000052B0BD0042B0FD0062B20D0072B0CD170
:100740001C348378002B08D1033206E020348378F0
:10075000002B02D1043200E0023401A900230B7007
:10076000503B1A434A705F3323408B70241110238F
:100770001C43CC700422FFF7C9FF02B010BD837880
:10078000002B01D02034E8E70232E6E770B5A2B0D2
:1007900005000E00140001AA40211170002B12D197
:1007A000686800280DD0EB689C4660442200310048
:1007B00007F0B6FFEB689C466444EC60A405A40D0A
:1007C000EC6022B070BD220031006B46581D07F06E
:1007D000A7FF621C01A92800FFF798FFE0E70000CF
:1007E000F0B5C64600B584B004000D0017001E0029
:1007F00000234360C170867043700B9B83740C9B15
:1008000003740D9B43746A4B0E9A1A6001235B427A
:10081000684A1360684A13601133984680440F9900
:100820004046FFF783FE7B1C012B01D9FF2F32D1FD
:100830003C214046FFF7D8FE3C214046FFF7D4FE5E
:1008400000281ED03C2323700B276F4400233B70ED
:100850002178013300933B0000224046FFF70EFF52
:100860003A780F2313403B70072B23D00F2B21D056
:10087000082B36D0032B38D0062B38D001277F42E7
:100880001EE03D214046FFF7AFFE002800D18CE07E
:100890003D232370D8E7FFB2277039004046FFF7A9
:1008A000A3FE39004046FFF79FFE0028CCD1012768
:1008B0007F426AE00123E37073425E41F6B204278F
:1008C00023783D2B15D0022D15D0062D13D0012DE8
:1008D0002ED0072D32D0162238492000FFF716FF00
:1008E0000EE0043BE3700227EAE70027E8E7002771
:1008F000E6E70137E7E7182231492000FFF706FF56
:100900000A9B002B20D1002E29D18023A372403BCB
:10091000E372062D35D0022D3CD0012D3DD0052DA2
:100920003ED0072D31D14823A372203BE3722CE047
:10093000162224492000FFF7E9FEE1E71A222249A6
:100940002000FFF7E3FEDBE700236A461373A733BB
:100950005373022203A92000FFF7D8FED3E703AEAA
:1009600000233370A0337370022231002000FFF7A0
:10097000CDFEC0237370022231002000FFF7C6FEB7
:10098000C3E72033A372503BE372380004B080BC4D
:10099000B846F0BD2023E372F7E78023E372F4E763
:1009A0004023A372203BE372EFE701277F42ECE78D
:1009B000B0160020A8110020A4110020D0C50010FE
:1009C000B8C5001004C60010E8C50010002305E0FB
:1009D0000278D243027001300133DBB28B42F7D38D
:1009E00070470000F0B5DE4657464E464546E0B536
:1009F0008FB004000D00511C03D0591C01D00272AD
:100A00004372217AA37A994200D3BDE3627AE37AF2
:100A1000DB089A4200D3BAE31B9B2000FFF77FFE5E
:100A2000199B012B19D0199B042B77D0199B022BF2
:100A300000D12EE1199B032B00D198E2199B002BCA
:100A400000D0BFE30621280006F00AFE199F2A0005
:100A50000D00189B9846160055E307272F400026E7
:100A60002A003D00189B9846170014E0082104A8AE
:100A7000FFF7ACFF31E000232372627A0132D2B279
:100A800062721B9B00212000FFF749FE002500E059
:100A90000025083F0136227AA37A9A4200D379E3EF
:100AA00043469A5D002A00D176E3617AE37ADB0857
:100AB000994200D372E3072FEBDC203AD100891A68
:100AC000002304AA1370C44A8918072204AB581CD7
:100AD00007F026FE1A9B002BC8D10822531B9A460A
:100AE000237A52469918A27A914201DDD31A9A4686
:100AF000290004AB9C4661441B9B52462000FFF733
:100B000045FE227A5244D2B22272A37A073B9A421D
:100B1000BEDB6378002BAED10025BAE70B332B4048
:100B200098460023AA461D00189B99461B9B9B468E
:100B300046E0102104A8FFF749FF6DE0102104A84A
:100B4000FFF744FF82E0217A02325B462000FFF784
:100B5000E6FD31002031102204A807F0E1FD1A9BC8
:100B6000002B06D15B463A0041462000FFF70EFEFF
:100B700076E0102104A8FFF729FFF3E7217A03327A
:100B80005B462000FFF7CBFD31003031102204A876
:100B900007F0C6FD1A9B002B06D15B463A00414682
:100BA0002000FFF7F3FD5EE0102104A8FFF70EFF21
:100BB000F3E70023984610235B429C46E24401354C
:100BC000217AA07A814200D3EAE2627AE37ADB08F2
:100BD000033B9A4200DBE5E24B465E5D002E00D10E
:100BE000E2E253460F2BE6DC203EF6B2B6017B4B29
:100BF000F61810274346FF1ACB19834200DD471A27
:100C00005B462000FFF78BFD1022310004A807F09F
:100C100087FD1A9B002B8CD104AB9C46E0445B46BD
:100C20003A0041462000FFF7B1FD217A627A013295
:100C30005B462000FFF773FD31001031102204A83D
:100C400007F06EFD1A9B002B00D077E75B463A0059
:100C500041462000FFF79AFD627A052A00D872E724
:100C6000627A042A8AD9237ADF19FFB22772A37A1B
:100C70000F3B9F429DDB6378002B07D0002323723C
:100C8000637A043363720023984694E700239846FE
:100C900091E70C21280006F0E3FC03910023009368
:100CA000AB4633E1062104A8FFF790FE55E1920020
:100CB000D2B20133032B0CDC08001841C00700D569
:100CC0001643181D0C0004412000C007EFD5154342
:100CD000EDE74C4604AB1E5563465E701D735D73B5
:100CE0000137052F0CDCFC1C6400A44604AB9946BC
:100CF000CC44D95D0322002500260023A146D9E774
:100D00000027C44601E0019C2700042F00DDAEE06F
:100D100004ABDD5D7C1C1E5D03377F0098464744B5
:100D2000022101230020019423E0022858DC420024
:100D300001320124A146944062B27C78144364B22B
:100D4000A0467C70BC78224354B20294BC70441C10
:100D50006400A2464C465246944062B24446144354
:100D60007C70029C1443BC705B00DBB24900C9B2CA
:100D700001300628C7DC2A001A401D4205D01E4259
:100D800003D10D4201D10E42CFD1002A05D11E421E
:100D900003D00D4201D00E42C7D0002AE4D11E423A
:100DA000E2D00D42E0D00E42DED103284DDC4200FD
:100DB00001329046012292461400424694407A78CD
:100DC00014437C70421C5200544694402200BC786C
:100DD0002243BA70C8E7C0461CC60010BCC8001049
:100DE00003281ED0021F520001320124A146944064
:100DF00062B27C7B144364B2A0467C73BC7B22430A
:100E000054B20294BC73C41E6400A2464C465246BF
:100E1000944062B2444614437C73029C1443BC73F6
:100E2000A2E77A78904680225242444614437C706E
:100E3000BC782243BA70012290467A7B4446224312
:100E40007A73BA7B2243BA738EE7021F52000132D3
:100E50000124A04694407A7B22437A73C21E52003A
:100E6000444694402200BC7B2243BA737CE764462C
:100E70000C26039BF61A217A8A19A37A9A4200DD7E
:100E80005E1A627A1B9B2000FFF749FC039DA91D97
:100E900004AB9C4661441B9B32002000FFF776FCAC
:100EA000217A627A01321B9B2000FFF738FC29006F
:100EB000123104AB9C4661441B9B32002000FFF7BB
:100EC00065FC237A9E19F6B22672A37A0B3B9E42EA
:100ED00013DB6378002B02D1002303930FE0002380
:100EE0002372627A0232D2B262721B9B002120000E
:100EF000FFF715FC0023039301E0002303930C2369
:100F00005B429C46E344009B01330093227AA37A20
:100F10009A4200D34AE1627AE37ADB08013B9A42C3
:100F200000DB45E1189B009A9B5C002B00D141E15E
:100F30005A460B2AE3DC203BD9B28B005918A94B47
:100F4000C918002304AA1370062204AB581C07F02A
:100F5000E7FB1A9B002B00D0A4E61822002104AB6B
:100F6000981D07F0D7FB00231F00A046B9E60C33FD
:100F70002B409B4600239A46D946AB467FE008218A
:100F800004A8FFF723FDA1E09200D2B20133032BA6
:100F90000CDC08001841C00700D51643181D0C00D2
:100FA00004412000C007EFD51543EDE7009C404603
:100FB00004AB1E5563465E701D745D740137072FC8
:100FC0000DDC3C1D6400A44604AB9846C444D95DC6
:100FD000032200250026002300948046D7E7040062
:100FE00010234A469B1A9846017ACA18837A9A4275
:100FF00001DD5B1A9846627A1B9B2000FFF78FFB8E
:101000004946083104AB9C4661441B9B4246200084
:10101000FFF7BCFB217A627A01321B9B2000FFF7AD
:101020007EFB4946183104AB9C4661441B9B4246FB
:101030002000FFF7ABFB237A4344DBB22372A27A92
:101040000F3A934213DB6378002B02D100239946B9
:101050000FE000232372627A0232D2B262721B9BCB
:1010600000212000FFF75BFB0023994601E00023ED
:1010700099465B46103B9B46534601339A46227A7B
:10108000A37A9A4200D397E0627AE37ADB08013BC5
:101090009A4200DB92E0189B52469B5C002B00D1E9
:1010A0008EE05A460F2AE4DC203BDBB2D900C91A95
:1010B0004D4BC918002304AA1370072204AB581C17
:1010C00007F02EFB1A9B002B00D058E720220021AE
:1010D00006A807F01FFB0027200070E7062104A8E0
:1010E000FFF774FC2FE000232372627A0132D2B240
:1010F00062721B9B00212000FFF711FB199D00E08D
:10110000199D063E0137227AA37A9A425DD2627A0D
:10111000E37ADB089A4260D24346DB5D002B5ED067
:10112000052EEEDC203BD9B2002304AA13708B00FD
:1011300059182C4BC918052204AB581C07F0F0FABB
:101140001A9B002BCAD10622531B9A46237A524679
:101150009918A27A914201DDD31A9A46290004AB6C
:101160009C4661441B9B52462000FFF70FFB227AEE
:101170005244D2B22272A37A053B9A42C0DB637812
:10118000002BB0D1199DBCE7012040421EE0012098
:1011900040421BE0002019E0002017E0002015E08D
:1011A000002013E0002011E000200FE000200DE0FF
:1011B00000200BE0002009E0002007E0002005E00F
:1011C000002003E00120404200E019980FB0F0BC7D
:1011D000BB46B246A946A046F0BD1998F6E7199855
:1011E000F4E7C046D8C300101CC60010F0B5D646C0
:1011F0004F464646C0B584B005008A461600C37AFD
:10120000DB089946877A3F091022684607F082FA80
:1012100000236B722B72984610E03300102269464F
:101220002800FFF7B3FA0134E4B2BC42F5D3EB78FF
:10123000072B0DD043460133DBB29846C8450ED28A
:101240003300424600212800FFF769FA0024ECE74A
:101250003300082269462800FFF798FAEAE7686831
:10126000002806D0AB7AEA7A5A43D210514607F0EA
:1012700051FA04B0E0BCBA46B146A846F0BD4160A0
:101280007047704770B504000E00C06807F036FA6A
:10129000E27D237D9A4221D004257543ADB2A5801D
:1012A000280007F019FAE060002819D02A00002170
:1012B00007F030FA6680A36A002B0ED0206907F091
:1012C0001DFAA588280007F007FA206100280BD036
:1012D0002A00002107F01EFA668070BD0325DCE7B6
:1012E0000023A3806380E6E70023A3806380F4E704
:1012F00070B5C37D027D9B1A5A425341DCB28B0903
:1013000003221340C3750D09154005758E0816405C
:1013100046750A4082750022FF268E4252410270B5
:10132000C268002A05D05B1B5A425341DBB29C4283
:1013300000D170BD4188FFF7A5FFFAE7F0B5CE46B2
:10134000474680B587B005000F000021A4480AF089
:101350004DFA0400431C06D0A24B1B68013300D198
:1013600093E09F4B2B62631C00D19CE09D4B1B685C
:10137000013300D197E0631C00D1B5E0994B1868A8
:10138000431C00D1ABE02E6A974B9E4200D1AFE0E8
:10139000002396499B005A5801325A503FB2EF80C1
:1013A000A0466C622B78002B00D1AAE08E4B9E42A7
:1013B00000D19FE004008A4B9E4200D19DE00721AE
:1013C000380004F0C7FC012300933A004146300086
:1013D0000AF086FA1022002102A807F09BF9802368
:1013E0005B020293F8235B0203938020C002049007
:1013F000C0231B030493E31CE201190313000B43F6
:10140000039380229205059279490B400393BF0212
:101410003A430592774B034304938022D20513434A
:101420000493052004F01CFF07F02EF8724906F023
:10143000DCFF814607F082F887B2002F5FD03800CA
:1014400007F022F8011C484606F0C5FF8721C905B0
:1014500006F0E1FF07F072F8C0B200023F04074354
:10146000029702AB2200414630000AF071FA32685E
:10147000012341468B409A431343336001236B7031
:1014800007B0C0BCB946B046F0BD5C4954480AF04C
:10149000CBF9002800D164E7584951480AF0D8F93F
:1014A000504B18605DE700214F480AF09FF9040097
:1014B000431C00D15FE7524B1B68013302D04A4BFB
:1014C0002B6258E74D4948480AF0AEF90028F6D09B
:1014D0004A4943480AF0BCF9494B1860EFE7484BCA
:1014E0001B68013300D04EE701235B426B62C7E704
:1014F00001234EE7424B1C685DE7062160E70020B0
:10150000ABE7394B9E4263D00400354B9E4262D01C
:101510000721380004F01EFC012300933A004146E5
:1015200030000AF0DDF91022002102A807F0F2F8DD
:1015300080235B020293F8235B0203938020C002A6
:101540000490C0231B030493E31CE201190313005E
:101550000B430393802189050591254A134003938A
:10156000BF020F430597234B184304908023DB05EC
:1015700018430490052004F073FE06F085FF21490E
:1015800006F033FF814606F0D9FF87B2002F24D042
:10159000380006F079FF011C484606F01CFF872141
:1015A000C90506F038FF06F0C9FFC0B200023F04CB
:1015B0000743029702AB2200414630000AF0C8F907
:1015C0003268012341468B409A431343336055E709
:1015D0000B4B1C6899E706219BE70020E6E7C04615
:1015E00000002050A806002000003050B416002053
:1015F000FFFFFF9F000002100024F44A64E1001086
:10160000AC0600200024744AF0B5C64600B586B08A
:101610000C00C180056A744B9D425BD000230278A8
:10162000002A00D172E0466A002B55D16F4B1F682B
:101630006F4B9D4253D00721200004F08BFB012308
:1016400000932200310028000AF04AF910220021FC
:1016500002A807F05FF880235B020293F8235B0285
:1016600003938020C0020490C0231B030493FB1C3F
:10167000FA01190313000B4303938022920505928C
:101680005C490B400393A402224305925A4B034347
:1016900004938022D20513430493052004F0E0FD57
:1016A00006F0F2FE554906F0A0FE804606F046FF21
:1016B00084B2002C15D0200006F0E6FE011C404646
:1016C00006F089FE8721C90506F0A5FE06F036FF63
:1016D000C0B207E00123A2E7494B1F68A8E7062133
:1016E000AAE70020000224040443029402AB3A005B
:1016F000310028000AF02CF92A680123B3409A43EC
:1017000013432B6006B080BCB846F0BD466A002B80
:1017100053D1364B1F68364B9D4251D007212000D4
:1017200004F018FB012300932200310028000AF086
:10173000D7F81022002102A806F0ECFF80235B02FC
:101740000293F8235B0203938020C0020490C0231D
:101750001B030493FB1CFA01190313000B430393AF
:10176000802189050591234A13400393A4020C4369
:101770000594214B034304938022D2051343049321
:10178000052004F06DFD06F07FFE1E4906F02DFEDB
:10179000804606F0D3FE84B2002C13D0200006F061
:1017A00073FE011C404606F016FE8721C90506F0AF
:1017B00032FE06F0C3FEC0B205E0114B1F68AAE777
:1017C0000621ACE70020000224040443029402AB8B
:1017D0003A00310028000AF0BBF82A680123B34020
:1017E0009A4313432B608DE700003050A806002079
:1017F00000002050FFFFFF9F000002100024F44A69
:10180000AC0600200024744AF8B5050016001C0040
:101810004378002B18D06B6A01331AD0671E002C56
:1018200017D0286A6C6A731C9C4636783606426864
:101830002100103101238B401342F8D10434A4005D
:1018400026503C006646E9E7FFF778FD01236B7000
:10185000E1E7F8BD10B582B0C268002A05D08388E0
:10186000817904780094FFF7CFFF02B010BD00002B
:1018700010B5040082880021C06806F04BFF2000EC
:10188000FFF7E8FF142003F08FFEE06806F036FF54
:10189000206906F033FF616A206A09F097FF206A29
:1018A000134B984219D00022124992005358013B21
:1018B0005350002B0FD10E4B984210D00E4B1A688C
:1018C0000E4909F0E1FF0A4B226A9A420AD00A4BFC
:1018D000012252421A60200010BD0122E4E7084BA9
:1018E0001A68EDE7064B012252421A60F3E7C04640
:1018F00000003050B4160020A806002064E100105B
:10190000AC06002010B54378002B01D1C18010BD7A
:101910008179FFF779FEFAE7F8B504000D001700AA
:101920001E00002060702072E0602061A062E06212
:101930002063606303F0D4FE00290FDBA061E16146
:1019400039002000FFF7DEFF31002000FFF7D0FC58
:1019500029002000FFF796FC2000F8BD024B034A47
:101960003D21034804F044FBBCE00010D8E0001027
:1019700010E10010F0B5D6464F464646C0B504000B
:1019800016001D0008AB1B78984609AB18786388D1
:101990008B423FD9277A002F09D07E43360A7D43F8
:1019A0002D0A43467B431B0A98467843000AA36AE4
:1019B000002B34D0E37D227D934247D08F002269F3
:1019C0009146B944E268944667444A46D054E37D60
:1019D0009A46BA44636B984753461870237D4A462B
:1019E000D654637DD554A37D4146D154237D994679
:1019F000B9443000A36A98474B461870667DBE19FB
:101A00002800E36A98473070236BA17D7F18404619
:101A100098473870E0BCBA46B146A846F0BDE37DB1
:101A2000227D93420CD08900E26894466144C854F8
:101A3000237DCE54637DCD54A37D4246CA54E9E74D
:101A40004B005918E3689C466144F1E74F007F184A
:101A500023699946B944E3689C466744BEE730B5BC
:101A600083B01400150E120CD2B2230ADBB2E4B21A
:101A700001950094FFF77EFF03B030BDF8B5CE4668
:101A8000474680B5040043888B4200D886E0836ACD
:101A9000002B14D0C27D037D9A4270D0890000696A
:101AA00084466144885C0006CB5C1B041843637D5C
:101AB000CB5C1B021843A37DCB5C18436FE0C37D56
:101AC000077DBB4226D08E00C26894466644027AE7
:101AD0009046002A46D0F05C0002110005F0E8FDB7
:101AE00003069946F05D0002414605F0E1FD05045C
:101AF0004B461D43637DF05C0002414605F0D8FD76
:101B000000020543A37DF05C0002414605F0D0FDD4
:101B1000284344E04B005918C3685E18037A98467E
:101B2000002B15D0F05D0002190005F0C1FD050481
:101B3000637DF05C0002414605F0BAFD00020543FA
:101B4000A37DF05C0002414605F0B2FD284326E08B
:101B5000F05D0004637DF35C1B021843A37DF35C1E
:101B600018431CE0F05C0006F35D1B041843637D22
:101B7000F35C1B021843A37DF35C18430FE04A009B
:101B80005118026994466144C85C0004637DCB5CD3
:101B90001B021843A37DCB5C184300E00020C0BCAF
:101BA000B946B046F8BDF0B5C64600B504000F0012
:101BB00016001D004088226953425341421E904145
:101BC000184206D1A762E6622563069B636300257F
:101BD00015E0A3889846180006F07EFD2061424675
:101BE000E16806F09DFDEDE7AEB231002000FFF7A1
:101BF00045FF020031002000FFF731FF0135638807
:101C0000AB42F1DC80BCB846F0BD10B50300C06843
:101C10009A88002106F07EFD10BD0000014B185C83
:101C20007047C0466CE4001010B504008020FFF738
:101C3000F5FF60430012C0B210BD00001D4B1B68D1
:101C4000002B23D11B4B14221A601B4A1368013B43
:101C50001360002B1EDB194A1368013B1360002B35
:101C60001CDD174B1B78002B0ED0164A136801336E
:101C70001360072B02DD130007221A60124A136853
:101C8000013B1360002B10DB01207047013B094A28
:101C90001360DAE7130000221A60DCE70B4B012225
:101CA0001A60064B09321A60DBE7130000221A6043
:101CB000EAE7C046302100208823002008210020C8
:101CC000CC2300207C210020A4230020B02300206E
:101CD00070B5D54A80235B00D35C2B2B00D855E12F
:101CE000D24B1D682C79642C00D899E02300643B0A
:101CF0001802C01A642105F0B3FCCD4B1860642CA7
:101D000000D891E0643C2002001B6421494205F0A8
:101D1000A7FCFF30C64B58602B79632B00D98FE0AE
:101D20006420C01A0302181A642105F099FCC04B04
:101D300098606C79642C00D886E02300643B18021C
:101D4000C01A642105F08CFCBA4B1860642C7FD952
:101D5000643C2002001B6421494205F081FCFF30F5
:101D6000B44B58606B79632B7ED86420C01A030291
:101D7000181A642105F074FCAE4B9860AC490868F1
:101D80004B6889680004FF26360430401B061A0C95
:101D90000243FF2421400A43A74D03212800FFF7F7
:101DA0005EFEA44A11685368906809040E401B0641
:101DB0001A0C32430440224302212800FFF74FFE51
:101DC0009A4B1B68DB78002B52D0FF2212020921AC
:101DD0009948FFF744FE954B1B689B68002B4DDD2F
:101DE000964A07219448FFF73AFE904B1B681B7CEC
:101DF000002B49D0924A08218F48FFF730FE914BC3
:101E00001B78012B4DD0022B52D0002B42D0874B98
:101E10001B685B78072B61D89B008B4AD3589F4681
:101E2000834B00221A606AE76420041B2002001B17
:101E30006421494205F014FCFF307D4B58606BE78C
:101E40007B4B00229A6074E77A4B00221A607DE790
:101E50006420041B2002001B6421494205F000FCA1
:101E6000FF30744B58607DE7724B00229A6085E723
:101E7000764A09217048FFF7F2FDACE7744A072162
:101E80006D48FFF7ECFDB0E7642208216A48FFF7D0
:101E9000E6FDB4E76F4BFF221A7000225A709A7069
:101EA000B5E76C4B00221A70FF2159709A70AEE7AB
:101EB000684B00221A705A70FF329A70A7E7664A80
:101EC00000231370FF2151709370644A11709620A3
:101ED00050709370624A117053709370614B1B780D
:101EE000032B00D103E15F4B1B78032B00D10BE1E7
:101EF000584A1378507891781A04000202430A4332
:101F000001214D48FFF7ABFD484B1B68986A9F21A4
:101F1000C90506F0B1FA002804D0524B1B78032BF8
:101F200000D1F7E04B4A1378507891781A040002F8
:101F300002430A4300214048FFF791FD484A1378C5
:101F4000507891781A04000202430A433A4C042163
:101F50002000FFF784FD414A1378507891781A04E5
:101F6000000202430A4305212000FFF778FD3A4AA8
:101F70001378507891781A04000202430A4306212C
:101F80002000FFF76CFD2000FFF764FC70BD324AB3
:101F900000231370FF2151709370304A1170962006
:101FA000507093702E4A117053709370294A1370B9
:101FB0005370937092E7284A00231370FF215170E9
:101FC0009370264A1170962050709370244A1170B5
:101FD0005370937082E7204900230B70FF224A70F0
:101FE0008B701E490A70962048708B701C490A70CD
:101FF0004B708B7017490A7048708B706EE7164AE9
:1020000000231370FF2151709370144A11709620B1
:1020100050709370124A1170537093700D4A137080
:10202000537093705AE7C046AC110020CC060020D4
:10203000B0060020D406002050110020004BFF0005
:10204000FF640000CA23002074E100100087C8006C
:1020500082FF4B00C8060020E0060020C4060020D6
:10206000C0060020E72300202D4A00231370FF2123
:10207000517093702B4A11709620507093702A4AB9
:10208000117053709370294A13705370937025E741
:10209000264A0023137053709370214AFF21117058
:1020A000537093701F4A1170537093701E4A1170D1
:1020B00053709370FF252D041D4C2A00F839200021
:1020C000FFF7CDFC2A0008212000FFF7C8FC2A00FA
:1020D00009212000FFF7C3FC2A0002212000FFF79E
:1020E000BEFC2A0003212000FFF7B9FCF6E6114DE3
:1020F0000F4C2A0008212000FFF7B1FC2A0009211B
:102100002000FFF7ACFCEEE60A4A01210848FFF781
:10211000A6FCF9E6074A00210548FFF7A0FC0DE7F9
:10212000E0060020C4060020C0060020C8060020EB
:1021300050110020E22B8A0010B5002003F03CFE75
:102140000321002003F006FE00220121002003F0FD
:1021500019FE012003F030FE0321012003F0FAFDF7
:1021600000220121012003F00DFE054C054920004D
:1021700002F03AF9044A4921200001F05DFF10BD48
:10218000E4060020A0860100C921001070B50400FB
:102190000D00012805D0002C02D1094B9D420AD028
:1021A00070BD074B9942F6D1522316220A210548E9
:1021B000FFF7B2FBEFE70348FFF75AFBF0E7C04633
:1021C000FFFF00005011002010B5012935D0022971
:1021D0004AD0002900D010BD264A0223FF33D35C29
:1021E000002B13D103681A6F120709D51969214B07
:1021F0008022520099540222FF3201219954EAE7C9
:102200001D4B1E4A1F311E4803F0F2FE194A80235F
:102210005B00D15C03681A6F120708D51A69154B69
:102220005A54802149005A5C01325A54D3E7124B68
:10223000124A1F21124803F0DBFE0E4B802252008F
:102240009A5C995C03681A6F920707D5196109496E
:10225000802252008B5C01338B54BCE7094B0A4A45
:102260002D21074803F0C4FE024A0223FF33002158
:10227000D154B0E7AC11002094E10010BCE1001093
:10228000E0E100102CE2001054E2001070B50D00E7
:10229000D0231B06802292049A61204A0223FF3336
:1022A000D35C002B04D080235B00D35C002BF4D1E3
:1022B0001A4B18708022520000219954642000218A
:1022C00003F046F9D0231B06802252055A61FA20FA
:1022D0008000002103F03CF96424104A80235B0055
:1022E000D35C002B08D1002C06D0FA2080000021FE
:1022F00003F02EF9013CF0E7002D06D1D0231B0698
:10230000802292045A61012070BD052003F04CF92F
:10231000D0231B06802252059A61EFE7AC11002002
:1023200070B50E4CFF232370693B63700023A370CC
:102330000B4D0C4A01212800FFF791FB22786078B1
:10234000A1781204000202430A4300212800FFF78B
:1023500086FB2800FFF77EFA70BDC046C806002045
:10236000501100200096FF0070B504000E4B0022B3
:10237000DA71002805D11D003023AB710635280025
:1023800070BD094D07350BE00A21200005F090F9DA
:102390003031013D29700A21200005F089F904003F
:1023A000002CF1D1EBE7C046441C002070B536305C
:1023B000C4B2201C3B2C00D93B20C0B2FFF7D4FF95
:1023C00001000C4809F052FE3B2C01D8094870BDB1
:1023D000084D280009F052FE28180222064906F08E
:1023E0009FF920003B38FFF7BFFF0100280009F0EC
:1023F00017FEEBE7441C002080E20010F0B5CE464B
:10240000474680B58DB00400DC4A80235B00D35C76
:102410002B2BF9D9DA4B1B78032B00D94EE1D94B82
:102420001D686B78072B00D948E19B00D64AD3582A
:102430009F46697CD54B1B685A7C914207D15969EC
:10244000686906F019F8002801D0002C33D06869BB
:1024500006F07CF802000B0004ADCD49280005F021
:10246000A7F8012303930022029201930095002311
:102470000021C848FEF7B6FAC74B1B78012B0ED9CE
:10248000022B18D101230393002202920193C34B24
:10249000009300230021BF48FEF7A4FA0BE00123BC
:1024A0000393002202920193BD4B0093002300216D
:1024B000B848FEF797FAB34B1B681A7EB34B1B68FC
:1024C0001B7E9A4201D1002C2CD0B24F012398469A
:1024D0000393002502950195B24B0093022300223D
:1024E00000213800FEF77EFAA64B1B68187EFFF726
:1024F0005DFF0126764243460393029501950090C5
:102500003300320000213800FEF76CFA4346039393
:1025100002950195A44B009333003200002138004E
:10252000FEF760FA012303930023029301939F4B6C
:10253000009304235E2200219648FEF753FA914B44
:102540001B685B78052B00D1D5E0072B00D1E1E0BB
:10255000042B00D1EDE08B4B1E68F7698B4B1D6897
:10256000E969381C05F088FF002813D0296A306A11
:1025700005F082FF00280DD0696A706A05F07CFFC3
:10258000002807D0B06AA96A05F076FF002801D0BC
:10259000002C60D0381C05F0D9FF02000B008449E4
:1025A00004A805F005F87B4E012403940027029748
:1025B000019404AB00930223002200213000FEF7B7
:1025C00011FA704D2B68186A05F0C0FF02000B006D
:1025D000784904A804F0ECFF03940297019404AB3B
:1025E00000930323002200213000FEF7FBF92B6843
:1025F000586A05F0ABFF02000B006F4904A804F015
:10260000D7FF03940297019404AB009304230022A4
:1026100000213000FEF7E6F92B689C6A9F21C9056E
:10262000201C05F029FF002800D091E0201C05F0B7
:102630008DFF02000B0004AC6049200004F0B8FFDD
:10264000012303930022029201930094043300219A
:102650005048FEF7C7F94F4D012603960024029417
:102660000194574B00930623002200212800FEF717
:10267000B9F9444F3B685A791B79524904A804F0D0
:1026800097FF03960294019404AB00930723002262
:1026900000212800FEF7A6F93B689A684A4904A879
:1026A00004F086FF0122524203960294019404AB87
:1026B0000093130000212800FEF794F94349314BA1
:1026C0001B680A0013CB13C213CB13C213CB13C264
:1026D00003CB03C2304B1A783D4B1A703D4B1A782E
:1026E0003D4B1A70264B1A783C4B1A700DB0C0BC8B
:1026F000B946B046F0BD01225242012303930023A4
:1027000002930193364B0093130000212148FEF7FA
:1027100069F920E701225242012303930023029327
:102720000193304B0093130000211A48FEF75AF929
:1027300011E70122524201230393002302930193E4
:10274000294B0093130000211248FEF74BF902E7D2
:10275000201C05F0FBFE02000B0004AC2349200006
:1027600004F026FF012303930022029201930094B8
:10277000043300210748FEF735F96CE7AC1100205F
:10278000E7230020CC060020B4E30010D006002090
:1027900084E2001014210020CA230020A4E20010CB
:1027A00098E20010B0E2001004E300105CE30010B7
:1027B000DCE20010E4E20010ECE20010F4E20010B1
:1027C00008E3001020E3001034E30010442100204F
:1027D000E2230020CB230020E3230020E423002079
:1027E000C4E20010CCE20010D4E20010FCE20010C1
:1027F000E86805F0ABFE02000B0004AFF3493800B7
:1028000004F0D6FEF24E01240394002502950194B3
:1028100000970023002200213000FEF7E3F8039424
:1028200002950194EB4B009300230022002130001D
:10283000FEF7D8F8039402950195E74B0093022325
:10284000002200213000FEF7CDF8E44B98461B68CB
:10285000187EFFF7ABFD01235B4299460394029576
:10286000019500901A0000213000FEF7BBF8039498
:1028700002950195DA4B00930423002200213000D9
:10288000FEF7B0F8039402950195D64B00934B46A2
:102890004A4600213000FEF7A5F803940295019402
:1028A000D14B994600930223002202213000FEF70B
:1028B00099F843461B68D86905F048FE02000B00F2
:1028C000CA49380004F074FE0394029501940097FD
:1028D0000223002200213000FEF784F803940295C1
:1028E00001944B4600930323002202213000FEF79F
:1028F00079F843461B68186A05F028FE02000B00B1
:10290000BB49380004F054FE0394029501940097EB
:102910000323002200213000FEF764F8039402959F
:1029200001944B4600930423002202213000FEF75D
:1029300059F843461B68586A05F008FE02000B0070
:10294000AC49380004F034FE0394029501940097DA
:102950000423002200213000FEF744F843461B68A0
:102960009C6A9F21C905201C05F086FD002847D1DF
:10297000201C05F0EBFD02000B009F49380004F01D
:1029800017FE012303930022029201930097043360
:1029900000218F48FEF726F88D4D0126039600246E
:1029A00002940194954B00930623002200212800F5
:1029B000FEF718F8894F3B685A791B79904904A8AB
:1029C00004F0F6FD03960294019404AB00930723F0
:1029D000002200212800FEF705F83B689A68894923
:1029E00004A804F0E5FD01225242039602940194EA
:1029F00004AB0093130000212800FDF7F3FF5DE610
:102A0000201C05F0A3FD02000B0004AC7E49200051
:102A100004F0CEFD0123039300220292019300945F
:102A2000043300216A48FDF7DDFFB5E7684E012455
:102A30000394002502950194744B00930023002217
:102A400000213000FDF7CEFF039402950195624B03
:102A500000930223002200213000FDF7C3FF5F4FE7
:102A60003B68187EFFF7A2FC0122524203940295B4
:102A700001950090130000213000FDF7B3FF3B6883
:102A8000D86905F063FD02000B00584904A804F062
:102A90008FFD03940295019404AB0093022300225E
:102AA00000213000FDF79EFF3B68186A05F04EFDDF
:102AB00002000B004E4904A804F07AFD039402952D
:102AC000019404AB00930323002200213000FDF7A2
:102AD00089FF3B68586A05F039FD02000B00454943
:102AE00004A804F065FD03940295019404AB0093DF
:102AF0000423002200213000FDF774FF3B689C6A2C
:102B00009F21C905201C05F0B7FC002848D1201CD6
:102B100005F01CFD02000B0004AC3749200004F056
:102B200047FD012303930022029201930094043392
:102B300000212748FDF756FF254D01260396002466
:102B4000029401942D4B00930623002200212800BB
:102B5000FDF748FF214F3B685A791B79284904A8A3
:102B600004F026FD03960294019404AB009307231E
:102B7000002200212800FDF735FF3B689A682149B3
:102B800004A804F015FD0122524203960294019418
:102B900004AB0093130000212800FDF723FF8DE50F
:102BA000201C05F0D3FC02000B0004AC16492000E9
:102BB00004F0FEFC0123039300220292019300948F
:102BC000043300210248FDF70DFFB5E784E2001051
:102BD0001421002038E30010B0E20010CC060020E1
:102BE00044E3001058E300104CE30010DCE2001056
:102BF000E4E20010ECE20010F4E2001008E3001040
:102C000020E3001034E30010FCE2001060E3001049
:102C1000686905F09BFC02000B0004AC974920009A
:102C200004F0C6FC01230393002202920193009456
:102C3000002300219248FDF7D5FE924B1B78012B13
:102C40000ED9022B18D10123039300220292019383
:102C50008D4B0093002300218948FDF7C3FE0BE054
:102C600001230393002202920193884B00930023D7
:102C700000218348FDF7B6FE814F0124039400250F
:102C800002950195824B0093022300220021380017
:102C9000FDF7A8FE7F4E3368187EFFF787FB012201
:102CA00052420394029501950090130000213800D0
:102CB000FDF798FE3368D86905F048FC02000B0068
:102CC000754904A804F074FC03940295019404ABC4
:102CD00000930223002200213800FDF783FE3368B1
:102CE000186A05F033FC02000B006C4904A804F0DC
:102CF0005FFC03940295019404AB0093032300222C
:102D000000213800FDF76EFE3368586A05F01EFC9E
:102D100002000B00624904A804F04AFC03940295E7
:102D2000019404AB00930423002200213800FDF736
:102D300059FE33689C6A9F21C905201C05F09CFB45
:102D4000002821D1201C05F001FC02000B0004AC7E
:102D50005449200004F02CFC01230393002202922A
:102D600001930094043300214548FDF73BFE012305
:102D700003930022029201934B4B009307230021FF
:102D80003F48FDF72FFE99E4201C05F0DFFB020011
:102D90000B0004AC4549200004F00AFC0123039316
:102DA0000022029201930094043300213448FDF77D
:102DB00019FEDCE7324D012200212800FEF716FA49
:102DC00001260396002402940194394F00970023B2
:102DD000002200212800FDF705FE039602940194CD
:102DE00000970723002200212800FDF7FBFD039632
:102DF000029401962F4B0093042300220021280007
:102E0000FDF7F0FD5AE41E4E012200213000FEF7CE
:102E1000EDF901240394002502950195244F0097B4
:102E20000023002200213000FDF7DCFD0394029511
:102E3000019500970723002200213000FDF7D2FD05
:102E40000394029501941C4B00930323002200215C
:102E50003000FDF7C7FD0F4B1B689A7804AF174988
:102E6000380004F0A5FB0394029501940097042315
:102E7000002200213000FDF7B5FD1FE484E20010C0
:102E800014210020CA230020A4E2001098E20010C0
:102E9000B0E20010CC060020DCE20010E4E20010FA
:102EA000ECE20010F4E2001074E30010FCE2001009
:102EB00084E3001098E30010A0E30010A8E30010E2
:102EC000F0B58DB005F06EFD1C2002F075FFD0242A
:102ED000240680235B056362052002F06DFF20233A
:102EE000A36200220121052002F04CFF062002F01F
:102EF00063FF4023A36200220121062002F042FF6B
:102F0000072002F059FF8023A3620022012107203D
:102F100002F038FF082002F04FFF80235B00A3621D
:102F200000220121082002F02DFF092002F044FFB9
:102F300080239B00A36200220121092002F022FFCE
:102F40000A2002F039FF8023DB00A3620022012166
:102F50000A2002F017FF0B2002F02EFF80231B0136
:102F6000A362002201210B2002F00CFF0E2002F0D0
:102F700023FF8023DB01A362002201210E2002F047
:102F800001FF042002F018FF1023A3620022012198
:102F9000042002F0F7FE0C2002F00EFF80235B01FC
:102FA000A362002201210C2002F0ECFE0D2002F0B1
:102FB00003FF80239B01A362002201210D2002F068
:102FC000E1FE152002F0F8FE80239B03A36200229D
:102FD0000121152002F0D6FE142002F0EDFE802320
:102FE0005B03A36200220121142002F0CBFE132018
:102FF00002F0E2FE80231B03A362002201211320C2
:1030000002F0C0FE122002F0D7FE8023DB02A36292
:1030100000220121122002F0B5FE112002F0CCFEA8
:1030200080239B02A36200220121112002F0AAFE4C
:103030001B2002F0C1FE80231B05A3620022012198
:103040001B2002F09FFE0F2002F0B6FE80231B0221
:10305000A362002201210F2002F094FE102002F052
:10306000ABFE80235B02A36200220121102002F04C
:1030700089FE1A2002F0A0FE8023DB04A362002256
:1030800001211A2002F07EFE192002F095FE802513
:10309000AD0465626561FA2002F086FAA561FA2046
:1030A00002F082FA656102F041F806AB0293002358
:1030B0000193E44B0093E44A002302F07BF9E34CD4
:1030C0002000FEF7DEF8E24900910B000A00200024
:1030D000FEF769FD2000FEF798FDDE4D2A00012174
:1030E0002000FEF7BCFC2A0000212000FEF7B7FC00
:1030F0002A0004212000FEF7B2FC2A000321200050
:10310000FEF7ADFC2A0002212000FEF7A8FC2A00F1
:1031100008212000FEF7A3FC2A0005212000FEF76D
:103120009EFC2A0006212000FEF799FC2A000721B8
:103130002000FEF794FC2A0009212000FEF78FFCF6
:103140002000FEF787FBFEF7F7FFC34B1B68FF224B
:103150005A70C24BC03A1A703E3A01213F20FFF725
:1031600095F8BF4B64221A60BE4B1B681B78FF2B7F
:1031700003D05A1E9341BC4A1370BB4B1B78BB4C07
:10318000BB4A059201225242049204320392022663
:103190000296002501950095393203212000FDF7A4
:1031A0001FFBB44B1860B4492000FEF768F80122F9
:1031B00000212000FEF71AF80127039702950196D7
:1031C000AE4B00930123002200212000FDF70AFCF2
:1031D000039702950196AA4B009304230022002135
:1031E0002000FDF7FFFBA74802F0DEF901220021D5
:1031F0002000FDF7FBFF0120FFF700F900F03DFD87
:10320000627C6B7C9A4201D000F04FFDE969E06975
:1032100005F032F9002801D100F047FD296A206A43
:1032200005F02AF9002801D100F03FFD696A606AC3
:1032300005F022F9002801D100F037FDA96AA06A43
:1032400005F01AF9002801D100F02FFD227E2B7E17
:103250009A4201D000F029FD6969606905F00CF916
:10326000002801D100F021FDE968E06805F004F9CB
:10327000002801D100F019FDA268AB689A4201D084
:1032800000F013FD804B1A78804B1B789A4201D0D6
:1032900000F00BFD7E4B1A787E4B1B789A4201D0D2
:1032A00000F003FD00F004FD0120FFF7A7F800F097
:1032B00007FD0120FFF7A2F8FEF70AFD00F007FD69
:1032C000FEF706FD00F00FFD002204215F48FEF727
:1032D000C6FB624B18221A7002E0FA2002F064F971
:1032E000D0231B065B689B06F7D400F01EFD00226E
:1032F00005215648FEF7B3FB674B1B78002B09D01E
:10330000D0231B065B681B030DD56420002102F04F
:103310001FF9F5E7514B21221A70203A0021212094
:10332000FEF7B4FFECE7D0231B06802252059A611A
:1033300000F0FBFC002206214448FEF790FB564BB0
:103340001B78002B09D0D0231B065B68DB020DD550
:103350006420002102F0FCF8F5E7404B7E221A7051
:103360007D3A00217E20FEF791FFECE7D0231B067B
:10337000802252059A6100F0D8FCD0231B065B68BE
:10338000DB0304D5454B01221A7000F0CEFCD0239C
:103390001B065B685B0104D5414B01221A7000F0EB
:1033A000C4FCD0231B065B68DB0604D53D4B012221
:1033B0001A7000F0BAFCD0231B065B68DB0404D54E
:1033C000394B01221A7000F0B0FCD0231B065B6859
:1033D0009B0404D5354B01221A7000F0A6FCD023C3
:1033E0001B065B681B0104D5314B01221A7000F0EB
:1033F0009CFCD0231B065B685B0304D52D4B01228C
:103400001A7000F092FCD0231B065B689B0304D566
:10341000294B01221A7000F088FCD0231B065B6840
:103420009B0204D5254B01221A7000F07EFCD023AC
:103430001B065B685B0443D5174B01221A7000F032
:1034400074FCC0463D1C00101027000050110020E5
:10345000291C0010FFFFFF00CC060020D82300200D
:1034600088230020BC060020E62300201421002031
:1034700040420F0070210020B0120020D4E3001061
:10348000DCE30010EE020000E7230020E42300202C
:10349000CB230020E3230020D7230020E8230020B3
:1034A000E9230020CF230020CD230020CE230020BD
:1034B000D2230020E0230020D0230020EB23002093
:1034C000794B1B78002B04D1D0231B065B685B066D
:1034D00018D4D0231B065B689B0513D4D0231B068E
:1034E0005B681B060ED4D0231B065B68DB0509D482
:1034F000D0231B065B681B0504D4D0231B065B6826
:103500005B052AD5FEF70CFF684A00231370D02113
:1035100009064B689B090124234013704868400A40
:103520002040A040034313704868C0092040800039
:10353000034313704868000A2040C000034313701F
:103540004868C00A20400001034313704968890A93
:10355000214049010B431370E7E3544B1B78002BC8
:1035600004D00023514A1370514A13600020514B7C
:103570001870514B187001221100FEF787FED023FE
:103580001B06802252059A614C4B1B68002B00DD04
:10359000CBE34A4B64221A600020FEF72FFFFEF7B0
:1035A00097FBC2E3464A1370D0231B0680225205C4
:1035B0009A61052001F0F8FFCBE33E4B52221A70CE
:1035C000513A00215220FEF761FE3D4B1A78374BED
:1035D0001B789A4200D084E03A4B1B68D8683A497D
:1035E00004F003FF04F078FF384B18601D2801DC5D
:1035F0001E221A60354B1B68FA2B72DD334BFA2200
:103600001A606EE02B4B4C221A704B3A00214C2072
:10361000FEF73CFED9E7274B42221A70413A0021BF
:103620004220FEF733FED0E7224B46221A70453A7D
:1036300000214620FEF72AFEC7E71E4B55221A70CE
:10364000543A00215520FEF721FEBEE7194B4422D3
:103650001A70433A00214420FEF718FEB5E7154BD7
:1036600072221A70713A00217220FEF70FFEACE749
:10367000104B71221A70703A00217120FEF706FE7D
:10368000A3E70C4B73221A70723A00217320FEF7E5
:10369000FDFD9AE7074B74221A70733A00217420DB
:1036A000FEF7F4FD91E7C046D7230020CC2300208D
:1036B0007C210020D8230020AC110020882300208A
:1036C000E1230020CC06002000002041A42300209C
:1036D0000023CF4A1370CF4A1370CF4A1360CF4AEA
:1036E0001360CF4B1B78002B05D0D0231B065B68E3
:1036F0005B0400D5B5E0CA4B1B78002B05D0D02366
:103700001B065B685B0400D41AE1C64B1B78002BD8
:1037100005D0D0231B065B68DB0400D418E1C24B44
:103720001B78002B05D0D0231B065B68DB0600D47A
:1037300021E1BE4B1B78002B05D0D0231B065B6814
:103740009B0400D42AE1BA4B1B78002B05D0D02370
:103750001B065B68DB0300D433E1B64B1B78002B00
:1037600005D0D0231B065B681B0400D43CE1B24BA0
:103770001B78002B05D0D0231B065B685B0100D4AF
:1037800084E1AE4B1B78002B0ED0D0231B065B6868
:103790005B0309D4A24B1B78002B00D189E1A74B16
:1037A00000221A70FEF794FAA54B1B78002B0ED05E
:1037B000D0231B065B689B0309D4994B1B78002B15
:1037C00000D184E19E4B00221A70FEF781FA9D4BD6
:1037D0001B78002B0ED0D0231B065B689B0209D4FC
:1037E0008F4B1B78002B00D17FE1964B00221A7083
:1037F000FEF76EFA944B1B78002B0ED0D0231B06DD
:103800005B681B0109D4864B1B78002B00D17AE141
:103810008D4B00221A70FEF75BFA8C4B1B78002B45
:1038200005D0D0231B065B689B0300D479E1884B4D
:103830001B78002B00D1A3E1D0231B065B685B0340
:1038400000D59DE1834B1B78012B00D18AE2022B2E
:1038500000D18BE2002B00D179E17F4B31221A702D
:1038600078E17E4B03221A70FEF732FAD0231B0652
:103870005B689B0302D5754B01221A70D0231B068F
:103880005B685B0302D5724B01221A70D0231B06C2
:103890005B68DB0502D5724B01221A70D0231B0630
:1038A0005B689B0502D56F4B01221A70D0231B0663
:1038B0005B685B0602D56C4B01221A70D0231B0695
:1038C0005B681B0602D5694B01221A70D0231B06C8
:1038D0005B681B0502D5664B01221A70D0231B06BC
:1038E0005B685B0502D5634B01221A70D0231B066F
:1038F0005B681B0102D5604B01221A70D0231B06A6
:103900005B689B0202D55D4B01221A70D0231B0617
:103910005B681B0302D55A4B01221A70D0231B0689
:103920005B68DB0202D5574B01221A70D0231B06BD
:103930005B689B0600D4DEE6534B01221A70DAE680
:103940000023374A1370454A1370FEF7C1F9DCE6CD
:10395000414B92221A70913A01219220FEF796FC77
:10396000D0231B06802292045A612E4B00221A702B
:10397000FEF7AEF9D3E6384B91221A70903A012146
:103980009120FEF783FCD0231B06802292045A610B
:10399000254B00221A70FEF79BF9CAE62E4B9022A7
:1039A0001A708F3A01219020FEF770FCD0231B067D
:1039B000802292045A611D4B00221A70FEF788F98A
:1039C000C1E6254B9B221A709A3A01219B20FEF7F3
:1039D0005DFCD0231B06802292045A61144B002206
:1039E0001A70FEF775F9B8E61B4B9A221A70993ACD
:1039F00001219A20FEF74AFCD0231B068022920464
:103A00005A610C4B00221A70FEF762F9AFE6C0460D
:103A1000CC230020E12300207C210020A4230020CF
:103A2000D7230020CD230020CF230020CE23002049
:103A3000E8230020EA230020E9230020E0230020DF
:103A4000D0230020EB230020D2230020D523002008
:103A5000D6230020CA230020D8230020E7230020FB
:103A6000DB230020DE230020DF230020D9230020D9
:103A7000DD230020DC230020DA230020EC230020BB
:103A8000E5230020EE230020D1230020DA4B9922E9
:103A90001A70983A01219920FEF7F8FBD0231B06F3
:103AA000802292045A61D54B00221A70FEF710F959
:103AB00067E6D14B4D221A704C3A01214D20FEF79A
:103AC000E5FBD0231B06802292045A6167E6CA4BAD
:103AD00043221A70423A01214320FEF7D7FBD0233C
:103AE0001B06802292045A616CE6C34B9E221A7018
:103AF0009D3A01219E20FEF7C9FBD0231B068022A0
:103B000092045A6171E6BC4B48221A70473A01216F
:103B10004820FEF7BBFBD0231B06802292045A618B
:103B200076E6B54B6D221A706C3A01216D20FEF7D6
:103B3000ADFBD0231B06802292045A61B04B0022B9
:103B40001A700A2001F030FDFEF7C2F86FE6AA4BAA
:103B500031221A70A84B187801220121FEF796FB3A
:103B6000D0231B06802252059A61802292045A615A
:103B7000A44B00221A700A2001F016FDFEF7A8F8E7
:103B8000A14B1B78002B05D0D0231B065B68DB05FF
:103B900000D4EFE09D4B1B78002B05D0D0231B06F3
:103BA0005B689B0500D4FBE0994B1B78002B05D08C
:103BB000D0231B065B685B0600D407E1954B1B789E
:103BC000002B05D0D0231B065B681B0600D44DE1FB
:103BD000914B1B78002B0FD0D0231B065B685B0535
:103BE00000D459E1844B7D221A707C3A00217D205B
:103BF000FEF74CFBFEF76CF8884B1B78002B0FD0C0
:103C0000D0231B065B681B0500D456E17A4B7C224F
:103C10001A707B3A00217C20FEF738FBFEF758F83B
:103C20007F4B1B78002B05D0D0231B065B689B02C3
:103C300000D453E17B4B1B78002B05D0D0231B060F
:103C40005B681B0100D45FE1774B1B78002B05D02C
:103C5000D0231B065B681B0300D46BE1734B1B78FE
:103C6000002B05D0D0231B065B68DB0200D477E174
:103C70006F4B1B78002B00D088E16E4B1C6863787B
:103C8000FF2B07D0617C08096B4A10700F220A4095
:103C90006A490A706A4A15686A78934205D1A2880F
:103CA000AB889A4201D1FFF7ABFA0120FEF7A6FBE1
:103CB000644B1A78644B1B789A4201D0FFF7F4FAF0
:103CC0005C4B1B685B78072B01D1FFF7F2FA5F4B67
:103CD0001B68002B0AD05E4A80235B00D35C2B2B31
:103CE00001D9FFF7EDFA594B00221A60D0231B06C9
:103CF0005B689B0601D5FFF7E7FAD0231B065B68DC
:103D00001B0301D5FFF7F3FAD0231B065B68DB0228
:103D100001D5FFF70FFBD0231B065B681B0401D402
:103D2000FFF72BFB4B4B01221A704B4B1B78002BE0
:103D300000D1CDE4494A1268062A00DC45E4484A2D
:103D40001278934200D140E4464A1268002A00DC0F
:103D500028E4414B1B78202B00D936E49B00424AD3
:103D6000D3589F46244B32221A70F3E6224B30225E
:103D70001A70EFE6204B1B221A701A3A01211B2001
:103D8000FEF784FAD0231B06802292045A611E4B50
:103D900000221A700A2001F007FCFDF799FFF9E6EE
:103DA000154B1A221A70193A01211A20FEF76EFAE1
:103DB000D0231B06802292045A61144B00221A70F1
:103DC0000A2001F0F1FBFDF783FFEDE60A4B182214
:103DD0001A70173A01211820FEF758FAD0231B0653
:103DE000802292045A610A4B00221A700A2001F0C4
:103DF000DBFBFDF76DFFE1E6D8230020E92300207F
:103E0000D5230020D6230020DB230020DE23002042
:103E1000DF230020D9230020DC230020DD23002025
:103E2000EC230020DA230020E5230020EE230020ED
:103E3000D1230020CC060020CA230020CB23002061
:103E4000D0060020E7230020E4230020B023002038
:103E5000AC110020EA230020CC2300207C2100208C
:103E6000E1230020A4230020E8E30010624B192284
:103E70001A70183A01211920FEF708FAD0231B0600
:103E8000802292045A615D4B00221A700A2001F0D0
:103E90008BFBFDF71DFF9BE6D0231B0680225205FE
:103EA0009A61802292045A61554B00221A700A20AE
:103EB00001F07AFBFDF70CFF9EE6D0231B06802263
:103EC00052059A61802292045A614E4B00221A7068
:103ED0000A2001F069FBFDF7FBFEA1E6464B8122BB
:103EE0001A70803A01218120FEF7D0F9D0231B06F9
:103EF000802292045A61444B00221A700A2001F079
:103F000053FBFDF7E5FE95E63B4B8E221A708D3A8A
:103F100001218E20FEF7BAF9D0231B0680229204DD
:103F20005A613A4B00221A700A2001F03DFBFDF75E
:103F3000CFFE89E6304B7F221A707E3A01217F2026
:103F4000FEF7A4F9D0231B06802292045A61304B5D
:103F500000221A700A2001F027FBFDF7B9FE7DE66A
:103F6000254B80221A707F3A01218020FEF78EF9BE
:103F7000D0231B06802292045A61264B00221A701D
:103F80000A2001F011FBFDF7A3FE71E6D0231B060A
:103F90005B689B0610D5204A1378507891781A04F4
:103FA000000202430A431D4C04212000FDF757FD87
:103FB0002000FDF74FFC60E6194C237801225340A6
:103FC0002370EFF3108672B680218025ED0249013F
:103FD000280008F0E9F986F31088FA2001F0E4FAE5
:103FE00001222100280008F0C7F90E4B00221A70A8
:103FF000FDF76EFE41E6C046D8230020D9230020FD
:10400000DC230020DD230020EC230020DA23002025
:10401000E5230020EE230020C006002050110020E0
:10402000E6230020D123002010B502490120FEF72D
:10403000ADF810BDFFFF0000F8B505001A4B98421F
:1040400002D01A4B984220D1002A24D0174EAC1B24
:1040500063425C41164863001F19BF003D50C319FD
:104060005A600A000121280000F0EAF92B68114A81
:104070001A631734B54214D00F49200000F044FBF6
:104080000121200000F028FBF8BD0C4B0C4A422116
:104090000C4801F0ADFF0C4B094A4321094801F0DF
:1040A000A7FF0A49E9E7C046E4060020EC06002025
:1040B000F020002064060000410100206CE50010A3
:1040C000DCE5001088E50010CCE50010510100206F
:1040D000F0B5DE4657464E464546E0B585B006008B
:1040E00010001C0002930EAB1A7803920F9D109FD4
:1040F00033680022DA663368596033680132DA6661
:10410000A246002398469B4600242BE03279002AE1
:1041100031D001222FE00399002901D000212EE0A7
:1041200001212CE03800A84703000443E4B2002B2F
:1041300006D13268526BD20602D4002DF2D1F6E7D6
:10414000002B09D13268802151588B4600291FD19C
:10415000002C2FD1C1451ED0002C33D10122944612
:10416000E0440198D0452DDA029A013A9146424640
:10417000002ACBD000229202C145CCD000214902B6
:104180000A43411C01910078316802430A61D4E777
:10419000526D01240EE0039A002ADDD10AE03800B6
:1041A000A84703000443E4B2002B06D13268526BE7
:1041B000920502D4002DF2D1F6E7002BCCD1326863
:1041C000126EC9E7002C09D0002B15D15B46002BDD
:1041D00016D0DB0718D45B461B0709D5039B337148
:1041E000404605B0F0BCBB46B246A946A046F0BD6D
:1041F00002235B429846F1E701235B429846EDE7D4
:1042000002235B429846E9E702235B429846E5E7D2
:10421000F0B5DE4657464E464546E0B583B005004C
:1042200091469A460CAB1B7801930D9E0E9F036836
:104230000022DA660368596003680132DA66D34601
:104240000023984600242AE02979002933D001214F
:1042500031E00198002801D0002030E001202EE05C
:104260003800B04703000443E4B2002C0DD12A68A3
:10427000926F002A09D12A6880215158546D621E1C
:104280009441E4B2002EEBD1EFE7002C1ED12A6856
:10429000126949460A7001229446E044E144D84537
:1042A00014DA5246541E2A68516F1029FBD0414639
:1042B0000029C9D0002189024445CAD0002040020B
:1042C00008438021490001431161D4E7002C04D048
:1042D000002B0CD001235B429846019B2B7140467A
:1042E00003B0F0BCBB46B246A946A046F0BD0223CF
:1042F0005B429846F1E70000F0B5D6464F46464689
:10430000C0B505000C00052001F0AAFF06006008FA
:104310008019210003F0CCF907004300994681443D
:104320000521484603F0C4F980463B1A9A46284BBB
:104330009C4224D870008019264903F0B9F9441C26
:104340004346023BA34221D32B680022DA66296848
:104350000A680423534006221A4080235B010B4362
:104360001A602B685246DA612B6842461A624B4645
:104370004F2B11D95021484603F09AF90DE07000F7
:104380008019154903F094F9441CD9E7134B144ADA
:104390005F21144801F02CFE0120A0232A68D05090
:1043A0002A6811007C31D06F44402404240C8023FF
:1043B0005B010B431C602B680122DA663900300078
:1043C00003F076F9E0BCBA46B146A846F0BDC04657
:1043D0003F420F008096980040787D01ECE5001088
:1043E00058E600100CE6001010B5114B98421CD096
:1043F0001022104B1A60104B1A60104B9B6814006F
:104400009C43231EF9D104710268D46602686624B5
:10441000FF3414600268D363026893638833032215
:104420000468E250FFF768FF10BD0822E1E7C046CC
:10443000E406002000E0004000F0004000C0004022
:1044400010B503680024DC6600290BD0C0239B0153
:1044500001680B434121196003689A6003680122D7
:10446000DA6610BD80239B010268134341221A6063
:10447000F4E730B585B008AC2578002402940194A7
:104480000095FFF725FE05B030BD30B585B008AC0E
:1044900025780024029401940095FFF7B9FE05B039
:1044A00030BD0000EFF3108072B6034B1B68002B89
:1044B000FBD0BFF35F8F70472C0100D0BFF35F8F3D
:1044C000024B00221A6080F3108870472C0100D044
:1044D000F8B506000C001500FFF7E4FFE308F71835
:1044E000F15C07222240012393400B4205D1DBB24D
:1044F0000B433B70FFF7E2FFF8BD2100280001F0FD
:1045000095FDF0B583B00600019114001F00FFF780
:10451000C9FF00E00134BC420CD8E308F518F35C95
:104520000721214001228A401A42F3D1D2B21A4314
:104530002A7001E001246442FFF7C0FF002C02DB77
:10454000200003B0F0BD019B002BF9D0089801F0CA
:104550006DFD000070B505000C00FFF7A3FFE30838
:10456000EE18EA5C07210C400123A340134204D05B
:104570009A433270FFF7A2FF70BD034B034A2C3100
:10458000034801F035FDC0466CE60010DCE6001083
:104590008CE60010034B1B6802201840431E984114
:1045A000C0B2704700C00640002307E0054A9A18D1
:1045B0009200BFF35F8F0021116001331F2BF5D9EB
:1045C0007047C04640000034054A1078431CDBB2F7
:1045D0001370172B02D9130010221A707047C046AF
:1045E000F406002000B583B00100044B00931F23A4
:1045F00018220348FFF785FF03B000BDECE600106A
:104600004C1C0020074B9B68103080001950BFF3F2
:104610005F8FBFF35F8F044B0021196082F3108816
:104620007047C04600ED00E0240100D010B5091A23
:1046300004394808090B05D14005400D044B1843C7
:1046400080B210BD034B044A8C21044801F0D0FC19
:1046500000E0FFFF08E7001028E9001018E700104D
:1046600010B5091A04394C08090B08D14905490D40
:10467000064A11430180064B2343438010BD054B7E
:10468000054A9421054801F0B3FCC04600F0FFFF45
:1046900000F8FFFF08E70010FCE8001018E7001022
:1046A00001238340034A10681840431E9841C0B25A
:1046B0007047C04600E100E0002904D0034B1860B9
:1046C000034B18607047034B1860FBE780E200E083
:1046D00000E100E080E100E010B501238340180014
:1046E000FFF7EAFF10BD000001238340014A136079
:1046F0007047C04600E200E0024B9B68103080002B
:10470000C058704700ED00E070B504000D00EFF3F5
:10471000108672B60C4B1B68002BFBD0BFF35F8F6B
:104720002000FFF7E9FF094B984201D0A84205D1CC
:10473000320029002000FFF765FF70BD044B054AD9
:104740007021054801F054FC240100D0CD01001077
:1047500064E7001044E9001018E70010F0B5CE46F9
:10476000474680B583B006000D00EFF3108872B69F
:10477000574B1B68002BFBD0BFF35F8F554B9A68DC
:1047800034001034A300D758534B9F4207D0AF4298
:1047900000D19BE00197514BFB1A2F2B09D94246C0
:1047A00039003000FFF72EFF03B0C0BCB946B04659
:1047B000F0BD3000FFF774FF814600213000FFF7A5
:1047C0008BFFBFF35F8FFBF74EFD002801D08442C3
:1047D00019D10123019C9C43230040495B1A5B4192
:1047E00048495943090D49B20022A368AB4212D08F
:1047F0000622A256002A0DDB53009B189B002200C4
:10480000364CE418F1E72021354B364AFF31364863
:1048100001F0EEFB2200AB4251D106256557002D79
:1048200039DB6B005B199A002C4B9B189A68A260CD
:10483000DA79E27106229A56A2719B795BB2002B5B
:1048400010DABD200002A0806B005B199B00234A98
:10485000D318264A11789971157049463000FFF730
:104860003BFF9CE7201D6B005B199B001B4A9B18BC
:104870001A1D9B88D90A1C2907D15B055B150233D9
:1048800059005118FFF7D2FEDDE7194B194A9A215A
:10489000154801F0ADFB00280CD1002A08D0FF23F9
:1048A0009371154B9380114B1A78A2711970D4E74C
:1048B000094FF8E7201D1149FFF7D2FECDE7AA21E5
:1048C0000F4B084A4900084801F092FB024F66E787
:1048D000240100D000ED00E0CD010010F80600201A
:1048E00078E8001014E9001018E70010D323002026
:1048F00060E8001034E9001000BDFFFF320700201F
:104900009CE80010AAAA000010B5032304009C43F1
:10491000064A9446644422681840C000FC33834031
:104920009A43130081400B43236010BD00E400E074
:1049300070B50400012606432D4BF31A2F2B28D8FF
:10494000FBF791FC00282BD0EFF3108C72B6294BAB
:104950001B68002BFBD0BFF35F8F2300244D5B1B34
:104960005B412E4D5D432D0D6DB2234B9B68800046
:104970001B58B3421BD00022032A32D853009B1885
:104980009B001B49CB189B795BB2AB421FD0013215
:10499000F2E77221194B1A4AFF311A4801F028FB3D
:1049A000BA21194B164A4900164801F021FB124B57
:1049B0009B68164A1A50164B1A78A2711D70BFF3E5
:1049C0005F8F0C4B00221A608CF3108870BD0800BA
:1049D0005300991889004118FF268E710D4A8A806C
:1049E000E9E786210C4B064AFF31064801F000FB3F
:1049F000F8060020240100D000ED00E0A4E800103B
:104A0000E0E8001018E70010CCE80010CD0100101D
:104A1000D323002000BDFFFFD8E80010AAAA0000A1
:104A200010B5002404E080212000FFF76DFF013461
:104A30001F2CF8D910BD0000024B9C466144890030
:104A4000016070474000003410B50C00CB68834211
:104A500007D108000B699847002809D020686168D1
:104A600010BD9021054B064A4900064801F0C0FAE6
:104A70000023E36000200021F2E7C04660E9001057
:104A8000D8EB001074E9001070B505000C000800A8
:104A900000F01AFE200000F0FFFE0849200000F0A0
:104AA0003FFEFFF791FD064B9C4660448000686026
:104AB0002C75A400034BE55070BDC046CD4D0010D1
:104AC00040000034342100200A4B1A68EFF31081B3
:104AD00072B61368002BFCD0BFF35F8F054B1B68C9
:104AE000BFF35F8F00221A6081F3108840BF00205F
:104AF000002170478423002010B5002922D00368CC
:104B00001B7B99421ED8174B9C4661440901836860
:104B10009C4661440C684968002A19D003681B7BD5
:104B20009A4215D883680F488446624412019A1845
:104B300010685368020001208B4201D80ED000207B
:104B4000C0B210BD084B094A3B21094801F050FA98
:104B5000054B064A3B21064801F04AFAA242EFD82B
:104B6000EDE7C046FFFFFF0FB8E9001040EC001072
:104B700074E9001010B500291ED0037B99421BD8A0
:104B80004B005B18033B0468A4466344002919D01A
:104B9000002A1DD0914221D0002A25D0047BA242B8
:104BA00022D80468500080180338201881701978C2
:104BB00000291FD11A7010BD104B114A69211148EC
:104BC00001F016FA104B114A70310E4801F010FA3C
:104BD0000F4B0E4A71210B4801F00AFA0D4B0B4A9C
:104BE0007221084801F004FA044B054A692105487E
:104BF00001F0FEF941701A70DDE7C046ECE90010E3
:104C0000ACEC001008EA001060EA001088EC00101C
:104C10006CEA001078EA001070B506000D00140070
:104C2000002914D0002A14D080687368984700289F
:104C300006D0220029003000FFF79CFF280007E083
:104C40002A0021003000FFF795FF200000E010004F
:104C500070BD0800FCE70000F0B583B005000092CD
:104C600001930AAB1C780BAB1F78002C26D003688D
:104C70005A7B944207D10123002B19D1002C3BD140
:104C8000200003B0F0BD002C0CD01A7B944209D850
:104C90001A6863001B19033BD3189B78002BEBD0D9
:104CA0000123E9E73E4B3F4A69213F4801F0A0F963
:104CB0003E4B3F4A65213F4801F09AF903689C7BCF
:104CC000002CDBD012D01A7B94420FD8620012194C
:104CD000033A19688C46624451789973002900D1CF
:104CE000D9730023937053701370C7E72C4B2D4A70
:104CF00069212D4801F07CF9002C3AD02B681B7BF0
:104D00009C4236D82C4BE3181B01AA689446634496
:104D1000009A1A60019A5A60089A9A60099ADA60B1
:104D20002E68002C2BD030D0337B9C422DD86300D2
:104D30001B19033B32689446634400229A705A70F0
:104D40001A70717B22003000FFF766FF7073844297
:104D500000D095E7287D009A019B00F029FD061EF2
:104D600001D0002F17D00C9B002B00D188E71E70BC
:104D700086E7124B124A3B210E4801F039F9114BDC
:104D8000114AA621084801F033F9054B054A69216B
:104D9000054801F02DF92868210000F031FFE2E715
:104DA000ECE90010ACEC001008EA001090EA0010EA
:104DB000B8EC001074E90010FFFFFF0FB8E9001015
:104DC00040EC001070E900109CEC0010F0B5DE46DD
:104DD00057464E464546E0B58BB0099000230893F0
:104DE0008200B24BD658370032E0B14BB14A3D2178
:104DF000B14801F0FDF8B14BB14A3B21B14801F097
:104E0000F7F8B14BB14A8C21AE4801F0F1F8B04B44
:104E1000AE4A9021AB4801F0EBF8A84BAD4A4021D7
:104E2000A84801F0E5F82A686B68099800F0C0FC12
:104E300000239A4698467B68BFF35F8F00221A6072
:104E400086F310884346002B51D1002800D126E17B
:104E500000F046FC02000B1EC7DB0020002106907C
:104E600007917868EFF3108672B601680029FCD0CC
:104E7000BFF35F8F396888464C7B002C32D0BAD0A4
:104E8000097B8C42B7D8944965182D01B9688C46C6
:104E9000654428686968801A99410029C3DC01D1FA
:104EA0000028C0D10021404600F0A0FEA042A8D1B9
:104EB0002A686B6806920793AB689846EB689A4637
:104EC0004346002BA3D0002CA7D03B681B7B9C4201
:104ED000A3D8631EFA68D35C08931B021843386199
:104EE0000020A8E700239A4698460020A3E7089BE5
:104EF0001B022343994651461800C04705000E0087
:104F00007A68EFF3108B72B6136859424B41D9B2ED
:104F1000002BF9D1BFF35F8F002E26DB002E52DD70
:104F20003B69002B53D04B4572D100F0D9FB0200F6
:104F30000B1E73DB0100180052197341984202D80E
:104F400004D1914202D901225242D317002B6BDBCC
:104F5000002104910131039102945146019141468F
:104F600000913800FFF778FE49E03B69002BD5D06F
:104F70004B451CD1069A079B10001900521BB341E8
:104F8000994202D804D1904202D901225242D31749
:104F9000002B12DB00210491013103910294514650
:104FA0000191414600913800FFF756FE27E04B4B38
:104FB000464A9F21434801F01BF83D4B3D4A3D21A5
:104FC0003D4801F015F8002E01D1002DA8D13A6816
:104FD000002C45D0537B9C422CD1012100293FD18C
:104FE000D37B002B42D1D473002C52D03B681B7B67
:104FF0009C424ED8FA68013C135D013313550023DF
:105000003B617A68BFF35F8F13608BF310881FE7F3
:10501000324B2E4AA2212B4800F0EAFF244B254AAE
:105020003D21254800F0E4FF214B224A3D21224842
:1050300000F0DEFF002C0DD0137B9C420AD86300E9
:105040001B19033B1068844663449B78002BC5D032
:105050000121C3E7224B234A6921234800F0C8FFFE
:10506000224B234AF721204800F0C2FF002B0AD030
:10507000117B8B4207D85900CB18033B11688C4633
:1050800063445C70AFE7164B164A6921164800F07E
:10509000AFFF0A4B0F4A40210A4800F0A9FF0BB0AE
:1050A000F0BCBB46B246A946A046F0BD3421002064
:1050B000BCE000100CEC001010E10010B8E900108A
:1050C00040EC001074E90010B8EA001024EC001065
:1050D000D0EA001064EC0010FFFFFF0FDCEA0010C4
:1050E000ECE90010ACEC001008EA001018EB00101E
:1050F00078EC001010B50A4B5B68002B04D00A2135
:105100000848FFF799FC10BD054C2300064A102102
:10511000206800F08BFC03212000FFF7B5FCEEE7D0
:105120004007002084230020F94A001010B5064BE8
:105130005B68002B01D0044810BD044B044A5C217D
:10514000044800F055FFC046400700203CEB00102B
:105150004CEC001074E90010F0B5DE4657464E46A0
:105160004546E0B58BB0804616001F00149B9A465A
:10517000159B994616AB1B789B461F2302AA9446A3
:10518000634400221A7032E0002809D042461268B7
:10519000127B904204D8421E4146C9688A5C48E0AE
:1051A000434B444A4021444800F022FF0798002B1B
:1051B00075D05B46002B72D04946D04704000D00E5
:1051C00003000B4300D171E0002946DB00F088FAB0
:1051D00006000F1E55DB36196F41B94202D804D1C3
:1051E000B04202D901267642F717002F4FDB434623
:1051F0005A68EFF3108472B6136859424B41D9B222
:105200000791002BF8D1BFF35F8F1F3302AA94469A
:10521000634404930023039302934B460193534644
:10522000009332003B004046FFF716FD031EABD152
:10523000020041464968BFF35F8F00250D6084F38B
:105240001088002B29D01F2302A98C4663441B78A9
:10525000002BABD112021043A9E732003B00361BF2
:10526000AF41BB4202D804D1B24202D901267642F4
:10527000F717002FBBDA114B114A3D21114800F0FE
:10528000B7FE0E4B0E4A3D210E4800F0B1FE0B4B0F
:105290000B4A3D210B4800F0ABFE012040420BB011
:1052A000F0BCBB46B246A946A046F0BD0798F6E75B
:1052B000B8E9001064EC001074E90010BCE00010C4
:1052C0000CEC001010E10010F8B504004268EFF398
:1052D000108572B6136858424341D8B2002BF9D1F9
:1052E000BFF35F8FCBB22268567BB3421BD1012044
:1052F000002847D0206988422BD0090AC9B2002B68
:105300002DD02068007B834229D8581EE668305C87
:1053100088422AD000206368BFF35F8F00221A60A2
:1053200085F31088F8BD002B0DD0167BB3420AD848
:105330005E00F618033E1768BC466644B678002E39
:10534000D6D00120D4E7124B124A6921124800F04E
:105350004FFE124B124AFE21124800F049FE124B3A
:10536000124A40210F4800F043FE1900100000F0DF
:1053700047FC0028CFD106210D4B094AFF310948CF
:1053800000F036FE23698B42C5D100232361C2E7BA
:10539000ECE90010ACEC001008EA001060EB001023
:1053A000F4EB001074E90010B8E9001064EC001090
:1053B00084EB0010F0B585B00700100019000C9EBA
:1053C00013000B4301D101200021B7600A9B336118
:1053D000306071600B9B7361CA171300504004006A
:1053E00051400D00A41A9D4100F07AF902000B1EF5
:1053F0001BDB0100180012196B41984202D804D13E
:10540000914202D901225242D317002B13DB012112
:10541000029101960B4900913800FFF79DFEF06064
:10542000C317181AC00F05B0F0BD074B074A3D213E
:10543000074800F0DDFD044B044A3D21044800F01C
:10544000D7FDC046494A0010BCE000100CEC00102B
:1054500010E10010F0B587B006000F00FAF703FF67
:1054600000281FD106246442E517A4197D41BD42DE
:1054700002D803D1B44201D900240025002D14DB49
:105480000494059500F02CF902000B1E13DBA41AFE
:105490009D41002D17DC14D03000390000F02CF9AC
:1054A00007B0F0BD234800F0C1FD234B234A3D2146
:1054B000234800F09DFD204B204A3D21204800F06C
:1054C00097FD002CE8D0FFF731FE002302930193F3
:1054D0001C4B0093049A059BFFF73EFE002818DA48
:1054E000DAE7002300E00023002BD5D1164B1A6821
:1054F000EFF3108172B61368002BFCD0BFF35F8FFF
:10550000114B1B68BFF35F8F00221A6081F3108874
:1055100020BF0499059A0D4B5B6A9A42E3D80B4869
:10552000806A884203D29A42DBD00123DCE7012360
:10553000DAE7C04688EB0010BCE000100CEC00106D
:1055400010E10010C94A00108423002000400540EB
:10555000F8B504000D0000F0C3F802000B1E10DBCC
:1055600020002900801859418B4202D804D1824280
:1055700002D901204042C117002908DBFFF76AFF6A
:10558000F8BD064B064A3D21064800F031FD034BAD
:10559000034A3D21034800F02BFDC046BCE000104B
:1055A0000CEC001010E1001010B5FA22920000235C
:1055B000002102F0F3FEFFF7CBFF10BD70B584B001
:1055C00006000C00FFF7B2FD002302930193194B74
:1055D000009332002300FFF7BFFD051E11DD20BF41
:1055E000FFF7A4FD2900FFF76FFE134B5B6A9C4297
:1055F0001BD8114A926AB2421AD29C4213D001209F
:1056000014E00D4B5B6A9C4209D80B4A926AB24285
:1056100007D29C4201D0012008E0002006E00020D3
:1056200004E0012002E0002000E0002004B070BD92
:105630000120FBE7C94A00100040054070B5EFF3B8
:1056400005833F2018401038EFF3108C72B6194BC9
:105650001B68002BFBD0BFF35F8F01231900814033
:10566000154A5163154A12781400C440234214D0DD
:10567000114B5C6A8300124D5B599C4206D3830038
:10568000104C1B598A430D490A7007E00A4A031D52
:105690009B0099589950002300E00023BFF35F8FCF
:1056A000044A002111608CF31088002B00D0984729
:1056B00070BDC046280100D000400540ED23002009
:1056C00094230020341B002010B50100024A034837
:1056D000FEF7FEFE10BDC046D0EC0010C82300202F
:1056E000044B5B6A034A906A1900536A9942F9D1E4
:1056F0007047C04600400540084B5B6A01E0074B1D
:105700005B6A8B42FBD301E0044B5B6A8B4203D1A3
:10571000024B9B6A8342F7D37047C0460040054066
:1057200070B504000D00EFF3108672B61B4B1B68BA
:10573000002BFBD0BFF35F8F002D1CD02000FEF7A5
:10574000DBFF174B83420BD019002000FEF7DCFF74
:1057500001212000FEF7C0FF0123A340114A13607E
:10576000A400114BE550BFF35F8F0C4B00221A6071
:1057700086F3108870BDA2000B4B0021D15001228E
:10578000A2400A490B7893430B7005492000FEF7AD
:10579000E5FF00212000FEF79FFFE4E7280100D08D
:1057A0003D56001038600540341B0020ED230020DA
:1057B000F0B5DE4600B584B00400150001921E006D
:1057C0000293FFF78DFF03958E4202D84ED185429A
:1057D0004CD9EFF3108B72B6274B1B68002BFBD014
:1057E000BFF35F8F254A17780125A540EBB23B43F5
:1057F0001370234B5D63221D92000199D150A200CA
:105800002049029850501B6A2B4212D11C4B1B6C32
:105810002B4208D00020BFF35F8F174B00221A6085
:105820008BF3108823E0184B184AC121184800F068
:10583000DFFBFFF755FF8E4214D802D1039B834252
:1058400010D80E4B1B78BB420ED00D4B1D625D6312
:105850001F2004400123A3400E4A1360074B1F7012
:105860001E38D8E70020D6E70120D4E7012004B095
:1058700080BCBB46F0BDC046280100D0ED2300200F
:105880000040054094230020F4EC001068ED001067
:1058900018ED001080E200E0EFF3108C72B60B4BB5
:1058A0001B68002BFBD0BFF35F8F01238340084AA6
:1058B000136208490A789A430A70BFF35F8F034B5B
:1058C00000221A608CF310887047C046280100D06F
:1058D00000400540ED23002010B500291ED0037BB9
:1058E00099421BD84B005B18033B0468A4466344F1
:1058F000002919D0002A1DD0914221D0002A25D09C
:10590000047BA24222D80468500080180338201873
:105910008170197800291FD11A7010BD104B114ADF
:105920006921114800F064FB104B114A70310E4898
:1059300000F05EFB0F4B0E4A71210B4800F058FB44
:105940000D4B0B4A7221084800F052FB044B054AEC
:105950006921054800F04CFB41701A70DDE7C04634
:10596000ECE9001080EE001008EA001060EA001078
:105970006CEE00106CEA001078EA001070B50600BA
:105980000D001400002914D0002A14D08068736818
:105990009847002806D0220029003000FFF79CFF1E
:1059A000280007E02A0021003000FFF795FF2000C3
:1059B00000E0100070BD0800FCE7000010B50023F7
:1059C000437301338373037BC3730123027B9A42C6
:1059D00014D9002B0CD0027B934209D85A00D2185C
:1059E000033A01688C4662440133DBB25370EDE741
:1059F0000B4B0C4A69210C4800F0FAFA002A09D036
:105A0000924207D8016853009A18033A8A18002373
:105A1000537010BD024B034A6921034800F0E8FAB5
:105A2000ECE9001080EE001008EA001010B50173D8
:105A300042608360FFF7C2FF10BD000070B5040034
:105A4000081E00D170BD002934D0237B994231D883
:105A50004B005B18033B2268944663445A78002A43
:105A6000F0D02DD0237B9A422AD853009B18033BB9
:105A700021688C4663445D7800215970002825D048
:105A8000237B984222D843001B18033B21688C4695
:105A900063440021597001002000FFF76FFF0600EA
:105AA00029002000FFF7CAFF020031002000FFF7A5
:105AB00065FFC7E7084B094A6921094800F098FAD1
:105AC000054B064A6921064800F092FA024B034A48
:105AD0006921034800F08CFAECE9001080EE001018
